{
	"contracts/Pokemon.sol": {
		"Pokemon": {
			"abi": [
				{
					"inputs": [],
					"stateMutability": "nonpayable",
					"type": "constructor"
				},
				{
					"inputs": [
						{
							"internalType": "address",
							"name": "",
							"type": "address"
						},
						{
							"internalType": "address",
							"name": "",
							"type": "address"
						}
					],
					"name": "allowance",
					"outputs": [
						{
							"internalType": "uint256",
							"name": "",
							"type": "uint256"
						}
					],
					"stateMutability": "view",
					"type": "function"
				},
				{
					"inputs": [
						{
							"internalType": "address",
							"name": "spender",
							"type": "address"
						},
						{
							"internalType": "uint256",
							"name": "amount",
							"type": "uint256"
						}
					],
					"name": "approve",
					"outputs": [
						{
							"internalType": "bool",
							"name": "",
							"type": "bool"
						}
					],
					"stateMutability": "nonpayable",
					"type": "function"
				},
				{
					"inputs": [
						{
							"internalType": "address",
							"name": "account",
							"type": "address"
						}
					],
					"name": "balanceOf",
					"outputs": [
						{
							"internalType": "uint256",
							"name": "",
							"type": "uint256"
						}
					],
					"stateMutability": "view",
					"type": "function"
				},
				{
					"inputs": [
						{
							"internalType": "address",
							"name": "",
							"type": "address"
						}
					],
					"name": "balances",
					"outputs": [
						{
							"internalType": "uint256",
							"name": "",
							"type": "uint256"
						}
					],
					"stateMutability": "view",
					"type": "function"
				},
				{
					"inputs": [
						{
							"internalType": "uint256",
							"name": "amount",
							"type": "uint256"
						}
					],
					"name": "burn",
					"outputs": [],
					"stateMutability": "nonpayable",
					"type": "function"
				},
				{
					"inputs": [],
					"name": "buyPokemon",
					"outputs": [],
					"stateMutability": "nonpayable",
					"type": "function"
				},
				{
					"inputs": [],
					"name": "checkapprove",
					"outputs": [
						{
							"components": [
								{
									"internalType": "string",
									"name": "url",
									"type": "string"
								},
								{
									"internalType": "string",
									"name": "name",
									"type": "string"
								}
							],
							"internalType": "struct Pokemon.Pokens[]",
							"name": "",
							"type": "tuple[]"
						}
					],
					"stateMutability": "view",
					"type": "function"
				},
				{
					"inputs": [],
					"name": "decimals",
					"outputs": [
						{
							"internalType": "uint8",
							"name": "",
							"type": "uint8"
						}
					],
					"stateMutability": "view",
					"type": "function"
				},
				{
					"inputs": [],
					"name": "getPokemon",
					"outputs": [
						{
							"components": [
								{
									"internalType": "string",
									"name": "url",
									"type": "string"
								},
								{
									"internalType": "string",
									"name": "name",
									"type": "string"
								}
							],
							"internalType": "struct Pokemon.Pokens[]",
							"name": "",
							"type": "tuple[]"
						}
					],
					"stateMutability": "view",
					"type": "function"
				},
				{
					"inputs": [],
					"name": "getPokemonUsers",
					"outputs": [
						{
							"components": [
								{
									"internalType": "address",
									"name": "account",
									"type": "address"
								}
							],
							"internalType": "struct Pokemon.Users[]",
							"name": "",
							"type": "tuple[]"
						}
					],
					"stateMutability": "view",
					"type": "function"
				},
				{
					"inputs": [],
					"name": "name",
					"outputs": [
						{
							"internalType": "string",
							"name": "",
							"type": "string"
						}
					],
					"stateMutability": "view",
					"type": "function"
				},
				{
					"inputs": [
						{
							"internalType": "address",
							"name": "",
							"type": "address"
						},
						{
							"internalType": "uint256",
							"name": "",
							"type": "uint256"
						}
					],
					"name": "pokemons",
					"outputs": [
						{
							"internalType": "string",
							"name": "url",
							"type": "string"
						},
						{
							"internalType": "string",
							"name": "name",
							"type": "string"
						}
					],
					"stateMutability": "view",
					"type": "function"
				},
				{
					"inputs": [],
					"name": "symbol",
					"outputs": [
						{
							"internalType": "string",
							"name": "",
							"type": "string"
						}
					],
					"stateMutability": "view",
					"type": "function"
				},
				{
					"inputs": [],
					"name": "totalSupply",
					"outputs": [
						{
							"internalType": "uint256",
							"name": "",
							"type": "uint256"
						}
					],
					"stateMutability": "view",
					"type": "function"
				},
				{
					"inputs": [
						{
							"internalType": "address",
							"name": "to",
							"type": "address"
						},
						{
							"internalType": "uint256",
							"name": "amount",
							"type": "uint256"
						}
					],
					"name": "transfer",
					"outputs": [
						{
							"internalType": "bool",
							"name": "",
							"type": "bool"
						}
					],
					"stateMutability": "nonpayable",
					"type": "function"
				},
				{
					"inputs": [
						{
							"internalType": "address",
							"name": "sender",
							"type": "address"
						},
						{
							"internalType": "address",
							"name": "to",
							"type": "address"
						},
						{
							"internalType": "uint256",
							"name": "amount",
							"type": "uint256"
						}
					],
					"name": "transferFrom",
					"outputs": [
						{
							"internalType": "bool",
							"name": "",
							"type": "bool"
						}
					],
					"stateMutability": "nonpayable",
					"type": "function"
				},
				{
					"inputs": [
						{
							"internalType": "address",
							"name": "to_value",
							"type": "address"
						},
						{
							"internalType": "string",
							"name": "card",
							"type": "string"
						}
					],
					"name": "transferPokemon",
					"outputs": [
						{
							"components": [
								{
									"internalType": "string",
									"name": "url",
									"type": "string"
								},
								{
									"internalType": "string",
									"name": "name",
									"type": "string"
								}
							],
							"internalType": "struct Pokemon.Pokens[]",
							"name": "",
							"type": "tuple[]"
						}
					],
					"stateMutability": "nonpayable",
					"type": "function"
				},
				{
					"inputs": [
						{
							"internalType": "uint256",
							"name": "",
							"type": "uint256"
						}
					],
					"name": "users",
					"outputs": [
						{
							"internalType": "address",
							"name": "account",
							"type": "address"
						}
					],
					"stateMutability": "view",
					"type": "function"
				},
				{
					"stateMutability": "payable",
					"type": "receive"
				}
			],
			"devdoc": {
				"kind": "dev",
				"methods": {},
				"version": 1
			},
			"evm": {
				"assembly": "    /* \"contracts/Pokemon.sol\":86:4880  contract Pokemon is ERC20 {... */\n  mstore(0x40, 0x80)\n    /* \"contracts/ERC20.sol\":321:323  18 */\n  0x12\n    /* \"contracts/ERC20.sol\":297:323  uint8 public decimals = 18 */\n  0x02\n  exp(0x0100, 0x00)\n  dup2\n  sload\n  dup2\n  0xff\n  mul\n  not\n  and\n  swap1\n  dup4\n  0xff\n  and\n  mul\n  or\n  swap1\n  sstore\n  pop\n    /* \"contracts/Pokemon.sol\":685:695  1000 ether */\n  0x3635c9adc5dea00000\n    /* \"contracts/Pokemon.sol\":656:695  uint256 private tokenPrice = 1000 ether */\n  0x07\n  sstore\n    /* \"contracts/Pokemon.sol\":958:1015  string[] pokemonName = [\"Pikachu\", \"Kobuk\", \"Charmander\"] */\n  mload(0x40)\n  dup1\n  0x60\n  add\n  0x40\n  mstore\n  dup1\n  mload(0x40)\n  dup1\n  0x40\n  add\n  0x40\n  mstore\n  dup1\n  0x07\n  dup2\n  mstore\n  0x20\n  add\n  0x50696b6163687500000000000000000000000000000000000000000000000000\n  dup2\n  mstore\n  pop\n  dup2\n  mstore\n  0x20\n  add\n  mload(0x40)\n  dup1\n  0x40\n  add\n  0x40\n  mstore\n  dup1\n  0x05\n  dup2\n  mstore\n  0x20\n  add\n  0x4b6f62756b000000000000000000000000000000000000000000000000000000\n  dup2\n  mstore\n  pop\n  dup2\n  mstore\n  0x20\n  add\n  mload(0x40)\n  dup1\n  0x40\n  add\n  0x40\n  mstore\n  dup1\n  0x0a\n  dup2\n  mstore\n  0x20\n  add\n  0x436861726d616e64657200000000000000000000000000000000000000000000\n  dup2\n  mstore\n  pop\n  dup2\n  mstore\n  pop\n  0x08\n  swap1\n  0x03\n  tag_1\n  swap3\n  swap2\n  swap1\n  tag_2\n  jump\t// in\ntag_1:\n  pop\n    /* \"contracts/Pokemon.sol\":1082:1580  string[] pokemonUrl = [... */\n  mload(0x40)\n  dup1\n  0x60\n  add\n  0x40\n  mstore\n  dup1\n  mload(0x40)\n  dup1\n  0xa0\n  add\n  0x40\n  mstore\n  dup1\n  0x70\n  dup2\n  mstore\n  0x20\n  add\n  data_a898763da7c0f1b86a46ab0f35df6576bd1508b9da3ae9122420c1d6e071f810\n  0x70\n  swap2\n  codecopy\n  dup2\n  mstore\n  0x20\n  add\n  mload(0x40)\n  dup1\n  0x0100\n  add\n  0x40\n  mstore\n  dup1\n  0xce\n  dup2\n  mstore\n  0x20\n  add\n  data_455aba232d26d5789e4c3dca7dbaac14938e20e28948c431c48ef9dc0693aca5\n  0xce\n  swap2\n  codecopy\n  dup2\n  mstore\n  0x20\n  add\n  mload(0x40)\n  dup1\n  0xa0\n  add\n  0x40\n  mstore\n  dup1\n  0x70\n  dup2\n  mstore\n  0x20\n  add\n  data_8490e13ad8102c328437c8b036a629d6eb60438030c7f5aeec39368fd8b7016b\n  0x70\n  swap2\n  codecopy\n  dup2\n  mstore\n  pop\n  0x09\n  swap1\n  0x03\n  tag_3\n  swap3\n  swap2\n  swap1\n  tag_2\n  jump\t// in\ntag_3:\n  pop\n    /* \"contracts/Pokemon.sol\":119:167  constructor() ERC20(\"Pokemon\", \"PTK\", 100000) {} */\n  callvalue\n  dup1\n  iszero\n  tag_4\n  jumpi\n  0x00\n  dup1\n  revert\ntag_4:\n  pop\n    /* \"contracts/ERC20.sol\":1955:2422  constructor(string memory _name, string memory _symbol, uint256 _amount){... */\n  mload(0x40)\n  dup1\n  0x40\n  add\n  0x40\n  mstore\n  dup1\n  0x07\n  dup2\n  mstore\n  0x20\n  add\n  0x506f6b656d6f6e00000000000000000000000000000000000000000000000000\n  dup2\n  mstore\n  pop\n  mload(0x40)\n  dup1\n  0x40\n  add\n  0x40\n  mstore\n  dup1\n  0x03\n  dup2\n  mstore\n  0x20\n  add\n  0x50544b0000000000000000000000000000000000000000000000000000000000\n  dup2\n  mstore\n  pop\n    /* \"contracts/Pokemon.sol\":157:163  100000 */\n  0x0186a0\n    /* \"contracts/ERC20.sol\":2302:2312  msg.sender */\n  caller\n    /* \"contracts/ERC20.sol\":2294:2299  owner */\n  0x04\n  0x00\n    /* \"contracts/ERC20.sol\":2294:2312  owner = msg.sender */\n  0x0100\n  exp\n  dup2\n  sload\n  dup2\n  0xffffffffffffffffffffffffffffffffffffffff\n  mul\n  not\n  and\n  swap1\n  dup4\n  0xffffffffffffffffffffffffffffffffffffffff\n  and\n  mul\n  or\n  swap1\n  sstore\n  pop\n    /* \"contracts/ERC20.sol\":2330:2335  _name */\n  dup3\n    /* \"contracts/ERC20.sol\":2323:2327  name */\n  0x00\n    /* \"contracts/ERC20.sol\":2323:2335  name = _name */\n  swap1\n  dup2\n  tag_8\n  swap2\n  swap1\n  tag_9\n  jump\t// in\ntag_8:\n  pop\n    /* \"contracts/ERC20.sol\":2355:2362  _symbol */\n  dup2\n    /* \"contracts/ERC20.sol\":2346:2352  symbol */\n  0x01\n    /* \"contracts/ERC20.sol\":2346:2362  symbol = _symbol */\n  swap1\n  dup2\n  tag_10\n  swap2\n  swap1\n  tag_9\n  jump\t// in\ntag_10:\n  pop\n    /* \"contracts/ERC20.sol\":2373:2414  mint(_amount * (10 ** uint256(decimals))) */\n  tag_11\n    /* \"contracts/ERC20.sol\":2403:2411  decimals */\n  0x02\n  0x00\n  swap1\n  sload\n  swap1\n  0x0100\n  exp\n  swap1\n  div\n  0xff\n  and\n    /* \"contracts/ERC20.sol\":2395:2412  uint256(decimals) */\n  0xff\n  and\n    /* \"contracts/ERC20.sol\":2389:2391  10 */\n  0x0a\n    /* \"contracts/ERC20.sol\":2389:2412  10 ** uint256(decimals) */\n  tag_12\n  swap2\n  swap1\n  tag_13\n  jump\t// in\ntag_12:\n    /* \"contracts/ERC20.sol\":2378:2385  _amount */\n  dup3\n    /* \"contracts/ERC20.sol\":2378:2413  _amount * (10 ** uint256(decimals)) */\n  tag_14\n  swap2\n  swap1\n  tag_15\n  jump\t// in\ntag_14:\n    /* \"contracts/ERC20.sol\":2373:2377  mint */\n  shl(0x20, tag_16)\n    /* \"contracts/ERC20.sol\":2373:2414  mint(_amount * (10 ** uint256(decimals))) */\n  0x20\n  shr\n  jump\t// in\ntag_11:\n    /* \"contracts/ERC20.sol\":1955:2422  constructor(string memory _name, string memory _symbol, uint256 _amount){... */\n  pop\n  pop\n  pop\n    /* \"contracts/Pokemon.sol\":86:4880  contract Pokemon is ERC20 {... */\n  jump(tag_18)\n    /* \"contracts/ERC20.sol\":2430:2547  function mint(uint amount) internal {... */\ntag_16:\n    /* \"contracts/ERC20.sol\":2501:2507  amount */\n  dup1\n    /* \"contracts/ERC20.sol\":2477:2485  balances */\n  0x05\n    /* \"contracts/ERC20.sol\":2477:2497  balances[msg.sender] */\n  0x00\n    /* \"contracts/ERC20.sol\":2486:2496  msg.sender */\n  caller\n    /* \"contracts/ERC20.sol\":2477:2497  balances[msg.sender] */\n  0xffffffffffffffffffffffffffffffffffffffff\n  and\n  0xffffffffffffffffffffffffffffffffffffffff\n  and\n  dup2\n  mstore\n  0x20\n  add\n  swap1\n  dup2\n  mstore\n  0x20\n  add\n  0x00\n  keccak256\n  0x00\n    /* \"contracts/ERC20.sol\":2477:2507  balances[msg.sender] += amount */\n  dup3\n  dup3\n  sload\n  tag_20\n  swap2\n  swap1\n  tag_21\n  jump\t// in\ntag_20:\n  swap3\n  pop\n  pop\n  dup2\n  swap1\n  sstore\n  pop\n    /* \"contracts/ERC20.sol\":2533:2539  amount */\n  dup1\n    /* \"contracts/ERC20.sol\":2518:2529  totalSupply */\n  0x03\n  0x00\n    /* \"contracts/ERC20.sol\":2518:2539  totalSupply += amount */\n  dup3\n  dup3\n  sload\n  tag_22\n  swap2\n  swap1\n  tag_21\n  jump\t// in\ntag_22:\n  swap3\n  pop\n  pop\n  dup2\n  swap1\n  sstore\n  pop\n    /* \"contracts/ERC20.sol\":2430:2547  function mint(uint amount) internal {... */\n  pop\n  jump\t// out\n    /* \"contracts/Pokemon.sol\":86:4880  contract Pokemon is ERC20 {... */\ntag_2:\n  dup3\n  dup1\n  sload\n  dup3\n  dup3\n  sstore\n  swap1\n  0x00\n  mstore\n  keccak256(0x00, 0x20)\n  swap1\n  dup2\n  add\n  swap3\n  dup3\n  iszero\n  tag_23\n  jumpi\n  swap2\n  0x20\n  mul\n  dup3\n  add\ntag_24:\n  dup3\n  dup2\n  gt\n  iszero\n  tag_25\n  jumpi\n  dup3\n  mload\n  dup3\n  swap1\n  dup2\n  tag_26\n  swap2\n  swap1\n  tag_9\n  jump\t// in\ntag_26:\n  pop\n  swap2\n  0x20\n  add\n  swap2\n  swap1\n  0x01\n  add\n  swap1\n  jump(tag_24)\ntag_25:\ntag_23:\n  pop\n  swap1\n  pop\n  tag_27\n  swap2\n  swap1\n  tag_28\n  jump\t// in\ntag_27:\n  pop\n  swap1\n  jump\t// out\ntag_28:\ntag_29:\n  dup1\n  dup3\n  gt\n  iszero\n  tag_30\n  jumpi\n  0x00\n  dup2\n  dup2\n  tag_31\n  swap2\n  swap1\n  tag_32\n  jump\t// in\ntag_31:\n  pop\n  0x01\n  add\n  jump(tag_29)\ntag_30:\n  pop\n  swap1\n  jump\t// out\ntag_32:\n  pop\n  dup1\n  sload\n  tag_33\n  swap1\n  tag_34\n  jump\t// in\ntag_33:\n  0x00\n  dup3\n  sstore\n  dup1\n  0x1f\n  lt\n  tag_36\n  jumpi\n  pop\n  jump(tag_35)\ntag_36:\n  0x1f\n  add\n  0x20\n  swap1\n  div\n  swap1\n  0x00\n  mstore\n  keccak256(0x00, 0x20)\n  swap1\n  dup2\n  add\n  swap1\n  tag_37\n  swap2\n  swap1\n  tag_38\n  jump\t// in\ntag_37:\ntag_35:\n  pop\n  jump\t// out\ntag_38:\ntag_39:\n  dup1\n  dup3\n  gt\n  iszero\n  tag_40\n  jumpi\n  0x00\n  dup2\n  0x00\n  swap1\n  sstore\n  pop\n  0x01\n  add\n  jump(tag_39)\ntag_40:\n  pop\n  swap1\n  jump\t// out\n    /* \"#utility.yul\":7:106   */\ntag_41:\n    /* \"#utility.yul\":59:65   */\n  0x00\n    /* \"#utility.yul\":93:98   */\n  dup2\n    /* \"#utility.yul\":87:99   */\n  mload\n    /* \"#utility.yul\":77:99   */\n  swap1\n  pop\n    /* \"#utility.yul\":7:106   */\n  swap2\n  swap1\n  pop\n  jump\t// out\n    /* \"#utility.yul\":112:292   */\ntag_42:\n    /* \"#utility.yul\":160:237   */\n  0x4e487b7100000000000000000000000000000000000000000000000000000000\n    /* \"#utility.yul\":157:158   */\n  0x00\n    /* \"#utility.yul\":150:238   */\n  mstore\n    /* \"#utility.yul\":257:261   */\n  0x41\n    /* \"#utility.yul\":254:255   */\n  0x04\n    /* \"#utility.yul\":247:262   */\n  mstore\n    /* \"#utility.yul\":281:285   */\n  0x24\n    /* \"#utility.yul\":278:279   */\n  0x00\n    /* \"#utility.yul\":271:286   */\n  revert\n    /* \"#utility.yul\":298:478   */\ntag_43:\n    /* \"#utility.yul\":346:423   */\n  0x4e487b7100000000000000000000000000000000000000000000000000000000\n    /* \"#utility.yul\":343:344   */\n  0x00\n    /* \"#utility.yul\":336:424   */\n  mstore\n    /* \"#utility.yul\":443:447   */\n  0x22\n    /* \"#utility.yul\":440:441   */\n  0x04\n    /* \"#utility.yul\":433:448   */\n  mstore\n    /* \"#utility.yul\":467:471   */\n  0x24\n    /* \"#utility.yul\":464:465   */\n  0x00\n    /* \"#utility.yul\":457:472   */\n  revert\n    /* \"#utility.yul\":484:804   */\ntag_34:\n    /* \"#utility.yul\":528:534   */\n  0x00\n    /* \"#utility.yul\":565:566   */\n  0x02\n    /* \"#utility.yul\":559:563   */\n  dup3\n    /* \"#utility.yul\":555:567   */\n  div\n    /* \"#utility.yul\":545:567   */\n  swap1\n  pop\n    /* \"#utility.yul\":612:613   */\n  0x01\n    /* \"#utility.yul\":606:610   */\n  dup3\n    /* \"#utility.yul\":602:614   */\n  and\n    /* \"#utility.yul\":633:651   */\n  dup1\n    /* \"#utility.yul\":623:704   */\n  tag_69\n  jumpi\n    /* \"#utility.yul\":689:693   */\n  0x7f\n    /* \"#utility.yul\":681:687   */\n  dup3\n    /* \"#utility.yul\":677:694   */\n  and\n    /* \"#utility.yul\":667:694   */\n  swap2\n  pop\n    /* \"#utility.yul\":623:704   */\ntag_69:\n    /* \"#utility.yul\":751:753   */\n  0x20\n    /* \"#utility.yul\":743:749   */\n  dup3\n    /* \"#utility.yul\":740:754   */\n  lt\n    /* \"#utility.yul\":720:738   */\n  dup2\n    /* \"#utility.yul\":717:755   */\n  sub\n    /* \"#utility.yul\":714:798   */\n  tag_70\n  jumpi\n    /* \"#utility.yul\":770:788   */\n  tag_71\n  tag_43\n  jump\t// in\ntag_71:\n    /* \"#utility.yul\":714:798   */\ntag_70:\n    /* \"#utility.yul\":535:804   */\n  pop\n    /* \"#utility.yul\":484:804   */\n  swap2\n  swap1\n  pop\n  jump\t// out\n    /* \"#utility.yul\":810:951   */\ntag_44:\n    /* \"#utility.yul\":859:863   */\n  0x00\n    /* \"#utility.yul\":882:885   */\n  dup2\n    /* \"#utility.yul\":874:885   */\n  swap1\n  pop\n    /* \"#utility.yul\":905:908   */\n  dup2\n    /* \"#utility.yul\":902:903   */\n  0x00\n    /* \"#utility.yul\":895:909   */\n  mstore\n    /* \"#utility.yul\":939:943   */\n  0x20\n    /* \"#utility.yul\":936:937   */\n  0x00\n    /* \"#utility.yul\":926:944   */\n  keccak256\n    /* \"#utility.yul\":918:944   */\n  swap1\n  pop\n    /* \"#utility.yul\":810:951   */\n  swap2\n  swap1\n  pop\n  jump\t// out\n    /* \"#utility.yul\":957:1050   */\ntag_45:\n    /* \"#utility.yul\":994:1000   */\n  0x00\n    /* \"#utility.yul\":1041:1043   */\n  0x20\n    /* \"#utility.yul\":1036:1038   */\n  0x1f\n    /* \"#utility.yul\":1029:1034   */\n  dup4\n    /* \"#utility.yul\":1025:1039   */\n  add\n    /* \"#utility.yul\":1021:1044   */\n  div\n    /* \"#utility.yul\":1011:1044   */\n  swap1\n  pop\n    /* \"#utility.yul\":957:1050   */\n  swap2\n  swap1\n  pop\n  jump\t// out\n    /* \"#utility.yul\":1056:1163   */\ntag_46:\n    /* \"#utility.yul\":1100:1108   */\n  0x00\n    /* \"#utility.yul\":1150:1155   */\n  dup3\n    /* \"#utility.yul\":1144:1148   */\n  dup3\n    /* \"#utility.yul\":1140:1156   */\n  shl\n    /* \"#utility.yul\":1119:1156   */\n  swap1\n  pop\n    /* \"#utility.yul\":1056:1163   */\n  swap3\n  swap2\n  pop\n  pop\n  jump\t// out\n    /* \"#utility.yul\":1169:1562   */\ntag_47:\n    /* \"#utility.yul\":1238:1244   */\n  0x00\n    /* \"#utility.yul\":1288:1289   */\n  0x08\n    /* \"#utility.yul\":1276:1286   */\n  dup4\n    /* \"#utility.yul\":1272:1290   */\n  mul\n    /* \"#utility.yul\":1311:1408   */\n  tag_76\n    /* \"#utility.yul\":1341:1407   */\n  0xffffffffffffffffffffffffffffffffffffffffffffffffffffffffffffffff\n    /* \"#utility.yul\":1330:1339   */\n  dup3\n    /* \"#utility.yul\":1311:1408   */\n  tag_46\n  jump\t// in\ntag_76:\n    /* \"#utility.yul\":1429:1468   */\n  tag_77\n    /* \"#utility.yul\":1459:1467   */\n  dup7\n    /* \"#utility.yul\":1448:1457   */\n  dup4\n    /* \"#utility.yul\":1429:1468   */\n  tag_46\n  jump\t// in\ntag_77:\n    /* \"#utility.yul\":1417:1468   */\n  swap6\n  pop\n    /* \"#utility.yul\":1501:1505   */\n  dup1\n    /* \"#utility.yul\":1497:1506   */\n  not\n    /* \"#utility.yul\":1490:1495   */\n  dup5\n    /* \"#utility.yul\":1486:1507   */\n  and\n    /* \"#utility.yul\":1477:1507   */\n  swap4\n  pop\n    /* \"#utility.yul\":1550:1554   */\n  dup1\n    /* \"#utility.yul\":1540:1548   */\n  dup7\n    /* \"#utility.yul\":1536:1555   */\n  and\n    /* \"#utility.yul\":1529:1534   */\n  dup5\n    /* \"#utility.yul\":1526:1556   */\n  or\n    /* \"#utility.yul\":1516:1556   */\n  swap3\n  pop\n    /* \"#utility.yul\":1245:1562   */\n  pop\n  pop\n    /* \"#utility.yul\":1169:1562   */\n  swap4\n  swap3\n  pop\n  pop\n  pop\n  jump\t// out\n    /* \"#utility.yul\":1568:1645   */\ntag_48:\n    /* \"#utility.yul\":1605:1612   */\n  0x00\n    /* \"#utility.yul\":1634:1639   */\n  dup2\n    /* \"#utility.yul\":1623:1639   */\n  swap1\n  pop\n    /* \"#utility.yul\":1568:1645   */\n  swap2\n  swap1\n  pop\n  jump\t// out\n    /* \"#utility.yul\":1651:1711   */\ntag_49:\n    /* \"#utility.yul\":1679:1682   */\n  0x00\n    /* \"#utility.yul\":1700:1705   */\n  dup2\n    /* \"#utility.yul\":1693:1705   */\n  swap1\n  pop\n    /* \"#utility.yul\":1651:1711   */\n  swap2\n  swap1\n  pop\n  jump\t// out\n    /* \"#utility.yul\":1717:1859   */\ntag_50:\n    /* \"#utility.yul\":1767:1776   */\n  0x00\n    /* \"#utility.yul\":1800:1853   */\n  tag_81\n    /* \"#utility.yul\":1818:1852   */\n  tag_82\n    /* \"#utility.yul\":1827:1851   */\n  tag_83\n    /* \"#utility.yul\":1845:1850   */\n  dup5\n    /* \"#utility.yul\":1827:1851   */\n  tag_48\n  jump\t// in\ntag_83:\n    /* \"#utility.yul\":1818:1852   */\n  tag_49\n  jump\t// in\ntag_82:\n    /* \"#utility.yul\":1800:1853   */\n  tag_48\n  jump\t// in\ntag_81:\n    /* \"#utility.yul\":1787:1853   */\n  swap1\n  pop\n    /* \"#utility.yul\":1717:1859   */\n  swap2\n  swap1\n  pop\n  jump\t// out\n    /* \"#utility.yul\":1865:1940   */\ntag_51:\n    /* \"#utility.yul\":1908:1911   */\n  0x00\n    /* \"#utility.yul\":1929:1934   */\n  dup2\n    /* \"#utility.yul\":1922:1934   */\n  swap1\n  pop\n    /* \"#utility.yul\":1865:1940   */\n  swap2\n  swap1\n  pop\n  jump\t// out\n    /* \"#utility.yul\":1946:2215   */\ntag_52:\n    /* \"#utility.yul\":2056:2095   */\n  tag_86\n    /* \"#utility.yul\":2087:2094   */\n  dup4\n    /* \"#utility.yul\":2056:2095   */\n  tag_50\n  jump\t// in\ntag_86:\n    /* \"#utility.yul\":2117:2208   */\n  tag_87\n    /* \"#utility.yul\":2166:2207   */\n  tag_88\n    /* \"#utility.yul\":2190:2206   */\n  dup3\n    /* \"#utility.yul\":2166:2207   */\n  tag_51\n  jump\t// in\ntag_88:\n    /* \"#utility.yul\":2158:2164   */\n  dup5\n    /* \"#utility.yul\":2151:2155   */\n  dup5\n    /* \"#utility.yul\":2145:2156   */\n  sload\n    /* \"#utility.yul\":2117:2208   */\n  tag_47\n  jump\t// in\ntag_87:\n    /* \"#utility.yul\":2111:2115   */\n  dup3\n    /* \"#utility.yul\":2104:2209   */\n  sstore\n    /* \"#utility.yul\":2022:2215   */\n  pop\n    /* \"#utility.yul\":1946:2215   */\n  pop\n  pop\n  pop\n  jump\t// out\n    /* \"#utility.yul\":2221:2294   */\ntag_53:\n    /* \"#utility.yul\":2266:2269   */\n  0x00\n    /* \"#utility.yul\":2221:2294   */\n  swap1\n  jump\t// out\n    /* \"#utility.yul\":2300:2489   */\ntag_54:\n    /* \"#utility.yul\":2377:2409   */\n  tag_91\n  tag_53\n  jump\t// in\ntag_91:\n    /* \"#utility.yul\":2418:2483   */\n  tag_92\n    /* \"#utility.yul\":2476:2482   */\n  dup2\n    /* \"#utility.yul\":2468:2474   */\n  dup5\n    /* \"#utility.yul\":2462:2466   */\n  dup5\n    /* \"#utility.yul\":2418:2483   */\n  tag_52\n  jump\t// in\ntag_92:\n    /* \"#utility.yul\":2353:2489   */\n  pop\n    /* \"#utility.yul\":2300:2489   */\n  pop\n  pop\n  jump\t// out\n    /* \"#utility.yul\":2495:2681   */\ntag_55:\n    /* \"#utility.yul\":2555:2675   */\ntag_94:\n    /* \"#utility.yul\":2572:2575   */\n  dup2\n    /* \"#utility.yul\":2565:2570   */\n  dup2\n    /* \"#utility.yul\":2562:2576   */\n  lt\n    /* \"#utility.yul\":2555:2675   */\n  iszero\n  tag_96\n  jumpi\n    /* \"#utility.yul\":2626:2665   */\n  tag_97\n    /* \"#utility.yul\":2663:2664   */\n  0x00\n    /* \"#utility.yul\":2656:2661   */\n  dup3\n    /* \"#utility.yul\":2626:2665   */\n  tag_54\n  jump\t// in\ntag_97:\n    /* \"#utility.yul\":2599:2600   */\n  0x01\n    /* \"#utility.yul\":2592:2597   */\n  dup2\n    /* \"#utility.yul\":2588:2601   */\n  add\n    /* \"#utility.yul\":2579:2601   */\n  swap1\n  pop\n    /* \"#utility.yul\":2555:2675   */\n  jump(tag_94)\ntag_96:\n    /* \"#utility.yul\":2495:2681   */\n  pop\n  pop\n  jump\t// out\n    /* \"#utility.yul\":2687:3230   */\ntag_56:\n    /* \"#utility.yul\":2788:2790   */\n  0x1f\n    /* \"#utility.yul\":2783:2786   */\n  dup3\n    /* \"#utility.yul\":2780:2791   */\n  gt\n    /* \"#utility.yul\":2777:3223   */\n  iszero\n  tag_99\n  jumpi\n    /* \"#utility.yul\":2822:2860   */\n  tag_100\n    /* \"#utility.yul\":2854:2859   */\n  dup2\n    /* \"#utility.yul\":2822:2860   */\n  tag_44\n  jump\t// in\ntag_100:\n    /* \"#utility.yul\":2906:2935   */\n  tag_101\n    /* \"#utility.yul\":2924:2934   */\n  dup5\n    /* \"#utility.yul\":2906:2935   */\n  tag_45\n  jump\t// in\ntag_101:\n    /* \"#utility.yul\":2896:2904   */\n  dup2\n    /* \"#utility.yul\":2892:2936   */\n  add\n    /* \"#utility.yul\":3089:3091   */\n  0x20\n    /* \"#utility.yul\":3077:3087   */\n  dup6\n    /* \"#utility.yul\":3074:3092   */\n  lt\n    /* \"#utility.yul\":3071:3120   */\n  iszero\n  tag_102\n  jumpi\n    /* \"#utility.yul\":3110:3118   */\n  dup2\n    /* \"#utility.yul\":3095:3118   */\n  swap1\n  pop\n    /* \"#utility.yul\":3071:3120   */\ntag_102:\n    /* \"#utility.yul\":3133:3213   */\n  tag_103\n    /* \"#utility.yul\":3189:3211   */\n  tag_104\n    /* \"#utility.yul\":3207:3210   */\n  dup6\n    /* \"#utility.yul\":3189:3211   */\n  tag_45\n  jump\t// in\ntag_104:\n    /* \"#utility.yul\":3179:3187   */\n  dup4\n    /* \"#utility.yul\":3175:3212   */\n  add\n    /* \"#utility.yul\":3162:3173   */\n  dup3\n    /* \"#utility.yul\":3133:3213   */\n  tag_55\n  jump\t// in\ntag_103:\n    /* \"#utility.yul\":2792:3223   */\n  pop\n  pop\n    /* \"#utility.yul\":2777:3223   */\ntag_99:\n    /* \"#utility.yul\":2687:3230   */\n  pop\n  pop\n  pop\n  jump\t// out\n    /* \"#utility.yul\":3236:3353   */\ntag_57:\n    /* \"#utility.yul\":3290:3298   */\n  0x00\n    /* \"#utility.yul\":3340:3345   */\n  dup3\n    /* \"#utility.yul\":3334:3338   */\n  dup3\n    /* \"#utility.yul\":3330:3346   */\n  shr\n    /* \"#utility.yul\":3309:3346   */\n  swap1\n  pop\n    /* \"#utility.yul\":3236:3353   */\n  swap3\n  swap2\n  pop\n  pop\n  jump\t// out\n    /* \"#utility.yul\":3359:3528   */\ntag_58:\n    /* \"#utility.yul\":3403:3409   */\n  0x00\n    /* \"#utility.yul\":3436:3487   */\n  tag_107\n    /* \"#utility.yul\":3484:3485   */\n  0x00\n    /* \"#utility.yul\":3480:3486   */\n  not\n    /* \"#utility.yul\":3472:3477   */\n  dup5\n    /* \"#utility.yul\":3469:3470   */\n  0x08\n    /* \"#utility.yul\":3465:3478   */\n  mul\n    /* \"#utility.yul\":3436:3487   */\n  tag_57\n  jump\t// in\ntag_107:\n    /* \"#utility.yul\":3432:3488   */\n  not\n    /* \"#utility.yul\":3517:3521   */\n  dup1\n    /* \"#utility.yul\":3511:3515   */\n  dup4\n    /* \"#utility.yul\":3507:3522   */\n  and\n    /* \"#utility.yul\":3497:3522   */\n  swap2\n  pop\n    /* \"#utility.yul\":3410:3528   */\n  pop\n    /* \"#utility.yul\":3359:3528   */\n  swap3\n  swap2\n  pop\n  pop\n  jump\t// out\n    /* \"#utility.yul\":3533:3828   */\ntag_59:\n    /* \"#utility.yul\":3609:3613   */\n  0x00\n    /* \"#utility.yul\":3755:3784   */\n  tag_109\n    /* \"#utility.yul\":3780:3783   */\n  dup4\n    /* \"#utility.yul\":3774:3778   */\n  dup4\n    /* \"#utility.yul\":3755:3784   */\n  tag_58\n  jump\t// in\ntag_109:\n    /* \"#utility.yul\":3747:3784   */\n  swap2\n  pop\n    /* \"#utility.yul\":3817:3820   */\n  dup3\n    /* \"#utility.yul\":3814:3815   */\n  0x02\n    /* \"#utility.yul\":3810:3821   */\n  mul\n    /* \"#utility.yul\":3804:3808   */\n  dup3\n    /* \"#utility.yul\":3801:3822   */\n  or\n    /* \"#utility.yul\":3793:3822   */\n  swap1\n  pop\n    /* \"#utility.yul\":3533:3828   */\n  swap3\n  swap2\n  pop\n  pop\n  jump\t// out\n    /* \"#utility.yul\":3833:5228   */\ntag_9:\n    /* \"#utility.yul\":3950:3987   */\n  tag_111\n    /* \"#utility.yul\":3983:3986   */\n  dup3\n    /* \"#utility.yul\":3950:3987   */\n  tag_41\n  jump\t// in\ntag_111:\n    /* \"#utility.yul\":4052:4070   */\n  0xffffffffffffffff\n    /* \"#utility.yul\":4044:4050   */\n  dup2\n    /* \"#utility.yul\":4041:4071   */\n  gt\n    /* \"#utility.yul\":4038:4094   */\n  iszero\n  tag_112\n  jumpi\n    /* \"#utility.yul\":4074:4092   */\n  tag_113\n  tag_42\n  jump\t// in\ntag_113:\n    /* \"#utility.yul\":4038:4094   */\ntag_112:\n    /* \"#utility.yul\":4118:4156   */\n  tag_114\n    /* \"#utility.yul\":4150:4154   */\n  dup3\n    /* \"#utility.yul\":4144:4155   */\n  sload\n    /* \"#utility.yul\":4118:4156   */\n  tag_34\n  jump\t// in\ntag_114:\n    /* \"#utility.yul\":4203:4270   */\n  tag_115\n    /* \"#utility.yul\":4263:4269   */\n  dup3\n    /* \"#utility.yul\":4255:4261   */\n  dup3\n    /* \"#utility.yul\":4249:4253   */\n  dup6\n    /* \"#utility.yul\":4203:4270   */\n  tag_56\n  jump\t// in\ntag_115:\n    /* \"#utility.yul\":4297:4298   */\n  0x00\n    /* \"#utility.yul\":4321:4325   */\n  0x20\n    /* \"#utility.yul\":4308:4325   */\n  swap1\n  pop\n    /* \"#utility.yul\":4353:4355   */\n  0x1f\n    /* \"#utility.yul\":4345:4351   */\n  dup4\n    /* \"#utility.yul\":4342:4356   */\n  gt\n    /* \"#utility.yul\":4370:4371   */\n  0x01\n    /* \"#utility.yul\":4365:4983   */\n  dup2\n  eq\n  tag_117\n  jumpi\n    /* \"#utility.yul\":5027:5028   */\n  0x00\n    /* \"#utility.yul\":5044:5050   */\n  dup5\n    /* \"#utility.yul\":5041:5118   */\n  iszero\n  tag_118\n  jumpi\n    /* \"#utility.yul\":5093:5102   */\n  dup3\n    /* \"#utility.yul\":5088:5091   */\n  dup8\n    /* \"#utility.yul\":5084:5103   */\n  add\n    /* \"#utility.yul\":5078:5104   */\n  mload\n    /* \"#utility.yul\":5069:5104   */\n  swap1\n  pop\n    /* \"#utility.yul\":5041:5118   */\ntag_118:\n    /* \"#utility.yul\":5144:5211   */\n  tag_119\n    /* \"#utility.yul\":5204:5210   */\n  dup6\n    /* \"#utility.yul\":5197:5202   */\n  dup3\n    /* \"#utility.yul\":5144:5211   */\n  tag_59\n  jump\t// in\ntag_119:\n    /* \"#utility.yul\":5138:5142   */\n  dup7\n    /* \"#utility.yul\":5131:5212   */\n  sstore\n    /* \"#utility.yul\":5000:5222   */\n  pop\n    /* \"#utility.yul\":4335:5222   */\n  jump(tag_116)\n    /* \"#utility.yul\":4365:4983   */\ntag_117:\n    /* \"#utility.yul\":4417:4421   */\n  0x1f\n    /* \"#utility.yul\":4413:4422   */\n  not\n    /* \"#utility.yul\":4405:4411   */\n  dup5\n    /* \"#utility.yul\":4401:4423   */\n  and\n    /* \"#utility.yul\":4451:4488   */\n  tag_120\n    /* \"#utility.yul\":4483:4487   */\n  dup7\n    /* \"#utility.yul\":4451:4488   */\n  tag_44\n  jump\t// in\ntag_120:\n    /* \"#utility.yul\":4510:4511   */\n  0x00\n    /* \"#utility.yul\":4524:4732   */\ntag_121:\n    /* \"#utility.yul\":4538:4545   */\n  dup3\n    /* \"#utility.yul\":4535:4536   */\n  dup2\n    /* \"#utility.yul\":4532:4546   */\n  lt\n    /* \"#utility.yul\":4524:4732   */\n  iszero\n  tag_123\n  jumpi\n    /* \"#utility.yul\":4617:4626   */\n  dup5\n    /* \"#utility.yul\":4612:4615   */\n  dup10\n    /* \"#utility.yul\":4608:4627   */\n  add\n    /* \"#utility.yul\":4602:4628   */\n  mload\n    /* \"#utility.yul\":4594:4600   */\n  dup3\n    /* \"#utility.yul\":4587:4629   */\n  sstore\n    /* \"#utility.yul\":4668:4669   */\n  0x01\n    /* \"#utility.yul\":4660:4666   */\n  dup3\n    /* \"#utility.yul\":4656:4670   */\n  add\n    /* \"#utility.yul\":4646:4670   */\n  swap2\n  pop\n    /* \"#utility.yul\":4715:4717   */\n  0x20\n    /* \"#utility.yul\":4704:4713   */\n  dup6\n    /* \"#utility.yul\":4700:4718   */\n  add\n    /* \"#utility.yul\":4687:4718   */\n  swap5\n  pop\n    /* \"#utility.yul\":4561:4565   */\n  0x20\n    /* \"#utility.yul\":4558:4559   */\n  dup2\n    /* \"#utility.yul\":4554:4566   */\n  add\n    /* \"#utility.yul\":4549:4566   */\n  swap1\n  pop\n    /* \"#utility.yul\":4524:4732   */\n  jump(tag_121)\ntag_123:\n    /* \"#utility.yul\":4760:4766   */\n  dup7\n    /* \"#utility.yul\":4751:4758   */\n  dup4\n    /* \"#utility.yul\":4748:4767   */\n  lt\n    /* \"#utility.yul\":4745:4924   */\n  iszero\n  tag_124\n  jumpi\n    /* \"#utility.yul\":4818:4827   */\n  dup5\n    /* \"#utility.yul\":4813:4816   */\n  dup10\n    /* \"#utility.yul\":4809:4828   */\n  add\n    /* \"#utility.yul\":4803:4829   */\n  mload\n    /* \"#utility.yul\":4861:4909   */\n  tag_125\n    /* \"#utility.yul\":4903:4907   */\n  0x1f\n    /* \"#utility.yul\":4895:4901   */\n  dup10\n    /* \"#utility.yul\":4891:4908   */\n  and\n    /* \"#utility.yul\":4880:4889   */\n  dup3\n    /* \"#utility.yul\":4861:4909   */\n  tag_58\n  jump\t// in\ntag_125:\n    /* \"#utility.yul\":4853:4859   */\n  dup4\n    /* \"#utility.yul\":4846:4910   */\n  sstore\n    /* \"#utility.yul\":4768:4924   */\n  pop\n    /* \"#utility.yul\":4745:4924   */\ntag_124:\n    /* \"#utility.yul\":4970:4971   */\n  0x01\n    /* \"#utility.yul\":4966:4967   */\n  0x02\n    /* \"#utility.yul\":4958:4964   */\n  dup9\n    /* \"#utility.yul\":4954:4968   */\n  mul\n    /* \"#utility.yul\":4950:4972   */\n  add\n    /* \"#utility.yul\":4944:4948   */\n  dup9\n    /* \"#utility.yul\":4937:4973   */\n  sstore\n    /* \"#utility.yul\":4372:4983   */\n  pop\n  pop\n  pop\n    /* \"#utility.yul\":4335:5222   */\ntag_116:\n  pop\n    /* \"#utility.yul\":3925:5228   */\n  pop\n  pop\n  pop\n    /* \"#utility.yul\":3833:5228   */\n  pop\n  pop\n  jump\t// out\n    /* \"#utility.yul\":5234:5414   */\ntag_60:\n    /* \"#utility.yul\":5282:5359   */\n  0x4e487b7100000000000000000000000000000000000000000000000000000000\n    /* \"#utility.yul\":5279:5280   */\n  0x00\n    /* \"#utility.yul\":5272:5360   */\n  mstore\n    /* \"#utility.yul\":5379:5383   */\n  0x11\n    /* \"#utility.yul\":5376:5377   */\n  0x04\n    /* \"#utility.yul\":5369:5384   */\n  mstore\n    /* \"#utility.yul\":5403:5407   */\n  0x24\n    /* \"#utility.yul\":5400:5401   */\n  0x00\n    /* \"#utility.yul\":5393:5408   */\n  revert\n    /* \"#utility.yul\":5420:5522   */\ntag_61:\n    /* \"#utility.yul\":5462:5470   */\n  0x00\n    /* \"#utility.yul\":5509:5514   */\n  dup2\n    /* \"#utility.yul\":5506:5507   */\n  0x01\n    /* \"#utility.yul\":5502:5515   */\n  shr\n    /* \"#utility.yul\":5481:5515   */\n  swap1\n  pop\n    /* \"#utility.yul\":5420:5522   */\n  swap2\n  swap1\n  pop\n  jump\t// out\n    /* \"#utility.yul\":5528:6376   */\ntag_62:\n    /* \"#utility.yul\":5589:5594   */\n  0x00\n    /* \"#utility.yul\":5596:5600   */\n  dup1\n    /* \"#utility.yul\":5620:5626   */\n  dup3\n    /* \"#utility.yul\":5611:5626   */\n  swap2\n  pop\n    /* \"#utility.yul\":5644:5649   */\n  dup4\n    /* \"#utility.yul\":5635:5649   */\n  swap1\n  pop\n    /* \"#utility.yul\":5658:6370   */\ntag_129:\n    /* \"#utility.yul\":5679:5680   */\n  0x01\n    /* \"#utility.yul\":5669:5677   */\n  dup6\n    /* \"#utility.yul\":5666:5681   */\n  gt\n    /* \"#utility.yul\":5658:6370   */\n  iszero\n  tag_131\n  jumpi\n    /* \"#utility.yul\":5774:5778   */\n  dup1\n    /* \"#utility.yul\":5769:5772   */\n  dup7\n    /* \"#utility.yul\":5765:5779   */\n  div\n    /* \"#utility.yul\":5759:5763   */\n  dup2\n    /* \"#utility.yul\":5756:5780   */\n  gt\n    /* \"#utility.yul\":5753:5803   */\n  iszero\n  tag_132\n  jumpi\n    /* \"#utility.yul\":5783:5801   */\n  tag_133\n  tag_60\n  jump\t// in\ntag_133:\n    /* \"#utility.yul\":5753:5803   */\ntag_132:\n    /* \"#utility.yul\":5833:5834   */\n  0x01\n    /* \"#utility.yul\":5823:5831   */\n  dup6\n    /* \"#utility.yul\":5819:5835   */\n  and\n    /* \"#utility.yul\":5816:6267   */\n  iszero\n  tag_134\n  jumpi\n    /* \"#utility.yul\":6248:6252   */\n  dup1\n    /* \"#utility.yul\":6241:6246   */\n  dup3\n    /* \"#utility.yul\":6237:6253   */\n  mul\n    /* \"#utility.yul\":6228:6253   */\n  swap2\n  pop\n    /* \"#utility.yul\":5816:6267   */\ntag_134:\n    /* \"#utility.yul\":6298:6302   */\n  dup1\n    /* \"#utility.yul\":6292:6296   */\n  dup2\n    /* \"#utility.yul\":6288:6303   */\n  mul\n    /* \"#utility.yul\":6280:6303   */\n  swap1\n  pop\n    /* \"#utility.yul\":6328:6360   */\n  tag_135\n    /* \"#utility.yul\":6351:6359   */\n  dup6\n    /* \"#utility.yul\":6328:6360   */\n  tag_61\n  jump\t// in\ntag_135:\n    /* \"#utility.yul\":6316:6360   */\n  swap5\n  pop\n    /* \"#utility.yul\":5658:6370   */\n  jump(tag_129)\ntag_131:\n    /* \"#utility.yul\":5528:6376   */\n  swap5\n  pop\n  swap5\n  swap3\n  pop\n  pop\n  pop\n  jump\t// out\n    /* \"#utility.yul\":6382:7455   */\ntag_63:\n    /* \"#utility.yul\":6436:6441   */\n  0x00\n    /* \"#utility.yul\":6627:6635   */\n  dup3\n    /* \"#utility.yul\":6617:6657   */\n  tag_137\n  jumpi\n    /* \"#utility.yul\":6648:6649   */\n  0x01\n    /* \"#utility.yul\":6639:6649   */\n  swap1\n  pop\n    /* \"#utility.yul\":6650:6655   */\n  jump(tag_136)\n    /* \"#utility.yul\":6617:6657   */\ntag_137:\n    /* \"#utility.yul\":6676:6680   */\n  dup2\n    /* \"#utility.yul\":6666:6702   */\n  tag_138\n  jumpi\n    /* \"#utility.yul\":6693:6694   */\n  0x00\n    /* \"#utility.yul\":6684:6694   */\n  swap1\n  pop\n    /* \"#utility.yul\":6695:6700   */\n  jump(tag_136)\n    /* \"#utility.yul\":6666:6702   */\ntag_138:\n    /* \"#utility.yul\":6762:6766   */\n  dup2\n    /* \"#utility.yul\":6810:6811   */\n  0x01\n    /* \"#utility.yul\":6805:6832   */\n  dup2\n  eq\n  tag_140\n  jumpi\n    /* \"#utility.yul\":6846:6847   */\n  0x02\n    /* \"#utility.yul\":6841:7032   */\n  dup2\n  eq\n  tag_141\n  jumpi\n    /* \"#utility.yul\":6755:7032   */\n  jump(tag_139)\n    /* \"#utility.yul\":6805:6832   */\ntag_140:\n    /* \"#utility.yul\":6823:6824   */\n  0x01\n    /* \"#utility.yul\":6814:6824   */\n  swap2\n  pop\n    /* \"#utility.yul\":6825:6830   */\n  pop\n  jump(tag_136)\n    /* \"#utility.yul\":6841:7032   */\ntag_141:\n    /* \"#utility.yul\":6886:6889   */\n  0xff\n    /* \"#utility.yul\":6876:6884   */\n  dup5\n    /* \"#utility.yul\":6873:6890   */\n  gt\n    /* \"#utility.yul\":6870:6913   */\n  iszero\n  tag_142\n  jumpi\n    /* \"#utility.yul\":6893:6911   */\n  tag_143\n  tag_60\n  jump\t// in\ntag_143:\n    /* \"#utility.yul\":6870:6913   */\ntag_142:\n    /* \"#utility.yul\":6942:6950   */\n  dup4\n    /* \"#utility.yul\":6939:6940   */\n  0x02\n    /* \"#utility.yul\":6935:6951   */\n  exp\n    /* \"#utility.yul\":6926:6951   */\n  swap2\n  pop\n    /* \"#utility.yul\":6977:6980   */\n  dup5\n    /* \"#utility.yul\":6970:6975   */\n  dup3\n    /* \"#utility.yul\":6967:6981   */\n  gt\n    /* \"#utility.yul\":6964:7004   */\n  iszero\n  tag_144\n  jumpi\n    /* \"#utility.yul\":6984:7002   */\n  tag_145\n  tag_60\n  jump\t// in\ntag_145:\n    /* \"#utility.yul\":6964:7004   */\ntag_144:\n    /* \"#utility.yul\":7017:7022   */\n  pop\n  jump(tag_136)\n    /* \"#utility.yul\":6755:7032   */\ntag_139:\n  pop\n    /* \"#utility.yul\":7141:7143   */\n  0x20\n    /* \"#utility.yul\":7131:7139   */\n  dup4\n    /* \"#utility.yul\":7128:7144   */\n  lt\n    /* \"#utility.yul\":7122:7125   */\n  0x0133\n    /* \"#utility.yul\":7116:7120   */\n  dup4\n    /* \"#utility.yul\":7113:7126   */\n  lt\n    /* \"#utility.yul\":7109:7145   */\n  and\n    /* \"#utility.yul\":7091:7093   */\n  0x4e\n    /* \"#utility.yul\":7081:7089   */\n  dup5\n    /* \"#utility.yul\":7078:7094   */\n  lt\n    /* \"#utility.yul\":7073:7075   */\n  0x0b\n    /* \"#utility.yul\":7067:7071   */\n  dup5\n    /* \"#utility.yul\":7064:7076   */\n  lt\n    /* \"#utility.yul\":7060:7095   */\n  and\n    /* \"#utility.yul\":7044:7155   */\n  or\n    /* \"#utility.yul\":7041:7287   */\n  iszero\n  tag_146\n  jumpi\n    /* \"#utility.yul\":7197:7205   */\n  dup3\n    /* \"#utility.yul\":7191:7195   */\n  dup3\n    /* \"#utility.yul\":7187:7206   */\n  exp\n    /* \"#utility.yul\":7178:7206   */\n  swap1\n  pop\n    /* \"#utility.yul\":7232:7235   */\n  dup4\n    /* \"#utility.yul\":7225:7230   */\n  dup2\n    /* \"#utility.yul\":7222:7236   */\n  gt\n    /* \"#utility.yul\":7219:7259   */\n  iszero\n  tag_147\n  jumpi\n    /* \"#utility.yul\":7239:7257   */\n  tag_148\n  tag_60\n  jump\t// in\ntag_148:\n    /* \"#utility.yul\":7219:7259   */\ntag_147:\n    /* \"#utility.yul\":7272:7277   */\n  jump(tag_136)\n    /* \"#utility.yul\":7041:7287   */\ntag_146:\n    /* \"#utility.yul\":7312:7354   */\n  tag_149\n    /* \"#utility.yul\":7350:7353   */\n  dup5\n    /* \"#utility.yul\":7340:7348   */\n  dup5\n    /* \"#utility.yul\":7334:7338   */\n  dup5\n    /* \"#utility.yul\":7331:7332   */\n  0x01\n    /* \"#utility.yul\":7312:7354   */\n  tag_62\n  jump\t// in\ntag_149:\n    /* \"#utility.yul\":7297:7354   */\n  swap3\n  pop\n  swap1\n  pop\n    /* \"#utility.yul\":7386:7390   */\n  dup2\n    /* \"#utility.yul\":7381:7384   */\n  dup5\n    /* \"#utility.yul\":7377:7391   */\n  div\n    /* \"#utility.yul\":7370:7375   */\n  dup2\n    /* \"#utility.yul\":7367:7392   */\n  gt\n    /* \"#utility.yul\":7364:7415   */\n  iszero\n  tag_150\n  jumpi\n    /* \"#utility.yul\":7395:7413   */\n  tag_151\n  tag_60\n  jump\t// in\ntag_151:\n    /* \"#utility.yul\":7364:7415   */\ntag_150:\n    /* \"#utility.yul\":7444:7448   */\n  dup2\n    /* \"#utility.yul\":7437:7442   */\n  dup2\n    /* \"#utility.yul\":7433:7449   */\n  mul\n    /* \"#utility.yul\":7424:7449   */\n  swap1\n  pop\n    /* \"#utility.yul\":6382:7455   */\ntag_136:\n  swap4\n  swap3\n  pop\n  pop\n  pop\n  jump\t// out\n    /* \"#utility.yul\":7461:7746   */\ntag_13:\n    /* \"#utility.yul\":7521:7526   */\n  0x00\n    /* \"#utility.yul\":7545:7568   */\n  tag_153\n    /* \"#utility.yul\":7563:7567   */\n  dup3\n    /* \"#utility.yul\":7545:7568   */\n  tag_48\n  jump\t// in\ntag_153:\n    /* \"#utility.yul\":7537:7568   */\n  swap2\n  pop\n    /* \"#utility.yul\":7589:7616   */\n  tag_154\n    /* \"#utility.yul\":7607:7615   */\n  dup4\n    /* \"#utility.yul\":7589:7616   */\n  tag_48\n  jump\t// in\ntag_154:\n    /* \"#utility.yul\":7577:7616   */\n  swap3\n  pop\n    /* \"#utility.yul\":7635:7739   */\n  tag_155\n    /* \"#utility.yul\":7672:7738   */\n  0xffffffffffffffffffffffffffffffffffffffffffffffffffffffffffffffff\n    /* \"#utility.yul\":7662:7670   */\n  dup5\n    /* \"#utility.yul\":7656:7660   */\n  dup5\n    /* \"#utility.yul\":7635:7739   */\n  tag_63\n  jump\t// in\ntag_155:\n    /* \"#utility.yul\":7626:7739   */\n  swap1\n  pop\n    /* \"#utility.yul\":7461:7746   */\n  swap3\n  swap2\n  pop\n  pop\n  jump\t// out\n    /* \"#utility.yul\":7752:8162   */\ntag_15:\n    /* \"#utility.yul\":7792:7799   */\n  0x00\n    /* \"#utility.yul\":7815:7835   */\n  tag_157\n    /* \"#utility.yul\":7833:7834   */\n  dup3\n    /* \"#utility.yul\":7815:7835   */\n  tag_48\n  jump\t// in\ntag_157:\n    /* \"#utility.yul\":7810:7835   */\n  swap2\n  pop\n    /* \"#utility.yul\":7849:7869   */\n  tag_158\n    /* \"#utility.yul\":7867:7868   */\n  dup4\n    /* \"#utility.yul\":7849:7869   */\n  tag_48\n  jump\t// in\ntag_158:\n    /* \"#utility.yul\":7844:7869   */\n  swap3\n  pop\n    /* \"#utility.yul\":7904:7905   */\n  dup3\n    /* \"#utility.yul\":7901:7902   */\n  dup3\n    /* \"#utility.yul\":7897:7906   */\n  mul\n    /* \"#utility.yul\":7926:7956   */\n  tag_159\n    /* \"#utility.yul\":7944:7955   */\n  dup2\n    /* \"#utility.yul\":7926:7956   */\n  tag_48\n  jump\t// in\ntag_159:\n    /* \"#utility.yul\":7915:7956   */\n  swap2\n  pop\n    /* \"#utility.yul\":8105:8106   */\n  dup3\n    /* \"#utility.yul\":8096:8103   */\n  dup3\n    /* \"#utility.yul\":8092:8107   */\n  div\n    /* \"#utility.yul\":8089:8090   */\n  dup5\n    /* \"#utility.yul\":8086:8108   */\n  eq\n    /* \"#utility.yul\":8066:8067   */\n  dup4\n    /* \"#utility.yul\":8059:8068   */\n  iszero\n    /* \"#utility.yul\":8039:8122   */\n  or\n    /* \"#utility.yul\":8016:8155   */\n  tag_160\n  jumpi\n    /* \"#utility.yul\":8135:8153   */\n  tag_161\n  tag_60\n  jump\t// in\ntag_161:\n    /* \"#utility.yul\":8016:8155   */\ntag_160:\n    /* \"#utility.yul\":7800:8162   */\n  pop\n    /* \"#utility.yul\":7752:8162   */\n  swap3\n  swap2\n  pop\n  pop\n  jump\t// out\n    /* \"#utility.yul\":8168:8359   */\ntag_21:\n    /* \"#utility.yul\":8208:8211   */\n  0x00\n    /* \"#utility.yul\":8227:8247   */\n  tag_163\n    /* \"#utility.yul\":8245:8246   */\n  dup3\n    /* \"#utility.yul\":8227:8247   */\n  tag_48\n  jump\t// in\ntag_163:\n    /* \"#utility.yul\":8222:8247   */\n  swap2\n  pop\n    /* \"#utility.yul\":8261:8281   */\n  tag_164\n    /* \"#utility.yul\":8279:8280   */\n  dup4\n    /* \"#utility.yul\":8261:8281   */\n  tag_48\n  jump\t// in\ntag_164:\n    /* \"#utility.yul\":8256:8281   */\n  swap3\n  pop\n    /* \"#utility.yul\":8304:8305   */\n  dup3\n    /* \"#utility.yul\":8301:8302   */\n  dup3\n    /* \"#utility.yul\":8297:8306   */\n  add\n    /* \"#utility.yul\":8290:8306   */\n  swap1\n  pop\n    /* \"#utility.yul\":8325:8328   */\n  dup1\n    /* \"#utility.yul\":8322:8323   */\n  dup3\n    /* \"#utility.yul\":8319:8329   */\n  gt\n    /* \"#utility.yul\":8316:8352   */\n  iszero\n  tag_165\n  jumpi\n    /* \"#utility.yul\":8332:8350   */\n  tag_166\n  tag_60\n  jump\t// in\ntag_166:\n    /* \"#utility.yul\":8316:8352   */\ntag_165:\n    /* \"#utility.yul\":8168:8359   */\n  swap3\n  swap2\n  pop\n  pop\n  jump\t// out\n    /* \"contracts/Pokemon.sol\":86:4880  contract Pokemon is ERC20 {... */\ntag_18:\n  dataSize(sub_0)\n  dup1\n  dataOffset(sub_0)\n  0x00\n  codecopy\n  0x00\n  return\nstop\ndata_455aba232d26d5789e4c3dca7dbaac14938e20e28948c431c48ef9dc0693aca5 68747470733a2f2f6d626c6f677468756d622d7068696e662e707374617469632e6e65742f4d6a41784e7a41304d7a42664d54417a2f4d4441784e446b7a4e544d7a4e5459794f546b332e574c6a536f416a354b6142526935576231697a51586c6d6c686a4866377977484a6458625748456b6c6451672e4b3634687853764550594b6573327041786f724b79466157554d434e704c504b3132747277376573334f34672e4749462e756e747269303632342f313438383938333632363134382e4749463f747970653d77383030\ndata_8490e13ad8102c328437c8b036a629d6eb60438030c7f5aeec39368fd8b7016b 68747470733a2f2f692e6e616d752e77696b692f692f502d41444a424d567863557779524647386c63656b794b4358767778304c6a4e7369426a44554b4233383569793257436e586f2d5a7354565032564548365f717a534f654a796b4e647452486d484d6b6d51474647672e676966\ndata_a898763da7c0f1b86a46ab0f35df6576bd1508b9da3ae9122420c1d6e071f810 68747470733a2f2f692e6e616d752e77696b692f692f3848734b596751415f576f414f616b496e4d774278554a584a7759424135324375474645456a6e7478426f626c3455685f443470714279426c5f6170365864736f79486145764f456e6d377755732d587742662d48672e676966\n\nsub_0: assembly {\n        /* \"contracts/Pokemon.sol\":86:4880  contract Pokemon is ERC20 {... */\n      mstore(0x40, 0x80)\n      jumpi(tag_1, lt(calldatasize, 0x04))\n      shr(0xe0, calldataload(0x00))\n      dup1\n      0x42966c68\n      gt\n      tag_21\n      jumpi\n      dup1\n      0x95d89b41\n      gt\n      tag_22\n      jumpi\n      dup1\n      0x95d89b41\n      eq\n      tag_16\n      jumpi\n      dup1\n      0xa9059cbb\n      eq\n      tag_17\n      jumpi\n      dup1\n      0xc78bc15f\n      eq\n      tag_18\n      jumpi\n      dup1\n      0xd310b249\n      eq\n      tag_19\n      jumpi\n      dup1\n      0xdd62ed3e\n      eq\n      tag_20\n      jumpi\n      jump(tag_2)\n    tag_22:\n      dup1\n      0x42966c68\n      eq\n      tag_12\n      jumpi\n      dup1\n      0x70a08231\n      eq\n      tag_13\n      jumpi\n      dup1\n      0x868babb0\n      eq\n      tag_14\n      jumpi\n      dup1\n      0x87e24c72\n      eq\n      tag_15\n      jumpi\n      jump(tag_2)\n    tag_21:\n      dup1\n      0x23b872dd\n      gt\n      tag_23\n      jumpi\n      dup1\n      0x23b872dd\n      eq\n      tag_7\n      jumpi\n      dup1\n      0x27e235e3\n      eq\n      tag_8\n      jumpi\n      dup1\n      0x313ce567\n      eq\n      tag_9\n      jumpi\n      dup1\n      0x365b98b2\n      eq\n      tag_10\n      jumpi\n      dup1\n      0x36e60477\n      eq\n      tag_11\n      jumpi\n      jump(tag_2)\n    tag_23:\n      dup1\n      0x06fdde03\n      eq\n      tag_3\n      jumpi\n      dup1\n      0x095ea7b3\n      eq\n      tag_4\n      jumpi\n      dup1\n      0x11d58b02\n      eq\n      tag_5\n      jumpi\n      dup1\n      0x18160ddd\n      eq\n      tag_6\n      jumpi\n      jump(tag_2)\n    tag_1:\n      jumpi(tag_2, calldatasize)\n        /* \"contracts/ERC20.sol\":1481:1492  uint amount */\n      0x00\n        /* \"contracts/ERC20.sol\":1507:1510  200 */\n      0xc8\n        /* \"contracts/ERC20.sol\":1495:1504  msg.value */\n      callvalue\n        /* \"contracts/ERC20.sol\":1495:1510  msg.value * 200 */\n      tag_26\n      swap2\n      swap1\n      tag_27\n      jump\t// in\n    tag_26:\n        /* \"contracts/ERC20.sol\":1481:1510  uint amount = msg.value * 200 */\n      swap1\n      pop\n        /* \"contracts/ERC20.sol\":1550:1556  amount */\n      dup1\n        /* \"contracts/ERC20.sol\":1531:1539  balances */\n      0x05\n        /* \"contracts/ERC20.sol\":1531:1546  balances[owner] */\n      0x00\n        /* \"contracts/ERC20.sol\":1540:1545  owner */\n      0x04\n      0x00\n      swap1\n      sload\n      swap1\n      0x0100\n      exp\n      swap1\n      div\n      0xffffffffffffffffffffffffffffffffffffffff\n      and\n        /* \"contracts/ERC20.sol\":1531:1546  balances[owner] */\n      0xffffffffffffffffffffffffffffffffffffffff\n      and\n      0xffffffffffffffffffffffffffffffffffffffff\n      and\n      dup2\n      mstore\n      0x20\n      add\n      swap1\n      dup2\n      mstore\n      0x20\n      add\n      0x00\n      keccak256\n      sload\n        /* \"contracts/ERC20.sol\":1531:1556  balances[owner] >= amount */\n      lt\n      iszero\n        /* \"contracts/ERC20.sol\":1523:1557  require(balances[owner] >= amount) */\n      tag_28\n      jumpi\n      0x00\n      dup1\n      revert\n    tag_28:\n        /* \"contracts/ERC20.sol\":1587:1593  amount */\n      dup1\n        /* \"contracts/ERC20.sol\":1568:1576  balances */\n      0x05\n        /* \"contracts/ERC20.sol\":1568:1583  balances[owner] */\n      0x00\n        /* \"contracts/ERC20.sol\":1577:1582  owner */\n      0x04\n      0x00\n      swap1\n      sload\n      swap1\n      0x0100\n      exp\n      swap1\n      div\n      0xffffffffffffffffffffffffffffffffffffffff\n      and\n        /* \"contracts/ERC20.sol\":1568:1583  balances[owner] */\n      0xffffffffffffffffffffffffffffffffffffffff\n      and\n      0xffffffffffffffffffffffffffffffffffffffff\n      and\n      dup2\n      mstore\n      0x20\n      add\n      swap1\n      dup2\n      mstore\n      0x20\n      add\n      0x00\n      keccak256\n      0x00\n        /* \"contracts/ERC20.sol\":1568:1593  balances[owner] -= amount */\n      dup3\n      dup3\n      sload\n      tag_29\n      swap2\n      swap1\n      tag_30\n      jump\t// in\n    tag_29:\n      swap3\n      pop\n      pop\n      dup2\n      swap1\n      sstore\n      pop\n        /* \"contracts/ERC20.sol\":1628:1634  amount */\n      dup1\n        /* \"contracts/ERC20.sol\":1604:1612  balances */\n      0x05\n        /* \"contracts/ERC20.sol\":1604:1624  balances[msg.sender] */\n      0x00\n        /* \"contracts/ERC20.sol\":1613:1623  msg.sender */\n      caller\n        /* \"contracts/ERC20.sol\":1604:1624  balances[msg.sender] */\n      0xffffffffffffffffffffffffffffffffffffffff\n      and\n      0xffffffffffffffffffffffffffffffffffffffff\n      and\n      dup2\n      mstore\n      0x20\n      add\n      swap1\n      dup2\n      mstore\n      0x20\n      add\n      0x00\n      keccak256\n      0x00\n        /* \"contracts/ERC20.sol\":1604:1634  balances[msg.sender] += amount */\n      dup3\n      dup3\n      sload\n      tag_31\n      swap2\n      swap1\n      tag_32\n      jump\t// in\n    tag_31:\n      swap3\n      pop\n      pop\n      dup2\n      swap1\n      sstore\n      pop\n        /* \"contracts/ERC20.sol\":1863:1868  owner */\n      0x04\n      0x00\n      swap1\n      sload\n      swap1\n      0x0100\n      exp\n      swap1\n      div\n      0xffffffffffffffffffffffffffffffffffffffff\n      and\n        /* \"contracts/ERC20.sol\":1849:1868  msg.sender == owner */\n      0xffffffffffffffffffffffffffffffffffffffff\n      and\n        /* \"contracts/ERC20.sol\":1849:1859  msg.sender */\n      caller\n        /* \"contracts/ERC20.sol\":1849:1868  msg.sender == owner */\n      0xffffffffffffffffffffffffffffffffffffffff\n      and\n      sub\n        /* \"contracts/ERC20.sol\":1846:1908  if(msg.sender == owner){... */\n      tag_33\n      jumpi\n        /* \"contracts/ERC20.sol\":1884:1896  mint(amount) */\n      tag_34\n        /* \"contracts/ERC20.sol\":1889:1895  amount */\n      dup2\n        /* \"contracts/ERC20.sol\":1884:1888  mint */\n      tag_35\n        /* \"contracts/ERC20.sol\":1884:1896  mint(amount) */\n      jump\t// in\n    tag_34:\n        /* \"contracts/ERC20.sol\":1846:1908  if(msg.sender == owner){... */\n    tag_33:\n        /* \"contracts/ERC20.sol\":1095:1916  {... */\n      stop\n        /* \"contracts/Pokemon.sol\":86:4880  contract Pokemon is ERC20 {... */\n    tag_2:\n      0x00\n      dup1\n      revert\n        /* \"contracts/ERC20.sol\":143:161  string public name */\n    tag_3:\n      callvalue\n      dup1\n      iszero\n      tag_36\n      jumpi\n      0x00\n      dup1\n      revert\n    tag_36:\n      pop\n      tag_37\n      tag_38\n      jump\t// in\n    tag_37:\n      mload(0x40)\n      tag_39\n      swap2\n      swap1\n      tag_40\n      jump\t// in\n    tag_39:\n      mload(0x40)\n      dup1\n      swap2\n      sub\n      swap1\n      return\n        /* \"contracts/ERC20.sol\":2865:3024  function approve(address spender, uint amount) external override returns (bool){... */\n    tag_4:\n      callvalue\n      dup1\n      iszero\n      tag_41\n      jumpi\n      0x00\n      dup1\n      revert\n    tag_41:\n      pop\n      tag_42\n      0x04\n      dup1\n      calldatasize\n      sub\n      dup2\n      add\n      swap1\n      tag_43\n      swap2\n      swap1\n      tag_44\n      jump\t// in\n    tag_43:\n      tag_45\n      jump\t// in\n    tag_42:\n      mload(0x40)\n      tag_46\n      swap2\n      swap1\n      tag_47\n      jump\t// in\n    tag_46:\n      mload(0x40)\n      dup1\n      swap2\n      sub\n      swap1\n      return\n        /* \"contracts/Pokemon.sol\":3799:3946  function checkapprove() public view returns (Pokens[] memory) {... */\n    tag_5:\n      callvalue\n      dup1\n      iszero\n      tag_48\n      jumpi\n      0x00\n      dup1\n      revert\n    tag_48:\n      pop\n      tag_49\n      tag_50\n      jump\t// in\n    tag_49:\n      mload(0x40)\n      tag_51\n      swap2\n      swap1\n      tag_52\n      jump\t// in\n    tag_51:\n      mload(0x40)\n      dup1\n      swap2\n      sub\n      swap1\n      return\n        /* \"contracts/ERC20.sol\":371:403  uint public override totalSupply */\n    tag_6:\n      callvalue\n      dup1\n      iszero\n      tag_53\n      jumpi\n      0x00\n      dup1\n      revert\n    tag_53:\n      pop\n      tag_54\n      tag_55\n      jump\t// in\n    tag_54:\n      mload(0x40)\n      tag_56\n      swap2\n      swap1\n      tag_57\n      jump\t// in\n    tag_56:\n      mload(0x40)\n      dup1\n      swap2\n      sub\n      swap1\n      return\n        /* \"contracts/ERC20.sol\":3032:3663  function transferFrom(address sender, address to, uint amount) external override returns(bool){... */\n    tag_7:\n      callvalue\n      dup1\n      iszero\n      tag_58\n      jumpi\n      0x00\n      dup1\n      revert\n    tag_58:\n      pop\n      tag_59\n      0x04\n      dup1\n      calldatasize\n      sub\n      dup2\n      add\n      swap1\n      tag_60\n      swap2\n      swap1\n      tag_61\n      jump\t// in\n    tag_60:\n      tag_62\n      jump\t// in\n    tag_59:\n      mload(0x40)\n      tag_63\n      swap2\n      swap1\n      tag_47\n      jump\t// in\n    tag_63:\n      mload(0x40)\n      dup1\n      swap2\n      sub\n      swap1\n      return\n        /* \"contracts/ERC20.sol\":442:482  mapping(address => uint) public balances */\n    tag_8:\n      callvalue\n      dup1\n      iszero\n      tag_64\n      jumpi\n      0x00\n      dup1\n      revert\n    tag_64:\n      pop\n      tag_65\n      0x04\n      dup1\n      calldatasize\n      sub\n      dup2\n      add\n      swap1\n      tag_66\n      swap2\n      swap1\n      tag_67\n      jump\t// in\n    tag_66:\n      tag_68\n      jump\t// in\n    tag_65:\n      mload(0x40)\n      tag_69\n      swap2\n      swap1\n      tag_57\n      jump\t// in\n    tag_69:\n      mload(0x40)\n      dup1\n      swap2\n      sub\n      swap1\n      return\n        /* \"contracts/ERC20.sol\":297:323  uint8 public decimals = 18 */\n    tag_9:\n      callvalue\n      dup1\n      iszero\n      tag_70\n      jumpi\n      0x00\n      dup1\n      revert\n    tag_70:\n      pop\n      tag_71\n      tag_72\n      jump\t// in\n    tag_71:\n      mload(0x40)\n      tag_73\n      swap2\n      swap1\n      tag_74\n      jump\t// in\n    tag_73:\n      mload(0x40)\n      dup1\n      swap2\n      sub\n      swap1\n      return\n        /* \"contracts/Pokemon.sol\":2106:2126  Users[] public users */\n    tag_10:\n      callvalue\n      dup1\n      iszero\n      tag_75\n      jumpi\n      0x00\n      dup1\n      revert\n    tag_75:\n      pop\n      tag_76\n      0x04\n      dup1\n      calldatasize\n      sub\n      dup2\n      add\n      swap1\n      tag_77\n      swap2\n      swap1\n      tag_78\n      jump\t// in\n    tag_77:\n      tag_79\n      jump\t// in\n    tag_76:\n      mload(0x40)\n      tag_80\n      swap2\n      swap1\n      tag_81\n      jump\t// in\n    tag_80:\n      mload(0x40)\n      dup1\n      swap2\n      sub\n      swap1\n      return\n        /* \"contracts/Pokemon.sol\":1831:1875  mapping(address => Pokens[]) public pokemons */\n    tag_11:\n      callvalue\n      dup1\n      iszero\n      tag_82\n      jumpi\n      0x00\n      dup1\n      revert\n    tag_82:\n      pop\n      tag_83\n      0x04\n      dup1\n      calldatasize\n      sub\n      dup2\n      add\n      swap1\n      tag_84\n      swap2\n      swap1\n      tag_44\n      jump\t// in\n    tag_84:\n      tag_85\n      jump\t// in\n    tag_83:\n      mload(0x40)\n      tag_86\n      swap3\n      swap2\n      swap1\n      tag_87\n      jump\t// in\n    tag_86:\n      mload(0x40)\n      dup1\n      swap2\n      sub\n      swap1\n      return\n        /* \"contracts/ERC20.sol\":3669:3786  function burn(uint amount) external {... */\n    tag_12:\n      callvalue\n      dup1\n      iszero\n      tag_88\n      jumpi\n      0x00\n      dup1\n      revert\n    tag_88:\n      pop\n      tag_89\n      0x04\n      dup1\n      calldatasize\n      sub\n      dup2\n      add\n      swap1\n      tag_90\n      swap2\n      swap1\n      tag_78\n      jump\t// in\n    tag_90:\n      tag_91\n      jump\t// in\n    tag_89:\n      stop\n        /* \"contracts/ERC20.sol\":2555:2670  function balanceOf(address account) external view override returns(uint){... */\n    tag_13:\n      callvalue\n      dup1\n      iszero\n      tag_92\n      jumpi\n      0x00\n      dup1\n      revert\n    tag_92:\n      pop\n      tag_93\n      0x04\n      dup1\n      calldatasize\n      sub\n      dup2\n      add\n      swap1\n      tag_94\n      swap2\n      swap1\n      tag_67\n      jump\t// in\n    tag_94:\n      tag_95\n      jump\t// in\n    tag_93:\n      mload(0x40)\n      tag_96\n      swap2\n      swap1\n      tag_57\n      jump\t// in\n    tag_96:\n      mload(0x40)\n      dup1\n      swap2\n      sub\n      swap1\n      return\n        /* \"contracts/Pokemon.sol\":2356:2451  function getPokemonUsers() public view returns (Users[] memory) {... */\n    tag_14:\n      callvalue\n      dup1\n      iszero\n      tag_97\n      jumpi\n      0x00\n      dup1\n      revert\n    tag_97:\n      pop\n      tag_98\n      tag_99\n      jump\t// in\n    tag_98:\n      mload(0x40)\n      tag_100\n      swap2\n      swap1\n      tag_101\n      jump\t// in\n    tag_100:\n      mload(0x40)\n      dup1\n      swap2\n      sub\n      swap1\n      return\n        /* \"contracts/Pokemon.sol\":2193:2348  function getPokemon() public view returns (Pokens[] memory) {... */\n    tag_15:\n      callvalue\n      dup1\n      iszero\n      tag_102\n      jumpi\n      0x00\n      dup1\n      revert\n    tag_102:\n      pop\n      tag_103\n      tag_104\n      jump\t// in\n    tag_103:\n      mload(0x40)\n      tag_105\n      swap2\n      swap1\n      tag_52\n      jump\t// in\n    tag_105:\n      mload(0x40)\n      dup1\n      swap2\n      sub\n      swap1\n      return\n        /* \"contracts/ERC20.sol\":207:227  string public symbol */\n    tag_16:\n      callvalue\n      dup1\n      iszero\n      tag_106\n      jumpi\n      0x00\n      dup1\n      revert\n    tag_106:\n      pop\n      tag_107\n      tag_108\n      jump\t// in\n    tag_107:\n      mload(0x40)\n      tag_109\n      swap2\n      swap1\n      tag_40\n      jump\t// in\n    tag_109:\n      mload(0x40)\n      dup1\n      swap2\n      sub\n      swap1\n      return\n        /* \"contracts/ERC20.sol\":2678:2857  function transfer(address to, uint amount) external override returns (bool){... */\n    tag_17:\n      callvalue\n      dup1\n      iszero\n      tag_110\n      jumpi\n      0x00\n      dup1\n      revert\n    tag_110:\n      pop\n      tag_111\n      0x04\n      dup1\n      calldatasize\n      sub\n      dup2\n      add\n      swap1\n      tag_112\n      swap2\n      swap1\n      tag_44\n      jump\t// in\n    tag_112:\n      tag_113\n      jump\t// in\n    tag_111:\n      mload(0x40)\n      tag_114\n      swap2\n      swap1\n      tag_47\n      jump\t// in\n    tag_114:\n      mload(0x40)\n      dup1\n      swap2\n      sub\n      swap1\n      return\n        /* \"contracts/Pokemon.sol\":2459:3422  function buyPokemon() public {... */\n    tag_18:\n      callvalue\n      dup1\n      iszero\n      tag_115\n      jumpi\n      0x00\n      dup1\n      revert\n    tag_115:\n      pop\n      tag_116\n      tag_117\n      jump\t// in\n    tag_116:\n      stop\n        /* \"contracts/Pokemon.sol\":3954:4559  function transferPokemon(address to_value, string memory card) public returns (Pokens[] memory) {... */\n    tag_19:\n      callvalue\n      dup1\n      iszero\n      tag_118\n      jumpi\n      0x00\n      dup1\n      revert\n    tag_118:\n      pop\n      tag_119\n      0x04\n      dup1\n      calldatasize\n      sub\n      dup2\n      add\n      swap1\n      tag_120\n      swap2\n      swap1\n      tag_121\n      jump\t// in\n    tag_120:\n      tag_122\n      jump\t// in\n    tag_119:\n      mload(0x40)\n      tag_123\n      swap2\n      swap1\n      tag_52\n      jump\t// in\n    tag_123:\n      mload(0x40)\n      dup1\n      swap2\n      sub\n      swap1\n      return\n        /* \"contracts/ERC20.sol\":561:627  mapping(address=>mapping(address=>uint)) public override allowance */\n    tag_20:\n      callvalue\n      dup1\n      iszero\n      tag_124\n      jumpi\n      0x00\n      dup1\n      revert\n    tag_124:\n      pop\n      tag_125\n      0x04\n      dup1\n      calldatasize\n      sub\n      dup2\n      add\n      swap1\n      tag_126\n      swap2\n      swap1\n      tag_127\n      jump\t// in\n    tag_126:\n      tag_128\n      jump\t// in\n    tag_125:\n      mload(0x40)\n      tag_129\n      swap2\n      swap1\n      tag_57\n      jump\t// in\n    tag_129:\n      mload(0x40)\n      dup1\n      swap2\n      sub\n      swap1\n      return\n        /* \"contracts/ERC20.sol\":2430:2547  function mint(uint amount) internal {... */\n    tag_35:\n        /* \"contracts/ERC20.sol\":2501:2507  amount */\n      dup1\n        /* \"contracts/ERC20.sol\":2477:2485  balances */\n      0x05\n        /* \"contracts/ERC20.sol\":2477:2497  balances[msg.sender] */\n      0x00\n        /* \"contracts/ERC20.sol\":2486:2496  msg.sender */\n      caller\n        /* \"contracts/ERC20.sol\":2477:2497  balances[msg.sender] */\n      0xffffffffffffffffffffffffffffffffffffffff\n      and\n      0xffffffffffffffffffffffffffffffffffffffff\n      and\n      dup2\n      mstore\n      0x20\n      add\n      swap1\n      dup2\n      mstore\n      0x20\n      add\n      0x00\n      keccak256\n      0x00\n        /* \"contracts/ERC20.sol\":2477:2507  balances[msg.sender] += amount */\n      dup3\n      dup3\n      sload\n      tag_131\n      swap2\n      swap1\n      tag_32\n      jump\t// in\n    tag_131:\n      swap3\n      pop\n      pop\n      dup2\n      swap1\n      sstore\n      pop\n        /* \"contracts/ERC20.sol\":2533:2539  amount */\n      dup1\n        /* \"contracts/ERC20.sol\":2518:2529  totalSupply */\n      0x03\n      0x00\n        /* \"contracts/ERC20.sol\":2518:2539  totalSupply += amount */\n      dup3\n      dup3\n      sload\n      tag_132\n      swap2\n      swap1\n      tag_32\n      jump\t// in\n    tag_132:\n      swap3\n      pop\n      pop\n      dup2\n      swap1\n      sstore\n      pop\n        /* \"contracts/ERC20.sol\":2430:2547  function mint(uint amount) internal {... */\n      pop\n      jump\t// out\n        /* \"contracts/ERC20.sol\":143:161  string public name */\n    tag_38:\n      0x00\n      dup1\n      sload\n      tag_133\n      swap1\n      tag_134\n      jump\t// in\n    tag_133:\n      dup1\n      0x1f\n      add\n      0x20\n      dup1\n      swap2\n      div\n      mul\n      0x20\n      add\n      mload(0x40)\n      swap1\n      dup2\n      add\n      0x40\n      mstore\n      dup1\n      swap3\n      swap2\n      swap1\n      dup2\n      dup2\n      mstore\n      0x20\n      add\n      dup3\n      dup1\n      sload\n      tag_135\n      swap1\n      tag_134\n      jump\t// in\n    tag_135:\n      dup1\n      iszero\n      tag_136\n      jumpi\n      dup1\n      0x1f\n      lt\n      tag_137\n      jumpi\n      0x0100\n      dup1\n      dup4\n      sload\n      div\n      mul\n      dup4\n      mstore\n      swap2\n      0x20\n      add\n      swap2\n      jump(tag_136)\n    tag_137:\n      dup3\n      add\n      swap2\n      swap1\n      0x00\n      mstore\n      keccak256(0x00, 0x20)\n      swap1\n    tag_138:\n      dup2\n      sload\n      dup2\n      mstore\n      swap1\n      0x01\n      add\n      swap1\n      0x20\n      add\n      dup1\n      dup4\n      gt\n      tag_138\n      jumpi\n      dup3\n      swap1\n      sub\n      0x1f\n      and\n      dup3\n      add\n      swap2\n    tag_136:\n      pop\n      pop\n      pop\n      pop\n      pop\n      dup2\n      jump\t// out\n        /* \"contracts/ERC20.sol\":2865:3024  function approve(address spender, uint amount) external override returns (bool){... */\n    tag_45:\n        /* \"contracts/ERC20.sol\":2939:2943  bool */\n      0x00\n        /* \"contracts/ERC20.sol\":2988:2994  amount */\n      dup2\n        /* \"contracts/ERC20.sol\":2955:2964  allowance */\n      0x06\n        /* \"contracts/ERC20.sol\":2955:2976  allowance[msg.sender] */\n      0x00\n        /* \"contracts/ERC20.sol\":2965:2975  msg.sender */\n      caller\n        /* \"contracts/ERC20.sol\":2955:2976  allowance[msg.sender] */\n      0xffffffffffffffffffffffffffffffffffffffff\n      and\n      0xffffffffffffffffffffffffffffffffffffffff\n      and\n      dup2\n      mstore\n      0x20\n      add\n      swap1\n      dup2\n      mstore\n      0x20\n      add\n      0x00\n      keccak256\n        /* \"contracts/ERC20.sol\":2955:2985  allowance[msg.sender][spender] */\n      0x00\n        /* \"contracts/ERC20.sol\":2977:2984  spender */\n      dup6\n        /* \"contracts/ERC20.sol\":2955:2985  allowance[msg.sender][spender] */\n      0xffffffffffffffffffffffffffffffffffffffff\n      and\n      0xffffffffffffffffffffffffffffffffffffffff\n      and\n      dup2\n      mstore\n      0x20\n      add\n      swap1\n      dup2\n      mstore\n      0x20\n      add\n      0x00\n      keccak256\n        /* \"contracts/ERC20.sol\":2955:2994  allowance[msg.sender][spender] = amount */\n      dup2\n      swap1\n      sstore\n      pop\n        /* \"contracts/ERC20.sol\":3012:3016  true */\n      0x01\n        /* \"contracts/ERC20.sol\":3005:3016  return true */\n      swap1\n      pop\n        /* \"contracts/ERC20.sol\":2865:3024  function approve(address spender, uint amount) external override returns (bool){... */\n      swap3\n      swap2\n      pop\n      pop\n      jump\t// out\n        /* \"contracts/Pokemon.sol\":3799:3946  function checkapprove() public view returns (Pokens[] memory) {... */\n    tag_50:\n        /* \"contracts/Pokemon.sol\":3844:3859  Pokens[] memory */\n      0x60\n        /* \"contracts/Pokemon.sol\":3918:3926  pokemons */\n      0x0a\n        /* \"contracts/Pokemon.sol\":3918:3938  pokemons[msg.sender] */\n      0x00\n        /* \"contracts/Pokemon.sol\":3927:3937  msg.sender */\n      caller\n        /* \"contracts/Pokemon.sol\":3918:3938  pokemons[msg.sender] */\n      0xffffffffffffffffffffffffffffffffffffffff\n      and\n      0xffffffffffffffffffffffffffffffffffffffff\n      and\n      dup2\n      mstore\n      0x20\n      add\n      swap1\n      dup2\n      mstore\n      0x20\n      add\n      0x00\n      keccak256\n        /* \"contracts/Pokemon.sol\":3911:3938  return pokemons[msg.sender] */\n      dup1\n      sload\n      dup1\n      0x20\n      mul\n      0x20\n      add\n      mload(0x40)\n      swap1\n      dup2\n      add\n      0x40\n      mstore\n      dup1\n      swap3\n      swap2\n      swap1\n      dup2\n      dup2\n      mstore\n      0x20\n      add\n      0x00\n      swap1\n    tag_141:\n      dup3\n      dup3\n      lt\n      iszero\n      tag_142\n      jumpi\n      dup4\n      dup3\n      swap1\n      0x00\n      mstore\n      keccak256(0x00, 0x20)\n      swap1\n      0x02\n      mul\n      add\n      mload(0x40)\n      dup1\n      0x40\n      add\n      0x40\n      mstore\n      swap1\n      dup2\n      0x00\n      dup3\n      add\n      dup1\n      sload\n      tag_144\n      swap1\n      tag_134\n      jump\t// in\n    tag_144:\n      dup1\n      0x1f\n      add\n      0x20\n      dup1\n      swap2\n      div\n      mul\n      0x20\n      add\n      mload(0x40)\n      swap1\n      dup2\n      add\n      0x40\n      mstore\n      dup1\n      swap3\n      swap2\n      swap1\n      dup2\n      dup2\n      mstore\n      0x20\n      add\n      dup3\n      dup1\n      sload\n      tag_145\n      swap1\n      tag_134\n      jump\t// in\n    tag_145:\n      dup1\n      iszero\n      tag_146\n      jumpi\n      dup1\n      0x1f\n      lt\n      tag_147\n      jumpi\n      0x0100\n      dup1\n      dup4\n      sload\n      div\n      mul\n      dup4\n      mstore\n      swap2\n      0x20\n      add\n      swap2\n      jump(tag_146)\n    tag_147:\n      dup3\n      add\n      swap2\n      swap1\n      0x00\n      mstore\n      keccak256(0x00, 0x20)\n      swap1\n    tag_148:\n      dup2\n      sload\n      dup2\n      mstore\n      swap1\n      0x01\n      add\n      swap1\n      0x20\n      add\n      dup1\n      dup4\n      gt\n      tag_148\n      jumpi\n      dup3\n      swap1\n      sub\n      0x1f\n      and\n      dup3\n      add\n      swap2\n    tag_146:\n      pop\n      pop\n      pop\n      pop\n      pop\n      dup2\n      mstore\n      0x20\n      add\n      0x01\n      dup3\n      add\n      dup1\n      sload\n      tag_149\n      swap1\n      tag_134\n      jump\t// in\n    tag_149:\n      dup1\n      0x1f\n      add\n      0x20\n      dup1\n      swap2\n      div\n      mul\n      0x20\n      add\n      mload(0x40)\n      swap1\n      dup2\n      add\n      0x40\n      mstore\n      dup1\n      swap3\n      swap2\n      swap1\n      dup2\n      dup2\n      mstore\n      0x20\n      add\n      dup3\n      dup1\n      sload\n      tag_150\n      swap1\n      tag_134\n      jump\t// in\n    tag_150:\n      dup1\n      iszero\n      tag_151\n      jumpi\n      dup1\n      0x1f\n      lt\n      tag_152\n      jumpi\n      0x0100\n      dup1\n      dup4\n      sload\n      div\n      mul\n      dup4\n      mstore\n      swap2\n      0x20\n      add\n      swap2\n      jump(tag_151)\n    tag_152:\n      dup3\n      add\n      swap2\n      swap1\n      0x00\n      mstore\n      keccak256(0x00, 0x20)\n      swap1\n    tag_153:\n      dup2\n      sload\n      dup2\n      mstore\n      swap1\n      0x01\n      add\n      swap1\n      0x20\n      add\n      dup1\n      dup4\n      gt\n      tag_153\n      jumpi\n      dup3\n      swap1\n      sub\n      0x1f\n      and\n      dup3\n      add\n      swap2\n    tag_151:\n      pop\n      pop\n      pop\n      pop\n      pop\n      dup2\n      mstore\n      pop\n      pop\n      dup2\n      mstore\n      0x20\n      add\n      swap1\n      0x01\n      add\n      swap1\n      jump(tag_141)\n    tag_142:\n      pop\n      pop\n      pop\n      pop\n      swap1\n      pop\n        /* \"contracts/Pokemon.sol\":3799:3946  function checkapprove() public view returns (Pokens[] memory) {... */\n      swap1\n      jump\t// out\n        /* \"contracts/ERC20.sol\":371:403  uint public override totalSupply */\n    tag_55:\n      sload(0x03)\n      dup2\n      jump\t// out\n        /* \"contracts/ERC20.sol\":3032:3663  function transferFrom(address sender, address to, uint amount) external override returns(bool){... */\n    tag_62:\n        /* \"contracts/ERC20.sol\":3121:3125  bool */\n      0x00\n        /* \"contracts/ERC20.sol\":3178:3184  amount */\n      dup2\n        /* \"contracts/ERC20.sol\":3145:3154  allowance */\n      0x06\n        /* \"contracts/ERC20.sol\":3145:3162  allowance[sender] */\n      0x00\n        /* \"contracts/ERC20.sol\":3155:3161  sender */\n      dup7\n        /* \"contracts/ERC20.sol\":3145:3162  allowance[sender] */\n      0xffffffffffffffffffffffffffffffffffffffff\n      and\n      0xffffffffffffffffffffffffffffffffffffffff\n      and\n      dup2\n      mstore\n      0x20\n      add\n      swap1\n      dup2\n      mstore\n      0x20\n      add\n      0x00\n      keccak256\n        /* \"contracts/ERC20.sol\":3145:3174  allowance[sender][msg.sender] */\n      0x00\n        /* \"contracts/ERC20.sol\":3163:3173  msg.sender */\n      caller\n        /* \"contracts/ERC20.sol\":3145:3174  allowance[sender][msg.sender] */\n      0xffffffffffffffffffffffffffffffffffffffff\n      and\n      0xffffffffffffffffffffffffffffffffffffffff\n      and\n      dup2\n      mstore\n      0x20\n      add\n      swap1\n      dup2\n      mstore\n      0x20\n      add\n      0x00\n      keccak256\n      sload\n        /* \"contracts/ERC20.sol\":3145:3184  allowance[sender][msg.sender] >= amount */\n      lt\n      iszero\n        /* \"contracts/ERC20.sol\":3137:3185  require(allowance[sender][msg.sender] >= amount) */\n      tag_155\n      jumpi\n      0x00\n      dup1\n      revert\n    tag_155:\n        /* \"contracts/ERC20.sol\":3407:3413  amount */\n      dup2\n        /* \"contracts/ERC20.sol\":3374:3383  allowance */\n      0x06\n        /* \"contracts/ERC20.sol\":3374:3391  allowance[sender] */\n      0x00\n        /* \"contracts/ERC20.sol\":3384:3390  sender */\n      dup7\n        /* \"contracts/ERC20.sol\":3374:3391  allowance[sender] */\n      0xffffffffffffffffffffffffffffffffffffffff\n      and\n      0xffffffffffffffffffffffffffffffffffffffff\n      and\n      dup2\n      mstore\n      0x20\n      add\n      swap1\n      dup2\n      mstore\n      0x20\n      add\n      0x00\n      keccak256\n        /* \"contracts/ERC20.sol\":3374:3403  allowance[sender][msg.sender] */\n      0x00\n        /* \"contracts/ERC20.sol\":3392:3402  msg.sender */\n      caller\n        /* \"contracts/ERC20.sol\":3374:3403  allowance[sender][msg.sender] */\n      0xffffffffffffffffffffffffffffffffffffffff\n      and\n      0xffffffffffffffffffffffffffffffffffffffff\n      and\n      dup2\n      mstore\n      0x20\n      add\n      swap1\n      dup2\n      mstore\n      0x20\n      add\n      0x00\n      keccak256\n      0x00\n        /* \"contracts/ERC20.sol\":3374:3413  allowance[sender][msg.sender] -= amount */\n      dup3\n      dup3\n      sload\n      tag_156\n      swap2\n      swap1\n      tag_30\n      jump\t// in\n    tag_156:\n      swap3\n      pop\n      pop\n      dup2\n      swap1\n      sstore\n      pop\n        /* \"contracts/ERC20.sol\":3444:3450  amount */\n      dup2\n        /* \"contracts/ERC20.sol\":3424:3432  balances */\n      0x05\n        /* \"contracts/ERC20.sol\":3424:3440  balances[sender] */\n      0x00\n        /* \"contracts/ERC20.sol\":3433:3439  sender */\n      dup7\n        /* \"contracts/ERC20.sol\":3424:3440  balances[sender] */\n      0xffffffffffffffffffffffffffffffffffffffff\n      and\n      0xffffffffffffffffffffffffffffffffffffffff\n      and\n      dup2\n      mstore\n      0x20\n      add\n      swap1\n      dup2\n      mstore\n      0x20\n      add\n      0x00\n      keccak256\n      0x00\n        /* \"contracts/ERC20.sol\":3424:3450  balances[sender] -= amount */\n      dup3\n      dup3\n      sload\n      tag_157\n      swap2\n      swap1\n      tag_30\n      jump\t// in\n    tag_157:\n      swap3\n      pop\n      pop\n      dup2\n      swap1\n      sstore\n      pop\n        /* \"contracts/ERC20.sol\":3477:3483  amount */\n      dup2\n        /* \"contracts/ERC20.sol\":3461:3469  balances */\n      0x05\n        /* \"contracts/ERC20.sol\":3461:3473  balances[to] */\n      0x00\n        /* \"contracts/ERC20.sol\":3470:3472  to */\n      dup6\n        /* \"contracts/ERC20.sol\":3461:3473  balances[to] */\n      0xffffffffffffffffffffffffffffffffffffffff\n      and\n      0xffffffffffffffffffffffffffffffffffffffff\n      and\n      dup2\n      mstore\n      0x20\n      add\n      swap1\n      dup2\n      mstore\n      0x20\n      add\n      0x00\n      keccak256\n      0x00\n        /* \"contracts/ERC20.sol\":3461:3483  balances[to] += amount */\n      dup3\n      dup3\n      sload\n      tag_158\n      swap2\n      swap1\n      tag_32\n      jump\t// in\n    tag_158:\n      swap3\n      pop\n      pop\n      dup2\n      swap1\n      sstore\n      pop\n        /* \"contracts/ERC20.sol\":3032:3663  function transferFrom(address sender, address to, uint amount) external override returns(bool){... */\n      swap4\n      swap3\n      pop\n      pop\n      pop\n      jump\t// out\n        /* \"contracts/ERC20.sol\":442:482  mapping(address => uint) public balances */\n    tag_68:\n      mstore(0x20, 0x05)\n      dup1\n      0x00\n      mstore\n      keccak256(0x00, 0x40)\n      0x00\n      swap2\n      pop\n      swap1\n      pop\n      sload\n      dup2\n      jump\t// out\n        /* \"contracts/ERC20.sol\":297:323  uint8 public decimals = 18 */\n    tag_72:\n      0x02\n      0x00\n      swap1\n      sload\n      swap1\n      0x0100\n      exp\n      swap1\n      div\n      0xff\n      and\n      dup2\n      jump\t// out\n        /* \"contracts/Pokemon.sol\":2106:2126  Users[] public users */\n    tag_79:\n      0x0b\n      dup2\n      dup2\n      sload\n      dup2\n      lt\n      tag_159\n      jumpi\n      0x00\n      dup1\n      revert\n    tag_159:\n      swap1\n      0x00\n      mstore\n      keccak256(0x00, 0x20)\n      add\n      0x00\n      swap2\n      pop\n      swap1\n      pop\n      dup1\n      0x00\n      add\n      0x00\n      swap1\n      sload\n      swap1\n      0x0100\n      exp\n      swap1\n      div\n      0xffffffffffffffffffffffffffffffffffffffff\n      and\n      swap1\n      pop\n      dup2\n      jump\t// out\n        /* \"contracts/Pokemon.sol\":1831:1875  mapping(address => Pokens[]) public pokemons */\n    tag_85:\n      mstore(0x20, 0x0a)\n      dup2\n      0x00\n      mstore\n      keccak256(0x00, 0x40)\n      dup2\n      dup2\n      sload\n      dup2\n      lt\n      tag_161\n      jumpi\n      0x00\n      dup1\n      revert\n    tag_161:\n      swap1\n      0x00\n      mstore\n      keccak256(0x00, 0x20)\n      swap1\n      0x02\n      mul\n      add\n      0x00\n      swap2\n      pop\n      swap2\n      pop\n      pop\n      dup1\n      0x00\n      add\n      dup1\n      sload\n      tag_163\n      swap1\n      tag_134\n      jump\t// in\n    tag_163:\n      dup1\n      0x1f\n      add\n      0x20\n      dup1\n      swap2\n      div\n      mul\n      0x20\n      add\n      mload(0x40)\n      swap1\n      dup2\n      add\n      0x40\n      mstore\n      dup1\n      swap3\n      swap2\n      swap1\n      dup2\n      dup2\n      mstore\n      0x20\n      add\n      dup3\n      dup1\n      sload\n      tag_164\n      swap1\n      tag_134\n      jump\t// in\n    tag_164:\n      dup1\n      iszero\n      tag_165\n      jumpi\n      dup1\n      0x1f\n      lt\n      tag_166\n      jumpi\n      0x0100\n      dup1\n      dup4\n      sload\n      div\n      mul\n      dup4\n      mstore\n      swap2\n      0x20\n      add\n      swap2\n      jump(tag_165)\n    tag_166:\n      dup3\n      add\n      swap2\n      swap1\n      0x00\n      mstore\n      keccak256(0x00, 0x20)\n      swap1\n    tag_167:\n      dup2\n      sload\n      dup2\n      mstore\n      swap1\n      0x01\n      add\n      swap1\n      0x20\n      add\n      dup1\n      dup4\n      gt\n      tag_167\n      jumpi\n      dup3\n      swap1\n      sub\n      0x1f\n      and\n      dup3\n      add\n      swap2\n    tag_165:\n      pop\n      pop\n      pop\n      pop\n      pop\n      swap1\n      dup1\n      0x01\n      add\n      dup1\n      sload\n      tag_168\n      swap1\n      tag_134\n      jump\t// in\n    tag_168:\n      dup1\n      0x1f\n      add\n      0x20\n      dup1\n      swap2\n      div\n      mul\n      0x20\n      add\n      mload(0x40)\n      swap1\n      dup2\n      add\n      0x40\n      mstore\n      dup1\n      swap3\n      swap2\n      swap1\n      dup2\n      dup2\n      mstore\n      0x20\n      add\n      dup3\n      dup1\n      sload\n      tag_169\n      swap1\n      tag_134\n      jump\t// in\n    tag_169:\n      dup1\n      iszero\n      tag_170\n      jumpi\n      dup1\n      0x1f\n      lt\n      tag_171\n      jumpi\n      0x0100\n      dup1\n      dup4\n      sload\n      div\n      mul\n      dup4\n      mstore\n      swap2\n      0x20\n      add\n      swap2\n      jump(tag_170)\n    tag_171:\n      dup3\n      add\n      swap2\n      swap1\n      0x00\n      mstore\n      keccak256(0x00, 0x20)\n      swap1\n    tag_172:\n      dup2\n      sload\n      dup2\n      mstore\n      swap1\n      0x01\n      add\n      swap1\n      0x20\n      add\n      dup1\n      dup4\n      gt\n      tag_172\n      jumpi\n      dup3\n      swap1\n      sub\n      0x1f\n      and\n      dup3\n      add\n      swap2\n    tag_170:\n      pop\n      pop\n      pop\n      pop\n      pop\n      swap1\n      pop\n      dup3\n      jump\t// out\n        /* \"contracts/ERC20.sol\":3669:3786  function burn(uint amount) external {... */\n    tag_91:\n        /* \"contracts/ERC20.sol\":3740:3746  amount */\n      dup1\n        /* \"contracts/ERC20.sol\":3716:3724  balances */\n      0x05\n        /* \"contracts/ERC20.sol\":3716:3736  balances[msg.sender] */\n      0x00\n        /* \"contracts/ERC20.sol\":3725:3735  msg.sender */\n      caller\n        /* \"contracts/ERC20.sol\":3716:3736  balances[msg.sender] */\n      0xffffffffffffffffffffffffffffffffffffffff\n      and\n      0xffffffffffffffffffffffffffffffffffffffff\n      and\n      dup2\n      mstore\n      0x20\n      add\n      swap1\n      dup2\n      mstore\n      0x20\n      add\n      0x00\n      keccak256\n      0x00\n        /* \"contracts/ERC20.sol\":3716:3746  balances[msg.sender] -= amount */\n      dup3\n      dup3\n      sload\n      tag_174\n      swap2\n      swap1\n      tag_30\n      jump\t// in\n    tag_174:\n      swap3\n      pop\n      pop\n      dup2\n      swap1\n      sstore\n      pop\n        /* \"contracts/ERC20.sol\":3772:3778  amount */\n      dup1\n        /* \"contracts/ERC20.sol\":3757:3768  totalSupply */\n      0x03\n      0x00\n        /* \"contracts/ERC20.sol\":3757:3778  totalSupply -= amount */\n      dup3\n      dup3\n      sload\n      tag_175\n      swap2\n      swap1\n      tag_30\n      jump\t// in\n    tag_175:\n      swap3\n      pop\n      pop\n      dup2\n      swap1\n      sstore\n      pop\n        /* \"contracts/ERC20.sol\":3669:3786  function burn(uint amount) external {... */\n      pop\n      jump\t// out\n        /* \"contracts/ERC20.sol\":2555:2670  function balanceOf(address account) external view override returns(uint){... */\n    tag_95:\n        /* \"contracts/ERC20.sol\":2622:2626  uint */\n      0x00\n        /* \"contracts/ERC20.sol\":2645:2653  balances */\n      0x05\n        /* \"contracts/ERC20.sol\":2645:2662  balances[account] */\n      0x00\n        /* \"contracts/ERC20.sol\":2654:2661  account */\n      dup4\n        /* \"contracts/ERC20.sol\":2645:2662  balances[account] */\n      0xffffffffffffffffffffffffffffffffffffffff\n      and\n      0xffffffffffffffffffffffffffffffffffffffff\n      and\n      dup2\n      mstore\n      0x20\n      add\n      swap1\n      dup2\n      mstore\n      0x20\n      add\n      0x00\n      keccak256\n      sload\n        /* \"contracts/ERC20.sol\":2638:2662  return balances[account] */\n      swap1\n      pop\n        /* \"contracts/ERC20.sol\":2555:2670  function balanceOf(address account) external view override returns(uint){... */\n      swap2\n      swap1\n      pop\n      jump\t// out\n        /* \"contracts/Pokemon.sol\":2356:2451  function getPokemonUsers() public view returns (Users[] memory) {... */\n    tag_99:\n        /* \"contracts/Pokemon.sol\":2404:2418  Users[] memory */\n      0x60\n        /* \"contracts/Pokemon.sol\":2438:2443  users */\n      0x0b\n        /* \"contracts/Pokemon.sol\":2431:2443  return users */\n      dup1\n      sload\n      dup1\n      0x20\n      mul\n      0x20\n      add\n      mload(0x40)\n      swap1\n      dup2\n      add\n      0x40\n      mstore\n      dup1\n      swap3\n      swap2\n      swap1\n      dup2\n      dup2\n      mstore\n      0x20\n      add\n      0x00\n      swap1\n    tag_178:\n      dup3\n      dup3\n      lt\n      iszero\n      tag_179\n      jumpi\n      dup4\n      dup3\n      swap1\n      0x00\n      mstore\n      keccak256(0x00, 0x20)\n      add\n      mload(0x40)\n      dup1\n      0x20\n      add\n      0x40\n      mstore\n      swap1\n      dup2\n      0x00\n      dup3\n      add\n      0x00\n      swap1\n      sload\n      swap1\n      0x0100\n      exp\n      swap1\n      div\n      0xffffffffffffffffffffffffffffffffffffffff\n      and\n      0xffffffffffffffffffffffffffffffffffffffff\n      and\n      0xffffffffffffffffffffffffffffffffffffffff\n      and\n      dup2\n      mstore\n      pop\n      pop\n      dup2\n      mstore\n      0x20\n      add\n      swap1\n      0x01\n      add\n      swap1\n      jump(tag_178)\n    tag_179:\n      pop\n      pop\n      pop\n      pop\n      swap1\n      pop\n        /* \"contracts/Pokemon.sol\":2356:2451  function getPokemonUsers() public view returns (Users[] memory) {... */\n      swap1\n      jump\t// out\n        /* \"contracts/Pokemon.sol\":2193:2348  function getPokemon() public view returns (Pokens[] memory) {... */\n    tag_104:\n        /* \"contracts/Pokemon.sol\":2236:2251  Pokens[] memory */\n      0x60\n        /* \"contracts/Pokemon.sol\":2320:2328  pokemons */\n      0x0a\n        /* \"contracts/Pokemon.sol\":2320:2340  pokemons[msg.sender] */\n      0x00\n        /* \"contracts/Pokemon.sol\":2329:2339  msg.sender */\n      caller\n        /* \"contracts/Pokemon.sol\":2320:2340  pokemons[msg.sender] */\n      0xffffffffffffffffffffffffffffffffffffffff\n      and\n      0xffffffffffffffffffffffffffffffffffffffff\n      and\n      dup2\n      mstore\n      0x20\n      add\n      swap1\n      dup2\n      mstore\n      0x20\n      add\n      0x00\n      keccak256\n        /* \"contracts/Pokemon.sol\":2313:2340  return pokemons[msg.sender] */\n      dup1\n      sload\n      dup1\n      0x20\n      mul\n      0x20\n      add\n      mload(0x40)\n      swap1\n      dup2\n      add\n      0x40\n      mstore\n      dup1\n      swap3\n      swap2\n      swap1\n      dup2\n      dup2\n      mstore\n      0x20\n      add\n      0x00\n      swap1\n    tag_182:\n      dup3\n      dup3\n      lt\n      iszero\n      tag_183\n      jumpi\n      dup4\n      dup3\n      swap1\n      0x00\n      mstore\n      keccak256(0x00, 0x20)\n      swap1\n      0x02\n      mul\n      add\n      mload(0x40)\n      dup1\n      0x40\n      add\n      0x40\n      mstore\n      swap1\n      dup2\n      0x00\n      dup3\n      add\n      dup1\n      sload\n      tag_185\n      swap1\n      tag_134\n      jump\t// in\n    tag_185:\n      dup1\n      0x1f\n      add\n      0x20\n      dup1\n      swap2\n      div\n      mul\n      0x20\n      add\n      mload(0x40)\n      swap1\n      dup2\n      add\n      0x40\n      mstore\n      dup1\n      swap3\n      swap2\n      swap1\n      dup2\n      dup2\n      mstore\n      0x20\n      add\n      dup3\n      dup1\n      sload\n      tag_186\n      swap1\n      tag_134\n      jump\t// in\n    tag_186:\n      dup1\n      iszero\n      tag_187\n      jumpi\n      dup1\n      0x1f\n      lt\n      tag_188\n      jumpi\n      0x0100\n      dup1\n      dup4\n      sload\n      div\n      mul\n      dup4\n      mstore\n      swap2\n      0x20\n      add\n      swap2\n      jump(tag_187)\n    tag_188:\n      dup3\n      add\n      swap2\n      swap1\n      0x00\n      mstore\n      keccak256(0x00, 0x20)\n      swap1\n    tag_189:\n      dup2\n      sload\n      dup2\n      mstore\n      swap1\n      0x01\n      add\n      swap1\n      0x20\n      add\n      dup1\n      dup4\n      gt\n      tag_189\n      jumpi\n      dup3\n      swap1\n      sub\n      0x1f\n      and\n      dup3\n      add\n      swap2\n    tag_187:\n      pop\n      pop\n      pop\n      pop\n      pop\n      dup2\n      mstore\n      0x20\n      add\n      0x01\n      dup3\n      add\n      dup1\n      sload\n      tag_190\n      swap1\n      tag_134\n      jump\t// in\n    tag_190:\n      dup1\n      0x1f\n      add\n      0x20\n      dup1\n      swap2\n      div\n      mul\n      0x20\n      add\n      mload(0x40)\n      swap1\n      dup2\n      add\n      0x40\n      mstore\n      dup1\n      swap3\n      swap2\n      swap1\n      dup2\n      dup2\n      mstore\n      0x20\n      add\n      dup3\n      dup1\n      sload\n      tag_191\n      swap1\n      tag_134\n      jump\t// in\n    tag_191:\n      dup1\n      iszero\n      tag_192\n      jumpi\n      dup1\n      0x1f\n      lt\n      tag_193\n      jumpi\n      0x0100\n      dup1\n      dup4\n      sload\n      div\n      mul\n      dup4\n      mstore\n      swap2\n      0x20\n      add\n      swap2\n      jump(tag_192)\n    tag_193:\n      dup3\n      add\n      swap2\n      swap1\n      0x00\n      mstore\n      keccak256(0x00, 0x20)\n      swap1\n    tag_194:\n      dup2\n      sload\n      dup2\n      mstore\n      swap1\n      0x01\n      add\n      swap1\n      0x20\n      add\n      dup1\n      dup4\n      gt\n      tag_194\n      jumpi\n      dup3\n      swap1\n      sub\n      0x1f\n      and\n      dup3\n      add\n      swap2\n    tag_192:\n      pop\n      pop\n      pop\n      pop\n      pop\n      dup2\n      mstore\n      pop\n      pop\n      dup2\n      mstore\n      0x20\n      add\n      swap1\n      0x01\n      add\n      swap1\n      jump(tag_182)\n    tag_183:\n      pop\n      pop\n      pop\n      pop\n      swap1\n      pop\n        /* \"contracts/Pokemon.sol\":2193:2348  function getPokemon() public view returns (Pokens[] memory) {... */\n      swap1\n      jump\t// out\n        /* \"contracts/ERC20.sol\":207:227  string public symbol */\n    tag_108:\n      0x01\n      dup1\n      sload\n      tag_195\n      swap1\n      tag_134\n      jump\t// in\n    tag_195:\n      dup1\n      0x1f\n      add\n      0x20\n      dup1\n      swap2\n      div\n      mul\n      0x20\n      add\n      mload(0x40)\n      swap1\n      dup2\n      add\n      0x40\n      mstore\n      dup1\n      swap3\n      swap2\n      swap1\n      dup2\n      dup2\n      mstore\n      0x20\n      add\n      dup3\n      dup1\n      sload\n      tag_196\n      swap1\n      tag_134\n      jump\t// in\n    tag_196:\n      dup1\n      iszero\n      tag_197\n      jumpi\n      dup1\n      0x1f\n      lt\n      tag_198\n      jumpi\n      0x0100\n      dup1\n      dup4\n      sload\n      div\n      mul\n      dup4\n      mstore\n      swap2\n      0x20\n      add\n      swap2\n      jump(tag_197)\n    tag_198:\n      dup3\n      add\n      swap2\n      swap1\n      0x00\n      mstore\n      keccak256(0x00, 0x20)\n      swap1\n    tag_199:\n      dup2\n      sload\n      dup2\n      mstore\n      swap1\n      0x01\n      add\n      swap1\n      0x20\n      add\n      dup1\n      dup4\n      gt\n      tag_199\n      jumpi\n      dup3\n      swap1\n      sub\n      0x1f\n      and\n      dup3\n      add\n      swap2\n    tag_197:\n      pop\n      pop\n      pop\n      pop\n      pop\n      dup2\n      jump\t// out\n        /* \"contracts/ERC20.sol\":2678:2857  function transfer(address to, uint amount) external override returns (bool){... */\n    tag_113:\n        /* \"contracts/ERC20.sol\":2748:2752  bool */\n      0x00\n        /* \"contracts/ERC20.sol\":2788:2794  amount */\n      dup2\n        /* \"contracts/ERC20.sol\":2764:2772  balances */\n      0x05\n        /* \"contracts/ERC20.sol\":2764:2784  balances[msg.sender] */\n      0x00\n        /* \"contracts/ERC20.sol\":2773:2783  msg.sender */\n      caller\n        /* \"contracts/ERC20.sol\":2764:2784  balances[msg.sender] */\n      0xffffffffffffffffffffffffffffffffffffffff\n      and\n      0xffffffffffffffffffffffffffffffffffffffff\n      and\n      dup2\n      mstore\n      0x20\n      add\n      swap1\n      dup2\n      mstore\n      0x20\n      add\n      0x00\n      keccak256\n      0x00\n        /* \"contracts/ERC20.sol\":2764:2794  balances[msg.sender] -= amount */\n      dup3\n      dup3\n      sload\n      tag_201\n      swap2\n      swap1\n      tag_30\n      jump\t// in\n    tag_201:\n      swap3\n      pop\n      pop\n      dup2\n      swap1\n      sstore\n      pop\n        /* \"contracts/ERC20.sol\":2821:2827  amount */\n      dup2\n        /* \"contracts/ERC20.sol\":2805:2813  balances */\n      0x05\n        /* \"contracts/ERC20.sol\":2805:2817  balances[to] */\n      0x00\n        /* \"contracts/ERC20.sol\":2814:2816  to */\n      dup6\n        /* \"contracts/ERC20.sol\":2805:2817  balances[to] */\n      0xffffffffffffffffffffffffffffffffffffffff\n      and\n      0xffffffffffffffffffffffffffffffffffffffff\n      and\n      dup2\n      mstore\n      0x20\n      add\n      swap1\n      dup2\n      mstore\n      0x20\n      add\n      0x00\n      keccak256\n      0x00\n        /* \"contracts/ERC20.sol\":2805:2827  balances[to] += amount */\n      dup3\n      dup3\n      sload\n      tag_202\n      swap2\n      swap1\n      tag_32\n      jump\t// in\n    tag_202:\n      swap3\n      pop\n      pop\n      dup2\n      swap1\n      sstore\n      pop\n        /* \"contracts/ERC20.sol\":2845:2849  true */\n      0x01\n        /* \"contracts/ERC20.sol\":2838:2849  return true */\n      swap1\n      pop\n        /* \"contracts/ERC20.sol\":2678:2857  function transfer(address to, uint amount) external override returns (bool){... */\n      swap3\n      swap2\n      pop\n      pop\n      jump\t// out\n        /* \"contracts/Pokemon.sol\":2459:3422  function buyPokemon() public {... */\n    tag_117:\n        /* \"contracts/Pokemon.sol\":2531:2541  tokenPrice */\n      sload(0x07)\n        /* \"contracts/Pokemon.sol\":2507:2515  balances */\n      0x05\n        /* \"contracts/Pokemon.sol\":2507:2527  balances[msg.sender] */\n      0x00\n        /* \"contracts/Pokemon.sol\":2516:2526  msg.sender */\n      caller\n        /* \"contracts/Pokemon.sol\":2507:2527  balances[msg.sender] */\n      0xffffffffffffffffffffffffffffffffffffffff\n      and\n      0xffffffffffffffffffffffffffffffffffffffff\n      and\n      dup2\n      mstore\n      0x20\n      add\n      swap1\n      dup2\n      mstore\n      0x20\n      add\n      0x00\n      keccak256\n      sload\n        /* \"contracts/Pokemon.sol\":2507:2541  balances[msg.sender] >= tokenPrice */\n      lt\n      iszero\n        /* \"contracts/Pokemon.sol\":2499:2542  require(balances[msg.sender] >= tokenPrice) */\n      tag_204\n      jumpi\n      0x00\n      dup1\n      revert\n    tag_204:\n        /* \"contracts/Pokemon.sol\":2577:2587  tokenPrice */\n      sload(0x07)\n        /* \"contracts/Pokemon.sol\":2553:2561  balances */\n      0x05\n        /* \"contracts/Pokemon.sol\":2553:2573  balances[msg.sender] */\n      0x00\n        /* \"contracts/Pokemon.sol\":2562:2572  msg.sender */\n      caller\n        /* \"contracts/Pokemon.sol\":2553:2573  balances[msg.sender] */\n      0xffffffffffffffffffffffffffffffffffffffff\n      and\n      0xffffffffffffffffffffffffffffffffffffffff\n      and\n      dup2\n      mstore\n      0x20\n      add\n      swap1\n      dup2\n      mstore\n      0x20\n      add\n      0x00\n      keccak256\n      0x00\n        /* \"contracts/Pokemon.sol\":2553:2587  balances[msg.sender] -= tokenPrice */\n      dup3\n      dup3\n      sload\n      tag_205\n      swap2\n      swap1\n      tag_30\n      jump\t// in\n    tag_205:\n      swap3\n      pop\n      pop\n      dup2\n      swap1\n      sstore\n      pop\n        /* \"contracts/Pokemon.sol\":2613:2623  tokenPrice */\n      sload(0x07)\n        /* \"contracts/Pokemon.sol\":2598:2609  totalSupply */\n      0x03\n      0x00\n        /* \"contracts/Pokemon.sol\":2598:2623  totalSupply -= tokenPrice */\n      dup3\n      dup3\n      sload\n      tag_206\n      swap2\n      swap1\n      tag_30\n      jump\t// in\n    tag_206:\n      swap3\n      pop\n      pop\n      dup2\n      swap1\n      sstore\n      pop\n        /* \"contracts/Pokemon.sol\":2636:2647  uint random */\n      0x00\n        /* \"contracts/Pokemon.sol\":2714:2729  block.timestamp */\n      timestamp\n        /* \"contracts/Pokemon.sol\":2731:2745  block.coinbase */\n      coinbase\n        /* \"contracts/Pokemon.sol\":2747:2759  block.number */\n      number\n        /* \"contracts/Pokemon.sol\":2697:2760  abi.encodePacked(block.timestamp, block.coinbase, block.number) */\n      add(0x20, mload(0x40))\n      tag_207\n      swap4\n      swap3\n      swap2\n      swap1\n      tag_208\n      jump\t// in\n    tag_207:\n      mload(0x40)\n      0x20\n      dup2\n      dup4\n      sub\n      sub\n      dup2\n      mstore\n      swap1\n      0x40\n      mstore\n        /* \"contracts/Pokemon.sol\":2669:2775  keccak256(... */\n      dup1\n      mload\n      swap1\n      0x20\n      add\n      keccak256\n        /* \"contracts/Pokemon.sol\":2650:2786  uint(... */\n      0x00\n      shr\n        /* \"contracts/Pokemon.sol\":2636:2786  uint random = uint(... */\n      swap1\n      pop\n        /* \"contracts/Pokemon.sol\":2820:2821  3 */\n      0x03\n        /* \"contracts/Pokemon.sol\":2811:2817  random */\n      dup2\n        /* \"contracts/Pokemon.sol\":2811:2821  random % 3 */\n      tag_209\n      swap2\n      swap1\n      tag_210\n      jump\t// in\n    tag_209:\n        /* \"contracts/Pokemon.sol\":2797:2822  random = uint(random % 3) */\n      swap1\n      pop\n        /* \"contracts/Pokemon.sol\":2951:2959  pokemons */\n      0x0a\n        /* \"contracts/Pokemon.sol\":2951:2971  pokemons[msg.sender] */\n      0x00\n        /* \"contracts/Pokemon.sol\":2960:2970  msg.sender */\n      caller\n        /* \"contracts/Pokemon.sol\":2951:2971  pokemons[msg.sender] */\n      0xffffffffffffffffffffffffffffffffffffffff\n      and\n      0xffffffffffffffffffffffffffffffffffffffff\n      and\n      dup2\n      mstore\n      0x20\n      add\n      swap1\n      dup2\n      mstore\n      0x20\n      add\n      0x00\n      keccak256\n        /* \"contracts/Pokemon.sol\":2991:3038  Pokens(pokemonUrl[random], pokemonName[random]) */\n      mload(0x40)\n      dup1\n      0x40\n      add\n      0x40\n      mstore\n      dup1\n        /* \"contracts/Pokemon.sol\":2998:3008  pokemonUrl */\n      0x09\n        /* \"contracts/Pokemon.sol\":3009:3015  random */\n      dup5\n        /* \"contracts/Pokemon.sol\":2998:3016  pokemonUrl[random] */\n      dup2\n      sload\n      dup2\n      lt\n      tag_211\n      jumpi\n      tag_212\n      tag_213\n      jump\t// in\n    tag_212:\n    tag_211:\n      swap1\n      0x00\n      mstore\n      keccak256(0x00, 0x20)\n      add\n        /* \"contracts/Pokemon.sol\":2991:3038  Pokens(pokemonUrl[random], pokemonName[random]) */\n      dup1\n      sload\n      tag_215\n      swap1\n      tag_134\n      jump\t// in\n    tag_215:\n      dup1\n      0x1f\n      add\n      0x20\n      dup1\n      swap2\n      div\n      mul\n      0x20\n      add\n      mload(0x40)\n      swap1\n      dup2\n      add\n      0x40\n      mstore\n      dup1\n      swap3\n      swap2\n      swap1\n      dup2\n      dup2\n      mstore\n      0x20\n      add\n      dup3\n      dup1\n      sload\n      tag_216\n      swap1\n      tag_134\n      jump\t// in\n    tag_216:\n      dup1\n      iszero\n      tag_217\n      jumpi\n      dup1\n      0x1f\n      lt\n      tag_218\n      jumpi\n      0x0100\n      dup1\n      dup4\n      sload\n      div\n      mul\n      dup4\n      mstore\n      swap2\n      0x20\n      add\n      swap2\n      jump(tag_217)\n    tag_218:\n      dup3\n      add\n      swap2\n      swap1\n      0x00\n      mstore\n      keccak256(0x00, 0x20)\n      swap1\n    tag_219:\n      dup2\n      sload\n      dup2\n      mstore\n      swap1\n      0x01\n      add\n      swap1\n      0x20\n      add\n      dup1\n      dup4\n      gt\n      tag_219\n      jumpi\n      dup3\n      swap1\n      sub\n      0x1f\n      and\n      dup3\n      add\n      swap2\n    tag_217:\n      pop\n      pop\n      pop\n      pop\n      pop\n      dup2\n      mstore\n      0x20\n      add\n        /* \"contracts/Pokemon.sol\":3018:3029  pokemonName */\n      0x08\n        /* \"contracts/Pokemon.sol\":3030:3036  random */\n      dup5\n        /* \"contracts/Pokemon.sol\":3018:3037  pokemonName[random] */\n      dup2\n      sload\n      dup2\n      lt\n      tag_220\n      jumpi\n      tag_221\n      tag_213\n      jump\t// in\n    tag_221:\n    tag_220:\n      swap1\n      0x00\n      mstore\n      keccak256(0x00, 0x20)\n      add\n        /* \"contracts/Pokemon.sol\":2991:3038  Pokens(pokemonUrl[random], pokemonName[random]) */\n      dup1\n      sload\n      tag_223\n      swap1\n      tag_134\n      jump\t// in\n    tag_223:\n      dup1\n      0x1f\n      add\n      0x20\n      dup1\n      swap2\n      div\n      mul\n      0x20\n      add\n      mload(0x40)\n      swap1\n      dup2\n      add\n      0x40\n      mstore\n      dup1\n      swap3\n      swap2\n      swap1\n      dup2\n      dup2\n      mstore\n      0x20\n      add\n      dup3\n      dup1\n      sload\n      tag_224\n      swap1\n      tag_134\n      jump\t// in\n    tag_224:\n      dup1\n      iszero\n      tag_225\n      jumpi\n      dup1\n      0x1f\n      lt\n      tag_226\n      jumpi\n      0x0100\n      dup1\n      dup4\n      sload\n      div\n      mul\n      dup4\n      mstore\n      swap2\n      0x20\n      add\n      swap2\n      jump(tag_225)\n    tag_226:\n      dup3\n      add\n      swap2\n      swap1\n      0x00\n      mstore\n      keccak256(0x00, 0x20)\n      swap1\n    tag_227:\n      dup2\n      sload\n      dup2\n      mstore\n      swap1\n      0x01\n      add\n      swap1\n      0x20\n      add\n      dup1\n      dup4\n      gt\n      tag_227\n      jumpi\n      dup3\n      swap1\n      sub\n      0x1f\n      and\n      dup3\n      add\n      swap2\n    tag_225:\n      pop\n      pop\n      pop\n      pop\n      pop\n      dup2\n      mstore\n      pop\n        /* \"contracts/Pokemon.sol\":2951:3049  pokemons[msg.sender].push(... */\n      swap1\n      dup1\n      0x01\n      dup2\n      sload\n      add\n      dup1\n      dup3\n      sstore\n      dup1\n      swap2\n      pop\n      pop\n      0x01\n      swap1\n      sub\n      swap1\n      0x00\n      mstore\n      keccak256(0x00, 0x20)\n      swap1\n      0x02\n      mul\n      add\n      0x00\n      swap1\n      swap2\n      swap1\n      swap2\n      swap1\n      swap2\n      pop\n      0x00\n      dup3\n      add\n      mload\n      dup2\n      0x00\n      add\n      swap1\n      dup2\n      tag_229\n      swap2\n      swap1\n      tag_230\n      jump\t// in\n    tag_229:\n      pop\n      0x20\n      dup3\n      add\n      mload\n      dup2\n      0x01\n      add\n      swap1\n      dup2\n      tag_231\n      swap2\n      swap1\n      tag_230\n      jump\t// in\n    tag_231:\n      pop\n      pop\n      pop\n        /* \"contracts/Pokemon.sol\":3127:3138  bool isUser */\n      0x00\n        /* \"contracts/Pokemon.sol\":3162:3171  uint256 i */\n      dup1\n        /* \"contracts/Pokemon.sol\":3157:3334  for (uint256 i = 0; i < users.length; i++) {... */\n    tag_232:\n        /* \"contracts/Pokemon.sol\":3181:3186  users */\n      0x0b\n        /* \"contracts/Pokemon.sol\":3181:3193  users.length */\n      dup1\n      sload\n      swap1\n      pop\n        /* \"contracts/Pokemon.sol\":3177:3178  i */\n      dup2\n        /* \"contracts/Pokemon.sol\":3177:3193  i < users.length */\n      lt\n        /* \"contracts/Pokemon.sol\":3157:3334  for (uint256 i = 0; i < users.length; i++) {... */\n      iszero\n      tag_233\n      jumpi\n        /* \"contracts/Pokemon.sol\":3239:3249  msg.sender */\n      caller\n        /* \"contracts/Pokemon.sol\":3219:3249  users[i].account == msg.sender */\n      0xffffffffffffffffffffffffffffffffffffffff\n      and\n        /* \"contracts/Pokemon.sol\":3219:3224  users */\n      0x0b\n        /* \"contracts/Pokemon.sol\":3225:3226  i */\n      dup3\n        /* \"contracts/Pokemon.sol\":3219:3227  users[i] */\n      dup2\n      sload\n      dup2\n      lt\n      tag_235\n      jumpi\n      tag_236\n      tag_213\n      jump\t// in\n    tag_236:\n    tag_235:\n      swap1\n      0x00\n      mstore\n      keccak256(0x00, 0x20)\n      add\n        /* \"contracts/Pokemon.sol\":3219:3235  users[i].account */\n      0x00\n      add\n      0x00\n      swap1\n      sload\n      swap1\n      0x0100\n      exp\n      swap1\n      div\n      0xffffffffffffffffffffffffffffffffffffffff\n      and\n        /* \"contracts/Pokemon.sol\":3219:3249  users[i].account == msg.sender */\n      0xffffffffffffffffffffffffffffffffffffffff\n      and\n      sub\n        /* \"contracts/Pokemon.sol\":3215:3323  if (users[i].account == msg.sender) {... */\n      tag_238\n      jumpi\n        /* \"contracts/Pokemon.sol\":3279:3283  true */\n      0x01\n        /* \"contracts/Pokemon.sol\":3270:3283  isUser = true */\n      swap2\n      pop\n        /* \"contracts/Pokemon.sol\":3302:3307  break */\n      jump(tag_233)\n        /* \"contracts/Pokemon.sol\":3215:3323  if (users[i].account == msg.sender) {... */\n    tag_238:\n        /* \"contracts/Pokemon.sol\":3195:3198  i++ */\n      dup1\n      dup1\n      tag_239\n      swap1\n      tag_240\n      jump\t// in\n    tag_239:\n      swap2\n      pop\n      pop\n        /* \"contracts/Pokemon.sol\":3157:3334  for (uint256 i = 0; i < users.length; i++) {... */\n      jump(tag_232)\n    tag_233:\n      pop\n        /* \"contracts/Pokemon.sol\":3351:3357  isUser */\n      dup1\n        /* \"contracts/Pokemon.sol\":3346:3415  if (!isUser) {... */\n      tag_241\n      jumpi\n        /* \"contracts/Pokemon.sol\":3374:3379  users */\n      0x0b\n        /* \"contracts/Pokemon.sol\":3385:3402  Users(msg.sender) */\n      mload(0x40)\n      dup1\n      0x20\n      add\n      0x40\n      mstore\n      dup1\n        /* \"contracts/Pokemon.sol\":3391:3401  msg.sender */\n      caller\n        /* \"contracts/Pokemon.sol\":3385:3402  Users(msg.sender) */\n      0xffffffffffffffffffffffffffffffffffffffff\n      and\n      dup2\n      mstore\n      pop\n        /* \"contracts/Pokemon.sol\":3374:3403  users.push(Users(msg.sender)) */\n      swap1\n      dup1\n      0x01\n      dup2\n      sload\n      add\n      dup1\n      dup3\n      sstore\n      dup1\n      swap2\n      pop\n      pop\n      0x01\n      swap1\n      sub\n      swap1\n      0x00\n      mstore\n      keccak256(0x00, 0x20)\n      add\n      0x00\n      swap1\n      swap2\n      swap1\n      swap2\n      swap1\n      swap2\n      pop\n      0x00\n      dup3\n      add\n      mload\n      dup2\n      0x00\n      add\n      exp(0x0100, 0x00)\n      dup2\n      sload\n      dup2\n      0xffffffffffffffffffffffffffffffffffffffff\n      mul\n      not\n      and\n      swap1\n      dup4\n      0xffffffffffffffffffffffffffffffffffffffff\n      and\n      mul\n      or\n      swap1\n      sstore\n      pop\n      pop\n      pop\n        /* \"contracts/Pokemon.sol\":3346:3415  if (!isUser) {... */\n    tag_241:\n        /* \"contracts/Pokemon.sol\":2488:3422  {... */\n      pop\n      pop\n        /* \"contracts/Pokemon.sol\":2459:3422  function buyPokemon() public {... */\n      jump\t// out\n        /* \"contracts/Pokemon.sol\":3954:4559  function transferPokemon(address to_value, string memory card) public returns (Pokens[] memory) {... */\n    tag_122:\n        /* \"contracts/Pokemon.sol\":4033:4048  Pokens[] memory */\n      0x60\n        /* \"contracts/Pokemon.sol\":4061:4085  Pokens[] storage pokemon */\n      0x00\n        /* \"contracts/Pokemon.sol\":4088:4096  pokemons */\n      0x0a\n        /* \"contracts/Pokemon.sol\":4088:4108  pokemons[msg.sender] */\n      0x00\n        /* \"contracts/Pokemon.sol\":4097:4107  msg.sender */\n      caller\n        /* \"contracts/Pokemon.sol\":4088:4108  pokemons[msg.sender] */\n      0xffffffffffffffffffffffffffffffffffffffff\n      and\n      0xffffffffffffffffffffffffffffffffffffffff\n      and\n      dup2\n      mstore\n      0x20\n      add\n      swap1\n      dup2\n      mstore\n      0x20\n      add\n      0x00\n      keccak256\n        /* \"contracts/Pokemon.sol\":4061:4108  Pokens[] storage pokemon = pokemons[msg.sender] */\n      swap1\n      pop\n        /* \"contracts/Pokemon.sol\":4347:4355  pokemons */\n      0x0a\n        /* \"contracts/Pokemon.sol\":4347:4367  pokemons[msg.sender] */\n      0x00\n        /* \"contracts/Pokemon.sol\":4356:4366  msg.sender */\n      caller\n        /* \"contracts/Pokemon.sol\":4347:4367  pokemons[msg.sender] */\n      0xffffffffffffffffffffffffffffffffffffffff\n      and\n      0xffffffffffffffffffffffffffffffffffffffff\n      and\n      dup2\n      mstore\n      0x20\n      add\n      swap1\n      dup2\n      mstore\n      0x20\n      add\n      0x00\n      keccak256\n        /* \"contracts/Pokemon.sol\":4347:4373  pokemons[msg.sender].pop() */\n      dup1\n      sload\n      dup1\n      tag_244\n      jumpi\n      tag_245\n      tag_246\n      jump\t// in\n    tag_245:\n    tag_244:\n      0x01\n      swap1\n      sub\n      dup2\n      dup2\n      swap1\n      0x00\n      mstore\n      keccak256(0x00, 0x20)\n      swap1\n      0x02\n      mul\n      add\n      0x00\n      dup1\n      dup3\n      add\n      0x00\n      tag_248\n      swap2\n      swap1\n      tag_249\n      jump\t// in\n    tag_248:\n      0x01\n      dup3\n      add\n      0x00\n      tag_250\n      swap2\n      swap1\n      tag_249\n      jump\t// in\n    tag_250:\n      pop\n      pop\n      swap1\n      sstore\n        /* \"contracts/Pokemon.sol\":4531:4539  pokemons */\n      0x0a\n        /* \"contracts/Pokemon.sol\":4531:4551  pokemons[msg.sender] */\n      0x00\n        /* \"contracts/Pokemon.sol\":4540:4550  msg.sender */\n      caller\n        /* \"contracts/Pokemon.sol\":4531:4551  pokemons[msg.sender] */\n      0xffffffffffffffffffffffffffffffffffffffff\n      and\n      0xffffffffffffffffffffffffffffffffffffffff\n      and\n      dup2\n      mstore\n      0x20\n      add\n      swap1\n      dup2\n      mstore\n      0x20\n      add\n      0x00\n      keccak256\n        /* \"contracts/Pokemon.sol\":4524:4551  return pokemons[msg.sender] */\n      dup1\n      sload\n      dup1\n      0x20\n      mul\n      0x20\n      add\n      mload(0x40)\n      swap1\n      dup2\n      add\n      0x40\n      mstore\n      dup1\n      swap3\n      swap2\n      swap1\n      dup2\n      dup2\n      mstore\n      0x20\n      add\n      0x00\n      swap1\n    tag_251:\n      dup3\n      dup3\n      lt\n      iszero\n      tag_252\n      jumpi\n      dup4\n      dup3\n      swap1\n      0x00\n      mstore\n      keccak256(0x00, 0x20)\n      swap1\n      0x02\n      mul\n      add\n      mload(0x40)\n      dup1\n      0x40\n      add\n      0x40\n      mstore\n      swap1\n      dup2\n      0x00\n      dup3\n      add\n      dup1\n      sload\n      tag_254\n      swap1\n      tag_134\n      jump\t// in\n    tag_254:\n      dup1\n      0x1f\n      add\n      0x20\n      dup1\n      swap2\n      div\n      mul\n      0x20\n      add\n      mload(0x40)\n      swap1\n      dup2\n      add\n      0x40\n      mstore\n      dup1\n      swap3\n      swap2\n      swap1\n      dup2\n      dup2\n      mstore\n      0x20\n      add\n      dup3\n      dup1\n      sload\n      tag_255\n      swap1\n      tag_134\n      jump\t// in\n    tag_255:\n      dup1\n      iszero\n      tag_256\n      jumpi\n      dup1\n      0x1f\n      lt\n      tag_257\n      jumpi\n      0x0100\n      dup1\n      dup4\n      sload\n      div\n      mul\n      dup4\n      mstore\n      swap2\n      0x20\n      add\n      swap2\n      jump(tag_256)\n    tag_257:\n      dup3\n      add\n      swap2\n      swap1\n      0x00\n      mstore\n      keccak256(0x00, 0x20)\n      swap1\n    tag_258:\n      dup2\n      sload\n      dup2\n      mstore\n      swap1\n      0x01\n      add\n      swap1\n      0x20\n      add\n      dup1\n      dup4\n      gt\n      tag_258\n      jumpi\n      dup3\n      swap1\n      sub\n      0x1f\n      and\n      dup3\n      add\n      swap2\n    tag_256:\n      pop\n      pop\n      pop\n      pop\n      pop\n      dup2\n      mstore\n      0x20\n      add\n      0x01\n      dup3\n      add\n      dup1\n      sload\n      tag_259\n      swap1\n      tag_134\n      jump\t// in\n    tag_259:\n      dup1\n      0x1f\n      add\n      0x20\n      dup1\n      swap2\n      div\n      mul\n      0x20\n      add\n      mload(0x40)\n      swap1\n      dup2\n      add\n      0x40\n      mstore\n      dup1\n      swap3\n      swap2\n      swap1\n      dup2\n      dup2\n      mstore\n      0x20\n      add\n      dup3\n      dup1\n      sload\n      tag_260\n      swap1\n      tag_134\n      jump\t// in\n    tag_260:\n      dup1\n      iszero\n      tag_261\n      jumpi\n      dup1\n      0x1f\n      lt\n      tag_262\n      jumpi\n      0x0100\n      dup1\n      dup4\n      sload\n      div\n      mul\n      dup4\n      mstore\n      swap2\n      0x20\n      add\n      swap2\n      jump(tag_261)\n    tag_262:\n      dup3\n      add\n      swap2\n      swap1\n      0x00\n      mstore\n      keccak256(0x00, 0x20)\n      swap1\n    tag_263:\n      dup2\n      sload\n      dup2\n      mstore\n      swap1\n      0x01\n      add\n      swap1\n      0x20\n      add\n      dup1\n      dup4\n      gt\n      tag_263\n      jumpi\n      dup3\n      swap1\n      sub\n      0x1f\n      and\n      dup3\n      add\n      swap2\n    tag_261:\n      pop\n      pop\n      pop\n      pop\n      pop\n      dup2\n      mstore\n      pop\n      pop\n      dup2\n      mstore\n      0x20\n      add\n      swap1\n      0x01\n      add\n      swap1\n      jump(tag_251)\n    tag_252:\n      pop\n      pop\n      pop\n      pop\n      swap2\n      pop\n      pop\n        /* \"contracts/Pokemon.sol\":3954:4559  function transferPokemon(address to_value, string memory card) public returns (Pokens[] memory) {... */\n      swap3\n      swap2\n      pop\n      pop\n      jump\t// out\n        /* \"contracts/ERC20.sol\":561:627  mapping(address=>mapping(address=>uint)) public override allowance */\n    tag_128:\n      mstore(0x20, 0x06)\n      dup2\n      0x00\n      mstore\n      mstore(0x20, keccak256(0x00, 0x40))\n      dup1\n      0x00\n      mstore\n      keccak256(0x00, 0x40)\n      0x00\n      swap2\n      pop\n      swap2\n      pop\n      pop\n      sload\n      dup2\n      jump\t// out\n    tag_249:\n      pop\n      dup1\n      sload\n      tag_264\n      swap1\n      tag_134\n      jump\t// in\n    tag_264:\n      0x00\n      dup3\n      sstore\n      dup1\n      0x1f\n      lt\n      tag_266\n      jumpi\n      pop\n      jump(tag_265)\n    tag_266:\n      0x1f\n      add\n      0x20\n      swap1\n      div\n      swap1\n      0x00\n      mstore\n      keccak256(0x00, 0x20)\n      swap1\n      dup2\n      add\n      swap1\n      tag_267\n      swap2\n      swap1\n      tag_268\n      jump\t// in\n    tag_267:\n    tag_265:\n      pop\n      jump\t// out\n    tag_268:\n    tag_269:\n      dup1\n      dup3\n      gt\n      iszero\n      tag_270\n      jumpi\n      0x00\n      dup2\n      0x00\n      swap1\n      sstore\n      pop\n      0x01\n      add\n      jump(tag_269)\n    tag_270:\n      pop\n      swap1\n      jump\t// out\n        /* \"#utility.yul\":7:84   */\n    tag_271:\n        /* \"#utility.yul\":44:51   */\n      0x00\n        /* \"#utility.yul\":73:78   */\n      dup2\n        /* \"#utility.yul\":62:78   */\n      swap1\n      pop\n        /* \"#utility.yul\":7:84   */\n      swap2\n      swap1\n      pop\n      jump\t// out\n        /* \"#utility.yul\":90:270   */\n    tag_272:\n        /* \"#utility.yul\":138:215   */\n      0x4e487b7100000000000000000000000000000000000000000000000000000000\n        /* \"#utility.yul\":135:136   */\n      0x00\n        /* \"#utility.yul\":128:216   */\n      mstore\n        /* \"#utility.yul\":235:239   */\n      0x11\n        /* \"#utility.yul\":232:233   */\n      0x04\n        /* \"#utility.yul\":225:240   */\n      mstore\n        /* \"#utility.yul\":259:263   */\n      0x24\n        /* \"#utility.yul\":256:257   */\n      0x00\n        /* \"#utility.yul\":249:264   */\n      revert\n        /* \"#utility.yul\":276:686   */\n    tag_27:\n        /* \"#utility.yul\":316:323   */\n      0x00\n        /* \"#utility.yul\":339:359   */\n      tag_347\n        /* \"#utility.yul\":357:358   */\n      dup3\n        /* \"#utility.yul\":339:359   */\n      tag_271\n      jump\t// in\n    tag_347:\n        /* \"#utility.yul\":334:359   */\n      swap2\n      pop\n        /* \"#utility.yul\":373:393   */\n      tag_348\n        /* \"#utility.yul\":391:392   */\n      dup4\n        /* \"#utility.yul\":373:393   */\n      tag_271\n      jump\t// in\n    tag_348:\n        /* \"#utility.yul\":368:393   */\n      swap3\n      pop\n        /* \"#utility.yul\":428:429   */\n      dup3\n        /* \"#utility.yul\":425:426   */\n      dup3\n        /* \"#utility.yul\":421:430   */\n      mul\n        /* \"#utility.yul\":450:480   */\n      tag_349\n        /* \"#utility.yul\":468:479   */\n      dup2\n        /* \"#utility.yul\":450:480   */\n      tag_271\n      jump\t// in\n    tag_349:\n        /* \"#utility.yul\":439:480   */\n      swap2\n      pop\n        /* \"#utility.yul\":629:630   */\n      dup3\n        /* \"#utility.yul\":620:627   */\n      dup3\n        /* \"#utility.yul\":616:631   */\n      div\n        /* \"#utility.yul\":613:614   */\n      dup5\n        /* \"#utility.yul\":610:632   */\n      eq\n        /* \"#utility.yul\":590:591   */\n      dup4\n        /* \"#utility.yul\":583:592   */\n      iszero\n        /* \"#utility.yul\":563:646   */\n      or\n        /* \"#utility.yul\":540:679   */\n      tag_350\n      jumpi\n        /* \"#utility.yul\":659:677   */\n      tag_351\n      tag_272\n      jump\t// in\n    tag_351:\n        /* \"#utility.yul\":540:679   */\n    tag_350:\n        /* \"#utility.yul\":324:686   */\n      pop\n        /* \"#utility.yul\":276:686   */\n      swap3\n      swap2\n      pop\n      pop\n      jump\t// out\n        /* \"#utility.yul\":692:886   */\n    tag_30:\n        /* \"#utility.yul\":732:736   */\n      0x00\n        /* \"#utility.yul\":752:772   */\n      tag_353\n        /* \"#utility.yul\":770:771   */\n      dup3\n        /* \"#utility.yul\":752:772   */\n      tag_271\n      jump\t// in\n    tag_353:\n        /* \"#utility.yul\":747:772   */\n      swap2\n      pop\n        /* \"#utility.yul\":786:806   */\n      tag_354\n        /* \"#utility.yul\":804:805   */\n      dup4\n        /* \"#utility.yul\":786:806   */\n      tag_271\n      jump\t// in\n    tag_354:\n        /* \"#utility.yul\":781:806   */\n      swap3\n      pop\n        /* \"#utility.yul\":830:831   */\n      dup3\n        /* \"#utility.yul\":827:828   */\n      dup3\n        /* \"#utility.yul\":823:832   */\n      sub\n        /* \"#utility.yul\":815:832   */\n      swap1\n      pop\n        /* \"#utility.yul\":854:855   */\n      dup2\n        /* \"#utility.yul\":848:852   */\n      dup2\n        /* \"#utility.yul\":845:856   */\n      gt\n        /* \"#utility.yul\":842:879   */\n      iszero\n      tag_355\n      jumpi\n        /* \"#utility.yul\":859:877   */\n      tag_356\n      tag_272\n      jump\t// in\n    tag_356:\n        /* \"#utility.yul\":842:879   */\n    tag_355:\n        /* \"#utility.yul\":692:886   */\n      swap3\n      swap2\n      pop\n      pop\n      jump\t// out\n        /* \"#utility.yul\":892:1083   */\n    tag_32:\n        /* \"#utility.yul\":932:935   */\n      0x00\n        /* \"#utility.yul\":951:971   */\n      tag_358\n        /* \"#utility.yul\":969:970   */\n      dup3\n        /* \"#utility.yul\":951:971   */\n      tag_271\n      jump\t// in\n    tag_358:\n        /* \"#utility.yul\":946:971   */\n      swap2\n      pop\n        /* \"#utility.yul\":985:1005   */\n      tag_359\n        /* \"#utility.yul\":1003:1004   */\n      dup4\n        /* \"#utility.yul\":985:1005   */\n      tag_271\n      jump\t// in\n    tag_359:\n        /* \"#utility.yul\":980:1005   */\n      swap3\n      pop\n        /* \"#utility.yul\":1028:1029   */\n      dup3\n        /* \"#utility.yul\":1025:1026   */\n      dup3\n        /* \"#utility.yul\":1021:1030   */\n      add\n        /* \"#utility.yul\":1014:1030   */\n      swap1\n      pop\n        /* \"#utility.yul\":1049:1052   */\n      dup1\n        /* \"#utility.yul\":1046:1047   */\n      dup3\n        /* \"#utility.yul\":1043:1053   */\n      gt\n        /* \"#utility.yul\":1040:1076   */\n      iszero\n      tag_360\n      jumpi\n        /* \"#utility.yul\":1056:1074   */\n      tag_361\n      tag_272\n      jump\t// in\n    tag_361:\n        /* \"#utility.yul\":1040:1076   */\n    tag_360:\n        /* \"#utility.yul\":892:1083   */\n      swap3\n      swap2\n      pop\n      pop\n      jump\t// out\n        /* \"#utility.yul\":1089:1188   */\n    tag_273:\n        /* \"#utility.yul\":1141:1147   */\n      0x00\n        /* \"#utility.yul\":1175:1180   */\n      dup2\n        /* \"#utility.yul\":1169:1181   */\n      mload\n        /* \"#utility.yul\":1159:1181   */\n      swap1\n      pop\n        /* \"#utility.yul\":1089:1188   */\n      swap2\n      swap1\n      pop\n      jump\t// out\n        /* \"#utility.yul\":1194:1363   */\n    tag_274:\n        /* \"#utility.yul\":1278:1289   */\n      0x00\n        /* \"#utility.yul\":1312:1318   */\n      dup3\n        /* \"#utility.yul\":1307:1310   */\n      dup3\n        /* \"#utility.yul\":1300:1319   */\n      mstore\n        /* \"#utility.yul\":1352:1356   */\n      0x20\n        /* \"#utility.yul\":1347:1350   */\n      dup3\n        /* \"#utility.yul\":1343:1357   */\n      add\n        /* \"#utility.yul\":1328:1357   */\n      swap1\n      pop\n        /* \"#utility.yul\":1194:1363   */\n      swap3\n      swap2\n      pop\n      pop\n      jump\t// out\n        /* \"#utility.yul\":1369:1615   */\n    tag_275:\n        /* \"#utility.yul\":1450:1451   */\n      0x00\n        /* \"#utility.yul\":1460:1573   */\n    tag_365:\n        /* \"#utility.yul\":1474:1480   */\n      dup4\n        /* \"#utility.yul\":1471:1472   */\n      dup2\n        /* \"#utility.yul\":1468:1481   */\n      lt\n        /* \"#utility.yul\":1460:1573   */\n      iszero\n      tag_367\n      jumpi\n        /* \"#utility.yul\":1559:1560   */\n      dup1\n        /* \"#utility.yul\":1554:1557   */\n      dup3\n        /* \"#utility.yul\":1550:1561   */\n      add\n        /* \"#utility.yul\":1544:1562   */\n      mload\n        /* \"#utility.yul\":1540:1541   */\n      dup2\n        /* \"#utility.yul\":1535:1538   */\n      dup5\n        /* \"#utility.yul\":1531:1542   */\n      add\n        /* \"#utility.yul\":1524:1563   */\n      mstore\n        /* \"#utility.yul\":1496:1498   */\n      0x20\n        /* \"#utility.yul\":1493:1494   */\n      dup2\n        /* \"#utility.yul\":1489:1499   */\n      add\n        /* \"#utility.yul\":1484:1499   */\n      swap1\n      pop\n        /* \"#utility.yul\":1460:1573   */\n      jump(tag_365)\n    tag_367:\n        /* \"#utility.yul\":1607:1608   */\n      0x00\n        /* \"#utility.yul\":1598:1604   */\n      dup5\n        /* \"#utility.yul\":1593:1596   */\n      dup5\n        /* \"#utility.yul\":1589:1605   */\n      add\n        /* \"#utility.yul\":1582:1609   */\n      mstore\n        /* \"#utility.yul\":1431:1615   */\n      pop\n        /* \"#utility.yul\":1369:1615   */\n      pop\n      pop\n      pop\n      jump\t// out\n        /* \"#utility.yul\":1621:1723   */\n    tag_276:\n        /* \"#utility.yul\":1662:1668   */\n      0x00\n        /* \"#utility.yul\":1713:1715   */\n      0x1f\n        /* \"#utility.yul\":1709:1716   */\n      not\n        /* \"#utility.yul\":1704:1706   */\n      0x1f\n        /* \"#utility.yul\":1697:1702   */\n      dup4\n        /* \"#utility.yul\":1693:1707   */\n      add\n        /* \"#utility.yul\":1689:1717   */\n      and\n        /* \"#utility.yul\":1679:1717   */\n      swap1\n      pop\n        /* \"#utility.yul\":1621:1723   */\n      swap2\n      swap1\n      pop\n      jump\t// out\n        /* \"#utility.yul\":1729:2106   */\n    tag_277:\n        /* \"#utility.yul\":1817:1820   */\n      0x00\n        /* \"#utility.yul\":1845:1884   */\n      tag_370\n        /* \"#utility.yul\":1878:1883   */\n      dup3\n        /* \"#utility.yul\":1845:1884   */\n      tag_273\n      jump\t// in\n    tag_370:\n        /* \"#utility.yul\":1900:1971   */\n      tag_371\n        /* \"#utility.yul\":1964:1970   */\n      dup2\n        /* \"#utility.yul\":1959:1962   */\n      dup6\n        /* \"#utility.yul\":1900:1971   */\n      tag_274\n      jump\t// in\n    tag_371:\n        /* \"#utility.yul\":1893:1971   */\n      swap4\n      pop\n        /* \"#utility.yul\":1980:2045   */\n      tag_372\n        /* \"#utility.yul\":2038:2044   */\n      dup2\n        /* \"#utility.yul\":2033:2036   */\n      dup6\n        /* \"#utility.yul\":2026:2030   */\n      0x20\n        /* \"#utility.yul\":2019:2024   */\n      dup7\n        /* \"#utility.yul\":2015:2031   */\n      add\n        /* \"#utility.yul\":1980:2045   */\n      tag_275\n      jump\t// in\n    tag_372:\n        /* \"#utility.yul\":2070:2099   */\n      tag_373\n        /* \"#utility.yul\":2092:2098   */\n      dup2\n        /* \"#utility.yul\":2070:2099   */\n      tag_276\n      jump\t// in\n    tag_373:\n        /* \"#utility.yul\":2065:2068   */\n      dup5\n        /* \"#utility.yul\":2061:2100   */\n      add\n        /* \"#utility.yul\":2054:2100   */\n      swap2\n      pop\n        /* \"#utility.yul\":1821:2106   */\n      pop\n        /* \"#utility.yul\":1729:2106   */\n      swap3\n      swap2\n      pop\n      pop\n      jump\t// out\n        /* \"#utility.yul\":2112:2425   */\n    tag_40:\n        /* \"#utility.yul\":2225:2229   */\n      0x00\n        /* \"#utility.yul\":2263:2265   */\n      0x20\n        /* \"#utility.yul\":2252:2261   */\n      dup3\n        /* \"#utility.yul\":2248:2266   */\n      add\n        /* \"#utility.yul\":2240:2266   */\n      swap1\n      pop\n        /* \"#utility.yul\":2312:2321   */\n      dup2\n        /* \"#utility.yul\":2306:2310   */\n      dup2\n        /* \"#utility.yul\":2302:2322   */\n      sub\n        /* \"#utility.yul\":2298:2299   */\n      0x00\n        /* \"#utility.yul\":2287:2296   */\n      dup4\n        /* \"#utility.yul\":2283:2300   */\n      add\n        /* \"#utility.yul\":2276:2323   */\n      mstore\n        /* \"#utility.yul\":2340:2418   */\n      tag_375\n        /* \"#utility.yul\":2413:2417   */\n      dup2\n        /* \"#utility.yul\":2404:2410   */\n      dup5\n        /* \"#utility.yul\":2340:2418   */\n      tag_277\n      jump\t// in\n    tag_375:\n        /* \"#utility.yul\":2332:2418   */\n      swap1\n      pop\n        /* \"#utility.yul\":2112:2425   */\n      swap3\n      swap2\n      pop\n      pop\n      jump\t// out\n        /* \"#utility.yul\":2431:2506   */\n    tag_278:\n        /* \"#utility.yul\":2464:2470   */\n      0x00\n        /* \"#utility.yul\":2497:2499   */\n      0x40\n        /* \"#utility.yul\":2491:2500   */\n      mload\n        /* \"#utility.yul\":2481:2500   */\n      swap1\n      pop\n        /* \"#utility.yul\":2431:2506   */\n      swap1\n      jump\t// out\n        /* \"#utility.yul\":2512:2629   */\n    tag_279:\n        /* \"#utility.yul\":2621:2622   */\n      0x00\n        /* \"#utility.yul\":2618:2619   */\n      dup1\n        /* \"#utility.yul\":2611:2623   */\n      revert\n        /* \"#utility.yul\":2635:2752   */\n    tag_280:\n        /* \"#utility.yul\":2744:2745   */\n      0x00\n        /* \"#utility.yul\":2741:2742   */\n      dup1\n        /* \"#utility.yul\":2734:2746   */\n      revert\n        /* \"#utility.yul\":2758:2884   */\n    tag_281:\n        /* \"#utility.yul\":2795:2802   */\n      0x00\n        /* \"#utility.yul\":2835:2877   */\n      0xffffffffffffffffffffffffffffffffffffffff\n        /* \"#utility.yul\":2828:2833   */\n      dup3\n        /* \"#utility.yul\":2824:2878   */\n      and\n        /* \"#utility.yul\":2813:2878   */\n      swap1\n      pop\n        /* \"#utility.yul\":2758:2884   */\n      swap2\n      swap1\n      pop\n      jump\t// out\n        /* \"#utility.yul\":2890:2986   */\n    tag_282:\n        /* \"#utility.yul\":2927:2934   */\n      0x00\n        /* \"#utility.yul\":2956:2980   */\n      tag_381\n        /* \"#utility.yul\":2974:2979   */\n      dup3\n        /* \"#utility.yul\":2956:2980   */\n      tag_281\n      jump\t// in\n    tag_381:\n        /* \"#utility.yul\":2945:2980   */\n      swap1\n      pop\n        /* \"#utility.yul\":2890:2986   */\n      swap2\n      swap1\n      pop\n      jump\t// out\n        /* \"#utility.yul\":2992:3114   */\n    tag_283:\n        /* \"#utility.yul\":3065:3089   */\n      tag_383\n        /* \"#utility.yul\":3083:3088   */\n      dup2\n        /* \"#utility.yul\":3065:3089   */\n      tag_282\n      jump\t// in\n    tag_383:\n        /* \"#utility.yul\":3058:3063   */\n      dup2\n        /* \"#utility.yul\":3055:3090   */\n      eq\n        /* \"#utility.yul\":3045:3108   */\n      tag_384\n      jumpi\n        /* \"#utility.yul\":3104:3105   */\n      0x00\n        /* \"#utility.yul\":3101:3102   */\n      dup1\n        /* \"#utility.yul\":3094:3106   */\n      revert\n        /* \"#utility.yul\":3045:3108   */\n    tag_384:\n        /* \"#utility.yul\":2992:3114   */\n      pop\n      jump\t// out\n        /* \"#utility.yul\":3120:3259   */\n    tag_284:\n        /* \"#utility.yul\":3166:3171   */\n      0x00\n        /* \"#utility.yul\":3204:3210   */\n      dup2\n        /* \"#utility.yul\":3191:3211   */\n      calldataload\n        /* \"#utility.yul\":3182:3211   */\n      swap1\n      pop\n        /* \"#utility.yul\":3220:3253   */\n      tag_386\n        /* \"#utility.yul\":3247:3252   */\n      dup2\n        /* \"#utility.yul\":3220:3253   */\n      tag_283\n      jump\t// in\n    tag_386:\n        /* \"#utility.yul\":3120:3259   */\n      swap3\n      swap2\n      pop\n      pop\n      jump\t// out\n        /* \"#utility.yul\":3265:3387   */\n    tag_285:\n        /* \"#utility.yul\":3338:3362   */\n      tag_388\n        /* \"#utility.yul\":3356:3361   */\n      dup2\n        /* \"#utility.yul\":3338:3362   */\n      tag_271\n      jump\t// in\n    tag_388:\n        /* \"#utility.yul\":3331:3336   */\n      dup2\n        /* \"#utility.yul\":3328:3363   */\n      eq\n        /* \"#utility.yul\":3318:3381   */\n      tag_389\n      jumpi\n        /* \"#utility.yul\":3377:3378   */\n      0x00\n        /* \"#utility.yul\":3374:3375   */\n      dup1\n        /* \"#utility.yul\":3367:3379   */\n      revert\n        /* \"#utility.yul\":3318:3381   */\n    tag_389:\n        /* \"#utility.yul\":3265:3387   */\n      pop\n      jump\t// out\n        /* \"#utility.yul\":3393:3532   */\n    tag_286:\n        /* \"#utility.yul\":3439:3444   */\n      0x00\n        /* \"#utility.yul\":3477:3483   */\n      dup2\n        /* \"#utility.yul\":3464:3484   */\n      calldataload\n        /* \"#utility.yul\":3455:3484   */\n      swap1\n      pop\n        /* \"#utility.yul\":3493:3526   */\n      tag_391\n        /* \"#utility.yul\":3520:3525   */\n      dup2\n        /* \"#utility.yul\":3493:3526   */\n      tag_285\n      jump\t// in\n    tag_391:\n        /* \"#utility.yul\":3393:3532   */\n      swap3\n      swap2\n      pop\n      pop\n      jump\t// out\n        /* \"#utility.yul\":3538:4012   */\n    tag_44:\n        /* \"#utility.yul\":3606:3612   */\n      0x00\n        /* \"#utility.yul\":3614:3620   */\n      dup1\n        /* \"#utility.yul\":3663:3665   */\n      0x40\n        /* \"#utility.yul\":3651:3660   */\n      dup4\n        /* \"#utility.yul\":3642:3649   */\n      dup6\n        /* \"#utility.yul\":3638:3661   */\n      sub\n        /* \"#utility.yul\":3634:3666   */\n      slt\n        /* \"#utility.yul\":3631:3750   */\n      iszero\n      tag_393\n      jumpi\n        /* \"#utility.yul\":3669:3748   */\n      tag_394\n      tag_279\n      jump\t// in\n    tag_394:\n        /* \"#utility.yul\":3631:3750   */\n    tag_393:\n        /* \"#utility.yul\":3789:3790   */\n      0x00\n        /* \"#utility.yul\":3814:3867   */\n      tag_395\n        /* \"#utility.yul\":3859:3866   */\n      dup6\n        /* \"#utility.yul\":3850:3856   */\n      dup3\n        /* \"#utility.yul\":3839:3848   */\n      dup7\n        /* \"#utility.yul\":3835:3857   */\n      add\n        /* \"#utility.yul\":3814:3867   */\n      tag_284\n      jump\t// in\n    tag_395:\n        /* \"#utility.yul\":3804:3867   */\n      swap3\n      pop\n        /* \"#utility.yul\":3760:3877   */\n      pop\n        /* \"#utility.yul\":3916:3918   */\n      0x20\n        /* \"#utility.yul\":3942:3995   */\n      tag_396\n        /* \"#utility.yul\":3987:3994   */\n      dup6\n        /* \"#utility.yul\":3978:3984   */\n      dup3\n        /* \"#utility.yul\":3967:3976   */\n      dup7\n        /* \"#utility.yul\":3963:3985   */\n      add\n        /* \"#utility.yul\":3942:3995   */\n      tag_286\n      jump\t// in\n    tag_396:\n        /* \"#utility.yul\":3932:3995   */\n      swap2\n      pop\n        /* \"#utility.yul\":3887:4005   */\n      pop\n        /* \"#utility.yul\":3538:4012   */\n      swap3\n      pop\n      swap3\n      swap1\n      pop\n      jump\t// out\n        /* \"#utility.yul\":4018:4108   */\n    tag_287:\n        /* \"#utility.yul\":4052:4059   */\n      0x00\n        /* \"#utility.yul\":4095:4100   */\n      dup2\n        /* \"#utility.yul\":4088:4101   */\n      iszero\n        /* \"#utility.yul\":4081:4102   */\n      iszero\n        /* \"#utility.yul\":4070:4102   */\n      swap1\n      pop\n        /* \"#utility.yul\":4018:4108   */\n      swap2\n      swap1\n      pop\n      jump\t// out\n        /* \"#utility.yul\":4114:4223   */\n    tag_288:\n        /* \"#utility.yul\":4195:4216   */\n      tag_399\n        /* \"#utility.yul\":4210:4215   */\n      dup2\n        /* \"#utility.yul\":4195:4216   */\n      tag_287\n      jump\t// in\n    tag_399:\n        /* \"#utility.yul\":4190:4193   */\n      dup3\n        /* \"#utility.yul\":4183:4217   */\n      mstore\n        /* \"#utility.yul\":4114:4223   */\n      pop\n      pop\n      jump\t// out\n        /* \"#utility.yul\":4229:4439   */\n    tag_47:\n        /* \"#utility.yul\":4316:4320   */\n      0x00\n        /* \"#utility.yul\":4354:4356   */\n      0x20\n        /* \"#utility.yul\":4343:4352   */\n      dup3\n        /* \"#utility.yul\":4339:4357   */\n      add\n        /* \"#utility.yul\":4331:4357   */\n      swap1\n      pop\n        /* \"#utility.yul\":4367:4432   */\n      tag_401\n        /* \"#utility.yul\":4429:4430   */\n      0x00\n        /* \"#utility.yul\":4418:4427   */\n      dup4\n        /* \"#utility.yul\":4414:4431   */\n      add\n        /* \"#utility.yul\":4405:4411   */\n      dup5\n        /* \"#utility.yul\":4367:4432   */\n      tag_288\n      jump\t// in\n    tag_401:\n        /* \"#utility.yul\":4229:4439   */\n      swap3\n      swap2\n      pop\n      pop\n      jump\t// out\n        /* \"#utility.yul\":4445:4582   */\n    tag_289:\n        /* \"#utility.yul\":4535:4541   */\n      0x00\n        /* \"#utility.yul\":4569:4574   */\n      dup2\n        /* \"#utility.yul\":4563:4575   */\n      mload\n        /* \"#utility.yul\":4553:4575   */\n      swap1\n      pop\n        /* \"#utility.yul\":4445:4582   */\n      swap2\n      swap1\n      pop\n      jump\t// out\n        /* \"#utility.yul\":4588:4795   */\n    tag_290:\n        /* \"#utility.yul\":4710:4721   */\n      0x00\n        /* \"#utility.yul\":4744:4750   */\n      dup3\n        /* \"#utility.yul\":4739:4742   */\n      dup3\n        /* \"#utility.yul\":4732:4751   */\n      mstore\n        /* \"#utility.yul\":4784:4788   */\n      0x20\n        /* \"#utility.yul\":4779:4782   */\n      dup3\n        /* \"#utility.yul\":4775:4789   */\n      add\n        /* \"#utility.yul\":4760:4789   */\n      swap1\n      pop\n        /* \"#utility.yul\":4588:4795   */\n      swap3\n      swap2\n      pop\n      pop\n      jump\t// out\n        /* \"#utility.yul\":4801:4956   */\n    tag_291:\n        /* \"#utility.yul\":4891:4895   */\n      0x00\n        /* \"#utility.yul\":4914:4917   */\n      dup2\n        /* \"#utility.yul\":4906:4917   */\n      swap1\n      pop\n        /* \"#utility.yul\":4944:4948   */\n      0x20\n        /* \"#utility.yul\":4939:4942   */\n      dup3\n        /* \"#utility.yul\":4935:4949   */\n      add\n        /* \"#utility.yul\":4927:4949   */\n      swap1\n      pop\n        /* \"#utility.yul\":4801:4956   */\n      swap2\n      swap1\n      pop\n      jump\t// out\n        /* \"#utility.yul\":4962:5121   */\n    tag_292:\n        /* \"#utility.yul\":5036:5047   */\n      0x00\n        /* \"#utility.yul\":5070:5076   */\n      dup3\n        /* \"#utility.yul\":5065:5068   */\n      dup3\n        /* \"#utility.yul\":5058:5077   */\n      mstore\n        /* \"#utility.yul\":5110:5114   */\n      0x20\n        /* \"#utility.yul\":5105:5108   */\n      dup3\n        /* \"#utility.yul\":5101:5115   */\n      add\n        /* \"#utility.yul\":5086:5115   */\n      swap1\n      pop\n        /* \"#utility.yul\":4962:5121   */\n      swap3\n      swap2\n      pop\n      pop\n      jump\t// out\n        /* \"#utility.yul\":5127:5484   */\n    tag_293:\n        /* \"#utility.yul\":5205:5208   */\n      0x00\n        /* \"#utility.yul\":5233:5272   */\n      tag_407\n        /* \"#utility.yul\":5266:5271   */\n      dup3\n        /* \"#utility.yul\":5233:5272   */\n      tag_273\n      jump\t// in\n    tag_407:\n        /* \"#utility.yul\":5288:5349   */\n      tag_408\n        /* \"#utility.yul\":5342:5348   */\n      dup2\n        /* \"#utility.yul\":5337:5340   */\n      dup6\n        /* \"#utility.yul\":5288:5349   */\n      tag_292\n      jump\t// in\n    tag_408:\n        /* \"#utility.yul\":5281:5349   */\n      swap4\n      pop\n        /* \"#utility.yul\":5358:5423   */\n      tag_409\n        /* \"#utility.yul\":5416:5422   */\n      dup2\n        /* \"#utility.yul\":5411:5414   */\n      dup6\n        /* \"#utility.yul\":5404:5408   */\n      0x20\n        /* \"#utility.yul\":5397:5402   */\n      dup7\n        /* \"#utility.yul\":5393:5409   */\n      add\n        /* \"#utility.yul\":5358:5423   */\n      tag_275\n      jump\t// in\n    tag_409:\n        /* \"#utility.yul\":5448:5477   */\n      tag_410\n        /* \"#utility.yul\":5470:5476   */\n      dup2\n        /* \"#utility.yul\":5448:5477   */\n      tag_276\n      jump\t// in\n    tag_410:\n        /* \"#utility.yul\":5443:5446   */\n      dup5\n        /* \"#utility.yul\":5439:5478   */\n      add\n        /* \"#utility.yul\":5432:5478   */\n      swap2\n      pop\n        /* \"#utility.yul\":5209:5484   */\n      pop\n        /* \"#utility.yul\":5127:5484   */\n      swap3\n      swap2\n      pop\n      pop\n      jump\t// out\n        /* \"#utility.yul\":5544:6206   */\n    tag_294:\n        /* \"#utility.yul\":5649:5652   */\n      0x00\n        /* \"#utility.yul\":5685:5689   */\n      0x40\n        /* \"#utility.yul\":5680:5683   */\n      dup4\n        /* \"#utility.yul\":5676:5690   */\n      add\n        /* \"#utility.yul\":5771:5775   */\n      0x00\n        /* \"#utility.yul\":5764:5769   */\n      dup4\n        /* \"#utility.yul\":5760:5776   */\n      add\n        /* \"#utility.yul\":5754:5777   */\n      mload\n        /* \"#utility.yul\":5824:5827   */\n      dup5\n        /* \"#utility.yul\":5818:5822   */\n      dup3\n        /* \"#utility.yul\":5814:5828   */\n      sub\n        /* \"#utility.yul\":5807:5811   */\n      0x00\n        /* \"#utility.yul\":5802:5805   */\n      dup7\n        /* \"#utility.yul\":5798:5812   */\n      add\n        /* \"#utility.yul\":5791:5829   */\n      mstore\n        /* \"#utility.yul\":5850:5923   */\n      tag_412\n        /* \"#utility.yul\":5918:5922   */\n      dup3\n        /* \"#utility.yul\":5904:5916   */\n      dup3\n        /* \"#utility.yul\":5850:5923   */\n      tag_293\n      jump\t// in\n    tag_412:\n        /* \"#utility.yul\":5842:5923   */\n      swap2\n      pop\n        /* \"#utility.yul\":5700:5934   */\n      pop\n        /* \"#utility.yul\":6016:6020   */\n      0x20\n        /* \"#utility.yul\":6009:6014   */\n      dup4\n        /* \"#utility.yul\":6005:6021   */\n      add\n        /* \"#utility.yul\":5999:6022   */\n      mload\n        /* \"#utility.yul\":6069:6072   */\n      dup5\n        /* \"#utility.yul\":6063:6067   */\n      dup3\n        /* \"#utility.yul\":6059:6073   */\n      sub\n        /* \"#utility.yul\":6052:6056   */\n      0x20\n        /* \"#utility.yul\":6047:6050   */\n      dup7\n        /* \"#utility.yul\":6043:6057   */\n      add\n        /* \"#utility.yul\":6036:6074   */\n      mstore\n        /* \"#utility.yul\":6095:6168   */\n      tag_413\n        /* \"#utility.yul\":6163:6167   */\n      dup3\n        /* \"#utility.yul\":6149:6161   */\n      dup3\n        /* \"#utility.yul\":6095:6168   */\n      tag_293\n      jump\t// in\n    tag_413:\n        /* \"#utility.yul\":6087:6168   */\n      swap2\n      pop\n        /* \"#utility.yul\":5944:6179   */\n      pop\n        /* \"#utility.yul\":6196:6200   */\n      dup1\n        /* \"#utility.yul\":6189:6200   */\n      swap2\n      pop\n        /* \"#utility.yul\":5654:6206   */\n      pop\n        /* \"#utility.yul\":5544:6206   */\n      swap3\n      swap2\n      pop\n      pop\n      jump\t// out\n        /* \"#utility.yul\":6212:6460   */\n    tag_295:\n        /* \"#utility.yul\":6327:6337   */\n      0x00\n        /* \"#utility.yul\":6362:6454   */\n      tag_415\n        /* \"#utility.yul\":6450:6453   */\n      dup4\n        /* \"#utility.yul\":6442:6448   */\n      dup4\n        /* \"#utility.yul\":6362:6454   */\n      tag_294\n      jump\t// in\n    tag_415:\n        /* \"#utility.yul\":6348:6454   */\n      swap1\n      pop\n        /* \"#utility.yul\":6212:6460   */\n      swap3\n      swap2\n      pop\n      pop\n      jump\t// out\n        /* \"#utility.yul\":6466:6602   */\n    tag_296:\n        /* \"#utility.yul\":6559:6563   */\n      0x00\n        /* \"#utility.yul\":6591:6595   */\n      0x20\n        /* \"#utility.yul\":6586:6589   */\n      dup3\n        /* \"#utility.yul\":6582:6596   */\n      add\n        /* \"#utility.yul\":6574:6596   */\n      swap1\n      pop\n        /* \"#utility.yul\":6466:6602   */\n      swap2\n      swap1\n      pop\n      jump\t// out\n        /* \"#utility.yul\":6666:7761   */\n    tag_297:\n        /* \"#utility.yul\":6831:6834   */\n      0x00\n        /* \"#utility.yul\":6860:6937   */\n      tag_418\n        /* \"#utility.yul\":6931:6936   */\n      dup3\n        /* \"#utility.yul\":6860:6937   */\n      tag_289\n      jump\t// in\n    tag_418:\n        /* \"#utility.yul\":6953:7062   */\n      tag_419\n        /* \"#utility.yul\":7055:7061   */\n      dup2\n        /* \"#utility.yul\":7050:7053   */\n      dup6\n        /* \"#utility.yul\":6953:7062   */\n      tag_290\n      jump\t// in\n    tag_419:\n        /* \"#utility.yul\":6946:7062   */\n      swap4\n      pop\n        /* \"#utility.yul\":7088:7091   */\n      dup4\n        /* \"#utility.yul\":7133:7137   */\n      0x20\n        /* \"#utility.yul\":7125:7131   */\n      dup3\n        /* \"#utility.yul\":7121:7138   */\n      mul\n        /* \"#utility.yul\":7116:7119   */\n      dup6\n        /* \"#utility.yul\":7112:7139   */\n      add\n        /* \"#utility.yul\":7163:7242   */\n      tag_420\n        /* \"#utility.yul\":7236:7241   */\n      dup6\n        /* \"#utility.yul\":7163:7242   */\n      tag_291\n      jump\t// in\n    tag_420:\n        /* \"#utility.yul\":7265:7272   */\n      dup1\n        /* \"#utility.yul\":7296:7297   */\n      0x00\n        /* \"#utility.yul\":7281:7716   */\n    tag_421:\n        /* \"#utility.yul\":7306:7312   */\n      dup6\n        /* \"#utility.yul\":7303:7304   */\n      dup2\n        /* \"#utility.yul\":7300:7313   */\n      lt\n        /* \"#utility.yul\":7281:7716   */\n      iszero\n      tag_423\n      jumpi\n        /* \"#utility.yul\":7377:7386   */\n      dup5\n        /* \"#utility.yul\":7371:7375   */\n      dup5\n        /* \"#utility.yul\":7367:7387   */\n      sub\n        /* \"#utility.yul\":7362:7365   */\n      dup10\n        /* \"#utility.yul\":7355:7388   */\n      mstore\n        /* \"#utility.yul\":7428:7434   */\n      dup2\n        /* \"#utility.yul\":7422:7435   */\n      mload\n        /* \"#utility.yul\":7456:7566   */\n      tag_424\n        /* \"#utility.yul\":7561:7565   */\n      dup6\n        /* \"#utility.yul\":7546:7559   */\n      dup3\n        /* \"#utility.yul\":7456:7566   */\n      tag_295\n      jump\t// in\n    tag_424:\n        /* \"#utility.yul\":7448:7566   */\n      swap5\n      pop\n        /* \"#utility.yul\":7589:7672   */\n      tag_425\n        /* \"#utility.yul\":7665:7671   */\n      dup4\n        /* \"#utility.yul\":7589:7672   */\n      tag_296\n      jump\t// in\n    tag_425:\n        /* \"#utility.yul\":7579:7672   */\n      swap3\n      pop\n        /* \"#utility.yul\":7701:7705   */\n      0x20\n        /* \"#utility.yul\":7696:7699   */\n      dup11\n        /* \"#utility.yul\":7692:7706   */\n      add\n        /* \"#utility.yul\":7685:7706   */\n      swap10\n      pop\n        /* \"#utility.yul\":7341:7716   */\n      pop\n        /* \"#utility.yul\":7328:7329   */\n      0x01\n        /* \"#utility.yul\":7325:7326   */\n      dup2\n        /* \"#utility.yul\":7321:7330   */\n      add\n        /* \"#utility.yul\":7316:7330   */\n      swap1\n      pop\n        /* \"#utility.yul\":7281:7716   */\n      jump(tag_421)\n    tag_423:\n        /* \"#utility.yul\":7285:7299   */\n      pop\n        /* \"#utility.yul\":7732:7736   */\n      dup3\n        /* \"#utility.yul\":7725:7736   */\n      swap8\n      pop\n        /* \"#utility.yul\":7752:7755   */\n      dup8\n        /* \"#utility.yul\":7745:7755   */\n      swap6\n      pop\n        /* \"#utility.yul\":6836:7761   */\n      pop\n      pop\n      pop\n      pop\n      pop\n        /* \"#utility.yul\":6666:7761   */\n      swap3\n      swap2\n      pop\n      pop\n      jump\t// out\n        /* \"#utility.yul\":7767:8232   */\n    tag_52:\n        /* \"#utility.yul\":7956:7960   */\n      0x00\n        /* \"#utility.yul\":7994:7996   */\n      0x20\n        /* \"#utility.yul\":7983:7992   */\n      dup3\n        /* \"#utility.yul\":7979:7997   */\n      add\n        /* \"#utility.yul\":7971:7997   */\n      swap1\n      pop\n        /* \"#utility.yul\":8043:8052   */\n      dup2\n        /* \"#utility.yul\":8037:8041   */\n      dup2\n        /* \"#utility.yul\":8033:8053   */\n      sub\n        /* \"#utility.yul\":8029:8030   */\n      0x00\n        /* \"#utility.yul\":8018:8027   */\n      dup4\n        /* \"#utility.yul\":8014:8031   */\n      add\n        /* \"#utility.yul\":8007:8054   */\n      mstore\n        /* \"#utility.yul\":8071:8225   */\n      tag_427\n        /* \"#utility.yul\":8220:8224   */\n      dup2\n        /* \"#utility.yul\":8211:8217   */\n      dup5\n        /* \"#utility.yul\":8071:8225   */\n      tag_297\n      jump\t// in\n    tag_427:\n        /* \"#utility.yul\":8063:8225   */\n      swap1\n      pop\n        /* \"#utility.yul\":7767:8232   */\n      swap3\n      swap2\n      pop\n      pop\n      jump\t// out\n        /* \"#utility.yul\":8238:8356   */\n    tag_298:\n        /* \"#utility.yul\":8325:8349   */\n      tag_429\n        /* \"#utility.yul\":8343:8348   */\n      dup2\n        /* \"#utility.yul\":8325:8349   */\n      tag_271\n      jump\t// in\n    tag_429:\n        /* \"#utility.yul\":8320:8323   */\n      dup3\n        /* \"#utility.yul\":8313:8350   */\n      mstore\n        /* \"#utility.yul\":8238:8356   */\n      pop\n      pop\n      jump\t// out\n        /* \"#utility.yul\":8362:8584   */\n    tag_57:\n        /* \"#utility.yul\":8455:8459   */\n      0x00\n        /* \"#utility.yul\":8493:8495   */\n      0x20\n        /* \"#utility.yul\":8482:8491   */\n      dup3\n        /* \"#utility.yul\":8478:8496   */\n      add\n        /* \"#utility.yul\":8470:8496   */\n      swap1\n      pop\n        /* \"#utility.yul\":8506:8577   */\n      tag_431\n        /* \"#utility.yul\":8574:8575   */\n      0x00\n        /* \"#utility.yul\":8563:8572   */\n      dup4\n        /* \"#utility.yul\":8559:8576   */\n      add\n        /* \"#utility.yul\":8550:8556   */\n      dup5\n        /* \"#utility.yul\":8506:8577   */\n      tag_298\n      jump\t// in\n    tag_431:\n        /* \"#utility.yul\":8362:8584   */\n      swap3\n      swap2\n      pop\n      pop\n      jump\t// out\n        /* \"#utility.yul\":8590:9209   */\n    tag_61:\n        /* \"#utility.yul\":8667:8673   */\n      0x00\n        /* \"#utility.yul\":8675:8681   */\n      dup1\n        /* \"#utility.yul\":8683:8689   */\n      0x00\n        /* \"#utility.yul\":8732:8734   */\n      0x60\n        /* \"#utility.yul\":8720:8729   */\n      dup5\n        /* \"#utility.yul\":8711:8718   */\n      dup7\n        /* \"#utility.yul\":8707:8730   */\n      sub\n        /* \"#utility.yul\":8703:8735   */\n      slt\n        /* \"#utility.yul\":8700:8819   */\n      iszero\n      tag_433\n      jumpi\n        /* \"#utility.yul\":8738:8817   */\n      tag_434\n      tag_279\n      jump\t// in\n    tag_434:\n        /* \"#utility.yul\":8700:8819   */\n    tag_433:\n        /* \"#utility.yul\":8858:8859   */\n      0x00\n        /* \"#utility.yul\":8883:8936   */\n      tag_435\n        /* \"#utility.yul\":8928:8935   */\n      dup7\n        /* \"#utility.yul\":8919:8925   */\n      dup3\n        /* \"#utility.yul\":8908:8917   */\n      dup8\n        /* \"#utility.yul\":8904:8926   */\n      add\n        /* \"#utility.yul\":8883:8936   */\n      tag_284\n      jump\t// in\n    tag_435:\n        /* \"#utility.yul\":8873:8936   */\n      swap4\n      pop\n        /* \"#utility.yul\":8829:8946   */\n      pop\n        /* \"#utility.yul\":8985:8987   */\n      0x20\n        /* \"#utility.yul\":9011:9064   */\n      tag_436\n        /* \"#utility.yul\":9056:9063   */\n      dup7\n        /* \"#utility.yul\":9047:9053   */\n      dup3\n        /* \"#utility.yul\":9036:9045   */\n      dup8\n        /* \"#utility.yul\":9032:9054   */\n      add\n        /* \"#utility.yul\":9011:9064   */\n      tag_284\n      jump\t// in\n    tag_436:\n        /* \"#utility.yul\":9001:9064   */\n      swap3\n      pop\n        /* \"#utility.yul\":8956:9074   */\n      pop\n        /* \"#utility.yul\":9113:9115   */\n      0x40\n        /* \"#utility.yul\":9139:9192   */\n      tag_437\n        /* \"#utility.yul\":9184:9191   */\n      dup7\n        /* \"#utility.yul\":9175:9181   */\n      dup3\n        /* \"#utility.yul\":9164:9173   */\n      dup8\n        /* \"#utility.yul\":9160:9182   */\n      add\n        /* \"#utility.yul\":9139:9192   */\n      tag_286\n      jump\t// in\n    tag_437:\n        /* \"#utility.yul\":9129:9192   */\n      swap2\n      pop\n        /* \"#utility.yul\":9084:9202   */\n      pop\n        /* \"#utility.yul\":8590:9209   */\n      swap3\n      pop\n      swap3\n      pop\n      swap3\n      jump\t// out\n        /* \"#utility.yul\":9215:9544   */\n    tag_67:\n        /* \"#utility.yul\":9274:9280   */\n      0x00\n        /* \"#utility.yul\":9323:9325   */\n      0x20\n        /* \"#utility.yul\":9311:9320   */\n      dup3\n        /* \"#utility.yul\":9302:9309   */\n      dup5\n        /* \"#utility.yul\":9298:9321   */\n      sub\n        /* \"#utility.yul\":9294:9326   */\n      slt\n        /* \"#utility.yul\":9291:9410   */\n      iszero\n      tag_439\n      jumpi\n        /* \"#utility.yul\":9329:9408   */\n      tag_440\n      tag_279\n      jump\t// in\n    tag_440:\n        /* \"#utility.yul\":9291:9410   */\n    tag_439:\n        /* \"#utility.yul\":9449:9450   */\n      0x00\n        /* \"#utility.yul\":9474:9527   */\n      tag_441\n        /* \"#utility.yul\":9519:9526   */\n      dup5\n        /* \"#utility.yul\":9510:9516   */\n      dup3\n        /* \"#utility.yul\":9499:9508   */\n      dup6\n        /* \"#utility.yul\":9495:9517   */\n      add\n        /* \"#utility.yul\":9474:9527   */\n      tag_284\n      jump\t// in\n    tag_441:\n        /* \"#utility.yul\":9464:9527   */\n      swap2\n      pop\n        /* \"#utility.yul\":9420:9537   */\n      pop\n        /* \"#utility.yul\":9215:9544   */\n      swap3\n      swap2\n      pop\n      pop\n      jump\t// out\n        /* \"#utility.yul\":9550:9636   */\n    tag_299:\n        /* \"#utility.yul\":9585:9592   */\n      0x00\n        /* \"#utility.yul\":9625:9629   */\n      0xff\n        /* \"#utility.yul\":9618:9623   */\n      dup3\n        /* \"#utility.yul\":9614:9630   */\n      and\n        /* \"#utility.yul\":9603:9630   */\n      swap1\n      pop\n        /* \"#utility.yul\":9550:9636   */\n      swap2\n      swap1\n      pop\n      jump\t// out\n        /* \"#utility.yul\":9642:9754   */\n    tag_300:\n        /* \"#utility.yul\":9725:9747   */\n      tag_444\n        /* \"#utility.yul\":9741:9746   */\n      dup2\n        /* \"#utility.yul\":9725:9747   */\n      tag_299\n      jump\t// in\n    tag_444:\n        /* \"#utility.yul\":9720:9723   */\n      dup3\n        /* \"#utility.yul\":9713:9748   */\n      mstore\n        /* \"#utility.yul\":9642:9754   */\n      pop\n      pop\n      jump\t// out\n        /* \"#utility.yul\":9760:9974   */\n    tag_74:\n        /* \"#utility.yul\":9849:9853   */\n      0x00\n        /* \"#utility.yul\":9887:9889   */\n      0x20\n        /* \"#utility.yul\":9876:9885   */\n      dup3\n        /* \"#utility.yul\":9872:9890   */\n      add\n        /* \"#utility.yul\":9864:9890   */\n      swap1\n      pop\n        /* \"#utility.yul\":9900:9967   */\n      tag_446\n        /* \"#utility.yul\":9964:9965   */\n      0x00\n        /* \"#utility.yul\":9953:9962   */\n      dup4\n        /* \"#utility.yul\":9949:9966   */\n      add\n        /* \"#utility.yul\":9940:9946   */\n      dup5\n        /* \"#utility.yul\":9900:9967   */\n      tag_300\n      jump\t// in\n    tag_446:\n        /* \"#utility.yul\":9760:9974   */\n      swap3\n      swap2\n      pop\n      pop\n      jump\t// out\n        /* \"#utility.yul\":9980:10309   */\n    tag_78:\n        /* \"#utility.yul\":10039:10045   */\n      0x00\n        /* \"#utility.yul\":10088:10090   */\n      0x20\n        /* \"#utility.yul\":10076:10085   */\n      dup3\n        /* \"#utility.yul\":10067:10074   */\n      dup5\n        /* \"#utility.yul\":10063:10086   */\n      sub\n        /* \"#utility.yul\":10059:10091   */\n      slt\n        /* \"#utility.yul\":10056:10175   */\n      iszero\n      tag_448\n      jumpi\n        /* \"#utility.yul\":10094:10173   */\n      tag_449\n      tag_279\n      jump\t// in\n    tag_449:\n        /* \"#utility.yul\":10056:10175   */\n    tag_448:\n        /* \"#utility.yul\":10214:10215   */\n      0x00\n        /* \"#utility.yul\":10239:10292   */\n      tag_450\n        /* \"#utility.yul\":10284:10291   */\n      dup5\n        /* \"#utility.yul\":10275:10281   */\n      dup3\n        /* \"#utility.yul\":10264:10273   */\n      dup6\n        /* \"#utility.yul\":10260:10282   */\n      add\n        /* \"#utility.yul\":10239:10292   */\n      tag_286\n      jump\t// in\n    tag_450:\n        /* \"#utility.yul\":10229:10292   */\n      swap2\n      pop\n        /* \"#utility.yul\":10185:10302   */\n      pop\n        /* \"#utility.yul\":9980:10309   */\n      swap3\n      swap2\n      pop\n      pop\n      jump\t// out\n        /* \"#utility.yul\":10315:10433   */\n    tag_301:\n        /* \"#utility.yul\":10402:10426   */\n      tag_452\n        /* \"#utility.yul\":10420:10425   */\n      dup2\n        /* \"#utility.yul\":10402:10426   */\n      tag_282\n      jump\t// in\n    tag_452:\n        /* \"#utility.yul\":10397:10400   */\n      dup3\n        /* \"#utility.yul\":10390:10427   */\n      mstore\n        /* \"#utility.yul\":10315:10433   */\n      pop\n      pop\n      jump\t// out\n        /* \"#utility.yul\":10439:10661   */\n    tag_81:\n        /* \"#utility.yul\":10532:10536   */\n      0x00\n        /* \"#utility.yul\":10570:10572   */\n      0x20\n        /* \"#utility.yul\":10559:10568   */\n      dup3\n        /* \"#utility.yul\":10555:10573   */\n      add\n        /* \"#utility.yul\":10547:10573   */\n      swap1\n      pop\n        /* \"#utility.yul\":10583:10654   */\n      tag_454\n        /* \"#utility.yul\":10651:10652   */\n      0x00\n        /* \"#utility.yul\":10640:10649   */\n      dup4\n        /* \"#utility.yul\":10636:10653   */\n      add\n        /* \"#utility.yul\":10627:10633   */\n      dup5\n        /* \"#utility.yul\":10583:10654   */\n      tag_301\n      jump\t// in\n    tag_454:\n        /* \"#utility.yul\":10439:10661   */\n      swap3\n      swap2\n      pop\n      pop\n      jump\t// out\n        /* \"#utility.yul\":10667:11181   */\n    tag_87:\n        /* \"#utility.yul\":10828:10832   */\n      0x00\n        /* \"#utility.yul\":10866:10868   */\n      0x40\n        /* \"#utility.yul\":10855:10864   */\n      dup3\n        /* \"#utility.yul\":10851:10869   */\n      add\n        /* \"#utility.yul\":10843:10869   */\n      swap1\n      pop\n        /* \"#utility.yul\":10915:10924   */\n      dup2\n        /* \"#utility.yul\":10909:10913   */\n      dup2\n        /* \"#utility.yul\":10905:10925   */\n      sub\n        /* \"#utility.yul\":10901:10902   */\n      0x00\n        /* \"#utility.yul\":10890:10899   */\n      dup4\n        /* \"#utility.yul\":10886:10903   */\n      add\n        /* \"#utility.yul\":10879:10926   */\n      mstore\n        /* \"#utility.yul\":10943:11021   */\n      tag_456\n        /* \"#utility.yul\":11016:11020   */\n      dup2\n        /* \"#utility.yul\":11007:11013   */\n      dup6\n        /* \"#utility.yul\":10943:11021   */\n      tag_277\n      jump\t// in\n    tag_456:\n        /* \"#utility.yul\":10935:11021   */\n      swap1\n      pop\n        /* \"#utility.yul\":11068:11077   */\n      dup2\n        /* \"#utility.yul\":11062:11066   */\n      dup2\n        /* \"#utility.yul\":11058:11078   */\n      sub\n        /* \"#utility.yul\":11053:11055   */\n      0x20\n        /* \"#utility.yul\":11042:11051   */\n      dup4\n        /* \"#utility.yul\":11038:11056   */\n      add\n        /* \"#utility.yul\":11031:11079   */\n      mstore\n        /* \"#utility.yul\":11096:11174   */\n      tag_457\n        /* \"#utility.yul\":11169:11173   */\n      dup2\n        /* \"#utility.yul\":11160:11166   */\n      dup5\n        /* \"#utility.yul\":11096:11174   */\n      tag_277\n      jump\t// in\n    tag_457:\n        /* \"#utility.yul\":11088:11174   */\n      swap1\n      pop\n        /* \"#utility.yul\":10667:11181   */\n      swap4\n      swap3\n      pop\n      pop\n      pop\n      jump\t// out\n        /* \"#utility.yul\":11187:11323   */\n    tag_302:\n        /* \"#utility.yul\":11276:11282   */\n      0x00\n        /* \"#utility.yul\":11310:11315   */\n      dup2\n        /* \"#utility.yul\":11304:11316   */\n      mload\n        /* \"#utility.yul\":11294:11316   */\n      swap1\n      pop\n        /* \"#utility.yul\":11187:11323   */\n      swap2\n      swap1\n      pop\n      jump\t// out\n        /* \"#utility.yul\":11329:11535   */\n    tag_303:\n        /* \"#utility.yul\":11450:11461   */\n      0x00\n        /* \"#utility.yul\":11484:11490   */\n      dup3\n        /* \"#utility.yul\":11479:11482   */\n      dup3\n        /* \"#utility.yul\":11472:11491   */\n      mstore\n        /* \"#utility.yul\":11524:11528   */\n      0x20\n        /* \"#utility.yul\":11519:11522   */\n      dup3\n        /* \"#utility.yul\":11515:11529   */\n      add\n        /* \"#utility.yul\":11500:11529   */\n      swap1\n      pop\n        /* \"#utility.yul\":11329:11535   */\n      swap3\n      swap2\n      pop\n      pop\n      jump\t// out\n        /* \"#utility.yul\":11541:11695   */\n    tag_304:\n        /* \"#utility.yul\":11630:11634   */\n      0x00\n        /* \"#utility.yul\":11653:11656   */\n      dup2\n        /* \"#utility.yul\":11645:11656   */\n      swap1\n      pop\n        /* \"#utility.yul\":11683:11687   */\n      0x20\n        /* \"#utility.yul\":11678:11681   */\n      dup3\n        /* \"#utility.yul\":11674:11688   */\n      add\n        /* \"#utility.yul\":11666:11688   */\n      swap1\n      pop\n        /* \"#utility.yul\":11541:11695   */\n      swap2\n      swap1\n      pop\n      jump\t// out\n        /* \"#utility.yul\":11701:11809   */\n    tag_305:\n        /* \"#utility.yul\":11778:11802   */\n      tag_462\n        /* \"#utility.yul\":11796:11801   */\n      dup2\n        /* \"#utility.yul\":11778:11802   */\n      tag_282\n      jump\t// in\n    tag_462:\n        /* \"#utility.yul\":11773:11776   */\n      dup3\n        /* \"#utility.yul\":11766:11803   */\n      mstore\n        /* \"#utility.yul\":11701:11809   */\n      pop\n      pop\n      jump\t// out\n        /* \"#utility.yul\":11867:12187   */\n    tag_306:\n        /* \"#utility.yul\":11998:12002   */\n      0x20\n        /* \"#utility.yul\":11993:11996   */\n      dup3\n        /* \"#utility.yul\":11989:12003   */\n      add\n        /* \"#utility.yul\":12088:12092   */\n      0x00\n        /* \"#utility.yul\":12081:12086   */\n      dup3\n        /* \"#utility.yul\":12077:12093   */\n      add\n        /* \"#utility.yul\":12071:12094   */\n      mload\n        /* \"#utility.yul\":12107:12170   */\n      tag_464\n        /* \"#utility.yul\":12164:12168   */\n      0x00\n        /* \"#utility.yul\":12159:12162   */\n      dup6\n        /* \"#utility.yul\":12155:12169   */\n      add\n        /* \"#utility.yul\":12141:12153   */\n      dup3\n        /* \"#utility.yul\":12107:12170   */\n      tag_305\n      jump\t// in\n    tag_464:\n        /* \"#utility.yul\":12013:12180   */\n      pop\n        /* \"#utility.yul\":11967:12187   */\n      pop\n        /* \"#utility.yul\":11867:12187   */\n      pop\n      pop\n      jump\t// out\n        /* \"#utility.yul\":12193:12460   */\n    tag_307:\n        /* \"#utility.yul\":12306:12316   */\n      0x00\n        /* \"#utility.yul\":12327:12417   */\n      tag_466\n        /* \"#utility.yul\":12413:12416   */\n      dup4\n        /* \"#utility.yul\":12405:12411   */\n      dup4\n        /* \"#utility.yul\":12327:12417   */\n      tag_306\n      jump\t// in\n    tag_466:\n        /* \"#utility.yul\":12449:12453   */\n      0x20\n        /* \"#utility.yul\":12444:12447   */\n      dup4\n        /* \"#utility.yul\":12440:12454   */\n      add\n        /* \"#utility.yul\":12426:12454   */\n      swap1\n      pop\n        /* \"#utility.yul\":12193:12460   */\n      swap3\n      swap2\n      pop\n      pop\n      jump\t// out\n        /* \"#utility.yul\":12466:12601   */\n    tag_308:\n        /* \"#utility.yul\":12558:12562   */\n      0x00\n        /* \"#utility.yul\":12590:12594   */\n      0x20\n        /* \"#utility.yul\":12585:12588   */\n      dup3\n        /* \"#utility.yul\":12581:12595   */\n      add\n        /* \"#utility.yul\":12573:12595   */\n      swap1\n      pop\n        /* \"#utility.yul\":12466:12601   */\n      swap2\n      swap1\n      pop\n      jump\t// out\n        /* \"#utility.yul\":12663:13571   */\n    tag_309:\n        /* \"#utility.yul\":12826:12829   */\n      0x00\n        /* \"#utility.yul\":12855:12931   */\n      tag_469\n        /* \"#utility.yul\":12925:12930   */\n      dup3\n        /* \"#utility.yul\":12855:12931   */\n      tag_302\n      jump\t// in\n    tag_469:\n        /* \"#utility.yul\":12947:13055   */\n      tag_470\n        /* \"#utility.yul\":13048:13054   */\n      dup2\n        /* \"#utility.yul\":13043:13046   */\n      dup6\n        /* \"#utility.yul\":12947:13055   */\n      tag_303\n      jump\t// in\n    tag_470:\n        /* \"#utility.yul\":12940:13055   */\n      swap4\n      pop\n        /* \"#utility.yul\":13079:13157   */\n      tag_471\n        /* \"#utility.yul\":13151:13156   */\n      dup4\n        /* \"#utility.yul\":13079:13157   */\n      tag_304\n      jump\t// in\n    tag_471:\n        /* \"#utility.yul\":13180:13187   */\n      dup1\n        /* \"#utility.yul\":13211:13212   */\n      0x00\n        /* \"#utility.yul\":13196:13546   */\n    tag_472:\n        /* \"#utility.yul\":13221:13227   */\n      dup4\n        /* \"#utility.yul\":13218:13219   */\n      dup2\n        /* \"#utility.yul\":13215:13228   */\n      lt\n        /* \"#utility.yul\":13196:13546   */\n      iszero\n      tag_474\n      jumpi\n        /* \"#utility.yul\":13297:13303   */\n      dup2\n        /* \"#utility.yul\":13291:13304   */\n      mload\n        /* \"#utility.yul\":13324:13431   */\n      tag_475\n        /* \"#utility.yul\":13427:13430   */\n      dup9\n        /* \"#utility.yul\":13412:13425   */\n      dup3\n        /* \"#utility.yul\":13324:13431   */\n      tag_307\n      jump\t// in\n    tag_475:\n        /* \"#utility.yul\":13317:13431   */\n      swap8\n      pop\n        /* \"#utility.yul\":13454:13536   */\n      tag_476\n        /* \"#utility.yul\":13529:13535   */\n      dup4\n        /* \"#utility.yul\":13454:13536   */\n      tag_308\n      jump\t// in\n    tag_476:\n        /* \"#utility.yul\":13444:13536   */\n      swap3\n      pop\n        /* \"#utility.yul\":13256:13546   */\n      pop\n        /* \"#utility.yul\":13243:13244   */\n      0x01\n        /* \"#utility.yul\":13240:13241   */\n      dup2\n        /* \"#utility.yul\":13236:13245   */\n      add\n        /* \"#utility.yul\":13231:13245   */\n      swap1\n      pop\n        /* \"#utility.yul\":13196:13546   */\n      jump(tag_472)\n    tag_474:\n        /* \"#utility.yul\":13200:13214   */\n      pop\n        /* \"#utility.yul\":13562:13565   */\n      dup6\n        /* \"#utility.yul\":13555:13565   */\n      swap4\n      pop\n        /* \"#utility.yul\":12831:13571   */\n      pop\n      pop\n      pop\n        /* \"#utility.yul\":12663:13571   */\n      swap3\n      swap2\n      pop\n      pop\n      jump\t// out\n        /* \"#utility.yul\":13577:14038   */\n    tag_101:\n        /* \"#utility.yul\":13764:13768   */\n      0x00\n        /* \"#utility.yul\":13802:13804   */\n      0x20\n        /* \"#utility.yul\":13791:13800   */\n      dup3\n        /* \"#utility.yul\":13787:13805   */\n      add\n        /* \"#utility.yul\":13779:13805   */\n      swap1\n      pop\n        /* \"#utility.yul\":13851:13860   */\n      dup2\n        /* \"#utility.yul\":13845:13849   */\n      dup2\n        /* \"#utility.yul\":13841:13861   */\n      sub\n        /* \"#utility.yul\":13837:13838   */\n      0x00\n        /* \"#utility.yul\":13826:13835   */\n      dup4\n        /* \"#utility.yul\":13822:13839   */\n      add\n        /* \"#utility.yul\":13815:13862   */\n      mstore\n        /* \"#utility.yul\":13879:14031   */\n      tag_478\n        /* \"#utility.yul\":14026:14030   */\n      dup2\n        /* \"#utility.yul\":14017:14023   */\n      dup5\n        /* \"#utility.yul\":13879:14031   */\n      tag_309\n      jump\t// in\n    tag_478:\n        /* \"#utility.yul\":13871:14031   */\n      swap1\n      pop\n        /* \"#utility.yul\":13577:14038   */\n      swap3\n      swap2\n      pop\n      pop\n      jump\t// out\n        /* \"#utility.yul\":14044:14161   */\n    tag_310:\n        /* \"#utility.yul\":14153:14154   */\n      0x00\n        /* \"#utility.yul\":14150:14151   */\n      dup1\n        /* \"#utility.yul\":14143:14155   */\n      revert\n        /* \"#utility.yul\":14167:14284   */\n    tag_311:\n        /* \"#utility.yul\":14276:14277   */\n      0x00\n        /* \"#utility.yul\":14273:14274   */\n      dup1\n        /* \"#utility.yul\":14266:14278   */\n      revert\n        /* \"#utility.yul\":14290:14470   */\n    tag_312:\n        /* \"#utility.yul\":14338:14415   */\n      0x4e487b7100000000000000000000000000000000000000000000000000000000\n        /* \"#utility.yul\":14335:14336   */\n      0x00\n        /* \"#utility.yul\":14328:14416   */\n      mstore\n        /* \"#utility.yul\":14435:14439   */\n      0x41\n        /* \"#utility.yul\":14432:14433   */\n      0x04\n        /* \"#utility.yul\":14425:14440   */\n      mstore\n        /* \"#utility.yul\":14459:14463   */\n      0x24\n        /* \"#utility.yul\":14456:14457   */\n      0x00\n        /* \"#utility.yul\":14449:14464   */\n      revert\n        /* \"#utility.yul\":14476:14757   */\n    tag_313:\n        /* \"#utility.yul\":14559:14586   */\n      tag_483\n        /* \"#utility.yul\":14581:14585   */\n      dup3\n        /* \"#utility.yul\":14559:14586   */\n      tag_276\n      jump\t// in\n    tag_483:\n        /* \"#utility.yul\":14551:14557   */\n      dup2\n        /* \"#utility.yul\":14547:14587   */\n      add\n        /* \"#utility.yul\":14689:14695   */\n      dup2\n        /* \"#utility.yul\":14677:14687   */\n      dup2\n        /* \"#utility.yul\":14674:14696   */\n      lt\n        /* \"#utility.yul\":14653:14671   */\n      0xffffffffffffffff\n        /* \"#utility.yul\":14641:14651   */\n      dup3\n        /* \"#utility.yul\":14638:14672   */\n      gt\n        /* \"#utility.yul\":14635:14697   */\n      or\n        /* \"#utility.yul\":14632:14720   */\n      iszero\n      tag_484\n      jumpi\n        /* \"#utility.yul\":14700:14718   */\n      tag_485\n      tag_312\n      jump\t// in\n    tag_485:\n        /* \"#utility.yul\":14632:14720   */\n    tag_484:\n        /* \"#utility.yul\":14740:14750   */\n      dup1\n        /* \"#utility.yul\":14736:14738   */\n      0x40\n        /* \"#utility.yul\":14729:14751   */\n      mstore\n        /* \"#utility.yul\":14519:14757   */\n      pop\n        /* \"#utility.yul\":14476:14757   */\n      pop\n      pop\n      jump\t// out\n        /* \"#utility.yul\":14763:14892   */\n    tag_314:\n        /* \"#utility.yul\":14797:14803   */\n      0x00\n        /* \"#utility.yul\":14824:14844   */\n      tag_487\n      tag_278\n      jump\t// in\n    tag_487:\n        /* \"#utility.yul\":14814:14844   */\n      swap1\n      pop\n        /* \"#utility.yul\":14853:14886   */\n      tag_488\n        /* \"#utility.yul\":14881:14885   */\n      dup3\n        /* \"#utility.yul\":14873:14879   */\n      dup3\n        /* \"#utility.yul\":14853:14886   */\n      tag_313\n      jump\t// in\n    tag_488:\n        /* \"#utility.yul\":14763:14892   */\n      swap2\n      swap1\n      pop\n      jump\t// out\n        /* \"#utility.yul\":14898:15206   */\n    tag_315:\n        /* \"#utility.yul\":14960:14964   */\n      0x00\n        /* \"#utility.yul\":15050:15068   */\n      0xffffffffffffffff\n        /* \"#utility.yul\":15042:15048   */\n      dup3\n        /* \"#utility.yul\":15039:15069   */\n      gt\n        /* \"#utility.yul\":15036:15092   */\n      iszero\n      tag_490\n      jumpi\n        /* \"#utility.yul\":15072:15090   */\n      tag_491\n      tag_312\n      jump\t// in\n    tag_491:\n        /* \"#utility.yul\":15036:15092   */\n    tag_490:\n        /* \"#utility.yul\":15110:15139   */\n      tag_492\n        /* \"#utility.yul\":15132:15138   */\n      dup3\n        /* \"#utility.yul\":15110:15139   */\n      tag_276\n      jump\t// in\n    tag_492:\n        /* \"#utility.yul\":15102:15139   */\n      swap1\n      pop\n        /* \"#utility.yul\":15194:15198   */\n      0x20\n        /* \"#utility.yul\":15188:15192   */\n      dup2\n        /* \"#utility.yul\":15184:15199   */\n      add\n        /* \"#utility.yul\":15176:15199   */\n      swap1\n      pop\n        /* \"#utility.yul\":14898:15206   */\n      swap2\n      swap1\n      pop\n      jump\t// out\n        /* \"#utility.yul\":15212:15358   */\n    tag_316:\n        /* \"#utility.yul\":15309:15315   */\n      dup3\n        /* \"#utility.yul\":15304:15307   */\n      dup2\n        /* \"#utility.yul\":15299:15302   */\n      dup4\n        /* \"#utility.yul\":15286:15316   */\n      calldatacopy\n        /* \"#utility.yul\":15350:15351   */\n      0x00\n        /* \"#utility.yul\":15341:15347   */\n      dup4\n        /* \"#utility.yul\":15336:15339   */\n      dup4\n        /* \"#utility.yul\":15332:15348   */\n      add\n        /* \"#utility.yul\":15325:15352   */\n      mstore\n        /* \"#utility.yul\":15212:15358   */\n      pop\n      pop\n      pop\n      jump\t// out\n        /* \"#utility.yul\":15364:15789   */\n    tag_317:\n        /* \"#utility.yul\":15442:15447   */\n      0x00\n        /* \"#utility.yul\":15467:15533   */\n      tag_495\n        /* \"#utility.yul\":15483:15532   */\n      tag_496\n        /* \"#utility.yul\":15525:15531   */\n      dup5\n        /* \"#utility.yul\":15483:15532   */\n      tag_315\n      jump\t// in\n    tag_496:\n        /* \"#utility.yul\":15467:15533   */\n      tag_314\n      jump\t// in\n    tag_495:\n        /* \"#utility.yul\":15458:15533   */\n      swap1\n      pop\n        /* \"#utility.yul\":15556:15562   */\n      dup3\n        /* \"#utility.yul\":15549:15554   */\n      dup2\n        /* \"#utility.yul\":15542:15563   */\n      mstore\n        /* \"#utility.yul\":15594:15598   */\n      0x20\n        /* \"#utility.yul\":15587:15592   */\n      dup2\n        /* \"#utility.yul\":15583:15599   */\n      add\n        /* \"#utility.yul\":15632:15635   */\n      dup5\n        /* \"#utility.yul\":15623:15629   */\n      dup5\n        /* \"#utility.yul\":15618:15621   */\n      dup5\n        /* \"#utility.yul\":15614:15630   */\n      add\n        /* \"#utility.yul\":15611:15636   */\n      gt\n        /* \"#utility.yul\":15608:15720   */\n      iszero\n      tag_497\n      jumpi\n        /* \"#utility.yul\":15639:15718   */\n      tag_498\n      tag_311\n      jump\t// in\n    tag_498:\n        /* \"#utility.yul\":15608:15720   */\n    tag_497:\n        /* \"#utility.yul\":15729:15783   */\n      tag_499\n        /* \"#utility.yul\":15776:15782   */\n      dup5\n        /* \"#utility.yul\":15771:15774   */\n      dup3\n        /* \"#utility.yul\":15766:15769   */\n      dup6\n        /* \"#utility.yul\":15729:15783   */\n      tag_316\n      jump\t// in\n    tag_499:\n        /* \"#utility.yul\":15448:15789   */\n      pop\n        /* \"#utility.yul\":15364:15789   */\n      swap4\n      swap3\n      pop\n      pop\n      pop\n      jump\t// out\n        /* \"#utility.yul\":15809:16149   */\n    tag_318:\n        /* \"#utility.yul\":15865:15870   */\n      0x00\n        /* \"#utility.yul\":15914:15917   */\n      dup3\n        /* \"#utility.yul\":15907:15911   */\n      0x1f\n        /* \"#utility.yul\":15899:15905   */\n      dup4\n        /* \"#utility.yul\":15895:15912   */\n      add\n        /* \"#utility.yul\":15891:15918   */\n      slt\n        /* \"#utility.yul\":15881:16003   */\n      tag_501\n      jumpi\n        /* \"#utility.yul\":15922:16001   */\n      tag_502\n      tag_310\n      jump\t// in\n    tag_502:\n        /* \"#utility.yul\":15881:16003   */\n    tag_501:\n        /* \"#utility.yul\":16039:16045   */\n      dup2\n        /* \"#utility.yul\":16026:16046   */\n      calldataload\n        /* \"#utility.yul\":16064:16143   */\n      tag_503\n        /* \"#utility.yul\":16139:16142   */\n      dup5\n        /* \"#utility.yul\":16131:16137   */\n      dup3\n        /* \"#utility.yul\":16124:16128   */\n      0x20\n        /* \"#utility.yul\":16116:16122   */\n      dup7\n        /* \"#utility.yul\":16112:16129   */\n      add\n        /* \"#utility.yul\":16064:16143   */\n      tag_317\n      jump\t// in\n    tag_503:\n        /* \"#utility.yul\":16055:16143   */\n      swap2\n      pop\n        /* \"#utility.yul\":15871:16149   */\n      pop\n        /* \"#utility.yul\":15809:16149   */\n      swap3\n      swap2\n      pop\n      pop\n      jump\t// out\n        /* \"#utility.yul\":16155:16809   */\n    tag_121:\n        /* \"#utility.yul\":16233:16239   */\n      0x00\n        /* \"#utility.yul\":16241:16247   */\n      dup1\n        /* \"#utility.yul\":16290:16292   */\n      0x40\n        /* \"#utility.yul\":16278:16287   */\n      dup4\n        /* \"#utility.yul\":16269:16276   */\n      dup6\n        /* \"#utility.yul\":16265:16288   */\n      sub\n        /* \"#utility.yul\":16261:16293   */\n      slt\n        /* \"#utility.yul\":16258:16377   */\n      iszero\n      tag_505\n      jumpi\n        /* \"#utility.yul\":16296:16375   */\n      tag_506\n      tag_279\n      jump\t// in\n    tag_506:\n        /* \"#utility.yul\":16258:16377   */\n    tag_505:\n        /* \"#utility.yul\":16416:16417   */\n      0x00\n        /* \"#utility.yul\":16441:16494   */\n      tag_507\n        /* \"#utility.yul\":16486:16493   */\n      dup6\n        /* \"#utility.yul\":16477:16483   */\n      dup3\n        /* \"#utility.yul\":16466:16475   */\n      dup7\n        /* \"#utility.yul\":16462:16484   */\n      add\n        /* \"#utility.yul\":16441:16494   */\n      tag_284\n      jump\t// in\n    tag_507:\n        /* \"#utility.yul\":16431:16494   */\n      swap3\n      pop\n        /* \"#utility.yul\":16387:16504   */\n      pop\n        /* \"#utility.yul\":16571:16573   */\n      0x20\n        /* \"#utility.yul\":16560:16569   */\n      dup4\n        /* \"#utility.yul\":16556:16574   */\n      add\n        /* \"#utility.yul\":16543:16575   */\n      calldataload\n        /* \"#utility.yul\":16602:16620   */\n      0xffffffffffffffff\n        /* \"#utility.yul\":16594:16600   */\n      dup2\n        /* \"#utility.yul\":16591:16621   */\n      gt\n        /* \"#utility.yul\":16588:16705   */\n      iszero\n      tag_508\n      jumpi\n        /* \"#utility.yul\":16624:16703   */\n      tag_509\n      tag_280\n      jump\t// in\n    tag_509:\n        /* \"#utility.yul\":16588:16705   */\n    tag_508:\n        /* \"#utility.yul\":16729:16792   */\n      tag_510\n        /* \"#utility.yul\":16784:16791   */\n      dup6\n        /* \"#utility.yul\":16775:16781   */\n      dup3\n        /* \"#utility.yul\":16764:16773   */\n      dup7\n        /* \"#utility.yul\":16760:16782   */\n      add\n        /* \"#utility.yul\":16729:16792   */\n      tag_318\n      jump\t// in\n    tag_510:\n        /* \"#utility.yul\":16719:16792   */\n      swap2\n      pop\n        /* \"#utility.yul\":16514:16802   */\n      pop\n        /* \"#utility.yul\":16155:16809   */\n      swap3\n      pop\n      swap3\n      swap1\n      pop\n      jump\t// out\n        /* \"#utility.yul\":16815:17289   */\n    tag_127:\n        /* \"#utility.yul\":16883:16889   */\n      0x00\n        /* \"#utility.yul\":16891:16897   */\n      dup1\n        /* \"#utility.yul\":16940:16942   */\n      0x40\n        /* \"#utility.yul\":16928:16937   */\n      dup4\n        /* \"#utility.yul\":16919:16926   */\n      dup6\n        /* \"#utility.yul\":16915:16938   */\n      sub\n        /* \"#utility.yul\":16911:16943   */\n      slt\n        /* \"#utility.yul\":16908:17027   */\n      iszero\n      tag_512\n      jumpi\n        /* \"#utility.yul\":16946:17025   */\n      tag_513\n      tag_279\n      jump\t// in\n    tag_513:\n        /* \"#utility.yul\":16908:17027   */\n    tag_512:\n        /* \"#utility.yul\":17066:17067   */\n      0x00\n        /* \"#utility.yul\":17091:17144   */\n      tag_514\n        /* \"#utility.yul\":17136:17143   */\n      dup6\n        /* \"#utility.yul\":17127:17133   */\n      dup3\n        /* \"#utility.yul\":17116:17125   */\n      dup7\n        /* \"#utility.yul\":17112:17134   */\n      add\n        /* \"#utility.yul\":17091:17144   */\n      tag_284\n      jump\t// in\n    tag_514:\n        /* \"#utility.yul\":17081:17144   */\n      swap3\n      pop\n        /* \"#utility.yul\":17037:17154   */\n      pop\n        /* \"#utility.yul\":17193:17195   */\n      0x20\n        /* \"#utility.yul\":17219:17272   */\n      tag_515\n        /* \"#utility.yul\":17264:17271   */\n      dup6\n        /* \"#utility.yul\":17255:17261   */\n      dup3\n        /* \"#utility.yul\":17244:17253   */\n      dup7\n        /* \"#utility.yul\":17240:17262   */\n      add\n        /* \"#utility.yul\":17219:17272   */\n      tag_284\n      jump\t// in\n    tag_515:\n        /* \"#utility.yul\":17209:17272   */\n      swap2\n      pop\n        /* \"#utility.yul\":17164:17282   */\n      pop\n        /* \"#utility.yul\":16815:17289   */\n      swap3\n      pop\n      swap3\n      swap1\n      pop\n      jump\t// out\n        /* \"#utility.yul\":17295:17475   */\n    tag_319:\n        /* \"#utility.yul\":17343:17420   */\n      0x4e487b7100000000000000000000000000000000000000000000000000000000\n        /* \"#utility.yul\":17340:17341   */\n      0x00\n        /* \"#utility.yul\":17333:17421   */\n      mstore\n        /* \"#utility.yul\":17440:17444   */\n      0x22\n        /* \"#utility.yul\":17437:17438   */\n      0x04\n        /* \"#utility.yul\":17430:17445   */\n      mstore\n        /* \"#utility.yul\":17464:17468   */\n      0x24\n        /* \"#utility.yul\":17461:17462   */\n      0x00\n        /* \"#utility.yul\":17454:17469   */\n      revert\n        /* \"#utility.yul\":17481:17801   */\n    tag_134:\n        /* \"#utility.yul\":17525:17531   */\n      0x00\n        /* \"#utility.yul\":17562:17563   */\n      0x02\n        /* \"#utility.yul\":17556:17560   */\n      dup3\n        /* \"#utility.yul\":17552:17564   */\n      div\n        /* \"#utility.yul\":17542:17564   */\n      swap1\n      pop\n        /* \"#utility.yul\":17609:17610   */\n      0x01\n        /* \"#utility.yul\":17603:17607   */\n      dup3\n        /* \"#utility.yul\":17599:17611   */\n      and\n        /* \"#utility.yul\":17630:17648   */\n      dup1\n        /* \"#utility.yul\":17620:17701   */\n      tag_518\n      jumpi\n        /* \"#utility.yul\":17686:17690   */\n      0x7f\n        /* \"#utility.yul\":17678:17684   */\n      dup3\n        /* \"#utility.yul\":17674:17691   */\n      and\n        /* \"#utility.yul\":17664:17691   */\n      swap2\n      pop\n        /* \"#utility.yul\":17620:17701   */\n    tag_518:\n        /* \"#utility.yul\":17748:17750   */\n      0x20\n        /* \"#utility.yul\":17740:17746   */\n      dup3\n        /* \"#utility.yul\":17737:17751   */\n      lt\n        /* \"#utility.yul\":17717:17735   */\n      dup2\n        /* \"#utility.yul\":17714:17752   */\n      sub\n        /* \"#utility.yul\":17711:17795   */\n      tag_519\n      jumpi\n        /* \"#utility.yul\":17767:17785   */\n      tag_520\n      tag_319\n      jump\t// in\n    tag_520:\n        /* \"#utility.yul\":17711:17795   */\n    tag_519:\n        /* \"#utility.yul\":17532:17801   */\n      pop\n        /* \"#utility.yul\":17481:17801   */\n      swap2\n      swap1\n      pop\n      jump\t// out\n        /* \"#utility.yul\":17807:17886   */\n    tag_320:\n        /* \"#utility.yul\":17846:17853   */\n      0x00\n        /* \"#utility.yul\":17875:17880   */\n      dup2\n        /* \"#utility.yul\":17864:17880   */\n      swap1\n      pop\n        /* \"#utility.yul\":17807:17886   */\n      swap2\n      swap1\n      pop\n      jump\t// out\n        /* \"#utility.yul\":17892:18049   */\n    tag_321:\n        /* \"#utility.yul\":17997:18042   */\n      tag_523\n        /* \"#utility.yul\":18017:18041   */\n      tag_524\n        /* \"#utility.yul\":18035:18040   */\n      dup3\n        /* \"#utility.yul\":18017:18041   */\n      tag_271\n      jump\t// in\n    tag_524:\n        /* \"#utility.yul\":17997:18042   */\n      tag_320\n      jump\t// in\n    tag_523:\n        /* \"#utility.yul\":17992:17995   */\n      dup3\n        /* \"#utility.yul\":17985:18043   */\n      mstore\n        /* \"#utility.yul\":17892:18049   */\n      pop\n      pop\n      jump\t// out\n        /* \"#utility.yul\":18055:18159   */\n    tag_322:\n        /* \"#utility.yul\":18100:18107   */\n      0x00\n        /* \"#utility.yul\":18129:18153   */\n      tag_526\n        /* \"#utility.yul\":18147:18152   */\n      dup3\n        /* \"#utility.yul\":18129:18153   */\n      tag_281\n      jump\t// in\n    tag_526:\n        /* \"#utility.yul\":18118:18153   */\n      swap1\n      pop\n        /* \"#utility.yul\":18055:18159   */\n      swap2\n      swap1\n      pop\n      jump\t// out\n        /* \"#utility.yul\":18165:18259   */\n    tag_323:\n        /* \"#utility.yul\":18198:18206   */\n      0x00\n        /* \"#utility.yul\":18246:18251   */\n      dup2\n        /* \"#utility.yul\":18242:18244   */\n      0x60\n        /* \"#utility.yul\":18238:18252   */\n      shl\n        /* \"#utility.yul\":18217:18252   */\n      swap1\n      pop\n        /* \"#utility.yul\":18165:18259   */\n      swap2\n      swap1\n      pop\n      jump\t// out\n        /* \"#utility.yul\":18265:18359   */\n    tag_324:\n        /* \"#utility.yul\":18304:18311   */\n      0x00\n        /* \"#utility.yul\":18333:18353   */\n      tag_529\n        /* \"#utility.yul\":18347:18352   */\n      dup3\n        /* \"#utility.yul\":18333:18353   */\n      tag_323\n      jump\t// in\n    tag_529:\n        /* \"#utility.yul\":18322:18353   */\n      swap1\n      pop\n        /* \"#utility.yul\":18265:18359   */\n      swap2\n      swap1\n      pop\n      jump\t// out\n        /* \"#utility.yul\":18365:18473   */\n    tag_325:\n        /* \"#utility.yul\":18412:18419   */\n      0x00\n        /* \"#utility.yul\":18441:18467   */\n      tag_531\n        /* \"#utility.yul\":18461:18466   */\n      dup3\n        /* \"#utility.yul\":18441:18467   */\n      tag_324\n      jump\t// in\n    tag_531:\n        /* \"#utility.yul\":18430:18467   */\n      swap1\n      pop\n        /* \"#utility.yul\":18365:18473   */\n      swap2\n      swap1\n      pop\n      jump\t// out\n        /* \"#utility.yul\":18479:18668   */\n    tag_326:\n        /* \"#utility.yul\":18600:18661   */\n      tag_533\n        /* \"#utility.yul\":18628:18660   */\n      tag_534\n        /* \"#utility.yul\":18654:18659   */\n      dup3\n        /* \"#utility.yul\":18628:18660   */\n      tag_322\n      jump\t// in\n    tag_534:\n        /* \"#utility.yul\":18600:18661   */\n      tag_325\n      jump\t// in\n    tag_533:\n        /* \"#utility.yul\":18595:18598   */\n      dup3\n        /* \"#utility.yul\":18588:18662   */\n      mstore\n        /* \"#utility.yul\":18479:18668   */\n      pop\n      pop\n      jump\t// out\n        /* \"#utility.yul\":18674:19244   */\n    tag_208:\n        /* \"#utility.yul\":18858:18861   */\n      0x00\n        /* \"#utility.yul\":18873:18948   */\n      tag_536\n        /* \"#utility.yul\":18944:18947   */\n      dup3\n        /* \"#utility.yul\":18935:18941   */\n      dup7\n        /* \"#utility.yul\":18873:18948   */\n      tag_321\n      jump\t// in\n    tag_536:\n        /* \"#utility.yul\":18973:18975   */\n      0x20\n        /* \"#utility.yul\":18968:18971   */\n      dup3\n        /* \"#utility.yul\":18964:18976   */\n      add\n        /* \"#utility.yul\":18957:18976   */\n      swap2\n      pop\n        /* \"#utility.yul\":18986:19077   */\n      tag_537\n        /* \"#utility.yul\":19073:19076   */\n      dup3\n        /* \"#utility.yul\":19064:19070   */\n      dup6\n        /* \"#utility.yul\":18986:19077   */\n      tag_326\n      jump\t// in\n    tag_537:\n        /* \"#utility.yul\":19102:19104   */\n      0x14\n        /* \"#utility.yul\":19097:19100   */\n      dup3\n        /* \"#utility.yul\":19093:19105   */\n      add\n        /* \"#utility.yul\":19086:19105   */\n      swap2\n      pop\n        /* \"#utility.yul\":19115:19190   */\n      tag_538\n        /* \"#utility.yul\":19186:19189   */\n      dup3\n        /* \"#utility.yul\":19177:19183   */\n      dup5\n        /* \"#utility.yul\":19115:19190   */\n      tag_321\n      jump\t// in\n    tag_538:\n        /* \"#utility.yul\":19215:19217   */\n      0x20\n        /* \"#utility.yul\":19210:19213   */\n      dup3\n        /* \"#utility.yul\":19206:19218   */\n      add\n        /* \"#utility.yul\":19199:19218   */\n      swap2\n      pop\n        /* \"#utility.yul\":19235:19238   */\n      dup2\n        /* \"#utility.yul\":19228:19238   */\n      swap1\n      pop\n        /* \"#utility.yul\":18674:19244   */\n      swap5\n      swap4\n      pop\n      pop\n      pop\n      pop\n      jump\t// out\n        /* \"#utility.yul\":19250:19430   */\n    tag_327:\n        /* \"#utility.yul\":19298:19375   */\n      0x4e487b7100000000000000000000000000000000000000000000000000000000\n        /* \"#utility.yul\":19295:19296   */\n      0x00\n        /* \"#utility.yul\":19288:19376   */\n      mstore\n        /* \"#utility.yul\":19395:19399   */\n      0x12\n        /* \"#utility.yul\":19392:19393   */\n      0x04\n        /* \"#utility.yul\":19385:19400   */\n      mstore\n        /* \"#utility.yul\":19419:19423   */\n      0x24\n        /* \"#utility.yul\":19416:19417   */\n      0x00\n        /* \"#utility.yul\":19409:19424   */\n      revert\n        /* \"#utility.yul\":19436:19612   */\n    tag_210:\n        /* \"#utility.yul\":19468:19469   */\n      0x00\n        /* \"#utility.yul\":19485:19505   */\n      tag_541\n        /* \"#utility.yul\":19503:19504   */\n      dup3\n        /* \"#utility.yul\":19485:19505   */\n      tag_271\n      jump\t// in\n    tag_541:\n        /* \"#utility.yul\":19480:19505   */\n      swap2\n      pop\n        /* \"#utility.yul\":19519:19539   */\n      tag_542\n        /* \"#utility.yul\":19537:19538   */\n      dup4\n        /* \"#utility.yul\":19519:19539   */\n      tag_271\n      jump\t// in\n    tag_542:\n        /* \"#utility.yul\":19514:19539   */\n      swap3\n      pop\n        /* \"#utility.yul\":19558:19559   */\n      dup3\n        /* \"#utility.yul\":19548:19583   */\n      tag_543\n      jumpi\n        /* \"#utility.yul\":19563:19581   */\n      tag_544\n      tag_327\n      jump\t// in\n    tag_544:\n        /* \"#utility.yul\":19548:19583   */\n    tag_543:\n        /* \"#utility.yul\":19604:19605   */\n      dup3\n        /* \"#utility.yul\":19601:19602   */\n      dup3\n        /* \"#utility.yul\":19597:19606   */\n      mod\n        /* \"#utility.yul\":19592:19606   */\n      swap1\n      pop\n        /* \"#utility.yul\":19436:19612   */\n      swap3\n      swap2\n      pop\n      pop\n      jump\t// out\n        /* \"#utility.yul\":19618:19798   */\n    tag_213:\n        /* \"#utility.yul\":19666:19743   */\n      0x4e487b7100000000000000000000000000000000000000000000000000000000\n        /* \"#utility.yul\":19663:19664   */\n      0x00\n        /* \"#utility.yul\":19656:19744   */\n      mstore\n        /* \"#utility.yul\":19763:19767   */\n      0x32\n        /* \"#utility.yul\":19760:19761   */\n      0x04\n        /* \"#utility.yul\":19753:19768   */\n      mstore\n        /* \"#utility.yul\":19787:19791   */\n      0x24\n        /* \"#utility.yul\":19784:19785   */\n      0x00\n        /* \"#utility.yul\":19777:19792   */\n      revert\n        /* \"#utility.yul\":19804:19945   */\n    tag_328:\n        /* \"#utility.yul\":19853:19857   */\n      0x00\n        /* \"#utility.yul\":19876:19879   */\n      dup2\n        /* \"#utility.yul\":19868:19879   */\n      swap1\n      pop\n        /* \"#utility.yul\":19899:19902   */\n      dup2\n        /* \"#utility.yul\":19896:19897   */\n      0x00\n        /* \"#utility.yul\":19889:19903   */\n      mstore\n        /* \"#utility.yul\":19933:19937   */\n      0x20\n        /* \"#utility.yul\":19930:19931   */\n      0x00\n        /* \"#utility.yul\":19920:19938   */\n      keccak256\n        /* \"#utility.yul\":19912:19938   */\n      swap1\n      pop\n        /* \"#utility.yul\":19804:19945   */\n      swap2\n      swap1\n      pop\n      jump\t// out\n        /* \"#utility.yul\":19951:20044   */\n    tag_329:\n        /* \"#utility.yul\":19988:19994   */\n      0x00\n        /* \"#utility.yul\":20035:20037   */\n      0x20\n        /* \"#utility.yul\":20030:20032   */\n      0x1f\n        /* \"#utility.yul\":20023:20028   */\n      dup4\n        /* \"#utility.yul\":20019:20033   */\n      add\n        /* \"#utility.yul\":20015:20038   */\n      div\n        /* \"#utility.yul\":20005:20038   */\n      swap1\n      pop\n        /* \"#utility.yul\":19951:20044   */\n      swap2\n      swap1\n      pop\n      jump\t// out\n        /* \"#utility.yul\":20050:20157   */\n    tag_330:\n        /* \"#utility.yul\":20094:20102   */\n      0x00\n        /* \"#utility.yul\":20144:20149   */\n      dup3\n        /* \"#utility.yul\":20138:20142   */\n      dup3\n        /* \"#utility.yul\":20134:20150   */\n      shl\n        /* \"#utility.yul\":20113:20150   */\n      swap1\n      pop\n        /* \"#utility.yul\":20050:20157   */\n      swap3\n      swap2\n      pop\n      pop\n      jump\t// out\n        /* \"#utility.yul\":20163:20556   */\n    tag_331:\n        /* \"#utility.yul\":20232:20238   */\n      0x00\n        /* \"#utility.yul\":20282:20283   */\n      0x08\n        /* \"#utility.yul\":20270:20280   */\n      dup4\n        /* \"#utility.yul\":20266:20284   */\n      mul\n        /* \"#utility.yul\":20305:20402   */\n      tag_550\n        /* \"#utility.yul\":20335:20401   */\n      0xffffffffffffffffffffffffffffffffffffffffffffffffffffffffffffffff\n        /* \"#utility.yul\":20324:20333   */\n      dup3\n        /* \"#utility.yul\":20305:20402   */\n      tag_330\n      jump\t// in\n    tag_550:\n        /* \"#utility.yul\":20423:20462   */\n      tag_551\n        /* \"#utility.yul\":20453:20461   */\n      dup7\n        /* \"#utility.yul\":20442:20451   */\n      dup4\n        /* \"#utility.yul\":20423:20462   */\n      tag_330\n      jump\t// in\n    tag_551:\n        /* \"#utility.yul\":20411:20462   */\n      swap6\n      pop\n        /* \"#utility.yul\":20495:20499   */\n      dup1\n        /* \"#utility.yul\":20491:20500   */\n      not\n        /* \"#utility.yul\":20484:20489   */\n      dup5\n        /* \"#utility.yul\":20480:20501   */\n      and\n        /* \"#utility.yul\":20471:20501   */\n      swap4\n      pop\n        /* \"#utility.yul\":20544:20548   */\n      dup1\n        /* \"#utility.yul\":20534:20542   */\n      dup7\n        /* \"#utility.yul\":20530:20549   */\n      and\n        /* \"#utility.yul\":20523:20528   */\n      dup5\n        /* \"#utility.yul\":20520:20550   */\n      or\n        /* \"#utility.yul\":20510:20550   */\n      swap3\n      pop\n        /* \"#utility.yul\":20239:20556   */\n      pop\n      pop\n        /* \"#utility.yul\":20163:20556   */\n      swap4\n      swap3\n      pop\n      pop\n      pop\n      jump\t// out\n        /* \"#utility.yul\":20562:20622   */\n    tag_332:\n        /* \"#utility.yul\":20590:20593   */\n      0x00\n        /* \"#utility.yul\":20611:20616   */\n      dup2\n        /* \"#utility.yul\":20604:20616   */\n      swap1\n      pop\n        /* \"#utility.yul\":20562:20622   */\n      swap2\n      swap1\n      pop\n      jump\t// out\n        /* \"#utility.yul\":20628:20770   */\n    tag_333:\n        /* \"#utility.yul\":20678:20687   */\n      0x00\n        /* \"#utility.yul\":20711:20764   */\n      tag_554\n        /* \"#utility.yul\":20729:20763   */\n      tag_555\n        /* \"#utility.yul\":20738:20762   */\n      tag_556\n        /* \"#utility.yul\":20756:20761   */\n      dup5\n        /* \"#utility.yul\":20738:20762   */\n      tag_271\n      jump\t// in\n    tag_556:\n        /* \"#utility.yul\":20729:20763   */\n      tag_332\n      jump\t// in\n    tag_555:\n        /* \"#utility.yul\":20711:20764   */\n      tag_271\n      jump\t// in\n    tag_554:\n        /* \"#utility.yul\":20698:20764   */\n      swap1\n      pop\n        /* \"#utility.yul\":20628:20770   */\n      swap2\n      swap1\n      pop\n      jump\t// out\n        /* \"#utility.yul\":20776:20851   */\n    tag_334:\n        /* \"#utility.yul\":20819:20822   */\n      0x00\n        /* \"#utility.yul\":20840:20845   */\n      dup2\n        /* \"#utility.yul\":20833:20845   */\n      swap1\n      pop\n        /* \"#utility.yul\":20776:20851   */\n      swap2\n      swap1\n      pop\n      jump\t// out\n        /* \"#utility.yul\":20857:21126   */\n    tag_335:\n        /* \"#utility.yul\":20967:21006   */\n      tag_559\n        /* \"#utility.yul\":20998:21005   */\n      dup4\n        /* \"#utility.yul\":20967:21006   */\n      tag_333\n      jump\t// in\n    tag_559:\n        /* \"#utility.yul\":21028:21119   */\n      tag_560\n        /* \"#utility.yul\":21077:21118   */\n      tag_561\n        /* \"#utility.yul\":21101:21117   */\n      dup3\n        /* \"#utility.yul\":21077:21118   */\n      tag_334\n      jump\t// in\n    tag_561:\n        /* \"#utility.yul\":21069:21075   */\n      dup5\n        /* \"#utility.yul\":21062:21066   */\n      dup5\n        /* \"#utility.yul\":21056:21067   */\n      sload\n        /* \"#utility.yul\":21028:21119   */\n      tag_331\n      jump\t// in\n    tag_560:\n        /* \"#utility.yul\":21022:21026   */\n      dup3\n        /* \"#utility.yul\":21015:21120   */\n      sstore\n        /* \"#utility.yul\":20933:21126   */\n      pop\n        /* \"#utility.yul\":20857:21126   */\n      pop\n      pop\n      pop\n      jump\t// out\n        /* \"#utility.yul\":21132:21205   */\n    tag_336:\n        /* \"#utility.yul\":21177:21180   */\n      0x00\n        /* \"#utility.yul\":21132:21205   */\n      swap1\n      jump\t// out\n        /* \"#utility.yul\":21211:21400   */\n    tag_337:\n        /* \"#utility.yul\":21288:21320   */\n      tag_564\n      tag_336\n      jump\t// in\n    tag_564:\n        /* \"#utility.yul\":21329:21394   */\n      tag_565\n        /* \"#utility.yul\":21387:21393   */\n      dup2\n        /* \"#utility.yul\":21379:21385   */\n      dup5\n        /* \"#utility.yul\":21373:21377   */\n      dup5\n        /* \"#utility.yul\":21329:21394   */\n      tag_335\n      jump\t// in\n    tag_565:\n        /* \"#utility.yul\":21264:21400   */\n      pop\n        /* \"#utility.yul\":21211:21400   */\n      pop\n      pop\n      jump\t// out\n        /* \"#utility.yul\":21406:21592   */\n    tag_338:\n        /* \"#utility.yul\":21466:21586   */\n    tag_567:\n        /* \"#utility.yul\":21483:21486   */\n      dup2\n        /* \"#utility.yul\":21476:21481   */\n      dup2\n        /* \"#utility.yul\":21473:21487   */\n      lt\n        /* \"#utility.yul\":21466:21586   */\n      iszero\n      tag_569\n      jumpi\n        /* \"#utility.yul\":21537:21576   */\n      tag_570\n        /* \"#utility.yul\":21574:21575   */\n      0x00\n        /* \"#utility.yul\":21567:21572   */\n      dup3\n        /* \"#utility.yul\":21537:21576   */\n      tag_337\n      jump\t// in\n    tag_570:\n        /* \"#utility.yul\":21510:21511   */\n      0x01\n        /* \"#utility.yul\":21503:21508   */\n      dup2\n        /* \"#utility.yul\":21499:21512   */\n      add\n        /* \"#utility.yul\":21490:21512   */\n      swap1\n      pop\n        /* \"#utility.yul\":21466:21586   */\n      jump(tag_567)\n    tag_569:\n        /* \"#utility.yul\":21406:21592   */\n      pop\n      pop\n      jump\t// out\n        /* \"#utility.yul\":21598:22141   */\n    tag_339:\n        /* \"#utility.yul\":21699:21701   */\n      0x1f\n        /* \"#utility.yul\":21694:21697   */\n      dup3\n        /* \"#utility.yul\":21691:21702   */\n      gt\n        /* \"#utility.yul\":21688:22134   */\n      iszero\n      tag_572\n      jumpi\n        /* \"#utility.yul\":21733:21771   */\n      tag_573\n        /* \"#utility.yul\":21765:21770   */\n      dup2\n        /* \"#utility.yul\":21733:21771   */\n      tag_328\n      jump\t// in\n    tag_573:\n        /* \"#utility.yul\":21817:21846   */\n      tag_574\n        /* \"#utility.yul\":21835:21845   */\n      dup5\n        /* \"#utility.yul\":21817:21846   */\n      tag_329\n      jump\t// in\n    tag_574:\n        /* \"#utility.yul\":21807:21815   */\n      dup2\n        /* \"#utility.yul\":21803:21847   */\n      add\n        /* \"#utility.yul\":22000:22002   */\n      0x20\n        /* \"#utility.yul\":21988:21998   */\n      dup6\n        /* \"#utility.yul\":21985:22003   */\n      lt\n        /* \"#utility.yul\":21982:22031   */\n      iszero\n      tag_575\n      jumpi\n        /* \"#utility.yul\":22021:22029   */\n      dup2\n        /* \"#utility.yul\":22006:22029   */\n      swap1\n      pop\n        /* \"#utility.yul\":21982:22031   */\n    tag_575:\n        /* \"#utility.yul\":22044:22124   */\n      tag_576\n        /* \"#utility.yul\":22100:22122   */\n      tag_577\n        /* \"#utility.yul\":22118:22121   */\n      dup6\n        /* \"#utility.yul\":22100:22122   */\n      tag_329\n      jump\t// in\n    tag_577:\n        /* \"#utility.yul\":22090:22098   */\n      dup4\n        /* \"#utility.yul\":22086:22123   */\n      add\n        /* \"#utility.yul\":22073:22084   */\n      dup3\n        /* \"#utility.yul\":22044:22124   */\n      tag_338\n      jump\t// in\n    tag_576:\n        /* \"#utility.yul\":21703:22134   */\n      pop\n      pop\n        /* \"#utility.yul\":21688:22134   */\n    tag_572:\n        /* \"#utility.yul\":21598:22141   */\n      pop\n      pop\n      pop\n      jump\t// out\n        /* \"#utility.yul\":22147:22264   */\n    tag_340:\n        /* \"#utility.yul\":22201:22209   */\n      0x00\n        /* \"#utility.yul\":22251:22256   */\n      dup3\n        /* \"#utility.yul\":22245:22249   */\n      dup3\n        /* \"#utility.yul\":22241:22257   */\n      shr\n        /* \"#utility.yul\":22220:22257   */\n      swap1\n      pop\n        /* \"#utility.yul\":22147:22264   */\n      swap3\n      swap2\n      pop\n      pop\n      jump\t// out\n        /* \"#utility.yul\":22270:22439   */\n    tag_341:\n        /* \"#utility.yul\":22314:22320   */\n      0x00\n        /* \"#utility.yul\":22347:22398   */\n      tag_580\n        /* \"#utility.yul\":22395:22396   */\n      0x00\n        /* \"#utility.yul\":22391:22397   */\n      not\n        /* \"#utility.yul\":22383:22388   */\n      dup5\n        /* \"#utility.yul\":22380:22381   */\n      0x08\n        /* \"#utility.yul\":22376:22389   */\n      mul\n        /* \"#utility.yul\":22347:22398   */\n      tag_340\n      jump\t// in\n    tag_580:\n        /* \"#utility.yul\":22343:22399   */\n      not\n        /* \"#utility.yul\":22428:22432   */\n      dup1\n        /* \"#utility.yul\":22422:22426   */\n      dup4\n        /* \"#utility.yul\":22418:22433   */\n      and\n        /* \"#utility.yul\":22408:22433   */\n      swap2\n      pop\n        /* \"#utility.yul\":22321:22439   */\n      pop\n        /* \"#utility.yul\":22270:22439   */\n      swap3\n      swap2\n      pop\n      pop\n      jump\t// out\n        /* \"#utility.yul\":22444:22739   */\n    tag_342:\n        /* \"#utility.yul\":22520:22524   */\n      0x00\n        /* \"#utility.yul\":22666:22695   */\n      tag_582\n        /* \"#utility.yul\":22691:22694   */\n      dup4\n        /* \"#utility.yul\":22685:22689   */\n      dup4\n        /* \"#utility.yul\":22666:22695   */\n      tag_341\n      jump\t// in\n    tag_582:\n        /* \"#utility.yul\":22658:22695   */\n      swap2\n      pop\n        /* \"#utility.yul\":22728:22731   */\n      dup3\n        /* \"#utility.yul\":22725:22726   */\n      0x02\n        /* \"#utility.yul\":22721:22732   */\n      mul\n        /* \"#utility.yul\":22715:22719   */\n      dup3\n        /* \"#utility.yul\":22712:22733   */\n      or\n        /* \"#utility.yul\":22704:22733   */\n      swap1\n      pop\n        /* \"#utility.yul\":22444:22739   */\n      swap3\n      swap2\n      pop\n      pop\n      jump\t// out\n        /* \"#utility.yul\":22744:24139   */\n    tag_230:\n        /* \"#utility.yul\":22861:22898   */\n      tag_584\n        /* \"#utility.yul\":22894:22897   */\n      dup3\n        /* \"#utility.yul\":22861:22898   */\n      tag_273\n      jump\t// in\n    tag_584:\n        /* \"#utility.yul\":22963:22981   */\n      0xffffffffffffffff\n        /* \"#utility.yul\":22955:22961   */\n      dup2\n        /* \"#utility.yul\":22952:22982   */\n      gt\n        /* \"#utility.yul\":22949:23005   */\n      iszero\n      tag_585\n      jumpi\n        /* \"#utility.yul\":22985:23003   */\n      tag_586\n      tag_312\n      jump\t// in\n    tag_586:\n        /* \"#utility.yul\":22949:23005   */\n    tag_585:\n        /* \"#utility.yul\":23029:23067   */\n      tag_587\n        /* \"#utility.yul\":23061:23065   */\n      dup3\n        /* \"#utility.yul\":23055:23066   */\n      sload\n        /* \"#utility.yul\":23029:23067   */\n      tag_134\n      jump\t// in\n    tag_587:\n        /* \"#utility.yul\":23114:23181   */\n      tag_588\n        /* \"#utility.yul\":23174:23180   */\n      dup3\n        /* \"#utility.yul\":23166:23172   */\n      dup3\n        /* \"#utility.yul\":23160:23164   */\n      dup6\n        /* \"#utility.yul\":23114:23181   */\n      tag_339\n      jump\t// in\n    tag_588:\n        /* \"#utility.yul\":23208:23209   */\n      0x00\n        /* \"#utility.yul\":23232:23236   */\n      0x20\n        /* \"#utility.yul\":23219:23236   */\n      swap1\n      pop\n        /* \"#utility.yul\":23264:23266   */\n      0x1f\n        /* \"#utility.yul\":23256:23262   */\n      dup4\n        /* \"#utility.yul\":23253:23267   */\n      gt\n        /* \"#utility.yul\":23281:23282   */\n      0x01\n        /* \"#utility.yul\":23276:23894   */\n      dup2\n      eq\n      tag_590\n      jumpi\n        /* \"#utility.yul\":23938:23939   */\n      0x00\n        /* \"#utility.yul\":23955:23961   */\n      dup5\n        /* \"#utility.yul\":23952:24029   */\n      iszero\n      tag_591\n      jumpi\n        /* \"#utility.yul\":24004:24013   */\n      dup3\n        /* \"#utility.yul\":23999:24002   */\n      dup8\n        /* \"#utility.yul\":23995:24014   */\n      add\n        /* \"#utility.yul\":23989:24015   */\n      mload\n        /* \"#utility.yul\":23980:24015   */\n      swap1\n      pop\n        /* \"#utility.yul\":23952:24029   */\n    tag_591:\n        /* \"#utility.yul\":24055:24122   */\n      tag_592\n        /* \"#utility.yul\":24115:24121   */\n      dup6\n        /* \"#utility.yul\":24108:24113   */\n      dup3\n        /* \"#utility.yul\":24055:24122   */\n      tag_342\n      jump\t// in\n    tag_592:\n        /* \"#utility.yul\":24049:24053   */\n      dup7\n        /* \"#utility.yul\":24042:24123   */\n      sstore\n        /* \"#utility.yul\":23911:24133   */\n      pop\n        /* \"#utility.yul\":23246:24133   */\n      jump(tag_589)\n        /* \"#utility.yul\":23276:23894   */\n    tag_590:\n        /* \"#utility.yul\":23328:23332   */\n      0x1f\n        /* \"#utility.yul\":23324:23333   */\n      not\n        /* \"#utility.yul\":23316:23322   */\n      dup5\n        /* \"#utility.yul\":23312:23334   */\n      and\n        /* \"#utility.yul\":23362:23399   */\n      tag_593\n        /* \"#utility.yul\":23394:23398   */\n      dup7\n        /* \"#utility.yul\":23362:23399   */\n      tag_328\n      jump\t// in\n    tag_593:\n        /* \"#utility.yul\":23421:23422   */\n      0x00\n        /* \"#utility.yul\":23435:23643   */\n    tag_594:\n        /* \"#utility.yul\":23449:23456   */\n      dup3\n        /* \"#utility.yul\":23446:23447   */\n      dup2\n        /* \"#utility.yul\":23443:23457   */\n      lt\n        /* \"#utility.yul\":23435:23643   */\n      iszero\n      tag_596\n      jumpi\n        /* \"#utility.yul\":23528:23537   */\n      dup5\n        /* \"#utility.yul\":23523:23526   */\n      dup10\n        /* \"#utility.yul\":23519:23538   */\n      add\n        /* \"#utility.yul\":23513:23539   */\n      mload\n        /* \"#utility.yul\":23505:23511   */\n      dup3\n        /* \"#utility.yul\":23498:23540   */\n      sstore\n        /* \"#utility.yul\":23579:23580   */\n      0x01\n        /* \"#utility.yul\":23571:23577   */\n      dup3\n        /* \"#utility.yul\":23567:23581   */\n      add\n        /* \"#utility.yul\":23557:23581   */\n      swap2\n      pop\n        /* \"#utility.yul\":23626:23628   */\n      0x20\n        /* \"#utility.yul\":23615:23624   */\n      dup6\n        /* \"#utility.yul\":23611:23629   */\n      add\n        /* \"#utility.yul\":23598:23629   */\n      swap5\n      pop\n        /* \"#utility.yul\":23472:23476   */\n      0x20\n        /* \"#utility.yul\":23469:23470   */\n      dup2\n        /* \"#utility.yul\":23465:23477   */\n      add\n        /* \"#utility.yul\":23460:23477   */\n      swap1\n      pop\n        /* \"#utility.yul\":23435:23643   */\n      jump(tag_594)\n    tag_596:\n        /* \"#utility.yul\":23671:23677   */\n      dup7\n        /* \"#utility.yul\":23662:23669   */\n      dup4\n        /* \"#utility.yul\":23659:23678   */\n      lt\n        /* \"#utility.yul\":23656:23835   */\n      iszero\n      tag_597\n      jumpi\n        /* \"#utility.yul\":23729:23738   */\n      dup5\n        /* \"#utility.yul\":23724:23727   */\n      dup10\n        /* \"#utility.yul\":23720:23739   */\n      add\n        /* \"#utility.yul\":23714:23740   */\n      mload\n        /* \"#utility.yul\":23772:23820   */\n      tag_598\n        /* \"#utility.yul\":23814:23818   */\n      0x1f\n        /* \"#utility.yul\":23806:23812   */\n      dup10\n        /* \"#utility.yul\":23802:23819   */\n      and\n        /* \"#utility.yul\":23791:23800   */\n      dup3\n        /* \"#utility.yul\":23772:23820   */\n      tag_341\n      jump\t// in\n    tag_598:\n        /* \"#utility.yul\":23764:23770   */\n      dup4\n        /* \"#utility.yul\":23757:23821   */\n      sstore\n        /* \"#utility.yul\":23679:23835   */\n      pop\n        /* \"#utility.yul\":23656:23835   */\n    tag_597:\n        /* \"#utility.yul\":23881:23882   */\n      0x01\n        /* \"#utility.yul\":23877:23878   */\n      0x02\n        /* \"#utility.yul\":23869:23875   */\n      dup9\n        /* \"#utility.yul\":23865:23879   */\n      mul\n        /* \"#utility.yul\":23861:23883   */\n      add\n        /* \"#utility.yul\":23855:23859   */\n      dup9\n        /* \"#utility.yul\":23848:23884   */\n      sstore\n        /* \"#utility.yul\":23283:23894   */\n      pop\n      pop\n      pop\n        /* \"#utility.yul\":23246:24133   */\n    tag_589:\n      pop\n        /* \"#utility.yul\":22836:24139   */\n      pop\n      pop\n      pop\n        /* \"#utility.yul\":22744:24139   */\n      pop\n      pop\n      jump\t// out\n        /* \"#utility.yul\":24145:24378   */\n    tag_240:\n        /* \"#utility.yul\":24184:24187   */\n      0x00\n        /* \"#utility.yul\":24207:24231   */\n      tag_600\n        /* \"#utility.yul\":24225:24230   */\n      dup3\n        /* \"#utility.yul\":24207:24231   */\n      tag_271\n      jump\t// in\n    tag_600:\n        /* \"#utility.yul\":24198:24231   */\n      swap2\n      pop\n        /* \"#utility.yul\":24253:24319   */\n      0xffffffffffffffffffffffffffffffffffffffffffffffffffffffffffffffff\n        /* \"#utility.yul\":24246:24251   */\n      dup3\n        /* \"#utility.yul\":24243:24320   */\n      sub\n        /* \"#utility.yul\":24240:24343   */\n      tag_601\n      jumpi\n        /* \"#utility.yul\":24323:24341   */\n      tag_602\n      tag_272\n      jump\t// in\n    tag_602:\n        /* \"#utility.yul\":24240:24343   */\n    tag_601:\n        /* \"#utility.yul\":24370:24371   */\n      0x01\n        /* \"#utility.yul\":24363:24368   */\n      dup3\n        /* \"#utility.yul\":24359:24372   */\n      add\n        /* \"#utility.yul\":24352:24372   */\n      swap1\n      pop\n        /* \"#utility.yul\":24145:24378   */\n      swap2\n      swap1\n      pop\n      jump\t// out\n        /* \"#utility.yul\":24384:24564   */\n    tag_246:\n        /* \"#utility.yul\":24432:24509   */\n      0x4e487b7100000000000000000000000000000000000000000000000000000000\n        /* \"#utility.yul\":24429:24430   */\n      0x00\n        /* \"#utility.yul\":24422:24510   */\n      mstore\n        /* \"#utility.yul\":24529:24533   */\n      0x31\n        /* \"#utility.yul\":24526:24527   */\n      0x04\n        /* \"#utility.yul\":24519:24534   */\n      mstore\n        /* \"#utility.yul\":24553:24557   */\n      0x24\n        /* \"#utility.yul\":24550:24551   */\n      0x00\n        /* \"#utility.yul\":24543:24558   */\n      revert\n\n    auxdata: 0xa2646970667358221220e424c6adb108708e27118a4e692bc2d2fc660d27e59b65739524b1752ac9e73764736f6c63430008130033\n}\n",
				"bytecode": {
					"linkReferences": {},
					"object": "60806040526012600260006101000a81548160ff021916908360ff160217905550683635c9adc5dea0000060075560405180606001604052806040518060400160405280600781526020017f50696b616368750000000000000000000000000000000000000000000000000081525081526020016040518060400160405280600581526020017f4b6f62756b00000000000000000000000000000000000000000000000000000081525081526020016040518060400160405280600a81526020017f436861726d616e646572000000000000000000000000000000000000000000008152508152506008906003620000f992919062000314565b5060405180606001604052806040518060a00160405280607081526020016200313260709139815260200160405180610100016040528060ce815260200162002ff460ce913981526020016040518060a0016040528060708152602001620030c26070913981525060099060036200017392919062000314565b503480156200018157600080fd5b506040518060400160405280600781526020017f506f6b656d6f6e000000000000000000000000000000000000000000000000008152506040518060400160405280600381526020017f50544b0000000000000000000000000000000000000000000000000000000000815250620186a033600460006101000a81548173ffffffffffffffffffffffffffffffffffffffff021916908373ffffffffffffffffffffffffffffffffffffffff16021790555082600090816200024491906200067b565b5081600190816200025691906200067b565b5062000295600260009054906101000a900460ff1660ff16600a6200027c9190620008e5565b8262000289919062000936565b6200029e60201b60201c565b505050620009bc565b80600560003373ffffffffffffffffffffffffffffffffffffffff1673ffffffffffffffffffffffffffffffffffffffff1681526020019081526020016000206000828254620002ef919062000981565b9250508190555080600360008282546200030a919062000981565b9250508190555050565b82805482825590600052602060002090810192821562000361579160200282015b82811115620003605782518290816200034f91906200067b565b509160200191906001019062000335565b5b50905062000370919062000374565b5090565b5b808211156200039857600081816200038e91906200039c565b5060010162000375565b5090565b508054620003aa906200046a565b6000825580601f10620003be5750620003df565b601f016020900490600052602060002090810190620003de9190620003e2565b5b50565b5b80821115620003fd576000816000905550600101620003e3565b5090565b600081519050919050565b7f4e487b7100000000000000000000000000000000000000000000000000000000600052604160045260246000fd5b7f4e487b7100000000000000000000000000000000000000000000000000000000600052602260045260246000fd5b600060028204905060018216806200048357607f821691505b6020821081036200049957620004986200043b565b5b50919050565b60008190508160005260206000209050919050565b60006020601f8301049050919050565b600082821b905092915050565b600060088302620005037fffffffffffffffffffffffffffffffffffffffffffffffffffffffffffffffff82620004c4565b6200050f8683620004c4565b95508019841693508086168417925050509392505050565b6000819050919050565b6000819050919050565b60006200055c62000556620005508462000527565b62000531565b62000527565b9050919050565b6000819050919050565b62000578836200053b565b62000590620005878262000563565b848454620004d1565b825550505050565b600090565b620005a762000598565b620005b48184846200056d565b505050565b5b81811015620005dc57620005d06000826200059d565b600181019050620005ba565b5050565b601f8211156200062b57620005f5816200049f565b6200060084620004b4565b8101602085101562000610578190505b620006286200061f85620004b4565b830182620005b9565b50505b505050565b600082821c905092915050565b6000620006506000198460080262000630565b1980831691505092915050565b60006200066b83836200063d565b9150826002028217905092915050565b620006868262000401565b67ffffffffffffffff811115620006a257620006a16200040c565b5b620006ae82546200046a565b620006bb828285620005e0565b600060209050601f831160018114620006f35760008415620006de578287015190505b620006ea85826200065d565b8655506200075a565b601f19841662000703866200049f565b60005b828110156200072d5784890151825560018201915060208501945060208101905062000706565b868310156200074d578489015162000749601f8916826200063d565b8355505b6001600288020188555050505b505050505050565b7f4e487b7100000000000000000000000000000000000000000000000000000000600052601160045260246000fd5b60008160011c9050919050565b6000808291508390505b6001851115620007f057808604811115620007c857620007c762000762565b5b6001851615620007d85780820291505b8081029050620007e88562000791565b9450620007a8565b94509492505050565b6000826200080b5760019050620008de565b816200081b5760009050620008de565b81600181146200083457600281146200083f5762000875565b6001915050620008de565b60ff84111562000854576200085362000762565b5b8360020a9150848211156200086e576200086d62000762565b5b50620008de565b5060208310610133831016604e8410600b8410161715620008af5782820a905083811115620008a957620008a862000762565b5b620008de565b620008be84848460016200079e565b92509050818404811115620008d857620008d762000762565b5b81810290505b9392505050565b6000620008f28262000527565b9150620008ff8362000527565b92506200092e7fffffffffffffffffffffffffffffffffffffffffffffffffffffffffffffffff8484620007f9565b905092915050565b6000620009438262000527565b9150620009508362000527565b9250828202620009608162000527565b915082820484148315176200097a576200097962000762565b5b5092915050565b60006200098e8262000527565b91506200099b8362000527565b9250828201905080821115620009b657620009b562000762565b5b92915050565b61262880620009cc6000396000f3fe60806040526004361061010d5760003560e01c806342966c681161009557806395d89b411161006457806395d89b411461055f578063a9059cbb1461058a578063c78bc15f146105c7578063d310b249146105de578063dd62ed3e1461061b576102c0565b806342966c68146104a357806370a08231146104cc578063868babb01461050957806387e24c7214610534576102c0565b806323b872dd116100dc57806323b872dd1461038357806327e235e3146103c0578063313ce567146103fd578063365b98b21461042857806336e6047714610465576102c0565b806306fdde03146102c5578063095ea7b3146102f057806311d58b021461032d57806318160ddd14610358576102c0565b366102c057600060c8346101219190611938565b90508060056000600460009054906101000a900473ffffffffffffffffffffffffffffffffffffffff1673ffffffffffffffffffffffffffffffffffffffff1673ffffffffffffffffffffffffffffffffffffffff16815260200190815260200160002054101561019157600080fd5b8060056000600460009054906101000a900473ffffffffffffffffffffffffffffffffffffffff1673ffffffffffffffffffffffffffffffffffffffff1673ffffffffffffffffffffffffffffffffffffffff1681526020019081526020016000206000828254610202919061197a565b9250508190555080600560003373ffffffffffffffffffffffffffffffffffffffff1673ffffffffffffffffffffffffffffffffffffffff168152602001908152602001600020600082825461025891906119ae565b92505081905550600460009054906101000a900473ffffffffffffffffffffffffffffffffffffffff1673ffffffffffffffffffffffffffffffffffffffff163373ffffffffffffffffffffffffffffffffffffffff16036102be576102bd81610658565b5b005b600080fd5b3480156102d157600080fd5b506102da6106ca565b6040516102e79190611a72565b60405180910390f35b3480156102fc57600080fd5b5061031760048036038101906103129190611b32565b610758565b6040516103249190611b8d565b60405180910390f35b34801561033957600080fd5b506103426107e5565b60405161034f9190611cf8565b60405180910390f35b34801561036457600080fd5b5061036d6109a5565b60405161037a9190611d29565b60405180910390f35b34801561038f57600080fd5b506103aa60048036038101906103a59190611d44565b6109ab565b6040516103b79190611b8d565b60405180910390f35b3480156103cc57600080fd5b506103e760048036038101906103e29190611d97565b610b7c565b6040516103f49190611d29565b60405180910390f35b34801561040957600080fd5b50610412610b94565b60405161041f9190611de0565b60405180910390f35b34801561043457600080fd5b5061044f600480360381019061044a9190611dfb565b610ba7565b60405161045c9190611e37565b60405180910390f35b34801561047157600080fd5b5061048c60048036038101906104879190611b32565b610bf1565b60405161049a929190611e52565b60405180910390f35b3480156104af57600080fd5b506104ca60048036038101906104c59190611dfb565b610d42565b005b3480156104d857600080fd5b506104f360048036038101906104ee9190611d97565b610db4565b6040516105009190611d29565b60405180910390f35b34801561051557600080fd5b5061051e610dfd565b60405161052b9190611f63565b60405180910390f35b34801561054057600080fd5b50610549610eae565b6040516105569190611cf8565b60405180910390f35b34801561056b57600080fd5b5061057461106e565b6040516105819190611a72565b60405180910390f35b34801561059657600080fd5b506105b160048036038101906105ac9190611b32565b6110fc565b6040516105be9190611b8d565b60405180910390f35b3480156105d357600080fd5b506105dc6111b4565b005b3480156105ea57600080fd5b50610605600480360381019061060091906120ba565b6115ee565b6040516106129190611cf8565b60405180910390f35b34801561062757600080fd5b50610642600480360381019061063d9190612116565b61187d565b60405161064f9190611d29565b60405180910390f35b80600560003373ffffffffffffffffffffffffffffffffffffffff1673ffffffffffffffffffffffffffffffffffffffff16815260200190815260200160002060008282546106a791906119ae565b9250508190555080600360008282546106c091906119ae565b9250508190555050565b600080546106d790612185565b80601f016020809104026020016040519081016040528092919081815260200182805461070390612185565b80156107505780601f1061072557610100808354040283529160200191610750565b820191906000526020600020905b81548152906001019060200180831161073357829003601f168201915b505050505081565b600081600660003373ffffffffffffffffffffffffffffffffffffffff1673ffffffffffffffffffffffffffffffffffffffff16815260200190815260200160002060008573ffffffffffffffffffffffffffffffffffffffff1673ffffffffffffffffffffffffffffffffffffffff168152602001908152602001600020819055506001905092915050565b6060600a60003373ffffffffffffffffffffffffffffffffffffffff1673ffffffffffffffffffffffffffffffffffffffff168152602001908152602001600020805480602002602001604051908101604052809291908181526020016000905b8282101561099c578382906000526020600020906002020160405180604001604052908160008201805461087990612185565b80601f01602080910402602001604051908101604052809291908181526020018280546108a590612185565b80156108f25780601f106108c7576101008083540402835291602001916108f2565b820191906000526020600020905b8154815290600101906020018083116108d557829003601f168201915b5050505050815260200160018201805461090b90612185565b80601f016020809104026020016040519081016040528092919081815260200182805461093790612185565b80156109845780601f1061095957610100808354040283529160200191610984565b820191906000526020600020905b81548152906001019060200180831161096757829003601f168201915b50505050508152505081526020019060010190610846565b50505050905090565b60035481565b600081600660008673ffffffffffffffffffffffffffffffffffffffff1673ffffffffffffffffffffffffffffffffffffffff16815260200190815260200160002060003373ffffffffffffffffffffffffffffffffffffffff1673ffffffffffffffffffffffffffffffffffffffff168152602001908152602001600020541015610a3657600080fd5b81600660008673ffffffffffffffffffffffffffffffffffffffff1673ffffffffffffffffffffffffffffffffffffffff16815260200190815260200160002060003373ffffffffffffffffffffffffffffffffffffffff1673ffffffffffffffffffffffffffffffffffffffff1681526020019081526020016000206000828254610ac2919061197a565b9250508190555081600560008673ffffffffffffffffffffffffffffffffffffffff1673ffffffffffffffffffffffffffffffffffffffff1681526020019081526020016000206000828254610b18919061197a565b9250508190555081600560008573ffffffffffffffffffffffffffffffffffffffff1673ffffffffffffffffffffffffffffffffffffffff1681526020019081526020016000206000828254610b6e91906119ae565b925050819055509392505050565b60056020528060005260406000206000915090505481565b600260009054906101000a900460ff1681565b600b8181548110610bb757600080fd5b906000526020600020016000915090508060000160009054906101000a900473ffffffffffffffffffffffffffffffffffffffff16905081565b600a6020528160005260406000208181548110610c0d57600080fd5b906000526020600020906002020160009150915050806000018054610c3190612185565b80601f0160208091040260200160405190810160405280929190818152602001828054610c5d90612185565b8015610caa5780601f10610c7f57610100808354040283529160200191610caa565b820191906000526020600020905b815481529060010190602001808311610c8d57829003601f168201915b505050505090806001018054610cbf90612185565b80601f0160208091040260200160405190810160405280929190818152602001828054610ceb90612185565b8015610d385780601f10610d0d57610100808354040283529160200191610d38565b820191906000526020600020905b815481529060010190602001808311610d1b57829003601f168201915b5050505050905082565b80600560003373ffffffffffffffffffffffffffffffffffffffff1673ffffffffffffffffffffffffffffffffffffffff1681526020019081526020016000206000828254610d91919061197a565b925050819055508060036000828254610daa919061197a565b9250508190555050565b6000600560008373ffffffffffffffffffffffffffffffffffffffff1673ffffffffffffffffffffffffffffffffffffffff168152602001908152602001600020549050919050565b6060600b805480602002602001604051908101604052809291908181526020016000905b82821015610ea5578382906000526020600020016040518060200160405290816000820160009054906101000a900473ffffffffffffffffffffffffffffffffffffffff1673ffffffffffffffffffffffffffffffffffffffff1673ffffffffffffffffffffffffffffffffffffffff168152505081526020019060010190610e21565b50505050905090565b6060600a60003373ffffffffffffffffffffffffffffffffffffffff1673ffffffffffffffffffffffffffffffffffffffff168152602001908152602001600020805480602002602001604051908101604052809291908181526020016000905b828210156110655783829060005260206000209060020201604051806040016040529081600082018054610f4290612185565b80601f0160208091040260200160405190810160405280929190818152602001828054610f6e90612185565b8015610fbb5780601f10610f9057610100808354040283529160200191610fbb565b820191906000526020600020905b815481529060010190602001808311610f9e57829003601f168201915b50505050508152602001600182018054610fd490612185565b80601f016020809104026020016040519081016040528092919081815260200182805461100090612185565b801561104d5780601f106110225761010080835404028352916020019161104d565b820191906000526020600020905b81548152906001019060200180831161103057829003601f168201915b50505050508152505081526020019060010190610f0f565b50505050905090565b6001805461107b90612185565b80601f01602080910402602001604051908101604052809291908181526020018280546110a790612185565b80156110f45780601f106110c9576101008083540402835291602001916110f4565b820191906000526020600020905b8154815290600101906020018083116110d757829003601f168201915b505050505081565b600081600560003373ffffffffffffffffffffffffffffffffffffffff1673ffffffffffffffffffffffffffffffffffffffff168152602001908152602001600020600082825461114d919061197a565b9250508190555081600560008573ffffffffffffffffffffffffffffffffffffffff1673ffffffffffffffffffffffffffffffffffffffff16815260200190815260200160002060008282546111a391906119ae565b925050819055506001905092915050565b600754600560003373ffffffffffffffffffffffffffffffffffffffff1673ffffffffffffffffffffffffffffffffffffffff16815260200190815260200160002054101561120257600080fd5b600754600560003373ffffffffffffffffffffffffffffffffffffffff1673ffffffffffffffffffffffffffffffffffffffff1681526020019081526020016000206000828254611253919061197a565b925050819055506007546003600082825461126e919061197a565b92505081905550600042414360405160200161128c93929190612231565b6040516020818303038152906040528051906020012060001c90506003816112b4919061229d565b9050600a60003373ffffffffffffffffffffffffffffffffffffffff1673ffffffffffffffffffffffffffffffffffffffff168152602001908152602001600020604051806040016040528060098481548110611314576113136122ce565b5b90600052602060002001805461132990612185565b80601f016020809104026020016040519081016040528092919081815260200182805461135590612185565b80156113a25780601f10611377576101008083540402835291602001916113a2565b820191906000526020600020905b81548152906001019060200180831161138557829003601f168201915b50505050508152602001600884815481106113c0576113bf6122ce565b5b9060005260206000200180546113d590612185565b80601f016020809104026020016040519081016040528092919081815260200182805461140190612185565b801561144e5780601f106114235761010080835404028352916020019161144e565b820191906000526020600020905b81548152906001019060200180831161143157829003601f168201915b50505050508152509080600181540180825580915050600190039060005260206000209060020201600090919091909150600082015181600001908161149491906124a9565b5060208201518160010190816114aa91906124a9565b5050506000805b600b8054905081101561154e573373ffffffffffffffffffffffffffffffffffffffff16600b82815481106114e9576114e86122ce565b5b9060005260206000200160000160009054906101000a900473ffffffffffffffffffffffffffffffffffffffff1673ffffffffffffffffffffffffffffffffffffffff160361153b576001915061154e565b80806115469061257b565b9150506114b1565b50806115ea57600b60405180602001604052803373ffffffffffffffffffffffffffffffffffffffff168152509080600181540180825580915050600190039060005260206000200160009091909190915060008201518160000160006101000a81548173ffffffffffffffffffffffffffffffffffffffff021916908373ffffffffffffffffffffffffffffffffffffffff16021790555050505b5050565b60606000600a60003373ffffffffffffffffffffffffffffffffffffffff1673ffffffffffffffffffffffffffffffffffffffff1681526020019081526020016000209050600a60003373ffffffffffffffffffffffffffffffffffffffff1673ffffffffffffffffffffffffffffffffffffffff168152602001908152602001600020805480611682576116816125c3565b5b6001900381819060005260206000209060020201600080820160006116a791906118a2565b6001820160006116b791906118a2565b50509055600a60003373ffffffffffffffffffffffffffffffffffffffff1673ffffffffffffffffffffffffffffffffffffffff168152602001908152602001600020805480602002602001604051908101604052809291908181526020016000905b82821015611870578382906000526020600020906002020160405180604001604052908160008201805461174d90612185565b80601f016020809104026020016040519081016040528092919081815260200182805461177990612185565b80156117c65780601f1061179b576101008083540402835291602001916117c6565b820191906000526020600020905b8154815290600101906020018083116117a957829003601f168201915b505050505081526020016001820180546117df90612185565b80601f016020809104026020016040519081016040528092919081815260200182805461180b90612185565b80156118585780601f1061182d57610100808354040283529160200191611858565b820191906000526020600020905b81548152906001019060200180831161183b57829003601f168201915b5050505050815250508152602001906001019061171a565b5050505091505092915050565b6006602052816000526040600020602052806000526040600020600091509150505481565b5080546118ae90612185565b6000825580601f106118c057506118df565b601f0160209004906000526020600020908101906118de91906118e2565b5b50565b5b808211156118fb5760008160009055506001016118e3565b5090565b6000819050919050565b7f4e487b7100000000000000000000000000000000000000000000000000000000600052601160045260246000fd5b6000611943826118ff565b915061194e836118ff565b925082820261195c816118ff565b9150828204841483151761197357611972611909565b5b5092915050565b6000611985826118ff565b9150611990836118ff565b92508282039050818111156119a8576119a7611909565b5b92915050565b60006119b9826118ff565b91506119c4836118ff565b92508282019050808211156119dc576119db611909565b5b92915050565b600081519050919050565b600082825260208201905092915050565b60005b83811015611a1c578082015181840152602081019050611a01565b60008484015250505050565b6000601f19601f8301169050919050565b6000611a44826119e2565b611a4e81856119ed565b9350611a5e8185602086016119fe565b611a6781611a28565b840191505092915050565b60006020820190508181036000830152611a8c8184611a39565b905092915050565b6000604051905090565b600080fd5b600080fd5b600073ffffffffffffffffffffffffffffffffffffffff82169050919050565b6000611ad382611aa8565b9050919050565b611ae381611ac8565b8114611aee57600080fd5b50565b600081359050611b0081611ada565b92915050565b611b0f816118ff565b8114611b1a57600080fd5b50565b600081359050611b2c81611b06565b92915050565b60008060408385031215611b4957611b48611a9e565b5b6000611b5785828601611af1565b9250506020611b6885828601611b1d565b9150509250929050565b60008115159050919050565b611b8781611b72565b82525050565b6000602082019050611ba26000830184611b7e565b92915050565b600081519050919050565b600082825260208201905092915050565b6000819050602082019050919050565b600082825260208201905092915050565b6000611bf0826119e2565b611bfa8185611bd4565b9350611c0a8185602086016119fe565b611c1381611a28565b840191505092915050565b60006040830160008301518482036000860152611c3b8282611be5565b91505060208301518482036020860152611c558282611be5565b9150508091505092915050565b6000611c6e8383611c1e565b905092915050565b6000602082019050919050565b6000611c8e82611ba8565b611c988185611bb3565b935083602082028501611caa85611bc4565b8060005b85811015611ce65784840389528151611cc78582611c62565b9450611cd283611c76565b925060208a01995050600181019050611cae565b50829750879550505050505092915050565b60006020820190508181036000830152611d128184611c83565b905092915050565b611d23816118ff565b82525050565b6000602082019050611d3e6000830184611d1a565b92915050565b600080600060608486031215611d5d57611d5c611a9e565b5b6000611d6b86828701611af1565b9350506020611d7c86828701611af1565b9250506040611d8d86828701611b1d565b9150509250925092565b600060208284031215611dad57611dac611a9e565b5b6000611dbb84828501611af1565b91505092915050565b600060ff82169050919050565b611dda81611dc4565b82525050565b6000602082019050611df56000830184611dd1565b92915050565b600060208284031215611e1157611e10611a9e565b5b6000611e1f84828501611b1d565b91505092915050565b611e3181611ac8565b82525050565b6000602082019050611e4c6000830184611e28565b92915050565b60006040820190508181036000830152611e6c8185611a39565b90508181036020830152611e808184611a39565b90509392505050565b600081519050919050565b600082825260208201905092915050565b6000819050602082019050919050565b611ebe81611ac8565b82525050565b602082016000820151611eda6000850182611eb5565b50505050565b6000611eec8383611ec4565b60208301905092915050565b6000602082019050919050565b6000611f1082611e89565b611f1a8185611e94565b9350611f2583611ea5565b8060005b83811015611f56578151611f3d8882611ee0565b9750611f4883611ef8565b925050600181019050611f29565b5085935050505092915050565b60006020820190508181036000830152611f7d8184611f05565b905092915050565b600080fd5b600080fd5b7f4e487b7100000000000000000000000000000000000000000000000000000000600052604160045260246000fd5b611fc782611a28565b810181811067ffffffffffffffff82111715611fe657611fe5611f8f565b5b80604052505050565b6000611ff9611a94565b90506120058282611fbe565b919050565b600067ffffffffffffffff82111561202557612024611f8f565b5b61202e82611a28565b9050602081019050919050565b82818337600083830152505050565b600061205d6120588461200a565b611fef565b90508281526020810184848401111561207957612078611f8a565b5b61208484828561203b565b509392505050565b600082601f8301126120a1576120a0611f85565b5b81356120b184826020860161204a565b91505092915050565b600080604083850312156120d1576120d0611a9e565b5b60006120df85828601611af1565b925050602083013567ffffffffffffffff811115612100576120ff611aa3565b5b61210c8582860161208c565b9150509250929050565b6000806040838503121561212d5761212c611a9e565b5b600061213b85828601611af1565b925050602061214c85828601611af1565b9150509250929050565b7f4e487b7100000000000000000000000000000000000000000000000000000000600052602260045260246000fd5b6000600282049050600182168061219d57607f821691505b6020821081036121b0576121af612156565b5b50919050565b6000819050919050565b6121d16121cc826118ff565b6121b6565b82525050565b60006121e282611aa8565b9050919050565b60008160601b9050919050565b6000612201826121e9565b9050919050565b6000612213826121f6565b9050919050565b61222b612226826121d7565b612208565b82525050565b600061223d82866121c0565b60208201915061224d828561221a565b60148201915061225d82846121c0565b602082019150819050949350505050565b7f4e487b7100000000000000000000000000000000000000000000000000000000600052601260045260246000fd5b60006122a8826118ff565b91506122b3836118ff565b9250826122c3576122c261226e565b5b828206905092915050565b7f4e487b7100000000000000000000000000000000000000000000000000000000600052603260045260246000fd5b60008190508160005260206000209050919050565b60006020601f8301049050919050565b600082821b905092915050565b60006008830261235f7fffffffffffffffffffffffffffffffffffffffffffffffffffffffffffffffff82612322565b6123698683612322565b95508019841693508086168417925050509392505050565b6000819050919050565b60006123a66123a161239c846118ff565b612381565b6118ff565b9050919050565b6000819050919050565b6123c08361238b565b6123d46123cc826123ad565b84845461232f565b825550505050565b600090565b6123e96123dc565b6123f48184846123b7565b505050565b5b818110156124185761240d6000826123e1565b6001810190506123fa565b5050565b601f82111561245d5761242e816122fd565b61243784612312565b81016020851015612446578190505b61245a61245285612312565b8301826123f9565b50505b505050565b600082821c905092915050565b600061248060001984600802612462565b1980831691505092915050565b6000612499838361246f565b9150826002028217905092915050565b6124b2826119e2565b67ffffffffffffffff8111156124cb576124ca611f8f565b5b6124d58254612185565b6124e082828561241c565b600060209050601f8311600181146125135760008415612501578287015190505b61250b858261248d565b865550612573565b601f198416612521866122fd565b60005b8281101561254957848901518255600182019150602085019450602081019050612524565b868310156125665784890151612562601f89168261246f565b8355505b6001600288020188555050505b505050505050565b6000612586826118ff565b91507fffffffffffffffffffffffffffffffffffffffffffffffffffffffffffffffff82036125b8576125b7611909565b5b600182019050919050565b7f4e487b7100000000000000000000000000000000000000000000000000000000600052603160045260246000fdfea2646970667358221220e424c6adb108708e27118a4e692bc2d2fc660d27e59b65739524b1752ac9e73764736f6c6343000813003368747470733a2f2f6d626c6f677468756d622d7068696e662e707374617469632e6e65742f4d6a41784e7a41304d7a42664d54417a2f4d4441784e446b7a4e544d7a4e5459794f546b332e574c6a536f416a354b6142526935576231697a51586c6d6c686a4866377977484a6458625748456b6c6451672e4b3634687853764550594b6573327041786f724b79466157554d434e704c504b3132747277376573334f34672e4749462e756e747269303632342f313438383938333632363134382e4749463f747970653d7738303068747470733a2f2f692e6e616d752e77696b692f692f502d41444a424d567863557779524647386c63656b794b4358767778304c6a4e7369426a44554b4233383569793257436e586f2d5a7354565032564548365f717a534f654a796b4e647452486d484d6b6d51474647672e67696668747470733a2f2f692e6e616d752e77696b692f692f3848734b596751415f576f414f616b496e4d774278554a584a7759424135324375474645456a6e7478426f626c3455685f443470714279426c5f6170365864736f79486145764f456e6d377755732d587742662d48672e676966",
					"opcodes": "PUSH1 0x80 PUSH1 0x40 MSTORE PUSH1 0x12 PUSH1 0x2 PUSH1 0x0 PUSH2 0x100 EXP DUP2 SLOAD DUP2 PUSH1 0xFF MUL NOT AND SWAP1 DUP4 PUSH1 0xFF AND MUL OR SWAP1 SSTORE POP PUSH9 0x3635C9ADC5DEA00000 PUSH1 0x7 SSTORE PUSH1 0x40 MLOAD DUP1 PUSH1 0x60 ADD PUSH1 0x40 MSTORE DUP1 PUSH1 0x40 MLOAD DUP1 PUSH1 0x40 ADD PUSH1 0x40 MSTORE DUP1 PUSH1 0x7 DUP2 MSTORE PUSH1 0x20 ADD PUSH32 0x50696B6163687500000000000000000000000000000000000000000000000000 DUP2 MSTORE POP DUP2 MSTORE PUSH1 0x20 ADD PUSH1 0x40 MLOAD DUP1 PUSH1 0x40 ADD PUSH1 0x40 MSTORE DUP1 PUSH1 0x5 DUP2 MSTORE PUSH1 0x20 ADD PUSH32 0x4B6F62756B000000000000000000000000000000000000000000000000000000 DUP2 MSTORE POP DUP2 MSTORE PUSH1 0x20 ADD PUSH1 0x40 MLOAD DUP1 PUSH1 0x40 ADD PUSH1 0x40 MSTORE DUP1 PUSH1 0xA DUP2 MSTORE PUSH1 0x20 ADD PUSH32 0x436861726D616E64657200000000000000000000000000000000000000000000 DUP2 MSTORE POP DUP2 MSTORE POP PUSH1 0x8 SWAP1 PUSH1 0x3 PUSH3 0xF9 SWAP3 SWAP2 SWAP1 PUSH3 0x314 JUMP JUMPDEST POP PUSH1 0x40 MLOAD DUP1 PUSH1 0x60 ADD PUSH1 0x40 MSTORE DUP1 PUSH1 0x40 MLOAD DUP1 PUSH1 0xA0 ADD PUSH1 0x40 MSTORE DUP1 PUSH1 0x70 DUP2 MSTORE PUSH1 0x20 ADD PUSH3 0x3132 PUSH1 0x70 SWAP2 CODECOPY DUP2 MSTORE PUSH1 0x20 ADD PUSH1 0x40 MLOAD DUP1 PUSH2 0x100 ADD PUSH1 0x40 MSTORE DUP1 PUSH1 0xCE DUP2 MSTORE PUSH1 0x20 ADD PUSH3 0x2FF4 PUSH1 0xCE SWAP2 CODECOPY DUP2 MSTORE PUSH1 0x20 ADD PUSH1 0x40 MLOAD DUP1 PUSH1 0xA0 ADD PUSH1 0x40 MSTORE DUP1 PUSH1 0x70 DUP2 MSTORE PUSH1 0x20 ADD PUSH3 0x30C2 PUSH1 0x70 SWAP2 CODECOPY DUP2 MSTORE POP PUSH1 0x9 SWAP1 PUSH1 0x3 PUSH3 0x173 SWAP3 SWAP2 SWAP1 PUSH3 0x314 JUMP JUMPDEST POP CALLVALUE DUP1 ISZERO PUSH3 0x181 JUMPI PUSH1 0x0 DUP1 REVERT JUMPDEST POP PUSH1 0x40 MLOAD DUP1 PUSH1 0x40 ADD PUSH1 0x40 MSTORE DUP1 PUSH1 0x7 DUP2 MSTORE PUSH1 0x20 ADD PUSH32 0x506F6B656D6F6E00000000000000000000000000000000000000000000000000 DUP2 MSTORE POP PUSH1 0x40 MLOAD DUP1 PUSH1 0x40 ADD PUSH1 0x40 MSTORE DUP1 PUSH1 0x3 DUP2 MSTORE PUSH1 0x20 ADD PUSH32 0x50544B0000000000000000000000000000000000000000000000000000000000 DUP2 MSTORE POP PUSH3 0x186A0 CALLER PUSH1 0x4 PUSH1 0x0 PUSH2 0x100 EXP DUP2 SLOAD DUP2 PUSH20 0xFFFFFFFFFFFFFFFFFFFFFFFFFFFFFFFFFFFFFFFF MUL NOT AND SWAP1 DUP4 PUSH20 0xFFFFFFFFFFFFFFFFFFFFFFFFFFFFFFFFFFFFFFFF AND MUL OR SWAP1 SSTORE POP DUP3 PUSH1 0x0 SWAP1 DUP2 PUSH3 0x244 SWAP2 SWAP1 PUSH3 0x67B JUMP JUMPDEST POP DUP2 PUSH1 0x1 SWAP1 DUP2 PUSH3 0x256 SWAP2 SWAP1 PUSH3 0x67B JUMP JUMPDEST POP PUSH3 0x295 PUSH1 0x2 PUSH1 0x0 SWAP1 SLOAD SWAP1 PUSH2 0x100 EXP SWAP1 DIV PUSH1 0xFF AND PUSH1 0xFF AND PUSH1 0xA PUSH3 0x27C SWAP2 SWAP1 PUSH3 0x8E5 JUMP JUMPDEST DUP3 PUSH3 0x289 SWAP2 SWAP1 PUSH3 0x936 JUMP JUMPDEST PUSH3 0x29E PUSH1 0x20 SHL PUSH1 0x20 SHR JUMP JUMPDEST POP POP POP PUSH3 0x9BC JUMP JUMPDEST DUP1 PUSH1 0x5 PUSH1 0x0 CALLER PUSH20 0xFFFFFFFFFFFFFFFFFFFFFFFFFFFFFFFFFFFFFFFF AND PUSH20 0xFFFFFFFFFFFFFFFFFFFFFFFFFFFFFFFFFFFFFFFF AND DUP2 MSTORE PUSH1 0x20 ADD SWAP1 DUP2 MSTORE PUSH1 0x20 ADD PUSH1 0x0 KECCAK256 PUSH1 0x0 DUP3 DUP3 SLOAD PUSH3 0x2EF SWAP2 SWAP1 PUSH3 0x981 JUMP JUMPDEST SWAP3 POP POP DUP2 SWAP1 SSTORE POP DUP1 PUSH1 0x3 PUSH1 0x0 DUP3 DUP3 SLOAD PUSH3 0x30A SWAP2 SWAP1 PUSH3 0x981 JUMP JUMPDEST SWAP3 POP POP DUP2 SWAP1 SSTORE POP POP JUMP JUMPDEST DUP3 DUP1 SLOAD DUP3 DUP3 SSTORE SWAP1 PUSH1 0x0 MSTORE PUSH1 0x20 PUSH1 0x0 KECCAK256 SWAP1 DUP2 ADD SWAP3 DUP3 ISZERO PUSH3 0x361 JUMPI SWAP2 PUSH1 0x20 MUL DUP3 ADD JUMPDEST DUP3 DUP2 GT ISZERO PUSH3 0x360 JUMPI DUP3 MLOAD DUP3 SWAP1 DUP2 PUSH3 0x34F SWAP2 SWAP1 PUSH3 0x67B JUMP JUMPDEST POP SWAP2 PUSH1 0x20 ADD SWAP2 SWAP1 PUSH1 0x1 ADD SWAP1 PUSH3 0x335 JUMP JUMPDEST JUMPDEST POP SWAP1 POP PUSH3 0x370 SWAP2 SWAP1 PUSH3 0x374 JUMP JUMPDEST POP SWAP1 JUMP JUMPDEST JUMPDEST DUP1 DUP3 GT ISZERO PUSH3 0x398 JUMPI PUSH1 0x0 DUP2 DUP2 PUSH3 0x38E SWAP2 SWAP1 PUSH3 0x39C JUMP JUMPDEST POP PUSH1 0x1 ADD PUSH3 0x375 JUMP JUMPDEST POP SWAP1 JUMP JUMPDEST POP DUP1 SLOAD PUSH3 0x3AA SWAP1 PUSH3 0x46A JUMP JUMPDEST PUSH1 0x0 DUP3 SSTORE DUP1 PUSH1 0x1F LT PUSH3 0x3BE JUMPI POP PUSH3 0x3DF JUMP JUMPDEST PUSH1 0x1F ADD PUSH1 0x20 SWAP1 DIV SWAP1 PUSH1 0x0 MSTORE PUSH1 0x20 PUSH1 0x0 KECCAK256 SWAP1 DUP2 ADD SWAP1 PUSH3 0x3DE SWAP2 SWAP1 PUSH3 0x3E2 JUMP JUMPDEST JUMPDEST POP JUMP JUMPDEST JUMPDEST DUP1 DUP3 GT ISZERO PUSH3 0x3FD JUMPI PUSH1 0x0 DUP2 PUSH1 0x0 SWAP1 SSTORE POP PUSH1 0x1 ADD PUSH3 0x3E3 JUMP JUMPDEST POP SWAP1 JUMP JUMPDEST PUSH1 0x0 DUP2 MLOAD SWAP1 POP SWAP2 SWAP1 POP JUMP JUMPDEST PUSH32 0x4E487B7100000000000000000000000000000000000000000000000000000000 PUSH1 0x0 MSTORE PUSH1 0x41 PUSH1 0x4 MSTORE PUSH1 0x24 PUSH1 0x0 REVERT JUMPDEST PUSH32 0x4E487B7100000000000000000000000000000000000000000000000000000000 PUSH1 0x0 MSTORE PUSH1 0x22 PUSH1 0x4 MSTORE PUSH1 0x24 PUSH1 0x0 REVERT JUMPDEST PUSH1 0x0 PUSH1 0x2 DUP3 DIV SWAP1 POP PUSH1 0x1 DUP3 AND DUP1 PUSH3 0x483 JUMPI PUSH1 0x7F DUP3 AND SWAP2 POP JUMPDEST PUSH1 0x20 DUP3 LT DUP2 SUB PUSH3 0x499 JUMPI PUSH3 0x498 PUSH3 0x43B JUMP JUMPDEST JUMPDEST POP SWAP2 SWAP1 POP JUMP JUMPDEST PUSH1 0x0 DUP2 SWAP1 POP DUP2 PUSH1 0x0 MSTORE PUSH1 0x20 PUSH1 0x0 KECCAK256 SWAP1 POP SWAP2 SWAP1 POP JUMP JUMPDEST PUSH1 0x0 PUSH1 0x20 PUSH1 0x1F DUP4 ADD DIV SWAP1 POP SWAP2 SWAP1 POP JUMP JUMPDEST PUSH1 0x0 DUP3 DUP3 SHL SWAP1 POP SWAP3 SWAP2 POP POP JUMP JUMPDEST PUSH1 0x0 PUSH1 0x8 DUP4 MUL PUSH3 0x503 PUSH32 0xFFFFFFFFFFFFFFFFFFFFFFFFFFFFFFFFFFFFFFFFFFFFFFFFFFFFFFFFFFFFFFFF DUP3 PUSH3 0x4C4 JUMP JUMPDEST PUSH3 0x50F DUP7 DUP4 PUSH3 0x4C4 JUMP JUMPDEST SWAP6 POP DUP1 NOT DUP5 AND SWAP4 POP DUP1 DUP7 AND DUP5 OR SWAP3 POP POP POP SWAP4 SWAP3 POP POP POP JUMP JUMPDEST PUSH1 0x0 DUP2 SWAP1 POP SWAP2 SWAP1 POP JUMP JUMPDEST PUSH1 0x0 DUP2 SWAP1 POP SWAP2 SWAP1 POP JUMP JUMPDEST PUSH1 0x0 PUSH3 0x55C PUSH3 0x556 PUSH3 0x550 DUP5 PUSH3 0x527 JUMP JUMPDEST PUSH3 0x531 JUMP JUMPDEST PUSH3 0x527 JUMP JUMPDEST SWAP1 POP SWAP2 SWAP1 POP JUMP JUMPDEST PUSH1 0x0 DUP2 SWAP1 POP SWAP2 SWAP1 POP JUMP JUMPDEST PUSH3 0x578 DUP4 PUSH3 0x53B JUMP JUMPDEST PUSH3 0x590 PUSH3 0x587 DUP3 PUSH3 0x563 JUMP JUMPDEST DUP5 DUP5 SLOAD PUSH3 0x4D1 JUMP JUMPDEST DUP3 SSTORE POP POP POP POP JUMP JUMPDEST PUSH1 0x0 SWAP1 JUMP JUMPDEST PUSH3 0x5A7 PUSH3 0x598 JUMP JUMPDEST PUSH3 0x5B4 DUP2 DUP5 DUP5 PUSH3 0x56D JUMP JUMPDEST POP POP POP JUMP JUMPDEST JUMPDEST DUP2 DUP2 LT ISZERO PUSH3 0x5DC JUMPI PUSH3 0x5D0 PUSH1 0x0 DUP3 PUSH3 0x59D JUMP JUMPDEST PUSH1 0x1 DUP2 ADD SWAP1 POP PUSH3 0x5BA JUMP JUMPDEST POP POP JUMP JUMPDEST PUSH1 0x1F DUP3 GT ISZERO PUSH3 0x62B JUMPI PUSH3 0x5F5 DUP2 PUSH3 0x49F JUMP JUMPDEST PUSH3 0x600 DUP5 PUSH3 0x4B4 JUMP JUMPDEST DUP2 ADD PUSH1 0x20 DUP6 LT ISZERO PUSH3 0x610 JUMPI DUP2 SWAP1 POP JUMPDEST PUSH3 0x628 PUSH3 0x61F DUP6 PUSH3 0x4B4 JUMP JUMPDEST DUP4 ADD DUP3 PUSH3 0x5B9 JUMP JUMPDEST POP POP JUMPDEST POP POP POP JUMP JUMPDEST PUSH1 0x0 DUP3 DUP3 SHR SWAP1 POP SWAP3 SWAP2 POP POP JUMP JUMPDEST PUSH1 0x0 PUSH3 0x650 PUSH1 0x0 NOT DUP5 PUSH1 0x8 MUL PUSH3 0x630 JUMP JUMPDEST NOT DUP1 DUP4 AND SWAP2 POP POP SWAP3 SWAP2 POP POP JUMP JUMPDEST PUSH1 0x0 PUSH3 0x66B DUP4 DUP4 PUSH3 0x63D JUMP JUMPDEST SWAP2 POP DUP3 PUSH1 0x2 MUL DUP3 OR SWAP1 POP SWAP3 SWAP2 POP POP JUMP JUMPDEST PUSH3 0x686 DUP3 PUSH3 0x401 JUMP JUMPDEST PUSH8 0xFFFFFFFFFFFFFFFF DUP2 GT ISZERO PUSH3 0x6A2 JUMPI PUSH3 0x6A1 PUSH3 0x40C JUMP JUMPDEST JUMPDEST PUSH3 0x6AE DUP3 SLOAD PUSH3 0x46A JUMP JUMPDEST PUSH3 0x6BB DUP3 DUP3 DUP6 PUSH3 0x5E0 JUMP JUMPDEST PUSH1 0x0 PUSH1 0x20 SWAP1 POP PUSH1 0x1F DUP4 GT PUSH1 0x1 DUP2 EQ PUSH3 0x6F3 JUMPI PUSH1 0x0 DUP5 ISZERO PUSH3 0x6DE JUMPI DUP3 DUP8 ADD MLOAD SWAP1 POP JUMPDEST PUSH3 0x6EA DUP6 DUP3 PUSH3 0x65D JUMP JUMPDEST DUP7 SSTORE POP PUSH3 0x75A JUMP JUMPDEST PUSH1 0x1F NOT DUP5 AND PUSH3 0x703 DUP7 PUSH3 0x49F JUMP JUMPDEST PUSH1 0x0 JUMPDEST DUP3 DUP2 LT ISZERO PUSH3 0x72D JUMPI DUP5 DUP10 ADD MLOAD DUP3 SSTORE PUSH1 0x1 DUP3 ADD SWAP2 POP PUSH1 0x20 DUP6 ADD SWAP5 POP PUSH1 0x20 DUP2 ADD SWAP1 POP PUSH3 0x706 JUMP JUMPDEST DUP7 DUP4 LT ISZERO PUSH3 0x74D JUMPI DUP5 DUP10 ADD MLOAD PUSH3 0x749 PUSH1 0x1F DUP10 AND DUP3 PUSH3 0x63D JUMP JUMPDEST DUP4 SSTORE POP JUMPDEST PUSH1 0x1 PUSH1 0x2 DUP9 MUL ADD DUP9 SSTORE POP POP POP JUMPDEST POP POP POP POP POP POP JUMP JUMPDEST PUSH32 0x4E487B7100000000000000000000000000000000000000000000000000000000 PUSH1 0x0 MSTORE PUSH1 0x11 PUSH1 0x4 MSTORE PUSH1 0x24 PUSH1 0x0 REVERT JUMPDEST PUSH1 0x0 DUP2 PUSH1 0x1 SHR SWAP1 POP SWAP2 SWAP1 POP JUMP JUMPDEST PUSH1 0x0 DUP1 DUP3 SWAP2 POP DUP4 SWAP1 POP JUMPDEST PUSH1 0x1 DUP6 GT ISZERO PUSH3 0x7F0 JUMPI DUP1 DUP7 DIV DUP2 GT ISZERO PUSH3 0x7C8 JUMPI PUSH3 0x7C7 PUSH3 0x762 JUMP JUMPDEST JUMPDEST PUSH1 0x1 DUP6 AND ISZERO PUSH3 0x7D8 JUMPI DUP1 DUP3 MUL SWAP2 POP JUMPDEST DUP1 DUP2 MUL SWAP1 POP PUSH3 0x7E8 DUP6 PUSH3 0x791 JUMP JUMPDEST SWAP5 POP PUSH3 0x7A8 JUMP JUMPDEST SWAP5 POP SWAP5 SWAP3 POP POP POP JUMP JUMPDEST PUSH1 0x0 DUP3 PUSH3 0x80B JUMPI PUSH1 0x1 SWAP1 POP PUSH3 0x8DE JUMP JUMPDEST DUP2 PUSH3 0x81B JUMPI PUSH1 0x0 SWAP1 POP PUSH3 0x8DE JUMP JUMPDEST DUP2 PUSH1 0x1 DUP2 EQ PUSH3 0x834 JUMPI PUSH1 0x2 DUP2 EQ PUSH3 0x83F JUMPI PUSH3 0x875 JUMP JUMPDEST PUSH1 0x1 SWAP2 POP POP PUSH3 0x8DE JUMP JUMPDEST PUSH1 0xFF DUP5 GT ISZERO PUSH3 0x854 JUMPI PUSH3 0x853 PUSH3 0x762 JUMP JUMPDEST JUMPDEST DUP4 PUSH1 0x2 EXP SWAP2 POP DUP5 DUP3 GT ISZERO PUSH3 0x86E JUMPI PUSH3 0x86D PUSH3 0x762 JUMP JUMPDEST JUMPDEST POP PUSH3 0x8DE JUMP JUMPDEST POP PUSH1 0x20 DUP4 LT PUSH2 0x133 DUP4 LT AND PUSH1 0x4E DUP5 LT PUSH1 0xB DUP5 LT AND OR ISZERO PUSH3 0x8AF JUMPI DUP3 DUP3 EXP SWAP1 POP DUP4 DUP2 GT ISZERO PUSH3 0x8A9 JUMPI PUSH3 0x8A8 PUSH3 0x762 JUMP JUMPDEST JUMPDEST PUSH3 0x8DE JUMP JUMPDEST PUSH3 0x8BE DUP5 DUP5 DUP5 PUSH1 0x1 PUSH3 0x79E JUMP JUMPDEST SWAP3 POP SWAP1 POP DUP2 DUP5 DIV DUP2 GT ISZERO PUSH3 0x8D8 JUMPI PUSH3 0x8D7 PUSH3 0x762 JUMP JUMPDEST JUMPDEST DUP2 DUP2 MUL SWAP1 POP JUMPDEST SWAP4 SWAP3 POP POP POP JUMP JUMPDEST PUSH1 0x0 PUSH3 0x8F2 DUP3 PUSH3 0x527 JUMP JUMPDEST SWAP2 POP PUSH3 0x8FF DUP4 PUSH3 0x527 JUMP JUMPDEST SWAP3 POP PUSH3 0x92E PUSH32 0xFFFFFFFFFFFFFFFFFFFFFFFFFFFFFFFFFFFFFFFFFFFFFFFFFFFFFFFFFFFFFFFF DUP5 DUP5 PUSH3 0x7F9 JUMP JUMPDEST SWAP1 POP SWAP3 SWAP2 POP POP JUMP JUMPDEST PUSH1 0x0 PUSH3 0x943 DUP3 PUSH3 0x527 JUMP JUMPDEST SWAP2 POP PUSH3 0x950 DUP4 PUSH3 0x527 JUMP JUMPDEST SWAP3 POP DUP3 DUP3 MUL PUSH3 0x960 DUP2 PUSH3 0x527 JUMP JUMPDEST SWAP2 POP DUP3 DUP3 DIV DUP5 EQ DUP4 ISZERO OR PUSH3 0x97A JUMPI PUSH3 0x979 PUSH3 0x762 JUMP JUMPDEST JUMPDEST POP SWAP3 SWAP2 POP POP JUMP JUMPDEST PUSH1 0x0 PUSH3 0x98E DUP3 PUSH3 0x527 JUMP JUMPDEST SWAP2 POP PUSH3 0x99B DUP4 PUSH3 0x527 JUMP JUMPDEST SWAP3 POP DUP3 DUP3 ADD SWAP1 POP DUP1 DUP3 GT ISZERO PUSH3 0x9B6 JUMPI PUSH3 0x9B5 PUSH3 0x762 JUMP JUMPDEST JUMPDEST SWAP3 SWAP2 POP POP JUMP JUMPDEST PUSH2 0x2628 DUP1 PUSH3 0x9CC PUSH1 0x0 CODECOPY PUSH1 0x0 RETURN INVALID PUSH1 0x80 PUSH1 0x40 MSTORE PUSH1 0x4 CALLDATASIZE LT PUSH2 0x10D JUMPI PUSH1 0x0 CALLDATALOAD PUSH1 0xE0 SHR DUP1 PUSH4 0x42966C68 GT PUSH2 0x95 JUMPI DUP1 PUSH4 0x95D89B41 GT PUSH2 0x64 JUMPI DUP1 PUSH4 0x95D89B41 EQ PUSH2 0x55F JUMPI DUP1 PUSH4 0xA9059CBB EQ PUSH2 0x58A JUMPI DUP1 PUSH4 0xC78BC15F EQ PUSH2 0x5C7 JUMPI DUP1 PUSH4 0xD310B249 EQ PUSH2 0x5DE JUMPI DUP1 PUSH4 0xDD62ED3E EQ PUSH2 0x61B JUMPI PUSH2 0x2C0 JUMP JUMPDEST DUP1 PUSH4 0x42966C68 EQ PUSH2 0x4A3 JUMPI DUP1 PUSH4 0x70A08231 EQ PUSH2 0x4CC JUMPI DUP1 PUSH4 0x868BABB0 EQ PUSH2 0x509 JUMPI DUP1 PUSH4 0x87E24C72 EQ PUSH2 0x534 JUMPI PUSH2 0x2C0 JUMP JUMPDEST DUP1 PUSH4 0x23B872DD GT PUSH2 0xDC JUMPI DUP1 PUSH4 0x23B872DD EQ PUSH2 0x383 JUMPI DUP1 PUSH4 0x27E235E3 EQ PUSH2 0x3C0 JUMPI DUP1 PUSH4 0x313CE567 EQ PUSH2 0x3FD JUMPI DUP1 PUSH4 0x365B98B2 EQ PUSH2 0x428 JUMPI DUP1 PUSH4 0x36E60477 EQ PUSH2 0x465 JUMPI PUSH2 0x2C0 JUMP JUMPDEST DUP1 PUSH4 0x6FDDE03 EQ PUSH2 0x2C5 JUMPI DUP1 PUSH4 0x95EA7B3 EQ PUSH2 0x2F0 JUMPI DUP1 PUSH4 0x11D58B02 EQ PUSH2 0x32D JUMPI DUP1 PUSH4 0x18160DDD EQ PUSH2 0x358 JUMPI PUSH2 0x2C0 JUMP JUMPDEST CALLDATASIZE PUSH2 0x2C0 JUMPI PUSH1 0x0 PUSH1 0xC8 CALLVALUE PUSH2 0x121 SWAP2 SWAP1 PUSH2 0x1938 JUMP JUMPDEST SWAP1 POP DUP1 PUSH1 0x5 PUSH1 0x0 PUSH1 0x4 PUSH1 0x0 SWAP1 SLOAD SWAP1 PUSH2 0x100 EXP SWAP1 DIV PUSH20 0xFFFFFFFFFFFFFFFFFFFFFFFFFFFFFFFFFFFFFFFF AND PUSH20 0xFFFFFFFFFFFFFFFFFFFFFFFFFFFFFFFFFFFFFFFF AND PUSH20 0xFFFFFFFFFFFFFFFFFFFFFFFFFFFFFFFFFFFFFFFF AND DUP2 MSTORE PUSH1 0x20 ADD SWAP1 DUP2 MSTORE PUSH1 0x20 ADD PUSH1 0x0 KECCAK256 SLOAD LT ISZERO PUSH2 0x191 JUMPI PUSH1 0x0 DUP1 REVERT JUMPDEST DUP1 PUSH1 0x5 PUSH1 0x0 PUSH1 0x4 PUSH1 0x0 SWAP1 SLOAD SWAP1 PUSH2 0x100 EXP SWAP1 DIV PUSH20 0xFFFFFFFFFFFFFFFFFFFFFFFFFFFFFFFFFFFFFFFF AND PUSH20 0xFFFFFFFFFFFFFFFFFFFFFFFFFFFFFFFFFFFFFFFF AND PUSH20 0xFFFFFFFFFFFFFFFFFFFFFFFFFFFFFFFFFFFFFFFF AND DUP2 MSTORE PUSH1 0x20 ADD SWAP1 DUP2 MSTORE PUSH1 0x20 ADD PUSH1 0x0 KECCAK256 PUSH1 0x0 DUP3 DUP3 SLOAD PUSH2 0x202 SWAP2 SWAP1 PUSH2 0x197A JUMP JUMPDEST SWAP3 POP POP DUP2 SWAP1 SSTORE POP DUP1 PUSH1 0x5 PUSH1 0x0 CALLER PUSH20 0xFFFFFFFFFFFFFFFFFFFFFFFFFFFFFFFFFFFFFFFF AND PUSH20 0xFFFFFFFFFFFFFFFFFFFFFFFFFFFFFFFFFFFFFFFF AND DUP2 MSTORE PUSH1 0x20 ADD SWAP1 DUP2 MSTORE PUSH1 0x20 ADD PUSH1 0x0 KECCAK256 PUSH1 0x0 DUP3 DUP3 SLOAD PUSH2 0x258 SWAP2 SWAP1 PUSH2 0x19AE JUMP JUMPDEST SWAP3 POP POP DUP2 SWAP1 SSTORE POP PUSH1 0x4 PUSH1 0x0 SWAP1 SLOAD SWAP1 PUSH2 0x100 EXP SWAP1 DIV PUSH20 0xFFFFFFFFFFFFFFFFFFFFFFFFFFFFFFFFFFFFFFFF AND PUSH20 0xFFFFFFFFFFFFFFFFFFFFFFFFFFFFFFFFFFFFFFFF AND CALLER PUSH20 0xFFFFFFFFFFFFFFFFFFFFFFFFFFFFFFFFFFFFFFFF AND SUB PUSH2 0x2BE JUMPI PUSH2 0x2BD DUP2 PUSH2 0x658 JUMP JUMPDEST JUMPDEST STOP JUMPDEST PUSH1 0x0 DUP1 REVERT JUMPDEST CALLVALUE DUP1 ISZERO PUSH2 0x2D1 JUMPI PUSH1 0x0 DUP1 REVERT JUMPDEST POP PUSH2 0x2DA PUSH2 0x6CA JUMP JUMPDEST PUSH1 0x40 MLOAD PUSH2 0x2E7 SWAP2 SWAP1 PUSH2 0x1A72 JUMP JUMPDEST PUSH1 0x40 MLOAD DUP1 SWAP2 SUB SWAP1 RETURN JUMPDEST CALLVALUE DUP1 ISZERO PUSH2 0x2FC JUMPI PUSH1 0x0 DUP1 REVERT JUMPDEST POP PUSH2 0x317 PUSH1 0x4 DUP1 CALLDATASIZE SUB DUP2 ADD SWAP1 PUSH2 0x312 SWAP2 SWAP1 PUSH2 0x1B32 JUMP JUMPDEST PUSH2 0x758 JUMP JUMPDEST PUSH1 0x40 MLOAD PUSH2 0x324 SWAP2 SWAP1 PUSH2 0x1B8D JUMP JUMPDEST PUSH1 0x40 MLOAD DUP1 SWAP2 SUB SWAP1 RETURN JUMPDEST CALLVALUE DUP1 ISZERO PUSH2 0x339 JUMPI PUSH1 0x0 DUP1 REVERT JUMPDEST POP PUSH2 0x342 PUSH2 0x7E5 JUMP JUMPDEST PUSH1 0x40 MLOAD PUSH2 0x34F SWAP2 SWAP1 PUSH2 0x1CF8 JUMP JUMPDEST PUSH1 0x40 MLOAD DUP1 SWAP2 SUB SWAP1 RETURN JUMPDEST CALLVALUE DUP1 ISZERO PUSH2 0x364 JUMPI PUSH1 0x0 DUP1 REVERT JUMPDEST POP PUSH2 0x36D PUSH2 0x9A5 JUMP JUMPDEST PUSH1 0x40 MLOAD PUSH2 0x37A SWAP2 SWAP1 PUSH2 0x1D29 JUMP JUMPDEST PUSH1 0x40 MLOAD DUP1 SWAP2 SUB SWAP1 RETURN JUMPDEST CALLVALUE DUP1 ISZERO PUSH2 0x38F JUMPI PUSH1 0x0 DUP1 REVERT JUMPDEST POP PUSH2 0x3AA PUSH1 0x4 DUP1 CALLDATASIZE SUB DUP2 ADD SWAP1 PUSH2 0x3A5 SWAP2 SWAP1 PUSH2 0x1D44 JUMP JUMPDEST PUSH2 0x9AB JUMP JUMPDEST PUSH1 0x40 MLOAD PUSH2 0x3B7 SWAP2 SWAP1 PUSH2 0x1B8D JUMP JUMPDEST PUSH1 0x40 MLOAD DUP1 SWAP2 SUB SWAP1 RETURN JUMPDEST CALLVALUE DUP1 ISZERO PUSH2 0x3CC JUMPI PUSH1 0x0 DUP1 REVERT JUMPDEST POP PUSH2 0x3E7 PUSH1 0x4 DUP1 CALLDATASIZE SUB DUP2 ADD SWAP1 PUSH2 0x3E2 SWAP2 SWAP1 PUSH2 0x1D97 JUMP JUMPDEST PUSH2 0xB7C JUMP JUMPDEST PUSH1 0x40 MLOAD PUSH2 0x3F4 SWAP2 SWAP1 PUSH2 0x1D29 JUMP JUMPDEST PUSH1 0x40 MLOAD DUP1 SWAP2 SUB SWAP1 RETURN JUMPDEST CALLVALUE DUP1 ISZERO PUSH2 0x409 JUMPI PUSH1 0x0 DUP1 REVERT JUMPDEST POP PUSH2 0x412 PUSH2 0xB94 JUMP JUMPDEST PUSH1 0x40 MLOAD PUSH2 0x41F SWAP2 SWAP1 PUSH2 0x1DE0 JUMP JUMPDEST PUSH1 0x40 MLOAD DUP1 SWAP2 SUB SWAP1 RETURN JUMPDEST CALLVALUE DUP1 ISZERO PUSH2 0x434 JUMPI PUSH1 0x0 DUP1 REVERT JUMPDEST POP PUSH2 0x44F PUSH1 0x4 DUP1 CALLDATASIZE SUB DUP2 ADD SWAP1 PUSH2 0x44A SWAP2 SWAP1 PUSH2 0x1DFB JUMP JUMPDEST PUSH2 0xBA7 JUMP JUMPDEST PUSH1 0x40 MLOAD PUSH2 0x45C SWAP2 SWAP1 PUSH2 0x1E37 JUMP JUMPDEST PUSH1 0x40 MLOAD DUP1 SWAP2 SUB SWAP1 RETURN JUMPDEST CALLVALUE DUP1 ISZERO PUSH2 0x471 JUMPI PUSH1 0x0 DUP1 REVERT JUMPDEST POP PUSH2 0x48C PUSH1 0x4 DUP1 CALLDATASIZE SUB DUP2 ADD SWAP1 PUSH2 0x487 SWAP2 SWAP1 PUSH2 0x1B32 JUMP JUMPDEST PUSH2 0xBF1 JUMP JUMPDEST PUSH1 0x40 MLOAD PUSH2 0x49A SWAP3 SWAP2 SWAP1 PUSH2 0x1E52 JUMP JUMPDEST PUSH1 0x40 MLOAD DUP1 SWAP2 SUB SWAP1 RETURN JUMPDEST CALLVALUE DUP1 ISZERO PUSH2 0x4AF JUMPI PUSH1 0x0 DUP1 REVERT JUMPDEST POP PUSH2 0x4CA PUSH1 0x4 DUP1 CALLDATASIZE SUB DUP2 ADD SWAP1 PUSH2 0x4C5 SWAP2 SWAP1 PUSH2 0x1DFB JUMP JUMPDEST PUSH2 0xD42 JUMP JUMPDEST STOP JUMPDEST CALLVALUE DUP1 ISZERO PUSH2 0x4D8 JUMPI PUSH1 0x0 DUP1 REVERT JUMPDEST POP PUSH2 0x4F3 PUSH1 0x4 DUP1 CALLDATASIZE SUB DUP2 ADD SWAP1 PUSH2 0x4EE SWAP2 SWAP1 PUSH2 0x1D97 JUMP JUMPDEST PUSH2 0xDB4 JUMP JUMPDEST PUSH1 0x40 MLOAD PUSH2 0x500 SWAP2 SWAP1 PUSH2 0x1D29 JUMP JUMPDEST PUSH1 0x40 MLOAD DUP1 SWAP2 SUB SWAP1 RETURN JUMPDEST CALLVALUE DUP1 ISZERO PUSH2 0x515 JUMPI PUSH1 0x0 DUP1 REVERT JUMPDEST POP PUSH2 0x51E PUSH2 0xDFD JUMP JUMPDEST PUSH1 0x40 MLOAD PUSH2 0x52B SWAP2 SWAP1 PUSH2 0x1F63 JUMP JUMPDEST PUSH1 0x40 MLOAD DUP1 SWAP2 SUB SWAP1 RETURN JUMPDEST CALLVALUE DUP1 ISZERO PUSH2 0x540 JUMPI PUSH1 0x0 DUP1 REVERT JUMPDEST POP PUSH2 0x549 PUSH2 0xEAE JUMP JUMPDEST PUSH1 0x40 MLOAD PUSH2 0x556 SWAP2 SWAP1 PUSH2 0x1CF8 JUMP JUMPDEST PUSH1 0x40 MLOAD DUP1 SWAP2 SUB SWAP1 RETURN JUMPDEST CALLVALUE DUP1 ISZERO PUSH2 0x56B JUMPI PUSH1 0x0 DUP1 REVERT JUMPDEST POP PUSH2 0x574 PUSH2 0x106E JUMP JUMPDEST PUSH1 0x40 MLOAD PUSH2 0x581 SWAP2 SWAP1 PUSH2 0x1A72 JUMP JUMPDEST PUSH1 0x40 MLOAD DUP1 SWAP2 SUB SWAP1 RETURN JUMPDEST CALLVALUE DUP1 ISZERO PUSH2 0x596 JUMPI PUSH1 0x0 DUP1 REVERT JUMPDEST POP PUSH2 0x5B1 PUSH1 0x4 DUP1 CALLDATASIZE SUB DUP2 ADD SWAP1 PUSH2 0x5AC SWAP2 SWAP1 PUSH2 0x1B32 JUMP JUMPDEST PUSH2 0x10FC JUMP JUMPDEST PUSH1 0x40 MLOAD PUSH2 0x5BE SWAP2 SWAP1 PUSH2 0x1B8D JUMP JUMPDEST PUSH1 0x40 MLOAD DUP1 SWAP2 SUB SWAP1 RETURN JUMPDEST CALLVALUE DUP1 ISZERO PUSH2 0x5D3 JUMPI PUSH1 0x0 DUP1 REVERT JUMPDEST POP PUSH2 0x5DC PUSH2 0x11B4 JUMP JUMPDEST STOP JUMPDEST CALLVALUE DUP1 ISZERO PUSH2 0x5EA JUMPI PUSH1 0x0 DUP1 REVERT JUMPDEST POP PUSH2 0x605 PUSH1 0x4 DUP1 CALLDATASIZE SUB DUP2 ADD SWAP1 PUSH2 0x600 SWAP2 SWAP1 PUSH2 0x20BA JUMP JUMPDEST PUSH2 0x15EE JUMP JUMPDEST PUSH1 0x40 MLOAD PUSH2 0x612 SWAP2 SWAP1 PUSH2 0x1CF8 JUMP JUMPDEST PUSH1 0x40 MLOAD DUP1 SWAP2 SUB SWAP1 RETURN JUMPDEST CALLVALUE DUP1 ISZERO PUSH2 0x627 JUMPI PUSH1 0x0 DUP1 REVERT JUMPDEST POP PUSH2 0x642 PUSH1 0x4 DUP1 CALLDATASIZE SUB DUP2 ADD SWAP1 PUSH2 0x63D SWAP2 SWAP1 PUSH2 0x2116 JUMP JUMPDEST PUSH2 0x187D JUMP JUMPDEST PUSH1 0x40 MLOAD PUSH2 0x64F SWAP2 SWAP1 PUSH2 0x1D29 JUMP JUMPDEST PUSH1 0x40 MLOAD DUP1 SWAP2 SUB SWAP1 RETURN JUMPDEST DUP1 PUSH1 0x5 PUSH1 0x0 CALLER PUSH20 0xFFFFFFFFFFFFFFFFFFFFFFFFFFFFFFFFFFFFFFFF AND PUSH20 0xFFFFFFFFFFFFFFFFFFFFFFFFFFFFFFFFFFFFFFFF AND DUP2 MSTORE PUSH1 0x20 ADD SWAP1 DUP2 MSTORE PUSH1 0x20 ADD PUSH1 0x0 KECCAK256 PUSH1 0x0 DUP3 DUP3 SLOAD PUSH2 0x6A7 SWAP2 SWAP1 PUSH2 0x19AE JUMP JUMPDEST SWAP3 POP POP DUP2 SWAP1 SSTORE POP DUP1 PUSH1 0x3 PUSH1 0x0 DUP3 DUP3 SLOAD PUSH2 0x6C0 SWAP2 SWAP1 PUSH2 0x19AE JUMP JUMPDEST SWAP3 POP POP DUP2 SWAP1 SSTORE POP POP JUMP JUMPDEST PUSH1 0x0 DUP1 SLOAD PUSH2 0x6D7 SWAP1 PUSH2 0x2185 JUMP JUMPDEST DUP1 PUSH1 0x1F ADD PUSH1 0x20 DUP1 SWAP2 DIV MUL PUSH1 0x20 ADD PUSH1 0x40 MLOAD SWAP1 DUP2 ADD PUSH1 0x40 MSTORE DUP1 SWAP3 SWAP2 SWAP1 DUP2 DUP2 MSTORE PUSH1 0x20 ADD DUP3 DUP1 SLOAD PUSH2 0x703 SWAP1 PUSH2 0x2185 JUMP JUMPDEST DUP1 ISZERO PUSH2 0x750 JUMPI DUP1 PUSH1 0x1F LT PUSH2 0x725 JUMPI PUSH2 0x100 DUP1 DUP4 SLOAD DIV MUL DUP4 MSTORE SWAP2 PUSH1 0x20 ADD SWAP2 PUSH2 0x750 JUMP JUMPDEST DUP3 ADD SWAP2 SWAP1 PUSH1 0x0 MSTORE PUSH1 0x20 PUSH1 0x0 KECCAK256 SWAP1 JUMPDEST DUP2 SLOAD DUP2 MSTORE SWAP1 PUSH1 0x1 ADD SWAP1 PUSH1 0x20 ADD DUP1 DUP4 GT PUSH2 0x733 JUMPI DUP3 SWAP1 SUB PUSH1 0x1F AND DUP3 ADD SWAP2 JUMPDEST POP POP POP POP POP DUP2 JUMP JUMPDEST PUSH1 0x0 DUP2 PUSH1 0x6 PUSH1 0x0 CALLER PUSH20 0xFFFFFFFFFFFFFFFFFFFFFFFFFFFFFFFFFFFFFFFF AND PUSH20 0xFFFFFFFFFFFFFFFFFFFFFFFFFFFFFFFFFFFFFFFF AND DUP2 MSTORE PUSH1 0x20 ADD SWAP1 DUP2 MSTORE PUSH1 0x20 ADD PUSH1 0x0 KECCAK256 PUSH1 0x0 DUP6 PUSH20 0xFFFFFFFFFFFFFFFFFFFFFFFFFFFFFFFFFFFFFFFF AND PUSH20 0xFFFFFFFFFFFFFFFFFFFFFFFFFFFFFFFFFFFFFFFF AND DUP2 MSTORE PUSH1 0x20 ADD SWAP1 DUP2 MSTORE PUSH1 0x20 ADD PUSH1 0x0 KECCAK256 DUP2 SWAP1 SSTORE POP PUSH1 0x1 SWAP1 POP SWAP3 SWAP2 POP POP JUMP JUMPDEST PUSH1 0x60 PUSH1 0xA PUSH1 0x0 CALLER PUSH20 0xFFFFFFFFFFFFFFFFFFFFFFFFFFFFFFFFFFFFFFFF AND PUSH20 0xFFFFFFFFFFFFFFFFFFFFFFFFFFFFFFFFFFFFFFFF AND DUP2 MSTORE PUSH1 0x20 ADD SWAP1 DUP2 MSTORE PUSH1 0x20 ADD PUSH1 0x0 KECCAK256 DUP1 SLOAD DUP1 PUSH1 0x20 MUL PUSH1 0x20 ADD PUSH1 0x40 MLOAD SWAP1 DUP2 ADD PUSH1 0x40 MSTORE DUP1 SWAP3 SWAP2 SWAP1 DUP2 DUP2 MSTORE PUSH1 0x20 ADD PUSH1 0x0 SWAP1 JUMPDEST DUP3 DUP3 LT ISZERO PUSH2 0x99C JUMPI DUP4 DUP3 SWAP1 PUSH1 0x0 MSTORE PUSH1 0x20 PUSH1 0x0 KECCAK256 SWAP1 PUSH1 0x2 MUL ADD PUSH1 0x40 MLOAD DUP1 PUSH1 0x40 ADD PUSH1 0x40 MSTORE SWAP1 DUP2 PUSH1 0x0 DUP3 ADD DUP1 SLOAD PUSH2 0x879 SWAP1 PUSH2 0x2185 JUMP JUMPDEST DUP1 PUSH1 0x1F ADD PUSH1 0x20 DUP1 SWAP2 DIV MUL PUSH1 0x20 ADD PUSH1 0x40 MLOAD SWAP1 DUP2 ADD PUSH1 0x40 MSTORE DUP1 SWAP3 SWAP2 SWAP1 DUP2 DUP2 MSTORE PUSH1 0x20 ADD DUP3 DUP1 SLOAD PUSH2 0x8A5 SWAP1 PUSH2 0x2185 JUMP JUMPDEST DUP1 ISZERO PUSH2 0x8F2 JUMPI DUP1 PUSH1 0x1F LT PUSH2 0x8C7 JUMPI PUSH2 0x100 DUP1 DUP4 SLOAD DIV MUL DUP4 MSTORE SWAP2 PUSH1 0x20 ADD SWAP2 PUSH2 0x8F2 JUMP JUMPDEST DUP3 ADD SWAP2 SWAP1 PUSH1 0x0 MSTORE PUSH1 0x20 PUSH1 0x0 KECCAK256 SWAP1 JUMPDEST DUP2 SLOAD DUP2 MSTORE SWAP1 PUSH1 0x1 ADD SWAP1 PUSH1 0x20 ADD DUP1 DUP4 GT PUSH2 0x8D5 JUMPI DUP3 SWAP1 SUB PUSH1 0x1F AND DUP3 ADD SWAP2 JUMPDEST POP POP POP POP POP DUP2 MSTORE PUSH1 0x20 ADD PUSH1 0x1 DUP3 ADD DUP1 SLOAD PUSH2 0x90B SWAP1 PUSH2 0x2185 JUMP JUMPDEST DUP1 PUSH1 0x1F ADD PUSH1 0x20 DUP1 SWAP2 DIV MUL PUSH1 0x20 ADD PUSH1 0x40 MLOAD SWAP1 DUP2 ADD PUSH1 0x40 MSTORE DUP1 SWAP3 SWAP2 SWAP1 DUP2 DUP2 MSTORE PUSH1 0x20 ADD DUP3 DUP1 SLOAD PUSH2 0x937 SWAP1 PUSH2 0x2185 JUMP JUMPDEST DUP1 ISZERO PUSH2 0x984 JUMPI DUP1 PUSH1 0x1F LT PUSH2 0x959 JUMPI PUSH2 0x100 DUP1 DUP4 SLOAD DIV MUL DUP4 MSTORE SWAP2 PUSH1 0x20 ADD SWAP2 PUSH2 0x984 JUMP JUMPDEST DUP3 ADD SWAP2 SWAP1 PUSH1 0x0 MSTORE PUSH1 0x20 PUSH1 0x0 KECCAK256 SWAP1 JUMPDEST DUP2 SLOAD DUP2 MSTORE SWAP1 PUSH1 0x1 ADD SWAP1 PUSH1 0x20 ADD DUP1 DUP4 GT PUSH2 0x967 JUMPI DUP3 SWAP1 SUB PUSH1 0x1F AND DUP3 ADD SWAP2 JUMPDEST POP POP POP POP POP DUP2 MSTORE POP POP DUP2 MSTORE PUSH1 0x20 ADD SWAP1 PUSH1 0x1 ADD SWAP1 PUSH2 0x846 JUMP JUMPDEST POP POP POP POP SWAP1 POP SWAP1 JUMP JUMPDEST PUSH1 0x3 SLOAD DUP2 JUMP JUMPDEST PUSH1 0x0 DUP2 PUSH1 0x6 PUSH1 0x0 DUP7 PUSH20 0xFFFFFFFFFFFFFFFFFFFFFFFFFFFFFFFFFFFFFFFF AND PUSH20 0xFFFFFFFFFFFFFFFFFFFFFFFFFFFFFFFFFFFFFFFF AND DUP2 MSTORE PUSH1 0x20 ADD SWAP1 DUP2 MSTORE PUSH1 0x20 ADD PUSH1 0x0 KECCAK256 PUSH1 0x0 CALLER PUSH20 0xFFFFFFFFFFFFFFFFFFFFFFFFFFFFFFFFFFFFFFFF AND PUSH20 0xFFFFFFFFFFFFFFFFFFFFFFFFFFFFFFFFFFFFFFFF AND DUP2 MSTORE PUSH1 0x20 ADD SWAP1 DUP2 MSTORE PUSH1 0x20 ADD PUSH1 0x0 KECCAK256 SLOAD LT ISZERO PUSH2 0xA36 JUMPI PUSH1 0x0 DUP1 REVERT JUMPDEST DUP2 PUSH1 0x6 PUSH1 0x0 DUP7 PUSH20 0xFFFFFFFFFFFFFFFFFFFFFFFFFFFFFFFFFFFFFFFF AND PUSH20 0xFFFFFFFFFFFFFFFFFFFFFFFFFFFFFFFFFFFFFFFF AND DUP2 MSTORE PUSH1 0x20 ADD SWAP1 DUP2 MSTORE PUSH1 0x20 ADD PUSH1 0x0 KECCAK256 PUSH1 0x0 CALLER PUSH20 0xFFFFFFFFFFFFFFFFFFFFFFFFFFFFFFFFFFFFFFFF AND PUSH20 0xFFFFFFFFFFFFFFFFFFFFFFFFFFFFFFFFFFFFFFFF AND DUP2 MSTORE PUSH1 0x20 ADD SWAP1 DUP2 MSTORE PUSH1 0x20 ADD PUSH1 0x0 KECCAK256 PUSH1 0x0 DUP3 DUP3 SLOAD PUSH2 0xAC2 SWAP2 SWAP1 PUSH2 0x197A JUMP JUMPDEST SWAP3 POP POP DUP2 SWAP1 SSTORE POP DUP2 PUSH1 0x5 PUSH1 0x0 DUP7 PUSH20 0xFFFFFFFFFFFFFFFFFFFFFFFFFFFFFFFFFFFFFFFF AND PUSH20 0xFFFFFFFFFFFFFFFFFFFFFFFFFFFFFFFFFFFFFFFF AND DUP2 MSTORE PUSH1 0x20 ADD SWAP1 DUP2 MSTORE PUSH1 0x20 ADD PUSH1 0x0 KECCAK256 PUSH1 0x0 DUP3 DUP3 SLOAD PUSH2 0xB18 SWAP2 SWAP1 PUSH2 0x197A JUMP JUMPDEST SWAP3 POP POP DUP2 SWAP1 SSTORE POP DUP2 PUSH1 0x5 PUSH1 0x0 DUP6 PUSH20 0xFFFFFFFFFFFFFFFFFFFFFFFFFFFFFFFFFFFFFFFF AND PUSH20 0xFFFFFFFFFFFFFFFFFFFFFFFFFFFFFFFFFFFFFFFF AND DUP2 MSTORE PUSH1 0x20 ADD SWAP1 DUP2 MSTORE PUSH1 0x20 ADD PUSH1 0x0 KECCAK256 PUSH1 0x0 DUP3 DUP3 SLOAD PUSH2 0xB6E SWAP2 SWAP1 PUSH2 0x19AE JUMP JUMPDEST SWAP3 POP POP DUP2 SWAP1 SSTORE POP SWAP4 SWAP3 POP POP POP JUMP JUMPDEST PUSH1 0x5 PUSH1 0x20 MSTORE DUP1 PUSH1 0x0 MSTORE PUSH1 0x40 PUSH1 0x0 KECCAK256 PUSH1 0x0 SWAP2 POP SWAP1 POP SLOAD DUP2 JUMP JUMPDEST PUSH1 0x2 PUSH1 0x0 SWAP1 SLOAD SWAP1 PUSH2 0x100 EXP SWAP1 DIV PUSH1 0xFF AND DUP2 JUMP JUMPDEST PUSH1 0xB DUP2 DUP2 SLOAD DUP2 LT PUSH2 0xBB7 JUMPI PUSH1 0x0 DUP1 REVERT JUMPDEST SWAP1 PUSH1 0x0 MSTORE PUSH1 0x20 PUSH1 0x0 KECCAK256 ADD PUSH1 0x0 SWAP2 POP SWAP1 POP DUP1 PUSH1 0x0 ADD PUSH1 0x0 SWAP1 SLOAD SWAP1 PUSH2 0x100 EXP SWAP1 DIV PUSH20 0xFFFFFFFFFFFFFFFFFFFFFFFFFFFFFFFFFFFFFFFF AND SWAP1 POP DUP2 JUMP JUMPDEST PUSH1 0xA PUSH1 0x20 MSTORE DUP2 PUSH1 0x0 MSTORE PUSH1 0x40 PUSH1 0x0 KECCAK256 DUP2 DUP2 SLOAD DUP2 LT PUSH2 0xC0D JUMPI PUSH1 0x0 DUP1 REVERT JUMPDEST SWAP1 PUSH1 0x0 MSTORE PUSH1 0x20 PUSH1 0x0 KECCAK256 SWAP1 PUSH1 0x2 MUL ADD PUSH1 0x0 SWAP2 POP SWAP2 POP POP DUP1 PUSH1 0x0 ADD DUP1 SLOAD PUSH2 0xC31 SWAP1 PUSH2 0x2185 JUMP JUMPDEST DUP1 PUSH1 0x1F ADD PUSH1 0x20 DUP1 SWAP2 DIV MUL PUSH1 0x20 ADD PUSH1 0x40 MLOAD SWAP1 DUP2 ADD PUSH1 0x40 MSTORE DUP1 SWAP3 SWAP2 SWAP1 DUP2 DUP2 MSTORE PUSH1 0x20 ADD DUP3 DUP1 SLOAD PUSH2 0xC5D SWAP1 PUSH2 0x2185 JUMP JUMPDEST DUP1 ISZERO PUSH2 0xCAA JUMPI DUP1 PUSH1 0x1F LT PUSH2 0xC7F JUMPI PUSH2 0x100 DUP1 DUP4 SLOAD DIV MUL DUP4 MSTORE SWAP2 PUSH1 0x20 ADD SWAP2 PUSH2 0xCAA JUMP JUMPDEST DUP3 ADD SWAP2 SWAP1 PUSH1 0x0 MSTORE PUSH1 0x20 PUSH1 0x0 KECCAK256 SWAP1 JUMPDEST DUP2 SLOAD DUP2 MSTORE SWAP1 PUSH1 0x1 ADD SWAP1 PUSH1 0x20 ADD DUP1 DUP4 GT PUSH2 0xC8D JUMPI DUP3 SWAP1 SUB PUSH1 0x1F AND DUP3 ADD SWAP2 JUMPDEST POP POP POP POP POP SWAP1 DUP1 PUSH1 0x1 ADD DUP1 SLOAD PUSH2 0xCBF SWAP1 PUSH2 0x2185 JUMP JUMPDEST DUP1 PUSH1 0x1F ADD PUSH1 0x20 DUP1 SWAP2 DIV MUL PUSH1 0x20 ADD PUSH1 0x40 MLOAD SWAP1 DUP2 ADD PUSH1 0x40 MSTORE DUP1 SWAP3 SWAP2 SWAP1 DUP2 DUP2 MSTORE PUSH1 0x20 ADD DUP3 DUP1 SLOAD PUSH2 0xCEB SWAP1 PUSH2 0x2185 JUMP JUMPDEST DUP1 ISZERO PUSH2 0xD38 JUMPI DUP1 PUSH1 0x1F LT PUSH2 0xD0D JUMPI PUSH2 0x100 DUP1 DUP4 SLOAD DIV MUL DUP4 MSTORE SWAP2 PUSH1 0x20 ADD SWAP2 PUSH2 0xD38 JUMP JUMPDEST DUP3 ADD SWAP2 SWAP1 PUSH1 0x0 MSTORE PUSH1 0x20 PUSH1 0x0 KECCAK256 SWAP1 JUMPDEST DUP2 SLOAD DUP2 MSTORE SWAP1 PUSH1 0x1 ADD SWAP1 PUSH1 0x20 ADD DUP1 DUP4 GT PUSH2 0xD1B JUMPI DUP3 SWAP1 SUB PUSH1 0x1F AND DUP3 ADD SWAP2 JUMPDEST POP POP POP POP POP SWAP1 POP DUP3 JUMP JUMPDEST DUP1 PUSH1 0x5 PUSH1 0x0 CALLER PUSH20 0xFFFFFFFFFFFFFFFFFFFFFFFFFFFFFFFFFFFFFFFF AND PUSH20 0xFFFFFFFFFFFFFFFFFFFFFFFFFFFFFFFFFFFFFFFF AND DUP2 MSTORE PUSH1 0x20 ADD SWAP1 DUP2 MSTORE PUSH1 0x20 ADD PUSH1 0x0 KECCAK256 PUSH1 0x0 DUP3 DUP3 SLOAD PUSH2 0xD91 SWAP2 SWAP1 PUSH2 0x197A JUMP JUMPDEST SWAP3 POP POP DUP2 SWAP1 SSTORE POP DUP1 PUSH1 0x3 PUSH1 0x0 DUP3 DUP3 SLOAD PUSH2 0xDAA SWAP2 SWAP1 PUSH2 0x197A JUMP JUMPDEST SWAP3 POP POP DUP2 SWAP1 SSTORE POP POP JUMP JUMPDEST PUSH1 0x0 PUSH1 0x5 PUSH1 0x0 DUP4 PUSH20 0xFFFFFFFFFFFFFFFFFFFFFFFFFFFFFFFFFFFFFFFF AND PUSH20 0xFFFFFFFFFFFFFFFFFFFFFFFFFFFFFFFFFFFFFFFF AND DUP2 MSTORE PUSH1 0x20 ADD SWAP1 DUP2 MSTORE PUSH1 0x20 ADD PUSH1 0x0 KECCAK256 SLOAD SWAP1 POP SWAP2 SWAP1 POP JUMP JUMPDEST PUSH1 0x60 PUSH1 0xB DUP1 SLOAD DUP1 PUSH1 0x20 MUL PUSH1 0x20 ADD PUSH1 0x40 MLOAD SWAP1 DUP2 ADD PUSH1 0x40 MSTORE DUP1 SWAP3 SWAP2 SWAP1 DUP2 DUP2 MSTORE PUSH1 0x20 ADD PUSH1 0x0 SWAP1 JUMPDEST DUP3 DUP3 LT ISZERO PUSH2 0xEA5 JUMPI DUP4 DUP3 SWAP1 PUSH1 0x0 MSTORE PUSH1 0x20 PUSH1 0x0 KECCAK256 ADD PUSH1 0x40 MLOAD DUP1 PUSH1 0x20 ADD PUSH1 0x40 MSTORE SWAP1 DUP2 PUSH1 0x0 DUP3 ADD PUSH1 0x0 SWAP1 SLOAD SWAP1 PUSH2 0x100 EXP SWAP1 DIV PUSH20 0xFFFFFFFFFFFFFFFFFFFFFFFFFFFFFFFFFFFFFFFF AND PUSH20 0xFFFFFFFFFFFFFFFFFFFFFFFFFFFFFFFFFFFFFFFF AND PUSH20 0xFFFFFFFFFFFFFFFFFFFFFFFFFFFFFFFFFFFFFFFF AND DUP2 MSTORE POP POP DUP2 MSTORE PUSH1 0x20 ADD SWAP1 PUSH1 0x1 ADD SWAP1 PUSH2 0xE21 JUMP JUMPDEST POP POP POP POP SWAP1 POP SWAP1 JUMP JUMPDEST PUSH1 0x60 PUSH1 0xA PUSH1 0x0 CALLER PUSH20 0xFFFFFFFFFFFFFFFFFFFFFFFFFFFFFFFFFFFFFFFF AND PUSH20 0xFFFFFFFFFFFFFFFFFFFFFFFFFFFFFFFFFFFFFFFF AND DUP2 MSTORE PUSH1 0x20 ADD SWAP1 DUP2 MSTORE PUSH1 0x20 ADD PUSH1 0x0 KECCAK256 DUP1 SLOAD DUP1 PUSH1 0x20 MUL PUSH1 0x20 ADD PUSH1 0x40 MLOAD SWAP1 DUP2 ADD PUSH1 0x40 MSTORE DUP1 SWAP3 SWAP2 SWAP1 DUP2 DUP2 MSTORE PUSH1 0x20 ADD PUSH1 0x0 SWAP1 JUMPDEST DUP3 DUP3 LT ISZERO PUSH2 0x1065 JUMPI DUP4 DUP3 SWAP1 PUSH1 0x0 MSTORE PUSH1 0x20 PUSH1 0x0 KECCAK256 SWAP1 PUSH1 0x2 MUL ADD PUSH1 0x40 MLOAD DUP1 PUSH1 0x40 ADD PUSH1 0x40 MSTORE SWAP1 DUP2 PUSH1 0x0 DUP3 ADD DUP1 SLOAD PUSH2 0xF42 SWAP1 PUSH2 0x2185 JUMP JUMPDEST DUP1 PUSH1 0x1F ADD PUSH1 0x20 DUP1 SWAP2 DIV MUL PUSH1 0x20 ADD PUSH1 0x40 MLOAD SWAP1 DUP2 ADD PUSH1 0x40 MSTORE DUP1 SWAP3 SWAP2 SWAP1 DUP2 DUP2 MSTORE PUSH1 0x20 ADD DUP3 DUP1 SLOAD PUSH2 0xF6E SWAP1 PUSH2 0x2185 JUMP JUMPDEST DUP1 ISZERO PUSH2 0xFBB JUMPI DUP1 PUSH1 0x1F LT PUSH2 0xF90 JUMPI PUSH2 0x100 DUP1 DUP4 SLOAD DIV MUL DUP4 MSTORE SWAP2 PUSH1 0x20 ADD SWAP2 PUSH2 0xFBB JUMP JUMPDEST DUP3 ADD SWAP2 SWAP1 PUSH1 0x0 MSTORE PUSH1 0x20 PUSH1 0x0 KECCAK256 SWAP1 JUMPDEST DUP2 SLOAD DUP2 MSTORE SWAP1 PUSH1 0x1 ADD SWAP1 PUSH1 0x20 ADD DUP1 DUP4 GT PUSH2 0xF9E JUMPI DUP3 SWAP1 SUB PUSH1 0x1F AND DUP3 ADD SWAP2 JUMPDEST POP POP POP POP POP DUP2 MSTORE PUSH1 0x20 ADD PUSH1 0x1 DUP3 ADD DUP1 SLOAD PUSH2 0xFD4 SWAP1 PUSH2 0x2185 JUMP JUMPDEST DUP1 PUSH1 0x1F ADD PUSH1 0x20 DUP1 SWAP2 DIV MUL PUSH1 0x20 ADD PUSH1 0x40 MLOAD SWAP1 DUP2 ADD PUSH1 0x40 MSTORE DUP1 SWAP3 SWAP2 SWAP1 DUP2 DUP2 MSTORE PUSH1 0x20 ADD DUP3 DUP1 SLOAD PUSH2 0x1000 SWAP1 PUSH2 0x2185 JUMP JUMPDEST DUP1 ISZERO PUSH2 0x104D JUMPI DUP1 PUSH1 0x1F LT PUSH2 0x1022 JUMPI PUSH2 0x100 DUP1 DUP4 SLOAD DIV MUL DUP4 MSTORE SWAP2 PUSH1 0x20 ADD SWAP2 PUSH2 0x104D JUMP JUMPDEST DUP3 ADD SWAP2 SWAP1 PUSH1 0x0 MSTORE PUSH1 0x20 PUSH1 0x0 KECCAK256 SWAP1 JUMPDEST DUP2 SLOAD DUP2 MSTORE SWAP1 PUSH1 0x1 ADD SWAP1 PUSH1 0x20 ADD DUP1 DUP4 GT PUSH2 0x1030 JUMPI DUP3 SWAP1 SUB PUSH1 0x1F AND DUP3 ADD SWAP2 JUMPDEST POP POP POP POP POP DUP2 MSTORE POP POP DUP2 MSTORE PUSH1 0x20 ADD SWAP1 PUSH1 0x1 ADD SWAP1 PUSH2 0xF0F JUMP JUMPDEST POP POP POP POP SWAP1 POP SWAP1 JUMP JUMPDEST PUSH1 0x1 DUP1 SLOAD PUSH2 0x107B SWAP1 PUSH2 0x2185 JUMP JUMPDEST DUP1 PUSH1 0x1F ADD PUSH1 0x20 DUP1 SWAP2 DIV MUL PUSH1 0x20 ADD PUSH1 0x40 MLOAD SWAP1 DUP2 ADD PUSH1 0x40 MSTORE DUP1 SWAP3 SWAP2 SWAP1 DUP2 DUP2 MSTORE PUSH1 0x20 ADD DUP3 DUP1 SLOAD PUSH2 0x10A7 SWAP1 PUSH2 0x2185 JUMP JUMPDEST DUP1 ISZERO PUSH2 0x10F4 JUMPI DUP1 PUSH1 0x1F LT PUSH2 0x10C9 JUMPI PUSH2 0x100 DUP1 DUP4 SLOAD DIV MUL DUP4 MSTORE SWAP2 PUSH1 0x20 ADD SWAP2 PUSH2 0x10F4 JUMP JUMPDEST DUP3 ADD SWAP2 SWAP1 PUSH1 0x0 MSTORE PUSH1 0x20 PUSH1 0x0 KECCAK256 SWAP1 JUMPDEST DUP2 SLOAD DUP2 MSTORE SWAP1 PUSH1 0x1 ADD SWAP1 PUSH1 0x20 ADD DUP1 DUP4 GT PUSH2 0x10D7 JUMPI DUP3 SWAP1 SUB PUSH1 0x1F AND DUP3 ADD SWAP2 JUMPDEST POP POP POP POP POP DUP2 JUMP JUMPDEST PUSH1 0x0 DUP2 PUSH1 0x5 PUSH1 0x0 CALLER PUSH20 0xFFFFFFFFFFFFFFFFFFFFFFFFFFFFFFFFFFFFFFFF AND PUSH20 0xFFFFFFFFFFFFFFFFFFFFFFFFFFFFFFFFFFFFFFFF AND DUP2 MSTORE PUSH1 0x20 ADD SWAP1 DUP2 MSTORE PUSH1 0x20 ADD PUSH1 0x0 KECCAK256 PUSH1 0x0 DUP3 DUP3 SLOAD PUSH2 0x114D SWAP2 SWAP1 PUSH2 0x197A JUMP JUMPDEST SWAP3 POP POP DUP2 SWAP1 SSTORE POP DUP2 PUSH1 0x5 PUSH1 0x0 DUP6 PUSH20 0xFFFFFFFFFFFFFFFFFFFFFFFFFFFFFFFFFFFFFFFF AND PUSH20 0xFFFFFFFFFFFFFFFFFFFFFFFFFFFFFFFFFFFFFFFF AND DUP2 MSTORE PUSH1 0x20 ADD SWAP1 DUP2 MSTORE PUSH1 0x20 ADD PUSH1 0x0 KECCAK256 PUSH1 0x0 DUP3 DUP3 SLOAD PUSH2 0x11A3 SWAP2 SWAP1 PUSH2 0x19AE JUMP JUMPDEST SWAP3 POP POP DUP2 SWAP1 SSTORE POP PUSH1 0x1 SWAP1 POP SWAP3 SWAP2 POP POP JUMP JUMPDEST PUSH1 0x7 SLOAD PUSH1 0x5 PUSH1 0x0 CALLER PUSH20 0xFFFFFFFFFFFFFFFFFFFFFFFFFFFFFFFFFFFFFFFF AND PUSH20 0xFFFFFFFFFFFFFFFFFFFFFFFFFFFFFFFFFFFFFFFF AND DUP2 MSTORE PUSH1 0x20 ADD SWAP1 DUP2 MSTORE PUSH1 0x20 ADD PUSH1 0x0 KECCAK256 SLOAD LT ISZERO PUSH2 0x1202 JUMPI PUSH1 0x0 DUP1 REVERT JUMPDEST PUSH1 0x7 SLOAD PUSH1 0x5 PUSH1 0x0 CALLER PUSH20 0xFFFFFFFFFFFFFFFFFFFFFFFFFFFFFFFFFFFFFFFF AND PUSH20 0xFFFFFFFFFFFFFFFFFFFFFFFFFFFFFFFFFFFFFFFF AND DUP2 MSTORE PUSH1 0x20 ADD SWAP1 DUP2 MSTORE PUSH1 0x20 ADD PUSH1 0x0 KECCAK256 PUSH1 0x0 DUP3 DUP3 SLOAD PUSH2 0x1253 SWAP2 SWAP1 PUSH2 0x197A JUMP JUMPDEST SWAP3 POP POP DUP2 SWAP1 SSTORE POP PUSH1 0x7 SLOAD PUSH1 0x3 PUSH1 0x0 DUP3 DUP3 SLOAD PUSH2 0x126E SWAP2 SWAP1 PUSH2 0x197A JUMP JUMPDEST SWAP3 POP POP DUP2 SWAP1 SSTORE POP PUSH1 0x0 TIMESTAMP COINBASE NUMBER PUSH1 0x40 MLOAD PUSH1 0x20 ADD PUSH2 0x128C SWAP4 SWAP3 SWAP2 SWAP1 PUSH2 0x2231 JUMP JUMPDEST PUSH1 0x40 MLOAD PUSH1 0x20 DUP2 DUP4 SUB SUB DUP2 MSTORE SWAP1 PUSH1 0x40 MSTORE DUP1 MLOAD SWAP1 PUSH1 0x20 ADD KECCAK256 PUSH1 0x0 SHR SWAP1 POP PUSH1 0x3 DUP2 PUSH2 0x12B4 SWAP2 SWAP1 PUSH2 0x229D JUMP JUMPDEST SWAP1 POP PUSH1 0xA PUSH1 0x0 CALLER PUSH20 0xFFFFFFFFFFFFFFFFFFFFFFFFFFFFFFFFFFFFFFFF AND PUSH20 0xFFFFFFFFFFFFFFFFFFFFFFFFFFFFFFFFFFFFFFFF AND DUP2 MSTORE PUSH1 0x20 ADD SWAP1 DUP2 MSTORE PUSH1 0x20 ADD PUSH1 0x0 KECCAK256 PUSH1 0x40 MLOAD DUP1 PUSH1 0x40 ADD PUSH1 0x40 MSTORE DUP1 PUSH1 0x9 DUP5 DUP2 SLOAD DUP2 LT PUSH2 0x1314 JUMPI PUSH2 0x1313 PUSH2 0x22CE JUMP JUMPDEST JUMPDEST SWAP1 PUSH1 0x0 MSTORE PUSH1 0x20 PUSH1 0x0 KECCAK256 ADD DUP1 SLOAD PUSH2 0x1329 SWAP1 PUSH2 0x2185 JUMP JUMPDEST DUP1 PUSH1 0x1F ADD PUSH1 0x20 DUP1 SWAP2 DIV MUL PUSH1 0x20 ADD PUSH1 0x40 MLOAD SWAP1 DUP2 ADD PUSH1 0x40 MSTORE DUP1 SWAP3 SWAP2 SWAP1 DUP2 DUP2 MSTORE PUSH1 0x20 ADD DUP3 DUP1 SLOAD PUSH2 0x1355 SWAP1 PUSH2 0x2185 JUMP JUMPDEST DUP1 ISZERO PUSH2 0x13A2 JUMPI DUP1 PUSH1 0x1F LT PUSH2 0x1377 JUMPI PUSH2 0x100 DUP1 DUP4 SLOAD DIV MUL DUP4 MSTORE SWAP2 PUSH1 0x20 ADD SWAP2 PUSH2 0x13A2 JUMP JUMPDEST DUP3 ADD SWAP2 SWAP1 PUSH1 0x0 MSTORE PUSH1 0x20 PUSH1 0x0 KECCAK256 SWAP1 JUMPDEST DUP2 SLOAD DUP2 MSTORE SWAP1 PUSH1 0x1 ADD SWAP1 PUSH1 0x20 ADD DUP1 DUP4 GT PUSH2 0x1385 JUMPI DUP3 SWAP1 SUB PUSH1 0x1F AND DUP3 ADD SWAP2 JUMPDEST POP POP POP POP POP DUP2 MSTORE PUSH1 0x20 ADD PUSH1 0x8 DUP5 DUP2 SLOAD DUP2 LT PUSH2 0x13C0 JUMPI PUSH2 0x13BF PUSH2 0x22CE JUMP JUMPDEST JUMPDEST SWAP1 PUSH1 0x0 MSTORE PUSH1 0x20 PUSH1 0x0 KECCAK256 ADD DUP1 SLOAD PUSH2 0x13D5 SWAP1 PUSH2 0x2185 JUMP JUMPDEST DUP1 PUSH1 0x1F ADD PUSH1 0x20 DUP1 SWAP2 DIV MUL PUSH1 0x20 ADD PUSH1 0x40 MLOAD SWAP1 DUP2 ADD PUSH1 0x40 MSTORE DUP1 SWAP3 SWAP2 SWAP1 DUP2 DUP2 MSTORE PUSH1 0x20 ADD DUP3 DUP1 SLOAD PUSH2 0x1401 SWAP1 PUSH2 0x2185 JUMP JUMPDEST DUP1 ISZERO PUSH2 0x144E JUMPI DUP1 PUSH1 0x1F LT PUSH2 0x1423 JUMPI PUSH2 0x100 DUP1 DUP4 SLOAD DIV MUL DUP4 MSTORE SWAP2 PUSH1 0x20 ADD SWAP2 PUSH2 0x144E JUMP JUMPDEST DUP3 ADD SWAP2 SWAP1 PUSH1 0x0 MSTORE PUSH1 0x20 PUSH1 0x0 KECCAK256 SWAP1 JUMPDEST DUP2 SLOAD DUP2 MSTORE SWAP1 PUSH1 0x1 ADD SWAP1 PUSH1 0x20 ADD DUP1 DUP4 GT PUSH2 0x1431 JUMPI DUP3 SWAP1 SUB PUSH1 0x1F AND DUP3 ADD SWAP2 JUMPDEST POP POP POP POP POP DUP2 MSTORE POP SWAP1 DUP1 PUSH1 0x1 DUP2 SLOAD ADD DUP1 DUP3 SSTORE DUP1 SWAP2 POP POP PUSH1 0x1 SWAP1 SUB SWAP1 PUSH1 0x0 MSTORE PUSH1 0x20 PUSH1 0x0 KECCAK256 SWAP1 PUSH1 0x2 MUL ADD PUSH1 0x0 SWAP1 SWAP2 SWAP1 SWAP2 SWAP1 SWAP2 POP PUSH1 0x0 DUP3 ADD MLOAD DUP2 PUSH1 0x0 ADD SWAP1 DUP2 PUSH2 0x1494 SWAP2 SWAP1 PUSH2 0x24A9 JUMP JUMPDEST POP PUSH1 0x20 DUP3 ADD MLOAD DUP2 PUSH1 0x1 ADD SWAP1 DUP2 PUSH2 0x14AA SWAP2 SWAP1 PUSH2 0x24A9 JUMP JUMPDEST POP POP POP PUSH1 0x0 DUP1 JUMPDEST PUSH1 0xB DUP1 SLOAD SWAP1 POP DUP2 LT ISZERO PUSH2 0x154E JUMPI CALLER PUSH20 0xFFFFFFFFFFFFFFFFFFFFFFFFFFFFFFFFFFFFFFFF AND PUSH1 0xB DUP3 DUP2 SLOAD DUP2 LT PUSH2 0x14E9 JUMPI PUSH2 0x14E8 PUSH2 0x22CE JUMP JUMPDEST JUMPDEST SWAP1 PUSH1 0x0 MSTORE PUSH1 0x20 PUSH1 0x0 KECCAK256 ADD PUSH1 0x0 ADD PUSH1 0x0 SWAP1 SLOAD SWAP1 PUSH2 0x100 EXP SWAP1 DIV PUSH20 0xFFFFFFFFFFFFFFFFFFFFFFFFFFFFFFFFFFFFFFFF AND PUSH20 0xFFFFFFFFFFFFFFFFFFFFFFFFFFFFFFFFFFFFFFFF AND SUB PUSH2 0x153B JUMPI PUSH1 0x1 SWAP2 POP PUSH2 0x154E JUMP JUMPDEST DUP1 DUP1 PUSH2 0x1546 SWAP1 PUSH2 0x257B JUMP JUMPDEST SWAP2 POP POP PUSH2 0x14B1 JUMP JUMPDEST POP DUP1 PUSH2 0x15EA JUMPI PUSH1 0xB PUSH1 0x40 MLOAD DUP1 PUSH1 0x20 ADD PUSH1 0x40 MSTORE DUP1 CALLER PUSH20 0xFFFFFFFFFFFFFFFFFFFFFFFFFFFFFFFFFFFFFFFF AND DUP2 MSTORE POP SWAP1 DUP1 PUSH1 0x1 DUP2 SLOAD ADD DUP1 DUP3 SSTORE DUP1 SWAP2 POP POP PUSH1 0x1 SWAP1 SUB SWAP1 PUSH1 0x0 MSTORE PUSH1 0x20 PUSH1 0x0 KECCAK256 ADD PUSH1 0x0 SWAP1 SWAP2 SWAP1 SWAP2 SWAP1 SWAP2 POP PUSH1 0x0 DUP3 ADD MLOAD DUP2 PUSH1 0x0 ADD PUSH1 0x0 PUSH2 0x100 EXP DUP2 SLOAD DUP2 PUSH20 0xFFFFFFFFFFFFFFFFFFFFFFFFFFFFFFFFFFFFFFFF MUL NOT AND SWAP1 DUP4 PUSH20 0xFFFFFFFFFFFFFFFFFFFFFFFFFFFFFFFFFFFFFFFF AND MUL OR SWAP1 SSTORE POP POP POP JUMPDEST POP POP JUMP JUMPDEST PUSH1 0x60 PUSH1 0x0 PUSH1 0xA PUSH1 0x0 CALLER PUSH20 0xFFFFFFFFFFFFFFFFFFFFFFFFFFFFFFFFFFFFFFFF AND PUSH20 0xFFFFFFFFFFFFFFFFFFFFFFFFFFFFFFFFFFFFFFFF AND DUP2 MSTORE PUSH1 0x20 ADD SWAP1 DUP2 MSTORE PUSH1 0x20 ADD PUSH1 0x0 KECCAK256 SWAP1 POP PUSH1 0xA PUSH1 0x0 CALLER PUSH20 0xFFFFFFFFFFFFFFFFFFFFFFFFFFFFFFFFFFFFFFFF AND PUSH20 0xFFFFFFFFFFFFFFFFFFFFFFFFFFFFFFFFFFFFFFFF AND DUP2 MSTORE PUSH1 0x20 ADD SWAP1 DUP2 MSTORE PUSH1 0x20 ADD PUSH1 0x0 KECCAK256 DUP1 SLOAD DUP1 PUSH2 0x1682 JUMPI PUSH2 0x1681 PUSH2 0x25C3 JUMP JUMPDEST JUMPDEST PUSH1 0x1 SWAP1 SUB DUP2 DUP2 SWAP1 PUSH1 0x0 MSTORE PUSH1 0x20 PUSH1 0x0 KECCAK256 SWAP1 PUSH1 0x2 MUL ADD PUSH1 0x0 DUP1 DUP3 ADD PUSH1 0x0 PUSH2 0x16A7 SWAP2 SWAP1 PUSH2 0x18A2 JUMP JUMPDEST PUSH1 0x1 DUP3 ADD PUSH1 0x0 PUSH2 0x16B7 SWAP2 SWAP1 PUSH2 0x18A2 JUMP JUMPDEST POP POP SWAP1 SSTORE PUSH1 0xA PUSH1 0x0 CALLER PUSH20 0xFFFFFFFFFFFFFFFFFFFFFFFFFFFFFFFFFFFFFFFF AND PUSH20 0xFFFFFFFFFFFFFFFFFFFFFFFFFFFFFFFFFFFFFFFF AND DUP2 MSTORE PUSH1 0x20 ADD SWAP1 DUP2 MSTORE PUSH1 0x20 ADD PUSH1 0x0 KECCAK256 DUP1 SLOAD DUP1 PUSH1 0x20 MUL PUSH1 0x20 ADD PUSH1 0x40 MLOAD SWAP1 DUP2 ADD PUSH1 0x40 MSTORE DUP1 SWAP3 SWAP2 SWAP1 DUP2 DUP2 MSTORE PUSH1 0x20 ADD PUSH1 0x0 SWAP1 JUMPDEST DUP3 DUP3 LT ISZERO PUSH2 0x1870 JUMPI DUP4 DUP3 SWAP1 PUSH1 0x0 MSTORE PUSH1 0x20 PUSH1 0x0 KECCAK256 SWAP1 PUSH1 0x2 MUL ADD PUSH1 0x40 MLOAD DUP1 PUSH1 0x40 ADD PUSH1 0x40 MSTORE SWAP1 DUP2 PUSH1 0x0 DUP3 ADD DUP1 SLOAD PUSH2 0x174D SWAP1 PUSH2 0x2185 JUMP JUMPDEST DUP1 PUSH1 0x1F ADD PUSH1 0x20 DUP1 SWAP2 DIV MUL PUSH1 0x20 ADD PUSH1 0x40 MLOAD SWAP1 DUP2 ADD PUSH1 0x40 MSTORE DUP1 SWAP3 SWAP2 SWAP1 DUP2 DUP2 MSTORE PUSH1 0x20 ADD DUP3 DUP1 SLOAD PUSH2 0x1779 SWAP1 PUSH2 0x2185 JUMP JUMPDEST DUP1 ISZERO PUSH2 0x17C6 JUMPI DUP1 PUSH1 0x1F LT PUSH2 0x179B JUMPI PUSH2 0x100 DUP1 DUP4 SLOAD DIV MUL DUP4 MSTORE SWAP2 PUSH1 0x20 ADD SWAP2 PUSH2 0x17C6 JUMP JUMPDEST DUP3 ADD SWAP2 SWAP1 PUSH1 0x0 MSTORE PUSH1 0x20 PUSH1 0x0 KECCAK256 SWAP1 JUMPDEST DUP2 SLOAD DUP2 MSTORE SWAP1 PUSH1 0x1 ADD SWAP1 PUSH1 0x20 ADD DUP1 DUP4 GT PUSH2 0x17A9 JUMPI DUP3 SWAP1 SUB PUSH1 0x1F AND DUP3 ADD SWAP2 JUMPDEST POP POP POP POP POP DUP2 MSTORE PUSH1 0x20 ADD PUSH1 0x1 DUP3 ADD DUP1 SLOAD PUSH2 0x17DF SWAP1 PUSH2 0x2185 JUMP JUMPDEST DUP1 PUSH1 0x1F ADD PUSH1 0x20 DUP1 SWAP2 DIV MUL PUSH1 0x20 ADD PUSH1 0x40 MLOAD SWAP1 DUP2 ADD PUSH1 0x40 MSTORE DUP1 SWAP3 SWAP2 SWAP1 DUP2 DUP2 MSTORE PUSH1 0x20 ADD DUP3 DUP1 SLOAD PUSH2 0x180B SWAP1 PUSH2 0x2185 JUMP JUMPDEST DUP1 ISZERO PUSH2 0x1858 JUMPI DUP1 PUSH1 0x1F LT PUSH2 0x182D JUMPI PUSH2 0x100 DUP1 DUP4 SLOAD DIV MUL DUP4 MSTORE SWAP2 PUSH1 0x20 ADD SWAP2 PUSH2 0x1858 JUMP JUMPDEST DUP3 ADD SWAP2 SWAP1 PUSH1 0x0 MSTORE PUSH1 0x20 PUSH1 0x0 KECCAK256 SWAP1 JUMPDEST DUP2 SLOAD DUP2 MSTORE SWAP1 PUSH1 0x1 ADD SWAP1 PUSH1 0x20 ADD DUP1 DUP4 GT PUSH2 0x183B JUMPI DUP3 SWAP1 SUB PUSH1 0x1F AND DUP3 ADD SWAP2 JUMPDEST POP POP POP POP POP DUP2 MSTORE POP POP DUP2 MSTORE PUSH1 0x20 ADD SWAP1 PUSH1 0x1 ADD SWAP1 PUSH2 0x171A JUMP JUMPDEST POP POP POP POP SWAP2 POP POP SWAP3 SWAP2 POP POP JUMP JUMPDEST PUSH1 0x6 PUSH1 0x20 MSTORE DUP2 PUSH1 0x0 MSTORE PUSH1 0x40 PUSH1 0x0 KECCAK256 PUSH1 0x20 MSTORE DUP1 PUSH1 0x0 MSTORE PUSH1 0x40 PUSH1 0x0 KECCAK256 PUSH1 0x0 SWAP2 POP SWAP2 POP POP SLOAD DUP2 JUMP JUMPDEST POP DUP1 SLOAD PUSH2 0x18AE SWAP1 PUSH2 0x2185 JUMP JUMPDEST PUSH1 0x0 DUP3 SSTORE DUP1 PUSH1 0x1F LT PUSH2 0x18C0 JUMPI POP PUSH2 0x18DF JUMP JUMPDEST PUSH1 0x1F ADD PUSH1 0x20 SWAP1 DIV SWAP1 PUSH1 0x0 MSTORE PUSH1 0x20 PUSH1 0x0 KECCAK256 SWAP1 DUP2 ADD SWAP1 PUSH2 0x18DE SWAP2 SWAP1 PUSH2 0x18E2 JUMP JUMPDEST JUMPDEST POP JUMP JUMPDEST JUMPDEST DUP1 DUP3 GT ISZERO PUSH2 0x18FB JUMPI PUSH1 0x0 DUP2 PUSH1 0x0 SWAP1 SSTORE POP PUSH1 0x1 ADD PUSH2 0x18E3 JUMP JUMPDEST POP SWAP1 JUMP JUMPDEST PUSH1 0x0 DUP2 SWAP1 POP SWAP2 SWAP1 POP JUMP JUMPDEST PUSH32 0x4E487B7100000000000000000000000000000000000000000000000000000000 PUSH1 0x0 MSTORE PUSH1 0x11 PUSH1 0x4 MSTORE PUSH1 0x24 PUSH1 0x0 REVERT JUMPDEST PUSH1 0x0 PUSH2 0x1943 DUP3 PUSH2 0x18FF JUMP JUMPDEST SWAP2 POP PUSH2 0x194E DUP4 PUSH2 0x18FF JUMP JUMPDEST SWAP3 POP DUP3 DUP3 MUL PUSH2 0x195C DUP2 PUSH2 0x18FF JUMP JUMPDEST SWAP2 POP DUP3 DUP3 DIV DUP5 EQ DUP4 ISZERO OR PUSH2 0x1973 JUMPI PUSH2 0x1972 PUSH2 0x1909 JUMP JUMPDEST JUMPDEST POP SWAP3 SWAP2 POP POP JUMP JUMPDEST PUSH1 0x0 PUSH2 0x1985 DUP3 PUSH2 0x18FF JUMP JUMPDEST SWAP2 POP PUSH2 0x1990 DUP4 PUSH2 0x18FF JUMP JUMPDEST SWAP3 POP DUP3 DUP3 SUB SWAP1 POP DUP2 DUP2 GT ISZERO PUSH2 0x19A8 JUMPI PUSH2 0x19A7 PUSH2 0x1909 JUMP JUMPDEST JUMPDEST SWAP3 SWAP2 POP POP JUMP JUMPDEST PUSH1 0x0 PUSH2 0x19B9 DUP3 PUSH2 0x18FF JUMP JUMPDEST SWAP2 POP PUSH2 0x19C4 DUP4 PUSH2 0x18FF JUMP JUMPDEST SWAP3 POP DUP3 DUP3 ADD SWAP1 POP DUP1 DUP3 GT ISZERO PUSH2 0x19DC JUMPI PUSH2 0x19DB PUSH2 0x1909 JUMP JUMPDEST JUMPDEST SWAP3 SWAP2 POP POP JUMP JUMPDEST PUSH1 0x0 DUP2 MLOAD SWAP1 POP SWAP2 SWAP1 POP JUMP JUMPDEST PUSH1 0x0 DUP3 DUP3 MSTORE PUSH1 0x20 DUP3 ADD SWAP1 POP SWAP3 SWAP2 POP POP JUMP JUMPDEST PUSH1 0x0 JUMPDEST DUP4 DUP2 LT ISZERO PUSH2 0x1A1C JUMPI DUP1 DUP3 ADD MLOAD DUP2 DUP5 ADD MSTORE PUSH1 0x20 DUP2 ADD SWAP1 POP PUSH2 0x1A01 JUMP JUMPDEST PUSH1 0x0 DUP5 DUP5 ADD MSTORE POP POP POP POP JUMP JUMPDEST PUSH1 0x0 PUSH1 0x1F NOT PUSH1 0x1F DUP4 ADD AND SWAP1 POP SWAP2 SWAP1 POP JUMP JUMPDEST PUSH1 0x0 PUSH2 0x1A44 DUP3 PUSH2 0x19E2 JUMP JUMPDEST PUSH2 0x1A4E DUP2 DUP6 PUSH2 0x19ED JUMP JUMPDEST SWAP4 POP PUSH2 0x1A5E DUP2 DUP6 PUSH1 0x20 DUP7 ADD PUSH2 0x19FE JUMP JUMPDEST PUSH2 0x1A67 DUP2 PUSH2 0x1A28 JUMP JUMPDEST DUP5 ADD SWAP2 POP POP SWAP3 SWAP2 POP POP JUMP JUMPDEST PUSH1 0x0 PUSH1 0x20 DUP3 ADD SWAP1 POP DUP2 DUP2 SUB PUSH1 0x0 DUP4 ADD MSTORE PUSH2 0x1A8C DUP2 DUP5 PUSH2 0x1A39 JUMP JUMPDEST SWAP1 POP SWAP3 SWAP2 POP POP JUMP JUMPDEST PUSH1 0x0 PUSH1 0x40 MLOAD SWAP1 POP SWAP1 JUMP JUMPDEST PUSH1 0x0 DUP1 REVERT JUMPDEST PUSH1 0x0 DUP1 REVERT JUMPDEST PUSH1 0x0 PUSH20 0xFFFFFFFFFFFFFFFFFFFFFFFFFFFFFFFFFFFFFFFF DUP3 AND SWAP1 POP SWAP2 SWAP1 POP JUMP JUMPDEST PUSH1 0x0 PUSH2 0x1AD3 DUP3 PUSH2 0x1AA8 JUMP JUMPDEST SWAP1 POP SWAP2 SWAP1 POP JUMP JUMPDEST PUSH2 0x1AE3 DUP2 PUSH2 0x1AC8 JUMP JUMPDEST DUP2 EQ PUSH2 0x1AEE JUMPI PUSH1 0x0 DUP1 REVERT JUMPDEST POP JUMP JUMPDEST PUSH1 0x0 DUP2 CALLDATALOAD SWAP1 POP PUSH2 0x1B00 DUP2 PUSH2 0x1ADA JUMP JUMPDEST SWAP3 SWAP2 POP POP JUMP JUMPDEST PUSH2 0x1B0F DUP2 PUSH2 0x18FF JUMP JUMPDEST DUP2 EQ PUSH2 0x1B1A JUMPI PUSH1 0x0 DUP1 REVERT JUMPDEST POP JUMP JUMPDEST PUSH1 0x0 DUP2 CALLDATALOAD SWAP1 POP PUSH2 0x1B2C DUP2 PUSH2 0x1B06 JUMP JUMPDEST SWAP3 SWAP2 POP POP JUMP JUMPDEST PUSH1 0x0 DUP1 PUSH1 0x40 DUP4 DUP6 SUB SLT ISZERO PUSH2 0x1B49 JUMPI PUSH2 0x1B48 PUSH2 0x1A9E JUMP JUMPDEST JUMPDEST PUSH1 0x0 PUSH2 0x1B57 DUP6 DUP3 DUP7 ADD PUSH2 0x1AF1 JUMP JUMPDEST SWAP3 POP POP PUSH1 0x20 PUSH2 0x1B68 DUP6 DUP3 DUP7 ADD PUSH2 0x1B1D JUMP JUMPDEST SWAP2 POP POP SWAP3 POP SWAP3 SWAP1 POP JUMP JUMPDEST PUSH1 0x0 DUP2 ISZERO ISZERO SWAP1 POP SWAP2 SWAP1 POP JUMP JUMPDEST PUSH2 0x1B87 DUP2 PUSH2 0x1B72 JUMP JUMPDEST DUP3 MSTORE POP POP JUMP JUMPDEST PUSH1 0x0 PUSH1 0x20 DUP3 ADD SWAP1 POP PUSH2 0x1BA2 PUSH1 0x0 DUP4 ADD DUP5 PUSH2 0x1B7E JUMP JUMPDEST SWAP3 SWAP2 POP POP JUMP JUMPDEST PUSH1 0x0 DUP2 MLOAD SWAP1 POP SWAP2 SWAP1 POP JUMP JUMPDEST PUSH1 0x0 DUP3 DUP3 MSTORE PUSH1 0x20 DUP3 ADD SWAP1 POP SWAP3 SWAP2 POP POP JUMP JUMPDEST PUSH1 0x0 DUP2 SWAP1 POP PUSH1 0x20 DUP3 ADD SWAP1 POP SWAP2 SWAP1 POP JUMP JUMPDEST PUSH1 0x0 DUP3 DUP3 MSTORE PUSH1 0x20 DUP3 ADD SWAP1 POP SWAP3 SWAP2 POP POP JUMP JUMPDEST PUSH1 0x0 PUSH2 0x1BF0 DUP3 PUSH2 0x19E2 JUMP JUMPDEST PUSH2 0x1BFA DUP2 DUP6 PUSH2 0x1BD4 JUMP JUMPDEST SWAP4 POP PUSH2 0x1C0A DUP2 DUP6 PUSH1 0x20 DUP7 ADD PUSH2 0x19FE JUMP JUMPDEST PUSH2 0x1C13 DUP2 PUSH2 0x1A28 JUMP JUMPDEST DUP5 ADD SWAP2 POP POP SWAP3 SWAP2 POP POP JUMP JUMPDEST PUSH1 0x0 PUSH1 0x40 DUP4 ADD PUSH1 0x0 DUP4 ADD MLOAD DUP5 DUP3 SUB PUSH1 0x0 DUP7 ADD MSTORE PUSH2 0x1C3B DUP3 DUP3 PUSH2 0x1BE5 JUMP JUMPDEST SWAP2 POP POP PUSH1 0x20 DUP4 ADD MLOAD DUP5 DUP3 SUB PUSH1 0x20 DUP7 ADD MSTORE PUSH2 0x1C55 DUP3 DUP3 PUSH2 0x1BE5 JUMP JUMPDEST SWAP2 POP POP DUP1 SWAP2 POP POP SWAP3 SWAP2 POP POP JUMP JUMPDEST PUSH1 0x0 PUSH2 0x1C6E DUP4 DUP4 PUSH2 0x1C1E JUMP JUMPDEST SWAP1 POP SWAP3 SWAP2 POP POP JUMP JUMPDEST PUSH1 0x0 PUSH1 0x20 DUP3 ADD SWAP1 POP SWAP2 SWAP1 POP JUMP JUMPDEST PUSH1 0x0 PUSH2 0x1C8E DUP3 PUSH2 0x1BA8 JUMP JUMPDEST PUSH2 0x1C98 DUP2 DUP6 PUSH2 0x1BB3 JUMP JUMPDEST SWAP4 POP DUP4 PUSH1 0x20 DUP3 MUL DUP6 ADD PUSH2 0x1CAA DUP6 PUSH2 0x1BC4 JUMP JUMPDEST DUP1 PUSH1 0x0 JUMPDEST DUP6 DUP2 LT ISZERO PUSH2 0x1CE6 JUMPI DUP5 DUP5 SUB DUP10 MSTORE DUP2 MLOAD PUSH2 0x1CC7 DUP6 DUP3 PUSH2 0x1C62 JUMP JUMPDEST SWAP5 POP PUSH2 0x1CD2 DUP4 PUSH2 0x1C76 JUMP JUMPDEST SWAP3 POP PUSH1 0x20 DUP11 ADD SWAP10 POP POP PUSH1 0x1 DUP2 ADD SWAP1 POP PUSH2 0x1CAE JUMP JUMPDEST POP DUP3 SWAP8 POP DUP8 SWAP6 POP POP POP POP POP POP SWAP3 SWAP2 POP POP JUMP JUMPDEST PUSH1 0x0 PUSH1 0x20 DUP3 ADD SWAP1 POP DUP2 DUP2 SUB PUSH1 0x0 DUP4 ADD MSTORE PUSH2 0x1D12 DUP2 DUP5 PUSH2 0x1C83 JUMP JUMPDEST SWAP1 POP SWAP3 SWAP2 POP POP JUMP JUMPDEST PUSH2 0x1D23 DUP2 PUSH2 0x18FF JUMP JUMPDEST DUP3 MSTORE POP POP JUMP JUMPDEST PUSH1 0x0 PUSH1 0x20 DUP3 ADD SWAP1 POP PUSH2 0x1D3E PUSH1 0x0 DUP4 ADD DUP5 PUSH2 0x1D1A JUMP JUMPDEST SWAP3 SWAP2 POP POP JUMP JUMPDEST PUSH1 0x0 DUP1 PUSH1 0x0 PUSH1 0x60 DUP5 DUP7 SUB SLT ISZERO PUSH2 0x1D5D JUMPI PUSH2 0x1D5C PUSH2 0x1A9E JUMP JUMPDEST JUMPDEST PUSH1 0x0 PUSH2 0x1D6B DUP7 DUP3 DUP8 ADD PUSH2 0x1AF1 JUMP JUMPDEST SWAP4 POP POP PUSH1 0x20 PUSH2 0x1D7C DUP7 DUP3 DUP8 ADD PUSH2 0x1AF1 JUMP JUMPDEST SWAP3 POP POP PUSH1 0x40 PUSH2 0x1D8D DUP7 DUP3 DUP8 ADD PUSH2 0x1B1D JUMP JUMPDEST SWAP2 POP POP SWAP3 POP SWAP3 POP SWAP3 JUMP JUMPDEST PUSH1 0x0 PUSH1 0x20 DUP3 DUP5 SUB SLT ISZERO PUSH2 0x1DAD JUMPI PUSH2 0x1DAC PUSH2 0x1A9E JUMP JUMPDEST JUMPDEST PUSH1 0x0 PUSH2 0x1DBB DUP5 DUP3 DUP6 ADD PUSH2 0x1AF1 JUMP JUMPDEST SWAP2 POP POP SWAP3 SWAP2 POP POP JUMP JUMPDEST PUSH1 0x0 PUSH1 0xFF DUP3 AND SWAP1 POP SWAP2 SWAP1 POP JUMP JUMPDEST PUSH2 0x1DDA DUP2 PUSH2 0x1DC4 JUMP JUMPDEST DUP3 MSTORE POP POP JUMP JUMPDEST PUSH1 0x0 PUSH1 0x20 DUP3 ADD SWAP1 POP PUSH2 0x1DF5 PUSH1 0x0 DUP4 ADD DUP5 PUSH2 0x1DD1 JUMP JUMPDEST SWAP3 SWAP2 POP POP JUMP JUMPDEST PUSH1 0x0 PUSH1 0x20 DUP3 DUP5 SUB SLT ISZERO PUSH2 0x1E11 JUMPI PUSH2 0x1E10 PUSH2 0x1A9E JUMP JUMPDEST JUMPDEST PUSH1 0x0 PUSH2 0x1E1F DUP5 DUP3 DUP6 ADD PUSH2 0x1B1D JUMP JUMPDEST SWAP2 POP POP SWAP3 SWAP2 POP POP JUMP JUMPDEST PUSH2 0x1E31 DUP2 PUSH2 0x1AC8 JUMP JUMPDEST DUP3 MSTORE POP POP JUMP JUMPDEST PUSH1 0x0 PUSH1 0x20 DUP3 ADD SWAP1 POP PUSH2 0x1E4C PUSH1 0x0 DUP4 ADD DUP5 PUSH2 0x1E28 JUMP JUMPDEST SWAP3 SWAP2 POP POP JUMP JUMPDEST PUSH1 0x0 PUSH1 0x40 DUP3 ADD SWAP1 POP DUP2 DUP2 SUB PUSH1 0x0 DUP4 ADD MSTORE PUSH2 0x1E6C DUP2 DUP6 PUSH2 0x1A39 JUMP JUMPDEST SWAP1 POP DUP2 DUP2 SUB PUSH1 0x20 DUP4 ADD MSTORE PUSH2 0x1E80 DUP2 DUP5 PUSH2 0x1A39 JUMP JUMPDEST SWAP1 POP SWAP4 SWAP3 POP POP POP JUMP JUMPDEST PUSH1 0x0 DUP2 MLOAD SWAP1 POP SWAP2 SWAP1 POP JUMP JUMPDEST PUSH1 0x0 DUP3 DUP3 MSTORE PUSH1 0x20 DUP3 ADD SWAP1 POP SWAP3 SWAP2 POP POP JUMP JUMPDEST PUSH1 0x0 DUP2 SWAP1 POP PUSH1 0x20 DUP3 ADD SWAP1 POP SWAP2 SWAP1 POP JUMP JUMPDEST PUSH2 0x1EBE DUP2 PUSH2 0x1AC8 JUMP JUMPDEST DUP3 MSTORE POP POP JUMP JUMPDEST PUSH1 0x20 DUP3 ADD PUSH1 0x0 DUP3 ADD MLOAD PUSH2 0x1EDA PUSH1 0x0 DUP6 ADD DUP3 PUSH2 0x1EB5 JUMP JUMPDEST POP POP POP POP JUMP JUMPDEST PUSH1 0x0 PUSH2 0x1EEC DUP4 DUP4 PUSH2 0x1EC4 JUMP JUMPDEST PUSH1 0x20 DUP4 ADD SWAP1 POP SWAP3 SWAP2 POP POP JUMP JUMPDEST PUSH1 0x0 PUSH1 0x20 DUP3 ADD SWAP1 POP SWAP2 SWAP1 POP JUMP JUMPDEST PUSH1 0x0 PUSH2 0x1F10 DUP3 PUSH2 0x1E89 JUMP JUMPDEST PUSH2 0x1F1A DUP2 DUP6 PUSH2 0x1E94 JUMP JUMPDEST SWAP4 POP PUSH2 0x1F25 DUP4 PUSH2 0x1EA5 JUMP JUMPDEST DUP1 PUSH1 0x0 JUMPDEST DUP4 DUP2 LT ISZERO PUSH2 0x1F56 JUMPI DUP2 MLOAD PUSH2 0x1F3D DUP9 DUP3 PUSH2 0x1EE0 JUMP JUMPDEST SWAP8 POP PUSH2 0x1F48 DUP4 PUSH2 0x1EF8 JUMP JUMPDEST SWAP3 POP POP PUSH1 0x1 DUP2 ADD SWAP1 POP PUSH2 0x1F29 JUMP JUMPDEST POP DUP6 SWAP4 POP POP POP POP SWAP3 SWAP2 POP POP JUMP JUMPDEST PUSH1 0x0 PUSH1 0x20 DUP3 ADD SWAP1 POP DUP2 DUP2 SUB PUSH1 0x0 DUP4 ADD MSTORE PUSH2 0x1F7D DUP2 DUP5 PUSH2 0x1F05 JUMP JUMPDEST SWAP1 POP SWAP3 SWAP2 POP POP JUMP JUMPDEST PUSH1 0x0 DUP1 REVERT JUMPDEST PUSH1 0x0 DUP1 REVERT JUMPDEST PUSH32 0x4E487B7100000000000000000000000000000000000000000000000000000000 PUSH1 0x0 MSTORE PUSH1 0x41 PUSH1 0x4 MSTORE PUSH1 0x24 PUSH1 0x0 REVERT JUMPDEST PUSH2 0x1FC7 DUP3 PUSH2 0x1A28 JUMP JUMPDEST DUP2 ADD DUP2 DUP2 LT PUSH8 0xFFFFFFFFFFFFFFFF DUP3 GT OR ISZERO PUSH2 0x1FE6 JUMPI PUSH2 0x1FE5 PUSH2 0x1F8F JUMP JUMPDEST JUMPDEST DUP1 PUSH1 0x40 MSTORE POP POP POP JUMP JUMPDEST PUSH1 0x0 PUSH2 0x1FF9 PUSH2 0x1A94 JUMP JUMPDEST SWAP1 POP PUSH2 0x2005 DUP3 DUP3 PUSH2 0x1FBE JUMP JUMPDEST SWAP2 SWAP1 POP JUMP JUMPDEST PUSH1 0x0 PUSH8 0xFFFFFFFFFFFFFFFF DUP3 GT ISZERO PUSH2 0x2025 JUMPI PUSH2 0x2024 PUSH2 0x1F8F JUMP JUMPDEST JUMPDEST PUSH2 0x202E DUP3 PUSH2 0x1A28 JUMP JUMPDEST SWAP1 POP PUSH1 0x20 DUP2 ADD SWAP1 POP SWAP2 SWAP1 POP JUMP JUMPDEST DUP3 DUP2 DUP4 CALLDATACOPY PUSH1 0x0 DUP4 DUP4 ADD MSTORE POP POP POP JUMP JUMPDEST PUSH1 0x0 PUSH2 0x205D PUSH2 0x2058 DUP5 PUSH2 0x200A JUMP JUMPDEST PUSH2 0x1FEF JUMP JUMPDEST SWAP1 POP DUP3 DUP2 MSTORE PUSH1 0x20 DUP2 ADD DUP5 DUP5 DUP5 ADD GT ISZERO PUSH2 0x2079 JUMPI PUSH2 0x2078 PUSH2 0x1F8A JUMP JUMPDEST JUMPDEST PUSH2 0x2084 DUP5 DUP3 DUP6 PUSH2 0x203B JUMP JUMPDEST POP SWAP4 SWAP3 POP POP POP JUMP JUMPDEST PUSH1 0x0 DUP3 PUSH1 0x1F DUP4 ADD SLT PUSH2 0x20A1 JUMPI PUSH2 0x20A0 PUSH2 0x1F85 JUMP JUMPDEST JUMPDEST DUP2 CALLDATALOAD PUSH2 0x20B1 DUP5 DUP3 PUSH1 0x20 DUP7 ADD PUSH2 0x204A JUMP JUMPDEST SWAP2 POP POP SWAP3 SWAP2 POP POP JUMP JUMPDEST PUSH1 0x0 DUP1 PUSH1 0x40 DUP4 DUP6 SUB SLT ISZERO PUSH2 0x20D1 JUMPI PUSH2 0x20D0 PUSH2 0x1A9E JUMP JUMPDEST JUMPDEST PUSH1 0x0 PUSH2 0x20DF DUP6 DUP3 DUP7 ADD PUSH2 0x1AF1 JUMP JUMPDEST SWAP3 POP POP PUSH1 0x20 DUP4 ADD CALLDATALOAD PUSH8 0xFFFFFFFFFFFFFFFF DUP2 GT ISZERO PUSH2 0x2100 JUMPI PUSH2 0x20FF PUSH2 0x1AA3 JUMP JUMPDEST JUMPDEST PUSH2 0x210C DUP6 DUP3 DUP7 ADD PUSH2 0x208C JUMP JUMPDEST SWAP2 POP POP SWAP3 POP SWAP3 SWAP1 POP JUMP JUMPDEST PUSH1 0x0 DUP1 PUSH1 0x40 DUP4 DUP6 SUB SLT ISZERO PUSH2 0x212D JUMPI PUSH2 0x212C PUSH2 0x1A9E JUMP JUMPDEST JUMPDEST PUSH1 0x0 PUSH2 0x213B DUP6 DUP3 DUP7 ADD PUSH2 0x1AF1 JUMP JUMPDEST SWAP3 POP POP PUSH1 0x20 PUSH2 0x214C DUP6 DUP3 DUP7 ADD PUSH2 0x1AF1 JUMP JUMPDEST SWAP2 POP POP SWAP3 POP SWAP3 SWAP1 POP JUMP JUMPDEST PUSH32 0x4E487B7100000000000000000000000000000000000000000000000000000000 PUSH1 0x0 MSTORE PUSH1 0x22 PUSH1 0x4 MSTORE PUSH1 0x24 PUSH1 0x0 REVERT JUMPDEST PUSH1 0x0 PUSH1 0x2 DUP3 DIV SWAP1 POP PUSH1 0x1 DUP3 AND DUP1 PUSH2 0x219D JUMPI PUSH1 0x7F DUP3 AND SWAP2 POP JUMPDEST PUSH1 0x20 DUP3 LT DUP2 SUB PUSH2 0x21B0 JUMPI PUSH2 0x21AF PUSH2 0x2156 JUMP JUMPDEST JUMPDEST POP SWAP2 SWAP1 POP JUMP JUMPDEST PUSH1 0x0 DUP2 SWAP1 POP SWAP2 SWAP1 POP JUMP JUMPDEST PUSH2 0x21D1 PUSH2 0x21CC DUP3 PUSH2 0x18FF JUMP JUMPDEST PUSH2 0x21B6 JUMP JUMPDEST DUP3 MSTORE POP POP JUMP JUMPDEST PUSH1 0x0 PUSH2 0x21E2 DUP3 PUSH2 0x1AA8 JUMP JUMPDEST SWAP1 POP SWAP2 SWAP1 POP JUMP JUMPDEST PUSH1 0x0 DUP2 PUSH1 0x60 SHL SWAP1 POP SWAP2 SWAP1 POP JUMP JUMPDEST PUSH1 0x0 PUSH2 0x2201 DUP3 PUSH2 0x21E9 JUMP JUMPDEST SWAP1 POP SWAP2 SWAP1 POP JUMP JUMPDEST PUSH1 0x0 PUSH2 0x2213 DUP3 PUSH2 0x21F6 JUMP JUMPDEST SWAP1 POP SWAP2 SWAP1 POP JUMP JUMPDEST PUSH2 0x222B PUSH2 0x2226 DUP3 PUSH2 0x21D7 JUMP JUMPDEST PUSH2 0x2208 JUMP JUMPDEST DUP3 MSTORE POP POP JUMP JUMPDEST PUSH1 0x0 PUSH2 0x223D DUP3 DUP7 PUSH2 0x21C0 JUMP JUMPDEST PUSH1 0x20 DUP3 ADD SWAP2 POP PUSH2 0x224D DUP3 DUP6 PUSH2 0x221A JUMP JUMPDEST PUSH1 0x14 DUP3 ADD SWAP2 POP PUSH2 0x225D DUP3 DUP5 PUSH2 0x21C0 JUMP JUMPDEST PUSH1 0x20 DUP3 ADD SWAP2 POP DUP2 SWAP1 POP SWAP5 SWAP4 POP POP POP POP JUMP JUMPDEST PUSH32 0x4E487B7100000000000000000000000000000000000000000000000000000000 PUSH1 0x0 MSTORE PUSH1 0x12 PUSH1 0x4 MSTORE PUSH1 0x24 PUSH1 0x0 REVERT JUMPDEST PUSH1 0x0 PUSH2 0x22A8 DUP3 PUSH2 0x18FF JUMP JUMPDEST SWAP2 POP PUSH2 0x22B3 DUP4 PUSH2 0x18FF JUMP JUMPDEST SWAP3 POP DUP3 PUSH2 0x22C3 JUMPI PUSH2 0x22C2 PUSH2 0x226E JUMP JUMPDEST JUMPDEST DUP3 DUP3 MOD SWAP1 POP SWAP3 SWAP2 POP POP JUMP JUMPDEST PUSH32 0x4E487B7100000000000000000000000000000000000000000000000000000000 PUSH1 0x0 MSTORE PUSH1 0x32 PUSH1 0x4 MSTORE PUSH1 0x24 PUSH1 0x0 REVERT JUMPDEST PUSH1 0x0 DUP2 SWAP1 POP DUP2 PUSH1 0x0 MSTORE PUSH1 0x20 PUSH1 0x0 KECCAK256 SWAP1 POP SWAP2 SWAP1 POP JUMP JUMPDEST PUSH1 0x0 PUSH1 0x20 PUSH1 0x1F DUP4 ADD DIV SWAP1 POP SWAP2 SWAP1 POP JUMP JUMPDEST PUSH1 0x0 DUP3 DUP3 SHL SWAP1 POP SWAP3 SWAP2 POP POP JUMP JUMPDEST PUSH1 0x0 PUSH1 0x8 DUP4 MUL PUSH2 0x235F PUSH32 0xFFFFFFFFFFFFFFFFFFFFFFFFFFFFFFFFFFFFFFFFFFFFFFFFFFFFFFFFFFFFFFFF DUP3 PUSH2 0x2322 JUMP JUMPDEST PUSH2 0x2369 DUP7 DUP4 PUSH2 0x2322 JUMP JUMPDEST SWAP6 POP DUP1 NOT DUP5 AND SWAP4 POP DUP1 DUP7 AND DUP5 OR SWAP3 POP POP POP SWAP4 SWAP3 POP POP POP JUMP JUMPDEST PUSH1 0x0 DUP2 SWAP1 POP SWAP2 SWAP1 POP JUMP JUMPDEST PUSH1 0x0 PUSH2 0x23A6 PUSH2 0x23A1 PUSH2 0x239C DUP5 PUSH2 0x18FF JUMP JUMPDEST PUSH2 0x2381 JUMP JUMPDEST PUSH2 0x18FF JUMP JUMPDEST SWAP1 POP SWAP2 SWAP1 POP JUMP JUMPDEST PUSH1 0x0 DUP2 SWAP1 POP SWAP2 SWAP1 POP JUMP JUMPDEST PUSH2 0x23C0 DUP4 PUSH2 0x238B JUMP JUMPDEST PUSH2 0x23D4 PUSH2 0x23CC DUP3 PUSH2 0x23AD JUMP JUMPDEST DUP5 DUP5 SLOAD PUSH2 0x232F JUMP JUMPDEST DUP3 SSTORE POP POP POP POP JUMP JUMPDEST PUSH1 0x0 SWAP1 JUMP JUMPDEST PUSH2 0x23E9 PUSH2 0x23DC JUMP JUMPDEST PUSH2 0x23F4 DUP2 DUP5 DUP5 PUSH2 0x23B7 JUMP JUMPDEST POP POP POP JUMP JUMPDEST JUMPDEST DUP2 DUP2 LT ISZERO PUSH2 0x2418 JUMPI PUSH2 0x240D PUSH1 0x0 DUP3 PUSH2 0x23E1 JUMP JUMPDEST PUSH1 0x1 DUP2 ADD SWAP1 POP PUSH2 0x23FA JUMP JUMPDEST POP POP JUMP JUMPDEST PUSH1 0x1F DUP3 GT ISZERO PUSH2 0x245D JUMPI PUSH2 0x242E DUP2 PUSH2 0x22FD JUMP JUMPDEST PUSH2 0x2437 DUP5 PUSH2 0x2312 JUMP JUMPDEST DUP2 ADD PUSH1 0x20 DUP6 LT ISZERO PUSH2 0x2446 JUMPI DUP2 SWAP1 POP JUMPDEST PUSH2 0x245A PUSH2 0x2452 DUP6 PUSH2 0x2312 JUMP JUMPDEST DUP4 ADD DUP3 PUSH2 0x23F9 JUMP JUMPDEST POP POP JUMPDEST POP POP POP JUMP JUMPDEST PUSH1 0x0 DUP3 DUP3 SHR SWAP1 POP SWAP3 SWAP2 POP POP JUMP JUMPDEST PUSH1 0x0 PUSH2 0x2480 PUSH1 0x0 NOT DUP5 PUSH1 0x8 MUL PUSH2 0x2462 JUMP JUMPDEST NOT DUP1 DUP4 AND SWAP2 POP POP SWAP3 SWAP2 POP POP JUMP JUMPDEST PUSH1 0x0 PUSH2 0x2499 DUP4 DUP4 PUSH2 0x246F JUMP JUMPDEST SWAP2 POP DUP3 PUSH1 0x2 MUL DUP3 OR SWAP1 POP SWAP3 SWAP2 POP POP JUMP JUMPDEST PUSH2 0x24B2 DUP3 PUSH2 0x19E2 JUMP JUMPDEST PUSH8 0xFFFFFFFFFFFFFFFF DUP2 GT ISZERO PUSH2 0x24CB JUMPI PUSH2 0x24CA PUSH2 0x1F8F JUMP JUMPDEST JUMPDEST PUSH2 0x24D5 DUP3 SLOAD PUSH2 0x2185 JUMP JUMPDEST PUSH2 0x24E0 DUP3 DUP3 DUP6 PUSH2 0x241C JUMP JUMPDEST PUSH1 0x0 PUSH1 0x20 SWAP1 POP PUSH1 0x1F DUP4 GT PUSH1 0x1 DUP2 EQ PUSH2 0x2513 JUMPI PUSH1 0x0 DUP5 ISZERO PUSH2 0x2501 JUMPI DUP3 DUP8 ADD MLOAD SWAP1 POP JUMPDEST PUSH2 0x250B DUP6 DUP3 PUSH2 0x248D JUMP JUMPDEST DUP7 SSTORE POP PUSH2 0x2573 JUMP JUMPDEST PUSH1 0x1F NOT DUP5 AND PUSH2 0x2521 DUP7 PUSH2 0x22FD JUMP JUMPDEST PUSH1 0x0 JUMPDEST DUP3 DUP2 LT ISZERO PUSH2 0x2549 JUMPI DUP5 DUP10 ADD MLOAD DUP3 SSTORE PUSH1 0x1 DUP3 ADD SWAP2 POP PUSH1 0x20 DUP6 ADD SWAP5 POP PUSH1 0x20 DUP2 ADD SWAP1 POP PUSH2 0x2524 JUMP JUMPDEST DUP7 DUP4 LT ISZERO PUSH2 0x2566 JUMPI DUP5 DUP10 ADD MLOAD PUSH2 0x2562 PUSH1 0x1F DUP10 AND DUP3 PUSH2 0x246F JUMP JUMPDEST DUP4 SSTORE POP JUMPDEST PUSH1 0x1 PUSH1 0x2 DUP9 MUL ADD DUP9 SSTORE POP POP POP JUMPDEST POP POP POP POP POP POP JUMP JUMPDEST PUSH1 0x0 PUSH2 0x2586 DUP3 PUSH2 0x18FF JUMP JUMPDEST SWAP2 POP PUSH32 0xFFFFFFFFFFFFFFFFFFFFFFFFFFFFFFFFFFFFFFFFFFFFFFFFFFFFFFFFFFFFFFFF DUP3 SUB PUSH2 0x25B8 JUMPI PUSH2 0x25B7 PUSH2 0x1909 JUMP JUMPDEST JUMPDEST PUSH1 0x1 DUP3 ADD SWAP1 POP SWAP2 SWAP1 POP JUMP JUMPDEST PUSH32 0x4E487B7100000000000000000000000000000000000000000000000000000000 PUSH1 0x0 MSTORE PUSH1 0x31 PUSH1 0x4 MSTORE PUSH1 0x24 PUSH1 0x0 REVERT INVALID LOG2 PUSH5 0x6970667358 0x22 SLT KECCAK256 0xE4 0x24 0xC6 0xAD 0xB1 ADDMOD PUSH17 0x8E27118A4E692BC2D2FC660D27E59B6573 SWAP6 0x24 0xB1 PUSH22 0x2AC9E73764736F6C6343000813003368747470733A2F 0x2F PUSH14 0x626C6F677468756D622D7068696E PUSH7 0x2E707374617469 PUSH4 0x2E6E6574 0x2F 0x4D PUSH11 0x41784E7A41304D7A42664D SLOAD COINBASE PUSH27 0x2F4D4441784E446B7A4E544D7A4E5459794F546B332E574C6A536F COINBASE PUSH11 0x354B614252693557623169 PUSH27 0x51586C6D6C686A4866377977484A6458625748456B6C6451672E4B CALLDATASIZE CALLVALUE PUSH9 0x7853764550594B6573 ORIGIN PUSH17 0x41786F724B79466157554D434E704C504B BALANCE ORIGIN PUSH21 0x7277376573334F34672E4749462E756E7472693036 ORIGIN CALLVALUE 0x2F BALANCE CALLVALUE CODESIZE CODESIZE CODECOPY CODESIZE CALLER CALLDATASIZE ORIGIN CALLDATASIZE BALANCE CALLVALUE CODESIZE 0x2E SELFBALANCE 0x49 CHAINID EXTCODEHASH PUSH21 0x7970653D7738303068747470733A2F2F692E6E616D PUSH22 0x2E77696B692F692F502D41444A424D56786355777952 CHAINID SELFBALANCE CODESIZE PUSH13 0x63656B794B4358767778304C6A 0x4E PUSH20 0x69426A44554B4233383569793257436E586F2D5A PUSH20 0x54565032564548365F717A534F654A796B4E6474 MSTORE BASEFEE PUSH14 0x484D6B6D51474647672E67696668 PUSH21 0x7470733A2F2F692E6E616D752E77696B692F692F38 BASEFEE PUSH20 0x4B596751415F576F414F616B496E4D774278554A PC 0x4A PUSH24 0x59424135324375474645456A6E7478426F626C3455685F44 CALLVALUE PUSH17 0x714279426C5F6170365864736F79486145 PUSH23 0x4F456E6D377755732D587742662D48672E676966000000 "
				},
				"gasEstimates": {
					"creation": {
						"codeDepositCost": "1953600",
						"executionCost": "infinite",
						"totalCost": "infinite"
					},
					"external": {
						"allowance(address,address)": "infinite",
						"approve(address,uint256)": "23169",
						"balanceOf(address)": "2886",
						"balances(address)": "2859",
						"burn(uint256)": "infinite",
						"buyPokemon()": "infinite",
						"checkapprove()": "infinite",
						"decimals()": "2538",
						"getPokemon()": "infinite",
						"getPokemonUsers()": "infinite",
						"name()": "infinite",
						"pokemons(address,uint256)": "infinite",
						"symbol()": "infinite",
						"totalSupply()": "2519",
						"transfer(address,uint256)": "infinite",
						"transferFrom(address,address,uint256)": "infinite",
						"transferPokemon(address,string)": "infinite",
						"users(uint256)": "5070"
					}
				},
				"methodIdentifiers": {
					"allowance(address,address)": "dd62ed3e",
					"approve(address,uint256)": "095ea7b3",
					"balanceOf(address)": "70a08231",
					"balances(address)": "27e235e3",
					"burn(uint256)": "42966c68",
					"buyPokemon()": "c78bc15f",
					"checkapprove()": "11d58b02",
					"decimals()": "313ce567",
					"getPokemon()": "87e24c72",
					"getPokemonUsers()": "868babb0",
					"name()": "06fdde03",
					"pokemons(address,uint256)": "36e60477",
					"symbol()": "95d89b41",
					"totalSupply()": "18160ddd",
					"transfer(address,uint256)": "a9059cbb",
					"transferFrom(address,address,uint256)": "23b872dd",
					"transferPokemon(address,string)": "d310b249",
					"users(uint256)": "365b98b2"
				}
			},
			"storageLayout": {
				"storage": [
					{
						"astId": 6,
						"contract": "contracts/Pokemon.sol:Pokemon",
						"label": "name",
						"offset": 0,
						"slot": "0",
						"type": "t_string_storage"
					},
					{
						"astId": 8,
						"contract": "contracts/Pokemon.sol:Pokemon",
						"label": "symbol",
						"offset": 0,
						"slot": "1",
						"type": "t_string_storage"
					},
					{
						"astId": 11,
						"contract": "contracts/Pokemon.sol:Pokemon",
						"label": "decimals",
						"offset": 0,
						"slot": "2",
						"type": "t_uint8"
					},
					{
						"astId": 14,
						"contract": "contracts/Pokemon.sol:Pokemon",
						"label": "totalSupply",
						"offset": 0,
						"slot": "3",
						"type": "t_uint256"
					},
					{
						"astId": 16,
						"contract": "contracts/Pokemon.sol:Pokemon",
						"label": "owner",
						"offset": 0,
						"slot": "4",
						"type": "t_address"
					},
					{
						"astId": 20,
						"contract": "contracts/Pokemon.sol:Pokemon",
						"label": "balances",
						"offset": 0,
						"slot": "5",
						"type": "t_mapping(t_address,t_uint256)"
					},
					{
						"astId": 27,
						"contract": "contracts/Pokemon.sol:Pokemon",
						"label": "allowance",
						"offset": 0,
						"slot": "6",
						"type": "t_mapping(t_address,t_mapping(t_address,t_uint256))"
					},
					{
						"astId": 323,
						"contract": "contracts/Pokemon.sol:Pokemon",
						"label": "tokenPrice",
						"offset": 0,
						"slot": "7",
						"type": "t_uint256"
					},
					{
						"astId": 330,
						"contract": "contracts/Pokemon.sol:Pokemon",
						"label": "pokemonName",
						"offset": 0,
						"slot": "8",
						"type": "t_array(t_string_storage)dyn_storage"
					},
					{
						"astId": 337,
						"contract": "contracts/Pokemon.sol:Pokemon",
						"label": "pokemonUrl",
						"offset": 0,
						"slot": "9",
						"type": "t_array(t_string_storage)dyn_storage"
					},
					{
						"astId": 350,
						"contract": "contracts/Pokemon.sol:Pokemon",
						"label": "pokemons",
						"offset": 0,
						"slot": "10",
						"type": "t_mapping(t_address,t_array(t_struct(Pokens)317_storage)dyn_storage)"
					},
					{
						"astId": 354,
						"contract": "contracts/Pokemon.sol:Pokemon",
						"label": "users",
						"offset": 0,
						"slot": "11",
						"type": "t_array(t_struct(Users)320_storage)dyn_storage"
					}
				],
				"types": {
					"t_address": {
						"encoding": "inplace",
						"label": "address",
						"numberOfBytes": "20"
					},
					"t_array(t_string_storage)dyn_storage": {
						"base": "t_string_storage",
						"encoding": "dynamic_array",
						"label": "string[]",
						"numberOfBytes": "32"
					},
					"t_array(t_struct(Pokens)317_storage)dyn_storage": {
						"base": "t_struct(Pokens)317_storage",
						"encoding": "dynamic_array",
						"label": "struct Pokemon.Pokens[]",
						"numberOfBytes": "32"
					},
					"t_array(t_struct(Users)320_storage)dyn_storage": {
						"base": "t_struct(Users)320_storage",
						"encoding": "dynamic_array",
						"label": "struct Pokemon.Users[]",
						"numberOfBytes": "32"
					},
					"t_mapping(t_address,t_array(t_struct(Pokens)317_storage)dyn_storage)": {
						"encoding": "mapping",
						"key": "t_address",
						"label": "mapping(address => struct Pokemon.Pokens[])",
						"numberOfBytes": "32",
						"value": "t_array(t_struct(Pokens)317_storage)dyn_storage"
					},
					"t_mapping(t_address,t_mapping(t_address,t_uint256))": {
						"encoding": "mapping",
						"key": "t_address",
						"label": "mapping(address => mapping(address => uint256))",
						"numberOfBytes": "32",
						"value": "t_mapping(t_address,t_uint256)"
					},
					"t_mapping(t_address,t_uint256)": {
						"encoding": "mapping",
						"key": "t_address",
						"label": "mapping(address => uint256)",
						"numberOfBytes": "32",
						"value": "t_uint256"
					},
					"t_string_storage": {
						"encoding": "bytes",
						"label": "string",
						"numberOfBytes": "32"
					},
					"t_struct(Pokens)317_storage": {
						"encoding": "inplace",
						"label": "struct Pokemon.Pokens",
						"members": [
							{
								"astId": 314,
								"contract": "contracts/Pokemon.sol:Pokemon",
								"label": "url",
								"offset": 0,
								"slot": "0",
								"type": "t_string_storage"
							},
							{
								"astId": 316,
								"contract": "contracts/Pokemon.sol:Pokemon",
								"label": "name",
								"offset": 0,
								"slot": "1",
								"type": "t_string_storage"
							}
						],
						"numberOfBytes": "64"
					},
					"t_struct(Users)320_storage": {
						"encoding": "inplace",
						"label": "struct Pokemon.Users",
						"members": [
							{
								"astId": 319,
								"contract": "contracts/Pokemon.sol:Pokemon",
								"label": "account",
								"offset": 0,
								"slot": "0",
								"type": "t_address"
							}
						],
						"numberOfBytes": "32"
					},
					"t_uint256": {
						"encoding": "inplace",
						"label": "uint256",
						"numberOfBytes": "32"
					},
					"t_uint8": {
						"encoding": "inplace",
						"label": "uint8",
						"numberOfBytes": "1"
					}
				}
			},
			"userdoc": {
				"kind": "user",
				"methods": {},
				"version": 1
			}
		}
	}
}